{"abi":[{"inputs":[{"internalType":"uint256","name":"expiration","type":"uint256"},{"internalType":"string","name":"tasking_","type":"string"},{"internalType":"string","name":"formatting_","type":"string"},{"internalType":"uint256","name":"minimalLength_","type":"uint256"},{"internalType":"string","name":"minimalResolution_","type":"string"},{"internalType":"string","name":"location_","type":"string"},{"internalType":"address payable","name":"platform_","type":"address"},{"internalType":"address payable","name":"newCustomer","type":"address"}],"stateMutability":"payable","type":"constructor"},{"inputs":[],"name":"acceptDispute","outputs":[],"stateMutability":"nonpayable","type":"function"},{"inputs":[],"name":"acceptProposal","outputs":[],"stateMutability":"payable","type":"function"},{"inputs":[],"name":"closeContract","outputs":[],"stateMutability":"nonpayable","type":"function"},{"inputs":[],"name":"customer","outputs":[{"internalType":"address payable","name":"","type":"address"}],"stateMutability":"view","type":"function"},{"inputs":[],"name":"disputeProposal","outputs":[],"stateMutability":"nonpayable","type":"function"},{"inputs":[],"name":"expires","outputs":[{"internalType":"uint256","name":"","type":"uint256"}],"stateMutability":"view","type":"function"},{"inputs":[],"name":"format","outputs":[{"internalType":"string","name":"","type":"string"}],"stateMutability":"view","type":"function"},{"inputs":[],"name":"getMediaAddresses","outputs":[{"internalType":"string[]","name":"","type":"string[]"}],"stateMutability":"view","type":"function"},{"inputs":[],"name":"getSummary","outputs":[{"internalType":"address","name":"","type":"address"},{"internalType":"address","name":"","type":"address"},{"internalType":"uint256","name":"","type":"uint256"},{"internalType":"string","name":"","type":"string"},{"internalType":"string","name":"","type":"string"},{"internalType":"uint256","name":"","type":"uint256"},{"internalType":"string","name":"","type":"string"},{"internalType":"uint256","name":"","type":"uint256"},{"internalType":"string","name":"","type":"string"},{"internalType":"string","name":"","type":"string"},{"internalType":"string","name":"","type":"string"},{"internalType":"string[]","name":"","type":"string[]"}],"stateMutability":"view","type":"function"},{"inputs":[],"name":"location","outputs":[{"internalType":"string","name":"","type":"string"}],"stateMutability":"view","type":"function"},{"inputs":[{"internalType":"uint256","name":"","type":"uint256"}],"name":"mediaAddresses","outputs":[{"internalType":"string","name":"","type":"string"}],"stateMutability":"view","type":"function"},{"inputs":[],"name":"minimalLength","outputs":[{"internalType":"uint256","name":"","type":"uint256"}],"stateMutability":"view","type":"function"},{"inputs":[],"name":"minimalResolution","outputs":[{"internalType":"string","name":"","type":"string"}],"stateMutability":"view","type":"function"},{"inputs":[],"name":"platform","outputs":[{"internalType":"address payable","name":"","type":"address"}],"stateMutability":"view","type":"function"},{"inputs":[{"internalType":"string[]","name":"addresses","type":"string[]"}],"name":"proposeMedia","outputs":[],"stateMutability":"nonpayable","type":"function"},{"inputs":[],"name":"rejectDispute","outputs":[],"stateMutability":"payable","type":"function"},{"inputs":[{"internalType":"uint256","name":"newExpiration","type":"uint256"}],"name":"renewContract","outputs":[],"stateMutability":"nonpayable","type":"function"},{"inputs":[],"name":"reporter","outputs":[{"internalType":"address payable","name":"","type":"address"}],"stateMutability":"view","type":"function"},{"inputs":[],"name":"specialInstructions","outputs":[{"internalType":"string","name":"","type":"string"}],"stateMutability":"view","type":"function"},{"inputs":[],"name":"status","outputs":[{"internalType":"string","name":"","type":"string"}],"stateMutability":"view","type":"function"},{"inputs":[],"name":"task","outputs":[{"internalType":"string","name":"","type":"string"}],"stateMutability":"view","type":"function"}],"devdoc":{"kind":"dev","methods":{},"version":1},"evm":{"assembly":"    /* \"Contract.sol\":871:4277  contract MediaContract {... */\n  mstore(0x40, 0x80)\n    /* \"Contract.sol\":1258:1777  constructor (... */\n  mload(0x40)\n  sub(codesize, bytecodeSize)\n  dup1\n  bytecodeSize\n  dup4\n  codecopy\n  dup2\n  add\n  0x40\n  dup2\n  swap1\n  mstore\n  tag_1\n  swap2\n  tag_2\n  jump\t// in\ntag_1:\n    /* \"Contract.sol\":1524:1532  customer */\n  0x00\n    /* \"Contract.sol\":1524:1546  customer = newCustomer */\n  dup1\n  sload\n  not(sub(shl(0xa0, 0x01), 0x01))\n  and\n  sub(shl(0xa0, 0x01), 0x01)\n  dup4\n  and\n  or\n  swap1\n  sstore\n    /* \"Contract.sol\":1552:1559  expires */\n  0x05\n    /* \"Contract.sol\":1552:1572  expires = expiration */\n  dup9\n  swap1\n  sstore\n    /* \"Contract.sol\":1578:1582  task */\n  0x03\n    /* \"Contract.sol\":1578:1593  task = tasking_ */\n  tag_5\n    /* \"Contract.sol\":1585:1593  tasking_ */\n  dup9\n    /* \"Contract.sol\":1578:1582  task */\n  dup3\n    /* \"Contract.sol\":1578:1593  task = tasking_ */\n  tag_6\n  jump\t// in\ntag_5:\n  pop\n    /* \"Contract.sol\":1599:1605  format */\n  0x04\n    /* \"Contract.sol\":1599:1619  format = formatting_ */\n  tag_7\n    /* \"Contract.sol\":1608:1619  formatting_ */\n  dup8\n    /* \"Contract.sol\":1599:1605  format */\n  dup3\n    /* \"Contract.sol\":1599:1619  format = formatting_ */\n  tag_6\n  jump\t// in\ntag_7:\n  pop\n    /* \"Contract.sol\":1625:1638  minimalLength */\n  0x07\n    /* \"Contract.sol\":1625:1655  minimalLength = minimalLength_ */\n  dup6\n  swap1\n  sstore\n    /* \"Contract.sol\":1661:1678  minimalResolution */\n  0x09\n    /* \"Contract.sol\":1661:1699  minimalResolution = minimalResolution_ */\n  tag_8\n    /* \"Contract.sol\":1681:1699  minimalResolution_ */\n  dup6\n    /* \"Contract.sol\":1661:1678  minimalResolution */\n  dup3\n    /* \"Contract.sol\":1661:1699  minimalResolution = minimalResolution_ */\n  tag_6\n  jump\t// in\ntag_8:\n  pop\n    /* \"Contract.sol\":1705:1713  location */\n  0x0a\n    /* \"Contract.sol\":1705:1725  location = location_ */\n  tag_9\n    /* \"Contract.sol\":1716:1725  location_ */\n  dup5\n    /* \"Contract.sol\":1705:1713  location */\n  dup3\n    /* \"Contract.sol\":1705:1725  location = location_ */\n  tag_6\n  jump\t// in\ntag_9:\n  pop\n    /* \"Contract.sol\":1731:1739  platform */\n  0x01\n    /* \"Contract.sol\":1731:1751  platform = platform_ */\n  dup1\n  sload\n  not(sub(shl(0xa0, 0x01), 0x01))\n  and\n  sub(shl(0xa0, 0x01), 0x01)\n  dup5\n  and\n  or\n  swap1\n  sstore\n    /* \"Contract.sol\":1757:1772  status = 'open' */\n  0x40\n  dup1\n  mload\n  dup1\n  dup3\n  add\n  swap1\n  swap2\n  mstore\n  0x04\n  dup2\n  mstore\n  shl(0xe1, 0x37b832b7)\n  0x20\n  dup3\n  add\n  mstore\n    /* \"Contract.sol\":1757:1763  status */\n  0x06\n  swap1\n    /* \"Contract.sol\":1757:1772  status = 'open' */\n  tag_10\n  swap1\n    /* \"Contract.sol\":1757:1763  status */\n  dup3\n    /* \"Contract.sol\":1757:1772  status = 'open' */\n  tag_6\n  jump\t// in\ntag_10:\n  pop\n    /* \"Contract.sol\":1258:1777  constructor (... */\n  pop\n  pop\n  pop\n  pop\n  pop\n  pop\n  pop\n  pop\n    /* \"Contract.sol\":871:4277  contract MediaContract {... */\n  jump(tag_19)\n    /* \"#utility.yul\":14:141   */\ntag_12:\n    /* \"#utility.yul\":75:85   */\n  0x4e487b71\n    /* \"#utility.yul\":70:73   */\n  0xe0\n    /* \"#utility.yul\":66:86   */\n  shl\n    /* \"#utility.yul\":63:64   */\n  0x00\n    /* \"#utility.yul\":56:87   */\n  mstore\n    /* \"#utility.yul\":106:110   */\n  0x41\n    /* \"#utility.yul\":103:104   */\n  0x04\n    /* \"#utility.yul\":96:111   */\n  mstore\n    /* \"#utility.yul\":130:134   */\n  0x24\n    /* \"#utility.yul\":127:128   */\n  0x00\n    /* \"#utility.yul\":120:135   */\n  revert\n    /* \"#utility.yul\":146:986   */\ntag_13:\n    /* \"#utility.yul\":200:205   */\n  0x00\n    /* \"#utility.yul\":253:256   */\n  dup3\n    /* \"#utility.yul\":246:250   */\n  0x1f\n    /* \"#utility.yul\":238:244   */\n  dup4\n    /* \"#utility.yul\":234:251   */\n  add\n    /* \"#utility.yul\":230:257   */\n  slt\n    /* \"#utility.yul\":220:275   */\n  tag_22\n  jumpi\n    /* \"#utility.yul\":271:272   */\n  0x00\n    /* \"#utility.yul\":268:269   */\n  dup1\n    /* \"#utility.yul\":261:273   */\n  revert\n    /* \"#utility.yul\":220:275   */\ntag_22:\n    /* \"#utility.yul\":294:307   */\n  dup2\n  mload\n  sub(shl(0x40, 0x01), 0x01)\n    /* \"#utility.yul\":356:366   */\n  dup1\n  dup3\n  gt\n    /* \"#utility.yul\":353:389   */\n  iszero\n  tag_24\n  jumpi\n    /* \"#utility.yul\":369:387   */\n  tag_24\n  tag_12\n  jump\t// in\ntag_24:\n    /* \"#utility.yul\":444:446   */\n  0x40\n    /* \"#utility.yul\":438:447   */\n  mload\n    /* \"#utility.yul\":412:414   */\n  0x1f\n    /* \"#utility.yul\":498:511   */\n  dup4\n  add\n  not(0x1f)\n    /* \"#utility.yul\":494:516   */\n  swap1\n  dup2\n  and\n    /* \"#utility.yul\":518:520   */\n  0x3f\n    /* \"#utility.yul\":490:521   */\n  add\n    /* \"#utility.yul\":486:526   */\n  and\n    /* \"#utility.yul\":474:527   */\n  dup2\n  add\n  swap1\n    /* \"#utility.yul\":542:560   */\n  dup3\n  dup3\n  gt\n    /* \"#utility.yul\":562:584   */\n  dup2\n  dup4\n  lt\n    /* \"#utility.yul\":539:585   */\n  or\n    /* \"#utility.yul\":536:608   */\n  iszero\n  tag_26\n  jumpi\n    /* \"#utility.yul\":588:606   */\n  tag_26\n  tag_12\n  jump\t// in\ntag_26:\n    /* \"#utility.yul\":628:638   */\n  dup2\n    /* \"#utility.yul\":624:626   */\n  0x40\n    /* \"#utility.yul\":617:639   */\n  mstore\n    /* \"#utility.yul\":663:665   */\n  dup4\n    /* \"#utility.yul\":655:661   */\n  dup2\n    /* \"#utility.yul\":648:666   */\n  mstore\n    /* \"#utility.yul\":685:689   */\n  0x20\n    /* \"#utility.yul\":675:689   */\n  swap3\n  pop\n    /* \"#utility.yul\":730:733   */\n  dup7\n    /* \"#utility.yul\":725:727   */\n  dup4\n    /* \"#utility.yul\":720:722   */\n  dup6\n    /* \"#utility.yul\":712:718   */\n  dup9\n    /* \"#utility.yul\":708:723   */\n  add\n    /* \"#utility.yul\":704:728   */\n  add\n    /* \"#utility.yul\":701:734   */\n  gt\n    /* \"#utility.yul\":698:751   */\n  iszero\n  tag_27\n  jumpi\n    /* \"#utility.yul\":747:748   */\n  0x00\n    /* \"#utility.yul\":744:745   */\n  dup1\n    /* \"#utility.yul\":737:749   */\n  revert\n    /* \"#utility.yul\":698:751   */\ntag_27:\n    /* \"#utility.yul\":769:770   */\n  0x00\n    /* \"#utility.yul\":760:770   */\n  swap2\n  pop\n    /* \"#utility.yul\":779:912   */\ntag_28:\n    /* \"#utility.yul\":793:795   */\n  dup4\n    /* \"#utility.yul\":790:791   */\n  dup3\n    /* \"#utility.yul\":787:796   */\n  lt\n    /* \"#utility.yul\":779:912   */\n  iszero\n  tag_30\n  jumpi\n    /* \"#utility.yul\":881:895   */\n  dup6\n  dup3\n  add\n    /* \"#utility.yul\":877:900   */\n  dup4\n  add\n    /* \"#utility.yul\":871:901   */\n  mload\n    /* \"#utility.yul\":850:864   */\n  dup2\n  dup4\n  add\n    /* \"#utility.yul\":846:869   */\n  dup5\n  add\n    /* \"#utility.yul\":839:902   */\n  mstore\n    /* \"#utility.yul\":804:814   */\n  swap1\n  dup3\n  add\n  swap1\n    /* \"#utility.yul\":779:912   */\n  jump(tag_28)\ntag_30:\n    /* \"#utility.yul\":954:955   */\n  0x00\n    /* \"#utility.yul\":932:947   */\n  swap4\n  dup2\n  add\n    /* \"#utility.yul\":928:952   */\n  swap1\n  swap3\n  add\n    /* \"#utility.yul\":921:956   */\n  swap3\n  swap1\n  swap3\n  mstore\n    /* \"#utility.yul\":936:942   */\n  swap5\n    /* \"#utility.yul\":146:986   */\n  swap4\n  pop\n  pop\n  pop\n  pop\n  jump\t// out\n    /* \"#utility.yul\":991:1176   */\ntag_14:\n    /* \"#utility.yul\":1078:1091   */\n  dup1\n  mload\n  sub(shl(0xa0, 0x01), 0x01)\n    /* \"#utility.yul\":1120:1151   */\n  dup2\n  and\n    /* \"#utility.yul\":1110:1152   */\n  dup2\n  eq\n    /* \"#utility.yul\":1100:1170   */\n  tag_32\n  jumpi\n    /* \"#utility.yul\":1166:1167   */\n  0x00\n    /* \"#utility.yul\":1163:1164   */\n  dup1\n    /* \"#utility.yul\":1156:1168   */\n  revert\n    /* \"#utility.yul\":1100:1170   */\ntag_32:\n    /* \"#utility.yul\":991:1176   */\n  swap2\n  swap1\n  pop\n  jump\t// out\n    /* \"#utility.yul\":1181:2480   */\ntag_2:\n    /* \"#utility.yul\":1370:1376   */\n  0x00\n    /* \"#utility.yul\":1378:1384   */\n  dup1\n    /* \"#utility.yul\":1386:1392   */\n  0x00\n    /* \"#utility.yul\":1394:1400   */\n  dup1\n    /* \"#utility.yul\":1402:1408   */\n  0x00\n    /* \"#utility.yul\":1410:1416   */\n  dup1\n    /* \"#utility.yul\":1418:1424   */\n  0x00\n    /* \"#utility.yul\":1426:1432   */\n  dup1\n    /* \"#utility.yul\":1479:1482   */\n  0x0100\n    /* \"#utility.yul\":1467:1476   */\n  dup10\n    /* \"#utility.yul\":1458:1465   */\n  dup12\n    /* \"#utility.yul\":1454:1477   */\n  sub\n    /* \"#utility.yul\":1450:1483   */\n  slt\n    /* \"#utility.yul\":1447:1500   */\n  iszero\n  tag_34\n  jumpi\n    /* \"#utility.yul\":1496:1497   */\n  0x00\n    /* \"#utility.yul\":1493:1494   */\n  dup1\n    /* \"#utility.yul\":1486:1498   */\n  revert\n    /* \"#utility.yul\":1447:1500   */\ntag_34:\n    /* \"#utility.yul\":1519:1535   */\n  dup9\n  mload\n    /* \"#utility.yul\":1579:1581   */\n  0x20\n    /* \"#utility.yul\":1564:1582   */\n  dup11\n  add\n    /* \"#utility.yul\":1558:1583   */\n  mload\n    /* \"#utility.yul\":1519:1535   */\n  swap1\n  swap9\n  pop\n  sub(shl(0x40, 0x01), 0x01)\n    /* \"#utility.yul\":1632:1646   */\n  dup1\n  dup3\n  gt\n    /* \"#utility.yul\":1629:1663   */\n  iszero\n  tag_35\n  jumpi\n    /* \"#utility.yul\":1659:1660   */\n  0x00\n    /* \"#utility.yul\":1656:1657   */\n  dup1\n    /* \"#utility.yul\":1649:1661   */\n  revert\n    /* \"#utility.yul\":1629:1663   */\ntag_35:\n    /* \"#utility.yul\":1682:1743   */\n  tag_36\n    /* \"#utility.yul\":1735:1742   */\n  dup13\n    /* \"#utility.yul\":1726:1732   */\n  dup4\n    /* \"#utility.yul\":1715:1724   */\n  dup14\n    /* \"#utility.yul\":1711:1733   */\n  add\n    /* \"#utility.yul\":1682:1743   */\n  tag_13\n  jump\t// in\ntag_36:\n    /* \"#utility.yul\":1672:1743   */\n  swap9\n  pop\n    /* \"#utility.yul\":1789:1791   */\n  0x40\n    /* \"#utility.yul\":1778:1787   */\n  dup12\n    /* \"#utility.yul\":1774:1792   */\n  add\n    /* \"#utility.yul\":1768:1793   */\n  mload\n    /* \"#utility.yul\":1752:1793   */\n  swap2\n  pop\n    /* \"#utility.yul\":1818:1820   */\n  dup1\n    /* \"#utility.yul\":1808:1816   */\n  dup3\n    /* \"#utility.yul\":1805:1821   */\n  gt\n    /* \"#utility.yul\":1802:1838   */\n  iszero\n  tag_37\n  jumpi\n    /* \"#utility.yul\":1834:1835   */\n  0x00\n    /* \"#utility.yul\":1831:1832   */\n  dup1\n    /* \"#utility.yul\":1824:1836   */\n  revert\n    /* \"#utility.yul\":1802:1838   */\ntag_37:\n    /* \"#utility.yul\":1857:1920   */\n  tag_38\n    /* \"#utility.yul\":1912:1919   */\n  dup13\n    /* \"#utility.yul\":1901:1909   */\n  dup4\n    /* \"#utility.yul\":1890:1899   */\n  dup14\n    /* \"#utility.yul\":1886:1910   */\n  add\n    /* \"#utility.yul\":1857:1920   */\n  tag_13\n  jump\t// in\ntag_38:\n    /* \"#utility.yul\":1847:1920   */\n  swap8\n  pop\n    /* \"#utility.yul\":1960:1962   */\n  0x60\n    /* \"#utility.yul\":1949:1958   */\n  dup12\n    /* \"#utility.yul\":1945:1963   */\n  add\n    /* \"#utility.yul\":1939:1964   */\n  mload\n    /* \"#utility.yul\":1929:1964   */\n  swap7\n  pop\n    /* \"#utility.yul\":2010:2013   */\n  0x80\n    /* \"#utility.yul\":1999:2008   */\n  dup12\n    /* \"#utility.yul\":1995:2014   */\n  add\n    /* \"#utility.yul\":1989:2015   */\n  mload\n    /* \"#utility.yul\":1973:2015   */\n  swap2\n  pop\n    /* \"#utility.yul\":2040:2042   */\n  dup1\n    /* \"#utility.yul\":2030:2038   */\n  dup3\n    /* \"#utility.yul\":2027:2043   */\n  gt\n    /* \"#utility.yul\":2024:2060   */\n  iszero\n  tag_39\n  jumpi\n    /* \"#utility.yul\":2056:2057   */\n  0x00\n    /* \"#utility.yul\":2053:2054   */\n  dup1\n    /* \"#utility.yul\":2046:2058   */\n  revert\n    /* \"#utility.yul\":2024:2060   */\ntag_39:\n    /* \"#utility.yul\":2079:2142   */\n  tag_40\n    /* \"#utility.yul\":2134:2141   */\n  dup13\n    /* \"#utility.yul\":2123:2131   */\n  dup4\n    /* \"#utility.yul\":2112:2121   */\n  dup14\n    /* \"#utility.yul\":2108:2132   */\n  add\n    /* \"#utility.yul\":2079:2142   */\n  tag_13\n  jump\t// in\ntag_40:\n    /* \"#utility.yul\":2069:2142   */\n  swap6\n  pop\n    /* \"#utility.yul\":2188:2191   */\n  0xa0\n    /* \"#utility.yul\":2177:2186   */\n  dup12\n    /* \"#utility.yul\":2173:2192   */\n  add\n    /* \"#utility.yul\":2167:2193   */\n  mload\n    /* \"#utility.yul\":2151:2193   */\n  swap2\n  pop\n    /* \"#utility.yul\":2218:2220   */\n  dup1\n    /* \"#utility.yul\":2208:2216   */\n  dup3\n    /* \"#utility.yul\":2205:2221   */\n  gt\n    /* \"#utility.yul\":2202:2238   */\n  iszero\n  tag_41\n  jumpi\n    /* \"#utility.yul\":2234:2235   */\n  0x00\n    /* \"#utility.yul\":2231:2232   */\n  dup1\n    /* \"#utility.yul\":2224:2236   */\n  revert\n    /* \"#utility.yul\":2202:2238   */\ntag_41:\n  pop\n    /* \"#utility.yul\":2257:2320   */\n  tag_42\n    /* \"#utility.yul\":2312:2319   */\n  dup12\n    /* \"#utility.yul\":2301:2309   */\n  dup3\n    /* \"#utility.yul\":2290:2299   */\n  dup13\n    /* \"#utility.yul\":2286:2310   */\n  add\n    /* \"#utility.yul\":2257:2320   */\n  tag_13\n  jump\t// in\ntag_42:\n    /* \"#utility.yul\":2247:2320   */\n  swap4\n  pop\n  pop\n    /* \"#utility.yul\":2339:2397   */\n  tag_43\n    /* \"#utility.yul\":2392:2395   */\n  0xc0\n    /* \"#utility.yul\":2381:2390   */\n  dup11\n    /* \"#utility.yul\":2377:2396   */\n  add\n    /* \"#utility.yul\":2339:2397   */\n  tag_14\n  jump\t// in\ntag_43:\n    /* \"#utility.yul\":2329:2397   */\n  swap2\n  pop\n    /* \"#utility.yul\":2416:2474   */\n  tag_44\n    /* \"#utility.yul\":2469:2472   */\n  0xe0\n    /* \"#utility.yul\":2458:2467   */\n  dup11\n    /* \"#utility.yul\":2454:2473   */\n  add\n    /* \"#utility.yul\":2416:2474   */\n  tag_14\n  jump\t// in\ntag_44:\n    /* \"#utility.yul\":2406:2474   */\n  swap1\n  pop\n    /* \"#utility.yul\":1181:2480   */\n  swap3\n  swap6\n  swap9\n  pop\n  swap3\n  swap6\n  swap9\n  swap1\n  swap4\n  swap7\n  pop\n  jump\t// out\n    /* \"#utility.yul\":2485:2865   */\ntag_15:\n    /* \"#utility.yul\":2564:2565   */\n  0x01\n    /* \"#utility.yul\":2560:2572   */\n  dup2\n  dup2\n  shr\n  swap1\n    /* \"#utility.yul\":2607:2619   */\n  dup3\n  and\n  dup1\n    /* \"#utility.yul\":2628:2689   */\n  tag_46\n  jumpi\n    /* \"#utility.yul\":2682:2686   */\n  0x7f\n    /* \"#utility.yul\":2674:2680   */\n  dup3\n    /* \"#utility.yul\":2670:2687   */\n  and\n    /* \"#utility.yul\":2660:2687   */\n  swap2\n  pop\n    /* \"#utility.yul\":2628:2689   */\ntag_46:\n    /* \"#utility.yul\":2735:2737   */\n  0x20\n    /* \"#utility.yul\":2727:2733   */\n  dup3\n    /* \"#utility.yul\":2724:2738   */\n  lt\n    /* \"#utility.yul\":2704:2722   */\n  dup2\n    /* \"#utility.yul\":2701:2739   */\n  sub\n    /* \"#utility.yul\":2698:2859   */\n  tag_47\n  jumpi\n    /* \"#utility.yul\":2781:2791   */\n  0x4e487b71\n    /* \"#utility.yul\":2776:2779   */\n  0xe0\n    /* \"#utility.yul\":2772:2792   */\n  shl\n    /* \"#utility.yul\":2769:2770   */\n  0x00\n    /* \"#utility.yul\":2762:2793   */\n  mstore\n    /* \"#utility.yul\":2816:2820   */\n  0x22\n    /* \"#utility.yul\":2813:2814   */\n  0x04\n    /* \"#utility.yul\":2806:2821   */\n  mstore\n    /* \"#utility.yul\":2844:2848   */\n  0x24\n    /* \"#utility.yul\":2841:2842   */\n  0x00\n    /* \"#utility.yul\":2834:2849   */\n  revert\n    /* \"#utility.yul\":2698:2859   */\ntag_47:\n  pop\n    /* \"#utility.yul\":2485:2865   */\n  swap2\n  swap1\n  pop\n  jump\t// out\n    /* \"#utility.yul\":2996:3541   */\ntag_17:\n    /* \"#utility.yul\":3098:3100   */\n  0x1f\n    /* \"#utility.yul\":3093:3096   */\n  dup3\n    /* \"#utility.yul\":3090:3101   */\n  gt\n    /* \"#utility.yul\":3087:3535   */\n  iszero\n  tag_50\n  jumpi\n    /* \"#utility.yul\":3134:3135   */\n  0x00\n    /* \"#utility.yul\":3159:3164   */\n  dup2\n    /* \"#utility.yul\":3155:3157   */\n  dup2\n    /* \"#utility.yul\":3148:3165   */\n  mstore\n    /* \"#utility.yul\":3204:3208   */\n  0x20\n    /* \"#utility.yul\":3200:3202   */\n  dup2\n    /* \"#utility.yul\":3190:3209   */\n  keccak256\n    /* \"#utility.yul\":3274:3276   */\n  0x1f\n    /* \"#utility.yul\":3262:3272   */\n  dup6\n    /* \"#utility.yul\":3258:3277   */\n  add\n    /* \"#utility.yul\":3255:3256   */\n  0x05\n    /* \"#utility.yul\":3251:3278   */\n  shr\n    /* \"#utility.yul\":3245:3249   */\n  dup2\n    /* \"#utility.yul\":3241:3279   */\n  add\n    /* \"#utility.yul\":3310:3314   */\n  0x20\n    /* \"#utility.yul\":3298:3308   */\n  dup7\n    /* \"#utility.yul\":3295:3315   */\n  lt\n    /* \"#utility.yul\":3292:3339   */\n  iszero\n  tag_51\n  jumpi\n  pop\n    /* \"#utility.yul\":3333:3337   */\n  dup1\n    /* \"#utility.yul\":3292:3339   */\ntag_51:\n    /* \"#utility.yul\":3388:3390   */\n  0x1f\n    /* \"#utility.yul\":3383:3386   */\n  dup6\n    /* \"#utility.yul\":3379:3391   */\n  add\n    /* \"#utility.yul\":3376:3377   */\n  0x05\n    /* \"#utility.yul\":3372:3392   */\n  shr\n    /* \"#utility.yul\":3366:3370   */\n  dup3\n    /* \"#utility.yul\":3362:3393   */\n  add\n    /* \"#utility.yul\":3352:3393   */\n  swap2\n  pop\n    /* \"#utility.yul\":3443:3525   */\ntag_52:\n    /* \"#utility.yul\":3461:3463   */\n  dup2\n    /* \"#utility.yul\":3454:3459   */\n  dup2\n    /* \"#utility.yul\":3451:3464   */\n  lt\n    /* \"#utility.yul\":3443:3525   */\n  iszero\n  tag_54\n  jumpi\n    /* \"#utility.yul\":3506:3523   */\n  dup3\n  dup2\n  sstore\n    /* \"#utility.yul\":3487:3488   */\n  0x01\n    /* \"#utility.yul\":3476:3489   */\n  add\n    /* \"#utility.yul\":3443:3525   */\n  jump(tag_52)\ntag_54:\n    /* \"#utility.yul\":3447:3450   */\n  pop\n  pop\n  pop\n    /* \"#utility.yul\":3087:3535   */\ntag_50:\n    /* \"#utility.yul\":2996:3541   */\n  pop\n  pop\n  pop\n  jump\t// out\n    /* \"#utility.yul\":3717:5069   */\ntag_6:\n    /* \"#utility.yul\":3837:3847   */\n  dup2\n  mload\n  sub(shl(0x40, 0x01), 0x01)\n    /* \"#utility.yul\":3859:3889   */\n  dup2\n  gt\n    /* \"#utility.yul\":3856:3912   */\n  iszero\n  tag_58\n  jumpi\n    /* \"#utility.yul\":3892:3910   */\n  tag_58\n  tag_12\n  jump\t// in\ntag_58:\n    /* \"#utility.yul\":3921:4018   */\n  tag_59\n    /* \"#utility.yul\":4011:4017   */\n  dup2\n    /* \"#utility.yul\":3971:4009   */\n  tag_60\n    /* \"#utility.yul\":4003:4007   */\n  dup5\n    /* \"#utility.yul\":3997:4008   */\n  sload\n    /* \"#utility.yul\":3971:4009   */\n  tag_15\n  jump\t// in\ntag_60:\n    /* \"#utility.yul\":3965:3969   */\n  dup5\n    /* \"#utility.yul\":3921:4018   */\n  tag_17\n  jump\t// in\ntag_59:\n    /* \"#utility.yul\":4073:4077   */\n  0x20\n  dup1\n    /* \"#utility.yul\":4137:4139   */\n  0x1f\n    /* \"#utility.yul\":4126:4140   */\n  dup4\n  gt\n    /* \"#utility.yul\":4154:4155   */\n  0x01\n    /* \"#utility.yul\":4149:4812   */\n  dup2\n  eq\n  tag_62\n  jumpi\n    /* \"#utility.yul\":4856:4857   */\n  0x00\n    /* \"#utility.yul\":4873:4879   */\n  dup5\n    /* \"#utility.yul\":4870:4959   */\n  iszero\n  tag_63\n  jumpi\n  pop\n    /* \"#utility.yul\":4925:4944   */\n  dup6\n  dup4\n  add\n    /* \"#utility.yul\":4919:4945   */\n  mload\n    /* \"#utility.yul\":4870:4959   */\ntag_63:\n  not(0x00)\n    /* \"#utility.yul\":3674:3675   */\n  0x03\n    /* \"#utility.yul\":3670:3681   */\n  dup7\n  swap1\n  shl\n    /* \"#utility.yul\":3666:3690   */\n  shr\n    /* \"#utility.yul\":3662:3691   */\n  not\n    /* \"#utility.yul\":3652:3692   */\n  and\n    /* \"#utility.yul\":3698:3699   */\n  0x01\n    /* \"#utility.yul\":3694:3705   */\n  dup6\n  swap1\n  shl\n    /* \"#utility.yul\":3649:3706   */\n  or\n    /* \"#utility.yul\":4972:5053   */\n  dup6\n  sstore\n    /* \"#utility.yul\":4119:5063   */\n  jump(tag_54)\n    /* \"#utility.yul\":4149:4812   */\ntag_62:\n    /* \"#utility.yul\":2943:2944   */\n  0x00\n    /* \"#utility.yul\":2936:2950   */\n  dup6\n  dup2\n  mstore\n    /* \"#utility.yul\":2980:2984   */\n  0x20\n    /* \"#utility.yul\":2967:2985   */\n  dup2\n  keccak256\n  not(0x1f)\n    /* \"#utility.yul\":4185:4205   */\n  dup7\n  and\n  swap2\n    /* \"#utility.yul\":4303:4539   */\ntag_66:\n    /* \"#utility.yul\":4317:4324   */\n  dup3\n    /* \"#utility.yul\":4314:4315   */\n  dup2\n    /* \"#utility.yul\":4311:4325   */\n  lt\n    /* \"#utility.yul\":4303:4539   */\n  iszero\n  tag_68\n  jumpi\n    /* \"#utility.yul\":4406:4425   */\n  dup9\n  dup7\n  add\n    /* \"#utility.yul\":4400:4426   */\n  mload\n    /* \"#utility.yul\":4385:4427   */\n  dup3\n  sstore\n    /* \"#utility.yul\":4498:4525   */\n  swap5\n  dup5\n  add\n  swap5\n    /* \"#utility.yul\":4466:4467   */\n  0x01\n    /* \"#utility.yul\":4454:4468   */\n  swap1\n  swap2\n  add\n  swap1\n    /* \"#utility.yul\":4333:4352   */\n  dup5\n  add\n    /* \"#utility.yul\":4303:4539   */\n  jump(tag_66)\ntag_68:\n    /* \"#utility.yul\":4307:4310   */\n  pop\n    /* \"#utility.yul\":4567:4573   */\n  dup6\n    /* \"#utility.yul\":4558:4565   */\n  dup3\n    /* \"#utility.yul\":4555:4574   */\n  lt\n    /* \"#utility.yul\":4552:4753   */\n  iszero\n  tag_69\n  jumpi\n    /* \"#utility.yul\":4628:4647   */\n  dup8\n  dup6\n  add\n    /* \"#utility.yul\":4622:4648   */\n  mload\n  not(0x00)\n    /* \"#utility.yul\":4711:4712   */\n  0x03\n    /* \"#utility.yul\":4707:4721   */\n  dup9\n  swap1\n  shl\n    /* \"#utility.yul\":4723:4726   */\n  0xf8\n    /* \"#utility.yul\":4703:4727   */\n  and\n    /* \"#utility.yul\":4699:4736   */\n  shr\n    /* \"#utility.yul\":4695:4737   */\n  not\n    /* \"#utility.yul\":4680:4738   */\n  and\n    /* \"#utility.yul\":4665:4739   */\n  dup2\n  sstore\n    /* \"#utility.yul\":4552:4753   */\ntag_69:\n  pop\n  pop\n  pop\n  pop\n  pop\n    /* \"#utility.yul\":4799:4800   */\n  0x01\n    /* \"#utility.yul\":4783:4797   */\n  swap1\n  dup2\n  shl\n    /* \"#utility.yul\":4779:4801   */\n  add\n    /* \"#utility.yul\":4766:4802   */\n  swap1\n  sstore\n  pop\n    /* \"#utility.yul\":3717:5069   */\n  jump\t// out\ntag_19:\n    /* \"Contract.sol\":871:4277  contract MediaContract {... */\n  dataSize(sub_0)\n  dup1\n  dataOffset(sub_0)\n  0x00\n  codecopy\n  0x00\n  return\nstop\n\nsub_0: assembly {\n        /* \"Contract.sol\":871:4277  contract MediaContract {... */\n      mstore(0x40, 0x80)\n      jumpi(tag_1, lt(calldatasize, 0x04))\n      shr(0xe0, calldataload(0x00))\n      dup1\n      0x6a2e23f5\n      gt\n      tag_23\n      jumpi\n      dup1\n      0xaf3b19e5\n      gt\n      tag_24\n      jumpi\n      dup1\n      0xaf3b19e5\n      eq\n      tag_17\n      jumpi\n      dup1\n      0xb1cb0db3\n      eq\n      tag_18\n      jumpi\n      dup1\n      0xcc5be574\n      eq\n      tag_19\n      jumpi\n      dup1\n      0xd5252dcf\n      eq\n      tag_20\n      jumpi\n      dup1\n      0xf0de67ac\n      eq\n      tag_21\n      jumpi\n      dup1\n      0xf32370e7\n      eq\n      tag_22\n      jumpi\n      0x00\n      dup1\n      revert\n    tag_24:\n      dup1\n      0x6a2e23f5\n      eq\n      tag_12\n      jumpi\n      dup1\n      0x6a76ae98\n      eq\n      tag_13\n      jumpi\n      dup1\n      0x9b221c7d\n      eq\n      tag_14\n      jumpi\n      dup1\n      0x9d9e27d9\n      eq\n      tag_15\n      jumpi\n      dup1\n      0xadd08a8e\n      eq\n      tag_16\n      jumpi\n      0x00\n      dup1\n      revert\n    tag_23:\n      dup1\n      0x3283f641\n      gt\n      tag_25\n      jumpi\n      dup1\n      0x3283f641\n      eq\n      tag_7\n      jumpi\n      dup1\n      0x4051ddac\n      eq\n      tag_8\n      jumpi\n      dup1\n      0x4bde38c8\n      eq\n      tag_9\n      jumpi\n      dup1\n      0x516f279e\n      eq\n      tag_10\n      jumpi\n      dup1\n      0x610be654\n      eq\n      tag_11\n      jumpi\n      0x00\n      dup1\n      revert\n    tag_25:\n      dup1\n      0x010ec441\n      eq\n      tag_2\n      jumpi\n      dup1\n      0x200d2ed2\n      eq\n      tag_3\n      jumpi\n      dup1\n      0x2804b2c0\n      eq\n      tag_4\n      jumpi\n      dup1\n      0x295f1b4d\n      eq\n      tag_5\n      jumpi\n      dup1\n      0x2d237d21\n      eq\n      tag_6\n      jumpi\n    tag_1:\n      0x00\n      dup1\n      revert\n        /* \"Contract.sol\":968:999  address payable public reporter */\n    tag_2:\n      callvalue\n      dup1\n      iszero\n      tag_26\n      jumpi\n      0x00\n      dup1\n      revert\n    tag_26:\n      pop\n      sload(0x02)\n      tag_27\n      swap1\n      sub(shl(0xa0, 0x01), 0x01)\n      and\n      dup2\n      jump\n    tag_27:\n      mload(0x40)\n      sub(shl(0xa0, 0x01), 0x01)\n        /* \"#utility.yul\":311:343   */\n      swap1\n      swap2\n      and\n        /* \"#utility.yul\":293:344   */\n      dup2\n      mstore\n        /* \"#utility.yul\":281:283   */\n      0x20\n        /* \"#utility.yul\":266:284   */\n      add\n        /* \"Contract.sol\":968:999  address payable public reporter */\n    tag_29:\n      mload(0x40)\n      dup1\n      swap2\n      sub\n      swap1\n      return\n        /* \"Contract.sol\":1072:1092  string public status */\n    tag_3:\n      callvalue\n      dup1\n      iszero\n      tag_31\n      jumpi\n      0x00\n      dup1\n      revert\n    tag_31:\n      pop\n      tag_32\n      tag_33\n      jump\t// in\n    tag_32:\n      mload(0x40)\n      tag_29\n      swap2\n      swap1\n      tag_35\n      jump\t// in\n        /* \"Contract.sol\":898:929  address payable public customer */\n    tag_4:\n      callvalue\n      dup1\n      iszero\n      tag_36\n      jumpi\n      0x00\n      dup1\n      revert\n    tag_36:\n      pop\n      sload(0x00)\n      tag_27\n      swap1\n      sub(shl(0xa0, 0x01), 0x01)\n      and\n      dup2\n      jump\n        /* \"Contract.sol\":2329:2500  function disputeProposal() public {... */\n    tag_5:\n      callvalue\n      dup1\n      iszero\n      tag_40\n      jumpi\n      0x00\n      dup1\n      revert\n    tag_40:\n      pop\n      tag_41\n      tag_42\n      jump\t// in\n    tag_41:\n      stop\n        /* \"Contract.sol\":1223:1253  string[] public mediaAddresses */\n    tag_6:\n      callvalue\n      dup1\n      iszero\n      tag_43\n      jumpi\n      0x00\n      dup1\n      revert\n    tag_43:\n      pop\n      tag_32\n      tag_45\n      calldatasize\n      0x04\n      tag_46\n      jump\t// in\n    tag_45:\n      tag_47\n      jump\t// in\n        /* \"Contract.sol\":1003:1021  string public task */\n    tag_7:\n      callvalue\n      dup1\n      iszero\n      tag_49\n      jumpi\n      0x00\n      dup1\n      revert\n    tag_49:\n      pop\n      tag_32\n      tag_51\n      jump\t// in\n        /* \"Contract.sol\":3539:4014  function getSummary() public view returns (... */\n    tag_8:\n      callvalue\n      dup1\n      iszero\n      tag_53\n      jumpi\n      0x00\n      dup1\n      revert\n    tag_53:\n      pop\n      tag_54\n      tag_55\n      jump\t// in\n    tag_54:\n      mload(0x40)\n      tag_29\n      swap13\n      swap12\n      swap11\n      swap10\n      swap9\n      swap8\n      swap7\n      swap6\n      swap5\n      swap4\n      swap3\n      swap2\n      swap1\n      tag_57\n      jump\t// in\n        /* \"Contract.sol\":933:964  address payable public platform */\n    tag_9:\n      callvalue\n      dup1\n      iszero\n      tag_58\n      jumpi\n      0x00\n      dup1\n      revert\n    tag_58:\n      pop\n      sload(0x01)\n      tag_27\n      swap1\n      sub(shl(0xa0, 0x01), 0x01)\n      and\n      dup2\n      jump\n        /* \"Contract.sol\":1197:1219  string public location */\n    tag_10:\n      callvalue\n      dup1\n      iszero\n      tag_62\n      jumpi\n      0x00\n      dup1\n      revert\n    tag_62:\n      pop\n      tag_32\n      tag_64\n      jump\t// in\n        /* \"Contract.sol\":2983:3183  function closeContract() public {... */\n    tag_11:\n      callvalue\n      dup1\n      iszero\n      tag_66\n      jumpi\n      0x00\n      dup1\n      revert\n    tag_66:\n      pop\n      tag_41\n      tag_68\n      jump\t// in\n        /* \"Contract.sol\":2504:2696  function acceptDispute() public {... */\n    tag_12:\n      callvalue\n      dup1\n      iszero\n      tag_69\n      jumpi\n      0x00\n      dup1\n      revert\n    tag_69:\n      pop\n      tag_41\n      tag_71\n      jump\t// in\n        /* \"Contract.sol\":3436:3535  function getMediaAddresses() public view returns (string[] memory) {... */\n    tag_13:\n      callvalue\n      dup1\n      iszero\n      tag_72\n      jumpi\n      0x00\n      dup1\n      revert\n    tag_72:\n      pop\n      tag_73\n      tag_74\n      jump\t// in\n    tag_73:\n      mload(0x40)\n      tag_29\n      swap2\n      swap1\n      tag_76\n      jump\t// in\n        /* \"Contract.sol\":1096:1121  uint public minimalLength */\n    tag_14:\n      callvalue\n      dup1\n      iszero\n      tag_77\n      jumpi\n      0x00\n      dup1\n      revert\n    tag_77:\n      pop\n      tag_78\n      sload(0x07)\n      dup2\n      jump\n    tag_78:\n      mload(0x40)\n        /* \"#utility.yul\":3883:3908   */\n      swap1\n      dup2\n      mstore\n        /* \"#utility.yul\":3871:3873   */\n      0x20\n        /* \"#utility.yul\":3856:3874   */\n      add\n        /* \"Contract.sol\":1096:1121  uint public minimalLength */\n      tag_29\n        /* \"#utility.yul\":3737:3914   */\n      jump\n        /* \"Contract.sol\":1162:1193  string public minimalResolution */\n    tag_15:\n      callvalue\n      dup1\n      iszero\n      tag_82\n      jumpi\n      0x00\n      dup1\n      revert\n    tag_82:\n      pop\n      tag_32\n      tag_84\n      jump\t// in\n        /* \"Contract.sol\":1781:2032  function proposeMedia(string[] memory addresses) public {... */\n    tag_16:\n      callvalue\n      dup1\n      iszero\n      tag_86\n      jumpi\n      0x00\n      dup1\n      revert\n    tag_86:\n      pop\n      tag_41\n      tag_88\n      calldatasize\n      0x04\n      tag_89\n      jump\t// in\n    tag_88:\n      tag_90\n      jump\t// in\n        /* \"Contract.sol\":2036:2325  function acceptProposal() public payable {... */\n    tag_17:\n      tag_41\n      tag_92\n      jump\t// in\n        /* \"Contract.sol\":1049:1068  uint public expires */\n    tag_18:\n      callvalue\n      dup1\n      iszero\n      tag_93\n      jumpi\n      0x00\n      dup1\n      revert\n    tag_93:\n      pop\n      tag_78\n      sload(0x05)\n      dup2\n      jump\n        /* \"Contract.sol\":1125:1158  string public specialInstructions */\n    tag_19:\n      callvalue\n      dup1\n      iszero\n      tag_97\n      jumpi\n      0x00\n      dup1\n      revert\n    tag_97:\n      pop\n      tag_32\n      tag_99\n      jump\t// in\n        /* \"Contract.sol\":3187:3432  function renewContract(uint newExpiration) public {... */\n    tag_20:\n      callvalue\n      dup1\n      iszero\n      tag_101\n      jumpi\n      0x00\n      dup1\n      revert\n    tag_101:\n      pop\n      tag_41\n      tag_103\n      calldatasize\n      0x04\n      tag_46\n      jump\t// in\n    tag_103:\n      tag_104\n      jump\t// in\n        /* \"Contract.sol\":1025:1045  string public format */\n    tag_21:\n      callvalue\n      dup1\n      iszero\n      tag_105\n      jumpi\n      0x00\n      dup1\n      revert\n    tag_105:\n      pop\n      tag_32\n      tag_107\n      jump\t// in\n        /* \"Contract.sol\":2700:2979  function rejectDispute() public payable {... */\n    tag_22:\n      tag_41\n      tag_110\n      jump\t// in\n        /* \"Contract.sol\":1072:1092  string public status */\n    tag_33:\n      0x06\n      dup1\n      sload\n      tag_111\n      swap1\n      tag_112\n      jump\t// in\n    tag_111:\n      dup1\n      0x1f\n      add\n      0x20\n      dup1\n      swap2\n      div\n      mul\n      0x20\n      add\n      mload(0x40)\n      swap1\n      dup2\n      add\n      0x40\n      mstore\n      dup1\n      swap3\n      swap2\n      swap1\n      dup2\n      dup2\n      mstore\n      0x20\n      add\n      dup3\n      dup1\n      sload\n      tag_113\n      swap1\n      tag_112\n      jump\t// in\n    tag_113:\n      dup1\n      iszero\n      tag_114\n      jumpi\n      dup1\n      0x1f\n      lt\n      tag_115\n      jumpi\n      0x0100\n      dup1\n      dup4\n      sload\n      div\n      mul\n      dup4\n      mstore\n      swap2\n      0x20\n      add\n      swap2\n      jump(tag_114)\n    tag_115:\n      dup3\n      add\n      swap2\n      swap1\n      0x00\n      mstore\n      keccak256(0x00, 0x20)\n      swap1\n    tag_116:\n      dup2\n      sload\n      dup2\n      mstore\n      swap1\n      0x01\n      add\n      swap1\n      0x20\n      add\n      dup1\n      dup4\n      gt\n      tag_116\n      jumpi\n      dup3\n      swap1\n      sub\n      0x1f\n      and\n      dup3\n      add\n      swap2\n    tag_114:\n      pop\n      pop\n      pop\n      pop\n      pop\n      dup2\n      jump\t// out\n        /* \"Contract.sol\":2329:2500  function disputeProposal() public {... */\n    tag_42:\n        /* \"Contract.sol\":2377:2423  hashCompareWithLengthCheck(status, 'proposed') */\n      tag_118\n        /* \"Contract.sol\":2404:2410  status */\n      0x06\n        /* \"Contract.sol\":2377:2423  hashCompareWithLengthCheck(status, 'proposed') */\n      dup1\n      sload\n      tag_119\n      swap1\n      tag_112\n      jump\t// in\n    tag_119:\n      dup1\n      0x1f\n      add\n      0x20\n      dup1\n      swap2\n      div\n      mul\n      0x20\n      add\n      mload(0x40)\n      swap1\n      dup2\n      add\n      0x40\n      mstore\n      dup1\n      swap3\n      swap2\n      swap1\n      dup2\n      dup2\n      mstore\n      0x20\n      add\n      dup3\n      dup1\n      sload\n      tag_120\n      swap1\n      tag_112\n      jump\t// in\n    tag_120:\n      dup1\n      iszero\n      tag_121\n      jumpi\n      dup1\n      0x1f\n      lt\n      tag_122\n      jumpi\n      0x0100\n      dup1\n      dup4\n      sload\n      div\n      mul\n      dup4\n      mstore\n      swap2\n      0x20\n      add\n      swap2\n      jump(tag_121)\n    tag_122:\n      dup3\n      add\n      swap2\n      swap1\n      0x00\n      mstore\n      keccak256(0x00, 0x20)\n      swap1\n    tag_123:\n      dup2\n      sload\n      dup2\n      mstore\n      swap1\n      0x01\n      add\n      swap1\n      0x20\n      add\n      dup1\n      dup4\n      gt\n      tag_123\n      jumpi\n      dup3\n      swap1\n      sub\n      0x1f\n      and\n      dup3\n      add\n      swap2\n    tag_121:\n      pop\n      pop\n      pop\n      pop\n      pop\n      mload(0x40)\n      dup1\n      0x40\n      add\n      0x40\n      mstore\n      dup1\n      0x08\n      dup2\n      mstore\n      0x20\n      add\n      shl(0xc2, 0x1c1c9bdc1bdcd959)\n      dup2\n      mstore\n      pop\n        /* \"Contract.sol\":2377:2403  hashCompareWithLengthCheck */\n      tag_124\n        /* \"Contract.sol\":2377:2423  hashCompareWithLengthCheck(status, 'proposed') */\n      jump\t// in\n    tag_118:\n        /* \"Contract.sol\":2369:2424  require(hashCompareWithLengthCheck(status, 'proposed')) */\n      tag_125\n      jumpi\n      0x00\n      dup1\n      revert\n    tag_125:\n        /* \"Contract.sol\":2461:2469  customer */\n      and(sub(shl(0xa0, 0x01), 0x01), sload(0x00))\n        /* \"Contract.sol\":2446:2456  msg.sender */\n      caller\n        /* \"Contract.sol\":2438:2469  payable(msg.sender) == customer */\n      eq\n        /* \"Contract.sol\":2430:2470  require(payable(msg.sender) == customer) */\n      tag_126\n      jumpi\n      0x00\n      dup1\n      revert\n    tag_126:\n        /* \"Contract.sol\":2476:2495  status = 'disputed' */\n      0x40\n      dup1\n      mload\n      dup1\n      dup3\n      add\n      swap1\n      swap2\n      mstore\n      0x08\n      dup2\n      mstore\n      shl(0xc2, 0x191a5cdc1d5d1959)\n      0x20\n      dup3\n      add\n      mstore\n        /* \"Contract.sol\":2476:2482  status */\n      0x06\n      swap1\n        /* \"Contract.sol\":2476:2495  status = 'disputed' */\n      tag_127\n      swap1\n        /* \"Contract.sol\":2476:2482  status */\n      dup3\n        /* \"Contract.sol\":2476:2495  status = 'disputed' */\n      tag_128\n      jump\t// in\n    tag_127:\n      pop\n        /* \"Contract.sol\":2329:2500  function disputeProposal() public {... */\n      jump\t// out\n        /* \"Contract.sol\":1223:1253  string[] public mediaAddresses */\n    tag_47:\n      0x0b\n      dup2\n      dup2\n      sload\n      dup2\n      lt\n      tag_129\n      jumpi\n      0x00\n      dup1\n      revert\n    tag_129:\n      swap1\n      0x00\n      mstore\n      keccak256(0x00, 0x20)\n      add\n      0x00\n      swap2\n      pop\n      swap1\n      pop\n      dup1\n      sload\n      tag_111\n      swap1\n      tag_112\n      jump\t// in\n        /* \"Contract.sol\":1003:1021  string public task */\n    tag_51:\n      0x03\n      dup1\n      sload\n      tag_111\n      swap1\n      tag_112\n      jump\t// in\n        /* \"Contract.sol\":3539:4014  function getSummary() public view returns (... */\n    tag_55:\n        /* \"Contract.sol\":3587:3594  address */\n      0x00\n        /* \"Contract.sol\":3795:3803  customer */\n      dup1\n      sload\n        /* \"Contract.sol\":3809:3817  reporter */\n      sload(0x02)\n        /* \"Contract.sol\":3587:3594  address */\n      dup3\n      swap2\n      dup3\n      swap2\n        /* \"Contract.sol\":3623:3636  string memory */\n      0x60\n      swap2\n      dup3\n      swap2\n        /* \"Contract.sol\":3587:3594  address */\n      dup5\n      swap2\n        /* \"Contract.sol\":3623:3636  string memory */\n      dup4\n      swap2\n        /* \"Contract.sol\":3587:3594  address */\n      dup4\n      swap2\n        /* \"Contract.sol\":3623:3636  string memory */\n      dup4\n      swap2\n      dup3\n      swap2\n      dup3\n      swap2\n      dup3\n      swap2\n      sub(shl(0xa0, 0x01), 0x01)\n        /* \"Contract.sol\":3795:3803  customer */\n      swap1\n      dup2\n      and\n      swap2\n        /* \"Contract.sol\":3809:3817  reporter */\n      and\n        /* \"Contract.sol\":3852:3855  100 */\n      0x64\n        /* \"Contract.sol\":3823:3849  address(this).balance * 95 */\n      tag_142\n        /* \"Contract.sol\":3823:3844  address(this).balance */\n      selfbalance\n        /* \"Contract.sol\":3847:3849  95 */\n      0x5f\n        /* \"Contract.sol\":3823:3849  address(this).balance * 95 */\n      tag_143\n      jump\t// in\n    tag_142:\n        /* \"Contract.sol\":3823:3855  address(this).balance * 95 / 100 */\n      tag_144\n      swap2\n      swap1\n      tag_145\n      jump\t// in\n    tag_144:\n        /* \"Contract.sol\":3861:3865  task */\n      0x03\n        /* \"Contract.sol\":3871:3877  format */\n      0x04\n        /* \"Contract.sol\":3883:3890  expires */\n      sload(0x05)\n        /* \"Contract.sol\":3896:3902  status */\n      0x06\n        /* \"Contract.sol\":3908:3921  minimalLength */\n      sload(0x07)\n        /* \"Contract.sol\":3927:3946  specialInstructions */\n      0x08\n        /* \"Contract.sol\":3952:3969  minimalResolution */\n      0x09\n        /* \"Contract.sol\":3975:3983  location */\n      0x0a\n        /* \"Contract.sol\":3989:4003  mediaAddresses */\n      0x0b\n        /* \"Contract.sol\":3782:4009  return (... */\n      dup9\n      dup1\n      sload\n      tag_146\n      swap1\n      tag_112\n      jump\t// in\n    tag_146:\n      dup1\n      0x1f\n      add\n      0x20\n      dup1\n      swap2\n      div\n      mul\n      0x20\n      add\n      mload(0x40)\n      swap1\n      dup2\n      add\n      0x40\n      mstore\n      dup1\n      swap3\n      swap2\n      swap1\n      dup2\n      dup2\n      mstore\n      0x20\n      add\n      dup3\n      dup1\n      sload\n      tag_147\n      swap1\n      tag_112\n      jump\t// in\n    tag_147:\n      dup1\n      iszero\n      tag_148\n      jumpi\n      dup1\n      0x1f\n      lt\n      tag_149\n      jumpi\n      0x0100\n      dup1\n      dup4\n      sload\n      div\n      mul\n      dup4\n      mstore\n      swap2\n      0x20\n      add\n      swap2\n      jump(tag_148)\n    tag_149:\n      dup3\n      add\n      swap2\n      swap1\n      0x00\n      mstore\n      keccak256(0x00, 0x20)\n      swap1\n    tag_150:\n      dup2\n      sload\n      dup2\n      mstore\n      swap1\n      0x01\n      add\n      swap1\n      0x20\n      add\n      dup1\n      dup4\n      gt\n      tag_150\n      jumpi\n      dup3\n      swap1\n      sub\n      0x1f\n      and\n      dup3\n      add\n      swap2\n    tag_148:\n      pop\n      pop\n      pop\n      pop\n      pop\n      swap9\n      pop\n      dup8\n      dup1\n      sload\n      tag_151\n      swap1\n      tag_112\n      jump\t// in\n    tag_151:\n      dup1\n      0x1f\n      add\n      0x20\n      dup1\n      swap2\n      div\n      mul\n      0x20\n      add\n      mload(0x40)\n      swap1\n      dup2\n      add\n      0x40\n      mstore\n      dup1\n      swap3\n      swap2\n      swap1\n      dup2\n      dup2\n      mstore\n      0x20\n      add\n      dup3\n      dup1\n      sload\n      tag_152\n      swap1\n      tag_112\n      jump\t// in\n    tag_152:\n      dup1\n      iszero\n      tag_153\n      jumpi\n      dup1\n      0x1f\n      lt\n      tag_154\n      jumpi\n      0x0100\n      dup1\n      dup4\n      sload\n      div\n      mul\n      dup4\n      mstore\n      swap2\n      0x20\n      add\n      swap2\n      jump(tag_153)\n    tag_154:\n      dup3\n      add\n      swap2\n      swap1\n      0x00\n      mstore\n      keccak256(0x00, 0x20)\n      swap1\n    tag_155:\n      dup2\n      sload\n      dup2\n      mstore\n      swap1\n      0x01\n      add\n      swap1\n      0x20\n      add\n      dup1\n      dup4\n      gt\n      tag_155\n      jumpi\n      dup3\n      swap1\n      sub\n      0x1f\n      and\n      dup3\n      add\n      swap2\n    tag_153:\n      pop\n      pop\n      pop\n      pop\n      pop\n      swap8\n      pop\n      dup6\n      dup1\n      sload\n      tag_156\n      swap1\n      tag_112\n      jump\t// in\n    tag_156:\n      dup1\n      0x1f\n      add\n      0x20\n      dup1\n      swap2\n      div\n      mul\n      0x20\n      add\n      mload(0x40)\n      swap1\n      dup2\n      add\n      0x40\n      mstore\n      dup1\n      swap3\n      swap2\n      swap1\n      dup2\n      dup2\n      mstore\n      0x20\n      add\n      dup3\n      dup1\n      sload\n      tag_157\n      swap1\n      tag_112\n      jump\t// in\n    tag_157:\n      dup1\n      iszero\n      tag_158\n      jumpi\n      dup1\n      0x1f\n      lt\n      tag_159\n      jumpi\n      0x0100\n      dup1\n      dup4\n      sload\n      div\n      mul\n      dup4\n      mstore\n      swap2\n      0x20\n      add\n      swap2\n      jump(tag_158)\n    tag_159:\n      dup3\n      add\n      swap2\n      swap1\n      0x00\n      mstore\n      keccak256(0x00, 0x20)\n      swap1\n    tag_160:\n      dup2\n      sload\n      dup2\n      mstore\n      swap1\n      0x01\n      add\n      swap1\n      0x20\n      add\n      dup1\n      dup4\n      gt\n      tag_160\n      jumpi\n      dup3\n      swap1\n      sub\n      0x1f\n      and\n      dup3\n      add\n      swap2\n    tag_158:\n      pop\n      pop\n      pop\n      pop\n      pop\n      swap6\n      pop\n      dup4\n      dup1\n      sload\n      tag_161\n      swap1\n      tag_112\n      jump\t// in\n    tag_161:\n      dup1\n      0x1f\n      add\n      0x20\n      dup1\n      swap2\n      div\n      mul\n      0x20\n      add\n      mload(0x40)\n      swap1\n      dup2\n      add\n      0x40\n      mstore\n      dup1\n      swap3\n      swap2\n      swap1\n      dup2\n      dup2\n      mstore\n      0x20\n      add\n      dup3\n      dup1\n      sload\n      tag_162\n      swap1\n      tag_112\n      jump\t// in\n    tag_162:\n      dup1\n      iszero\n      tag_163\n      jumpi\n      dup1\n      0x1f\n      lt\n      tag_164\n      jumpi\n      0x0100\n      dup1\n      dup4\n      sload\n      div\n      mul\n      dup4\n      mstore\n      swap2\n      0x20\n      add\n      swap2\n      jump(tag_163)\n    tag_164:\n      dup3\n      add\n      swap2\n      swap1\n      0x00\n      mstore\n      keccak256(0x00, 0x20)\n      swap1\n    tag_165:\n      dup2\n      sload\n      dup2\n      mstore\n      swap1\n      0x01\n      add\n      swap1\n      0x20\n      add\n      dup1\n      dup4\n      gt\n      tag_165\n      jumpi\n      dup3\n      swap1\n      sub\n      0x1f\n      and\n      dup3\n      add\n      swap2\n    tag_163:\n      pop\n      pop\n      pop\n      pop\n      pop\n      swap4\n      pop\n      dup3\n      dup1\n      sload\n      tag_166\n      swap1\n      tag_112\n      jump\t// in\n    tag_166:\n      dup1\n      0x1f\n      add\n      0x20\n      dup1\n      swap2\n      div\n      mul\n      0x20\n      add\n      mload(0x40)\n      swap1\n      dup2\n      add\n      0x40\n      mstore\n      dup1\n      swap3\n      swap2\n      swap1\n      dup2\n      dup2\n      mstore\n      0x20\n      add\n      dup3\n      dup1\n      sload\n      tag_167\n      swap1\n      tag_112\n      jump\t// in\n    tag_167:\n      dup1\n      iszero\n      tag_168\n      jumpi\n      dup1\n      0x1f\n      lt\n      tag_169\n      jumpi\n      0x0100\n      dup1\n      dup4\n      sload\n      div\n      mul\n      dup4\n      mstore\n      swap2\n      0x20\n      add\n      swap2\n      jump(tag_168)\n    tag_169:\n      dup3\n      add\n      swap2\n      swap1\n      0x00\n      mstore\n      keccak256(0x00, 0x20)\n      swap1\n    tag_170:\n      dup2\n      sload\n      dup2\n      mstore\n      swap1\n      0x01\n      add\n      swap1\n      0x20\n      add\n      dup1\n      dup4\n      gt\n      tag_170\n      jumpi\n      dup3\n      swap1\n      sub\n      0x1f\n      and\n      dup3\n      add\n      swap2\n    tag_168:\n      pop\n      pop\n      pop\n      pop\n      pop\n      swap3\n      pop\n      dup2\n      dup1\n      sload\n      tag_171\n      swap1\n      tag_112\n      jump\t// in\n    tag_171:\n      dup1\n      0x1f\n      add\n      0x20\n      dup1\n      swap2\n      div\n      mul\n      0x20\n      add\n      mload(0x40)\n      swap1\n      dup2\n      add\n      0x40\n      mstore\n      dup1\n      swap3\n      swap2\n      swap1\n      dup2\n      dup2\n      mstore\n      0x20\n      add\n      dup3\n      dup1\n      sload\n      tag_172\n      swap1\n      tag_112\n      jump\t// in\n    tag_172:\n      dup1\n      iszero\n      tag_173\n      jumpi\n      dup1\n      0x1f\n      lt\n      tag_174\n      jumpi\n      0x0100\n      dup1\n      dup4\n      sload\n      div\n      mul\n      dup4\n      mstore\n      swap2\n      0x20\n      add\n      swap2\n      jump(tag_173)\n    tag_174:\n      dup3\n      add\n      swap2\n      swap1\n      0x00\n      mstore\n      keccak256(0x00, 0x20)\n      swap1\n    tag_175:\n      dup2\n      sload\n      dup2\n      mstore\n      swap1\n      0x01\n      add\n      swap1\n      0x20\n      add\n      dup1\n      dup4\n      gt\n      tag_175\n      jumpi\n      dup3\n      swap1\n      sub\n      0x1f\n      and\n      dup3\n      add\n      swap2\n    tag_173:\n      pop\n      pop\n      pop\n      pop\n      pop\n      swap2\n      pop\n      dup1\n      dup1\n      sload\n      dup1\n      0x20\n      mul\n      0x20\n      add\n      mload(0x40)\n      swap1\n      dup2\n      add\n      0x40\n      mstore\n      dup1\n      swap3\n      swap2\n      swap1\n      dup2\n      dup2\n      mstore\n      0x20\n      add\n      0x00\n      swap1\n    tag_176:\n      dup3\n      dup3\n      lt\n      iszero\n      tag_177\n      jumpi\n      dup4\n      dup3\n      swap1\n      0x00\n      mstore\n      keccak256(0x00, 0x20)\n      add\n      dup1\n      sload\n      tag_179\n      swap1\n      tag_112\n      jump\t// in\n    tag_179:\n      dup1\n      0x1f\n      add\n      0x20\n      dup1\n      swap2\n      div\n      mul\n      0x20\n      add\n      mload(0x40)\n      swap1\n      dup2\n      add\n      0x40\n      mstore\n      dup1\n      swap3\n      swap2\n      swap1\n      dup2\n      dup2\n      mstore\n      0x20\n      add\n      dup3\n      dup1\n      sload\n      tag_180\n      swap1\n      tag_112\n      jump\t// in\n    tag_180:\n      dup1\n      iszero\n      tag_181\n      jumpi\n      dup1\n      0x1f\n      lt\n      tag_182\n      jumpi\n      0x0100\n      dup1\n      dup4\n      sload\n      div\n      mul\n      dup4\n      mstore\n      swap2\n      0x20\n      add\n      swap2\n      jump(tag_181)\n    tag_182:\n      dup3\n      add\n      swap2\n      swap1\n      0x00\n      mstore\n      keccak256(0x00, 0x20)\n      swap1\n    tag_183:\n      dup2\n      sload\n      dup2\n      mstore\n      swap1\n      0x01\n      add\n      swap1\n      0x20\n      add\n      dup1\n      dup4\n      gt\n      tag_183\n      jumpi\n      dup3\n      swap1\n      sub\n      0x1f\n      and\n      dup3\n      add\n      swap2\n    tag_181:\n      pop\n      pop\n      pop\n      pop\n      pop\n      dup2\n      mstore\n      0x20\n      add\n      swap1\n      0x01\n      add\n      swap1\n      jump(tag_176)\n    tag_177:\n      pop\n      pop\n      pop\n      pop\n      swap1\n      pop\n      swap12\n      pop\n      swap12\n      pop\n      swap12\n      pop\n      swap12\n      pop\n      swap12\n      pop\n      swap12\n      pop\n      swap12\n      pop\n      swap12\n      pop\n      swap12\n      pop\n      swap12\n      pop\n      swap12\n      pop\n      swap12\n      pop\n        /* \"Contract.sol\":3539:4014  function getSummary() public view returns (... */\n      swap1\n      swap2\n      swap3\n      swap4\n      swap5\n      swap6\n      swap7\n      swap8\n      swap9\n      swap10\n      swap11\n      swap12\n      jump\t// out\n        /* \"Contract.sol\":1197:1219  string public location */\n    tag_64:\n      0x0a\n      dup1\n      sload\n      tag_111\n      swap1\n      tag_112\n      jump\t// in\n        /* \"Contract.sol\":2983:3183  function closeContract() public {... */\n    tag_68:\n        /* \"Contract.sol\":3043:3051  customer */\n      and(sub(shl(0xa0, 0x01), 0x01), sload(0x00))\n        /* \"Contract.sol\":3029:3039  msg.sender */\n      caller\n        /* \"Contract.sol\":3029:3051  msg.sender == customer */\n      eq\n        /* \"Contract.sol\":3021:3052  require(msg.sender == customer) */\n      tag_190\n      jumpi\n      0x00\n      dup1\n      revert\n    tag_190:\n        /* \"Contract.sol\":3066:3108  hashCompareWithLengthCheck(status, 'open') */\n      tag_191\n        /* \"Contract.sol\":3093:3099  status */\n      0x06\n        /* \"Contract.sol\":3066:3108  hashCompareWithLengthCheck(status, 'open') */\n      dup1\n      sload\n      tag_192\n      swap1\n      tag_112\n      jump\t// in\n    tag_192:\n      dup1\n      0x1f\n      add\n      0x20\n      dup1\n      swap2\n      div\n      mul\n      0x20\n      add\n      mload(0x40)\n      swap1\n      dup2\n      add\n      0x40\n      mstore\n      dup1\n      swap3\n      swap2\n      swap1\n      dup2\n      dup2\n      mstore\n      0x20\n      add\n      dup3\n      dup1\n      sload\n      tag_193\n      swap1\n      tag_112\n      jump\t// in\n    tag_193:\n      dup1\n      iszero\n      tag_194\n      jumpi\n      dup1\n      0x1f\n      lt\n      tag_195\n      jumpi\n      0x0100\n      dup1\n      dup4\n      sload\n      div\n      mul\n      dup4\n      mstore\n      swap2\n      0x20\n      add\n      swap2\n      jump(tag_194)\n    tag_195:\n      dup3\n      add\n      swap2\n      swap1\n      0x00\n      mstore\n      keccak256(0x00, 0x20)\n      swap1\n    tag_196:\n      dup2\n      sload\n      dup2\n      mstore\n      swap1\n      0x01\n      add\n      swap1\n      0x20\n      add\n      dup1\n      dup4\n      gt\n      tag_196\n      jumpi\n      dup3\n      swap1\n      sub\n      0x1f\n      and\n      dup3\n      add\n      swap2\n    tag_194:\n      pop\n      pop\n      pop\n      pop\n      pop\n      mload(0x40)\n      dup1\n      0x40\n      add\n      0x40\n      mstore\n      dup1\n      0x04\n      dup2\n      mstore\n      0x20\n      add\n      shl(0xe1, 0x37b832b7)\n      dup2\n      mstore\n      pop\n        /* \"Contract.sol\":3066:3092  hashCompareWithLengthCheck */\n      tag_124\n        /* \"Contract.sol\":3066:3108  hashCompareWithLengthCheck(status, 'open') */\n      jump\t// in\n    tag_191:\n        /* \"Contract.sol\":3058:3109  require(hashCompareWithLengthCheck(status, 'open')) */\n      tag_197\n      jumpi\n      0x00\n      dup1\n      revert\n    tag_197:\n        /* \"Contract.sol\":3115:3132  status = 'closed' */\n      0x40\n      dup1\n      mload\n      dup1\n      dup3\n      add\n      swap1\n      swap2\n      mstore\n      0x06\n      dup1\n      dup3\n      mstore\n      shl(0xd2, 0x18db1bdcd959)\n      0x20\n      dup4\n      add\n      mstore\n      swap1\n      tag_198\n      swap1\n      dup3\n      tag_128\n      jump\t// in\n    tag_198:\n      pop\n        /* \"Contract.sol\":3138:3146  customer */\n      0x00\n      dup1\n      sload\n        /* \"Contract.sol\":3138:3178  customer.transfer(address(this).balance) */\n      mload(0x40)\n      sub(shl(0xa0, 0x01), 0x01)\n        /* \"Contract.sol\":3138:3146  customer */\n      swap1\n      swap2\n      and\n      swap2\n        /* \"Contract.sol\":3156:3177  address(this).balance */\n      selfbalance\n        /* \"Contract.sol\":3138:3178  customer.transfer(address(this).balance) */\n      dup1\n      iszero\n      0x08fc\n      mul\n      swap3\n        /* \"Contract.sol\":3156:3177  address(this).balance */\n      swap1\n      swap2\n        /* \"Contract.sol\":3138:3178  customer.transfer(address(this).balance) */\n      dup2\n        /* \"Contract.sol\":3138:3146  customer */\n      dup2\n        /* \"Contract.sol\":3138:3178  customer.transfer(address(this).balance) */\n      dup2\n        /* \"Contract.sol\":3156:3177  address(this).balance */\n      dup6\n        /* \"Contract.sol\":3138:3146  customer */\n      dup9\n        /* \"Contract.sol\":3138:3178  customer.transfer(address(this).balance) */\n      dup9\n      call\n      swap4\n      pop\n      pop\n      pop\n      pop\n      iszero\n      dup1\n      iszero\n      tag_127\n      jumpi\n      returndatasize\n      0x00\n      dup1\n      returndatacopy\n      revert(0x00, returndatasize)\n        /* \"Contract.sol\":2504:2696  function acceptDispute() public {... */\n    tag_71:\n        /* \"Contract.sol\":2573:2581  platform */\n      and(sub(shl(0xa0, 0x01), 0x01), sload(0x01))\n        /* \"Contract.sol\":2558:2568  msg.sender */\n      caller\n        /* \"Contract.sol\":2550:2581  payable(msg.sender) == platform */\n      eq\n        /* \"Contract.sol\":2542:2582  require(payable(msg.sender) == platform) */\n      tag_202\n      jumpi\n      0x00\n      dup1\n      revert\n    tag_202:\n        /* \"Contract.sol\":2596:2642  hashCompareWithLengthCheck(status, 'disputed') */\n      tag_203\n        /* \"Contract.sol\":2623:2629  status */\n      0x06\n        /* \"Contract.sol\":2596:2642  hashCompareWithLengthCheck(status, 'disputed') */\n      dup1\n      sload\n      tag_204\n      swap1\n      tag_112\n      jump\t// in\n    tag_204:\n      dup1\n      0x1f\n      add\n      0x20\n      dup1\n      swap2\n      div\n      mul\n      0x20\n      add\n      mload(0x40)\n      swap1\n      dup2\n      add\n      0x40\n      mstore\n      dup1\n      swap3\n      swap2\n      swap1\n      dup2\n      dup2\n      mstore\n      0x20\n      add\n      dup3\n      dup1\n      sload\n      tag_205\n      swap1\n      tag_112\n      jump\t// in\n    tag_205:\n      dup1\n      iszero\n      tag_206\n      jumpi\n      dup1\n      0x1f\n      lt\n      tag_207\n      jumpi\n      0x0100\n      dup1\n      dup4\n      sload\n      div\n      mul\n      dup4\n      mstore\n      swap2\n      0x20\n      add\n      swap2\n      jump(tag_206)\n    tag_207:\n      dup3\n      add\n      swap2\n      swap1\n      0x00\n      mstore\n      keccak256(0x00, 0x20)\n      swap1\n    tag_208:\n      dup2\n      sload\n      dup2\n      mstore\n      swap1\n      0x01\n      add\n      swap1\n      0x20\n      add\n      dup1\n      dup4\n      gt\n      tag_208\n      jumpi\n      dup3\n      swap1\n      sub\n      0x1f\n      and\n      dup3\n      add\n      swap2\n    tag_206:\n      pop\n      pop\n      pop\n      pop\n      pop\n      mload(0x40)\n      dup1\n      0x40\n      add\n      0x40\n      mstore\n      dup1\n      0x08\n      dup2\n      mstore\n      0x20\n      add\n      shl(0xc2, 0x191a5cdc1d5d1959)\n      dup2\n      mstore\n      pop\n        /* \"Contract.sol\":2596:2622  hashCompareWithLengthCheck */\n      tag_124\n        /* \"Contract.sol\":2596:2642  hashCompareWithLengthCheck(status, 'disputed') */\n      jump\t// in\n    tag_203:\n        /* \"Contract.sol\":2588:2643  require(hashCompareWithLengthCheck(status, 'disputed')) */\n      tag_209\n      jumpi\n      0x00\n      dup1\n      revert\n    tag_209:\n        /* \"Contract.sol\":2649:2664  status = 'open' */\n      0x40\n      dup1\n      mload\n      dup1\n      dup3\n      add\n      swap1\n      swap2\n      mstore\n      0x04\n      dup2\n      mstore\n      shl(0xe1, 0x37b832b7)\n      0x20\n      dup3\n      add\n      mstore\n        /* \"Contract.sol\":2649:2655  status */\n      0x06\n      swap1\n        /* \"Contract.sol\":2649:2664  status = 'open' */\n      tag_210\n      swap1\n        /* \"Contract.sol\":2649:2655  status */\n      dup3\n        /* \"Contract.sol\":2649:2664  status = 'open' */\n      tag_128\n      jump\t// in\n    tag_210:\n      pop\n        /* \"Contract.sol\":2670:2691  delete mediaAddresses */\n      tag_211\n        /* \"Contract.sol\":2677:2691  mediaAddresses */\n      0x0b\n      0x00\n        /* \"Contract.sol\":2670:2691  delete mediaAddresses */\n      tag_212\n      jump\t// in\n    tag_211:\n        /* \"Contract.sol\":2504:2696  function acceptDispute() public {... */\n      jump\t// out\n        /* \"Contract.sol\":3436:3535  function getMediaAddresses() public view returns (string[] memory) {... */\n    tag_74:\n        /* \"Contract.sol\":3486:3501  string[] memory */\n      0x60\n        /* \"Contract.sol\":3516:3530  mediaAddresses */\n      0x0b\n        /* \"Contract.sol\":3509:3530  return mediaAddresses */\n      dup1\n      sload\n      dup1\n      0x20\n      mul\n      0x20\n      add\n      mload(0x40)\n      swap1\n      dup2\n      add\n      0x40\n      mstore\n      dup1\n      swap3\n      swap2\n      swap1\n      dup2\n      dup2\n      mstore\n      0x20\n      add\n      0x00\n      swap1\n    tag_214:\n      dup3\n      dup3\n      lt\n      iszero\n      tag_215\n      jumpi\n      dup4\n      dup3\n      swap1\n      0x00\n      mstore\n      keccak256(0x00, 0x20)\n      add\n      dup1\n      sload\n      tag_217\n      swap1\n      tag_112\n      jump\t// in\n    tag_217:\n      dup1\n      0x1f\n      add\n      0x20\n      dup1\n      swap2\n      div\n      mul\n      0x20\n      add\n      mload(0x40)\n      swap1\n      dup2\n      add\n      0x40\n      mstore\n      dup1\n      swap3\n      swap2\n      swap1\n      dup2\n      dup2\n      mstore\n      0x20\n      add\n      dup3\n      dup1\n      sload\n      tag_218\n      swap1\n      tag_112\n      jump\t// in\n    tag_218:\n      dup1\n      iszero\n      tag_219\n      jumpi\n      dup1\n      0x1f\n      lt\n      tag_220\n      jumpi\n      0x0100\n      dup1\n      dup4\n      sload\n      div\n      mul\n      dup4\n      mstore\n      swap2\n      0x20\n      add\n      swap2\n      jump(tag_219)\n    tag_220:\n      dup3\n      add\n      swap2\n      swap1\n      0x00\n      mstore\n      keccak256(0x00, 0x20)\n      swap1\n    tag_221:\n      dup2\n      sload\n      dup2\n      mstore\n      swap1\n      0x01\n      add\n      swap1\n      0x20\n      add\n      dup1\n      dup4\n      gt\n      tag_221\n      jumpi\n      dup3\n      swap1\n      sub\n      0x1f\n      and\n      dup3\n      add\n      swap2\n    tag_219:\n      pop\n      pop\n      pop\n      pop\n      pop\n      dup2\n      mstore\n      0x20\n      add\n      swap1\n      0x01\n      add\n      swap1\n      jump(tag_214)\n    tag_215:\n      pop\n      pop\n      pop\n      pop\n      swap1\n      pop\n        /* \"Contract.sol\":3436:3535  function getMediaAddresses() public view returns (string[] memory) {... */\n      swap1\n      jump\t// out\n        /* \"Contract.sol\":1162:1193  string public minimalResolution */\n    tag_84:\n      0x09\n      dup1\n      sload\n      tag_111\n      swap1\n      tag_112\n      jump\t// in\n        /* \"Contract.sol\":1781:2032  function proposeMedia(string[] memory addresses) public {... */\n    tag_90:\n        /* \"Contract.sol\":1869:1876  expires */\n      sload(0x05)\n        /* \"Contract.sol\":1851:1866  block.timestamp */\n      timestamp\n        /* \"Contract.sol\":1851:1876  block.timestamp < expires */\n      lt\n        /* \"Contract.sol\":1843:1877  require(block.timestamp < expires) */\n      tag_228\n      jumpi\n      0x00\n      dup1\n      revert\n    tag_228:\n        /* \"Contract.sol\":1891:1933  hashCompareWithLengthCheck(status, 'open') */\n      tag_229\n        /* \"Contract.sol\":1918:1924  status */\n      0x06\n        /* \"Contract.sol\":1891:1933  hashCompareWithLengthCheck(status, 'open') */\n      dup1\n      sload\n      tag_192\n      swap1\n      tag_112\n      jump\t// in\n    tag_229:\n        /* \"Contract.sol\":1883:1934  require(hashCompareWithLengthCheck(status, 'open')) */\n      tag_235\n      jumpi\n      0x00\n      dup1\n      revert\n    tag_235:\n        /* \"Contract.sol\":1940:1948  reporter */\n      0x02\n        /* \"Contract.sol\":1940:1970  reporter = payable(msg.sender) */\n      dup1\n      sload\n      not(sub(shl(0xa0, 0x01), 0x01))\n      and\n        /* \"Contract.sol\":1959:1969  msg.sender */\n      caller\n        /* \"Contract.sol\":1940:1970  reporter = payable(msg.sender) */\n      or\n      swap1\n      sstore\n        /* \"Contract.sol\":1976:2002  mediaAddresses = addresses */\n      dup1\n      mload\n      tag_236\n      swap1\n        /* \"Contract.sol\":1976:1990  mediaAddresses */\n      0x0b\n      swap1\n        /* \"Contract.sol\":1976:2002  mediaAddresses = addresses */\n      0x20\n      dup5\n      add\n      swap1\n      tag_237\n      jump\t// in\n    tag_236:\n      pop\n        /* \"Contract.sol\":2008:2027  status = 'proposed' */\n      0x40\n      dup1\n      mload\n      dup1\n      dup3\n      add\n      swap1\n      swap2\n      mstore\n      0x08\n      dup2\n      mstore\n      shl(0xc2, 0x1c1c9bdc1bdcd959)\n      0x20\n      dup3\n      add\n      mstore\n        /* \"Contract.sol\":2008:2014  status */\n      0x06\n      swap1\n        /* \"Contract.sol\":2008:2027  status = 'proposed' */\n      tag_238\n      swap1\n        /* \"Contract.sol\":2008:2014  status */\n      dup3\n        /* \"Contract.sol\":2008:2027  status = 'proposed' */\n      tag_128\n      jump\t// in\n    tag_238:\n      pop\n        /* \"Contract.sol\":1781:2032  function proposeMedia(string[] memory addresses) public {... */\n      pop\n      jump\t// out\n        /* \"Contract.sol\":2036:2325  function acceptProposal() public payable {... */\n    tag_92:\n        /* \"Contract.sol\":2114:2122  customer */\n      and(sub(shl(0xa0, 0x01), 0x01), sload(0x00))\n        /* \"Contract.sol\":2099:2109  msg.sender */\n      caller\n        /* \"Contract.sol\":2091:2122  payable(msg.sender) == customer */\n      eq\n        /* \"Contract.sol\":2083:2123  require(payable(msg.sender) == customer) */\n      tag_240\n      jumpi\n      0x00\n      dup1\n      revert\n    tag_240:\n        /* \"Contract.sol\":2137:2183  hashCompareWithLengthCheck(status, 'proposed') */\n      tag_241\n        /* \"Contract.sol\":2164:2170  status */\n      0x06\n        /* \"Contract.sol\":2137:2183  hashCompareWithLengthCheck(status, 'proposed') */\n      dup1\n      sload\n      tag_119\n      swap1\n      tag_112\n      jump\t// in\n    tag_241:\n        /* \"Contract.sol\":2129:2184  require(hashCompareWithLengthCheck(status, 'proposed')) */\n      tag_247\n      jumpi\n      0x00\n      dup1\n      revert\n    tag_247:\n        /* \"Contract.sol\":2190:2207  status = 'closed' */\n      0x40\n      dup1\n      mload\n      dup1\n      dup3\n      add\n      swap1\n      swap2\n      mstore\n      0x06\n      dup1\n      dup3\n      mstore\n      shl(0xd2, 0x18db1bdcd959)\n      0x20\n      dup4\n      add\n      mstore\n      swap1\n      tag_248\n      swap1\n      dup3\n      tag_128\n      jump\t// in\n    tag_248:\n      pop\n        /* \"Contract.sol\":2213:2221  reporter */\n      and(sub(shl(0xa0, 0x01), 0x01), sload(0x02))\n        /* \"Contract.sol\":2213:2264  reporter.transfer(address(this).balance * 95 / 100) */\n      0x08fc\n        /* \"Contract.sol\":2260:2263  100 */\n      0x64\n        /* \"Contract.sol\":2231:2257  address(this).balance * 95 */\n      tag_249\n        /* \"Contract.sol\":2231:2252  address(this).balance */\n      selfbalance\n        /* \"Contract.sol\":2255:2257  95 */\n      0x5f\n        /* \"Contract.sol\":2231:2257  address(this).balance * 95 */\n      tag_143\n      jump\t// in\n    tag_249:\n        /* \"Contract.sol\":2231:2263  address(this).balance * 95 / 100 */\n      tag_250\n      swap2\n      swap1\n      tag_145\n      jump\t// in\n    tag_250:\n        /* \"Contract.sol\":2213:2264  reporter.transfer(address(this).balance * 95 / 100) */\n      mload(0x40)\n      dup2\n      iszero\n      swap1\n      swap3\n      mul\n      swap2\n      0x00\n      dup2\n      dup2\n      dup2\n      dup6\n      dup9\n      dup9\n      call\n      swap4\n      pop\n      pop\n      pop\n      pop\n      iszero\n      dup1\n      iszero\n      tag_252\n      jumpi\n      returndatasize\n      0x00\n      dup1\n      returndatacopy\n      revert(0x00, returndatasize)\n    tag_252:\n      pop\n        /* \"Contract.sol\":2270:2278  platform */\n      and(sub(shl(0xa0, 0x01), 0x01), sload(0x01))\n        /* \"Contract.sol\":2270:2320  platform.transfer(address(this).balance * 5 / 100) */\n      0x08fc\n        /* \"Contract.sol\":2316:2319  100 */\n      0x64\n        /* \"Contract.sol\":2288:2313  address(this).balance * 5 */\n      tag_253\n        /* \"Contract.sol\":2288:2309  address(this).balance */\n      selfbalance\n        /* \"Contract.sol\":2312:2313  5 */\n      0x05\n        /* \"Contract.sol\":2288:2313  address(this).balance * 5 */\n      tag_143\n      jump\t// in\n    tag_253:\n        /* \"Contract.sol\":2288:2319  address(this).balance * 5 / 100 */\n      tag_254\n      swap2\n      swap1\n      tag_145\n      jump\t// in\n    tag_254:\n        /* \"Contract.sol\":2270:2320  platform.transfer(address(this).balance * 5 / 100) */\n      mload(0x40)\n      dup2\n      iszero\n      swap1\n      swap3\n      mul\n      swap2\n      0x00\n      dup2\n      dup2\n      dup2\n      dup6\n      dup9\n      dup9\n      call\n      swap4\n      pop\n      pop\n      pop\n      pop\n      iszero\n      dup1\n      iszero\n      tag_127\n      jumpi\n      returndatasize\n      0x00\n      dup1\n      returndatacopy\n      revert(0x00, returndatasize)\n        /* \"Contract.sol\":1125:1158  string public specialInstructions */\n    tag_99:\n      0x08\n      dup1\n      sload\n      tag_111\n      swap1\n      tag_112\n      jump\t// in\n        /* \"Contract.sol\":3187:3432  function renewContract(uint newExpiration) public {... */\n    tag_104:\n        /* \"Contract.sol\":3265:3273  customer */\n      and(sub(shl(0xa0, 0x01), 0x01), sload(0x00))\n        /* \"Contract.sol\":3251:3261  msg.sender */\n      caller\n        /* \"Contract.sol\":3251:3273  msg.sender == customer */\n      eq\n        /* \"Contract.sol\":3243:3274  require(msg.sender == customer) */\n      tag_263\n      jumpi\n      0x00\n      dup1\n      revert\n    tag_263:\n        /* \"Contract.sol\":3288:3330  hashCompareWithLengthCheck(status, 'open') */\n      tag_264\n        /* \"Contract.sol\":3315:3321  status */\n      0x06\n        /* \"Contract.sol\":3288:3330  hashCompareWithLengthCheck(status, 'open') */\n      dup1\n      sload\n      tag_192\n      swap1\n      tag_112\n      jump\t// in\n    tag_264:\n        /* \"Contract.sol\":3280:3331  require(hashCompareWithLengthCheck(status, 'open')) */\n      tag_270\n      jumpi\n      0x00\n      dup1\n      revert\n    tag_270:\n        /* \"Contract.sol\":3363:3376  newExpiration */\n      dup1\n        /* \"Contract.sol\":3345:3360  block.timestamp */\n      timestamp\n        /* \"Contract.sol\":3345:3376  block.timestamp < newExpiration */\n      lt\n        /* \"Contract.sol\":3337:3377  require(block.timestamp < newExpiration) */\n      tag_271\n      jumpi\n      0x00\n      dup1\n      revert\n    tag_271:\n        /* \"Contract.sol\":3383:3390  expires */\n      0x05\n        /* \"Contract.sol\":3383:3406  expires = newExpiration */\n      dup2\n      swap1\n      sstore\n        /* \"Contract.sol\":3412:3427  status = 'open' */\n      0x40\n      dup1\n      mload\n      dup1\n      dup3\n      add\n      swap1\n      swap2\n      mstore\n      0x04\n      dup2\n      mstore\n      shl(0xe1, 0x37b832b7)\n      0x20\n      dup3\n      add\n      mstore\n        /* \"Contract.sol\":3412:3418  status */\n      0x06\n      swap1\n        /* \"Contract.sol\":3412:3427  status = 'open' */\n      tag_238\n      swap1\n        /* \"Contract.sol\":3412:3418  status */\n      dup3\n        /* \"Contract.sol\":3412:3427  status = 'open' */\n      tag_128\n      jump\t// in\n        /* \"Contract.sol\":1025:1045  string public format */\n    tag_107:\n      0x04\n      dup1\n      sload\n      tag_111\n      swap1\n      tag_112\n      jump\t// in\n        /* \"Contract.sol\":2700:2979  function rejectDispute() public payable {... */\n    tag_110:\n        /* \"Contract.sol\":2768:2776  platform */\n      and(sub(shl(0xa0, 0x01), 0x01), sload(0x01))\n        /* \"Contract.sol\":2754:2764  msg.sender */\n      caller\n        /* \"Contract.sol\":2754:2776  msg.sender == platform */\n      eq\n        /* \"Contract.sol\":2746:2777  require(msg.sender == platform) */\n      tag_279\n      jumpi\n      0x00\n      dup1\n      revert\n    tag_279:\n        /* \"Contract.sol\":2791:2837  hashCompareWithLengthCheck(status, 'disputed') */\n      tag_241\n        /* \"Contract.sol\":2818:2824  status */\n      0x06\n        /* \"Contract.sol\":2791:2837  hashCompareWithLengthCheck(status, 'disputed') */\n      dup1\n      sload\n      tag_204\n      swap1\n      tag_112\n      jump\t// in\n        /* \"Contract.sol\":4018:4275  function hashCompareWithLengthCheck(string memory a, string memory b) internal pure returns (bool)  {... */\n    tag_124:\n        /* \"Contract.sol\":4111:4115  bool */\n      0x00\n        /* \"Contract.sol\":4153:4154  b */\n      dup2\n        /* \"Contract.sol\":4147:4162  bytes(b).length */\n      mload\n        /* \"Contract.sol\":4134:4135  a */\n      dup4\n        /* \"Contract.sol\":4128:4143  bytes(a).length */\n      mload\n        /* \"Contract.sol\":4128:4162  bytes(a).length != bytes(b).length */\n      eq\n        /* \"Contract.sol\":4124:4271  if (bytes(a).length != bytes(b).length) {... */\n      tag_297\n      jumpi\n      pop\n        /* \"Contract.sol\":4179:4184  false */\n      0x00\n        /* \"Contract.sol\":4172:4184  return false */\n      jump(tag_298)\n        /* \"Contract.sol\":4124:4271  if (bytes(a).length != bytes(b).length) {... */\n    tag_297:\n        /* \"Contract.sol\":4261:4262  b */\n      dup2\n        /* \"Contract.sol\":4250:4263  abi.encode(b) */\n      add(0x20, mload(0x40))\n      tag_299\n      swap2\n      swap1\n      tag_35\n      jump\t// in\n    tag_299:\n      mload(0x40)\n      0x20\n      dup2\n      dup4\n      sub\n      sub\n      dup2\n      mstore\n      swap1\n      0x40\n      mstore\n        /* \"Contract.sol\":4240:4264  keccak256(abi.encode(b)) */\n      dup1\n      mload\n      swap1\n      0x20\n      add\n      keccak256\n        /* \"Contract.sol\":4233:4234  a */\n      dup4\n        /* \"Contract.sol\":4222:4235  abi.encode(a) */\n      add(0x20, mload(0x40))\n      tag_300\n      swap2\n      swap1\n      tag_35\n      jump\t// in\n    tag_300:\n      mload(0x40)\n      0x20\n      dup2\n      dup4\n      sub\n      sub\n      dup2\n      mstore\n      swap1\n      0x40\n      mstore\n        /* \"Contract.sol\":4212:4236  keccak256(abi.encode(a)) */\n      dup1\n      mload\n      swap1\n      0x20\n      add\n      keccak256\n        /* \"Contract.sol\":4212:4264  keccak256(abi.encode(a)) == keccak256(abi.encode(b)) */\n      eq\n        /* \"Contract.sol\":4205:4264  return keccak256(abi.encode(a)) == keccak256(abi.encode(b)) */\n      swap1\n      pop\n        /* \"Contract.sol\":4124:4271  if (bytes(a).length != bytes(b).length) {... */\n    tag_298:\n        /* \"Contract.sol\":4018:4275  function hashCompareWithLengthCheck(string memory a, string memory b) internal pure returns (bool)  {... */\n      swap3\n      swap2\n      pop\n      pop\n      jump\t// out\n    tag_212:\n      pop\n      dup1\n      sload\n      0x00\n      dup3\n      sstore\n      swap1\n      0x00\n      mstore\n      keccak256(0x00, 0x20)\n      swap1\n      dup2\n      add\n      swap1\n      tag_127\n      swap2\n      swap1\n      tag_303\n      jump\t// in\n    tag_237:\n      dup3\n      dup1\n      sload\n      dup3\n      dup3\n      sstore\n      swap1\n      0x00\n      mstore\n      keccak256(0x00, 0x20)\n      swap1\n      dup2\n      add\n      swap3\n      dup3\n      iszero\n      tag_306\n      jumpi\n      swap2\n      0x20\n      mul\n      dup3\n      add\n    tag_305:\n      dup3\n      dup2\n      gt\n      iszero\n      tag_306\n      jumpi\n      dup3\n      mload\n      dup3\n      swap1\n      tag_307\n      swap1\n      dup3\n      tag_128\n      jump\t// in\n    tag_307:\n      pop\n      swap2\n      0x20\n      add\n      swap2\n      swap1\n      0x01\n      add\n      swap1\n      jump(tag_305)\n    tag_306:\n      pop\n      tag_308\n      swap3\n      swap2\n      pop\n      tag_303\n      jump\t// in\n    tag_308:\n      pop\n      swap1\n      jump\t// out\n    tag_303:\n      dup1\n      dup3\n      gt\n      iszero\n      tag_308\n      jumpi\n      0x00\n      tag_311\n      dup3\n      dup3\n      tag_312\n      jump\t// in\n    tag_311:\n      pop\n      0x01\n      add\n      jump(tag_303)\n    tag_312:\n      pop\n      dup1\n      sload\n      tag_313\n      swap1\n      tag_112\n      jump\t// in\n    tag_313:\n      0x00\n      dup3\n      sstore\n      dup1\n      0x1f\n      lt\n      tag_315\n      jumpi\n      pop\n      pop\n      jump\t// out\n    tag_315:\n      0x1f\n      add\n      0x20\n      swap1\n      div\n      swap1\n      0x00\n      mstore\n      keccak256(0x00, 0x20)\n      swap1\n      dup2\n      add\n      swap1\n      tag_127\n      swap2\n      swap1\n    tag_318:\n      dup1\n      dup3\n      gt\n      iszero\n      tag_308\n      jumpi\n      0x00\n      dup2\n      sstore\n      0x01\n      add\n      jump(tag_318)\n        /* \"#utility.yul\":355:768   */\n    tag_321:\n        /* \"#utility.yul\":397:400   */\n      0x00\n        /* \"#utility.yul\":435:440   */\n      dup2\n        /* \"#utility.yul\":429:441   */\n      mload\n        /* \"#utility.yul\":462:468   */\n      dup1\n        /* \"#utility.yul\":457:460   */\n      dup5\n        /* \"#utility.yul\":450:469   */\n      mstore\n        /* \"#utility.yul\":488:492   */\n      0x20\n        /* \"#utility.yul\":510:511   */\n      0x00\n        /* \"#utility.yul\":520:653   */\n    tag_332:\n        /* \"#utility.yul\":534:540   */\n      dup3\n        /* \"#utility.yul\":531:532   */\n      dup2\n        /* \"#utility.yul\":528:541   */\n      lt\n        /* \"#utility.yul\":520:653   */\n      iszero\n      tag_334\n      jumpi\n        /* \"#utility.yul\":623:636   */\n      dup5\n      dup2\n      add\n        /* \"#utility.yul\":619:641   */\n      dup3\n      add\n        /* \"#utility.yul\":613:642   */\n      mload\n        /* \"#utility.yul\":595:606   */\n      dup7\n      dup3\n      add\n        /* \"#utility.yul\":591:611   */\n      dup4\n      add\n        /* \"#utility.yul\":584:643   */\n      mstore\n        /* \"#utility.yul\":549:559   */\n      dup2\n      add\n        /* \"#utility.yul\":520:653   */\n      jump(tag_332)\n    tag_334:\n      pop\n        /* \"#utility.yul\":696:697   */\n      0x00\n        /* \"#utility.yul\":673:689   */\n      dup6\n      dup4\n      add\n        /* \"#utility.yul\":669:694   */\n      dup3\n      add\n        /* \"#utility.yul\":662:698   */\n      mstore\n        /* \"#utility.yul\":752:754   */\n      0x1f\n        /* \"#utility.yul\":731:746   */\n      swap1\n      swap2\n      add\n      not(0x1f)\n        /* \"#utility.yul\":727:756   */\n      and\n        /* \"#utility.yul\":718:757   */\n      swap1\n      swap4\n      add\n        /* \"#utility.yul\":714:762   */\n      swap1\n      swap3\n      add\n      swap3\n        /* \"#utility.yul\":355:768   */\n      swap2\n      pop\n      pop\n      jump\t// out\n        /* \"#utility.yul\":773:993   */\n    tag_35:\n        /* \"#utility.yul\":922:924   */\n      0x20\n        /* \"#utility.yul\":911:920   */\n      dup2\n        /* \"#utility.yul\":904:925   */\n      mstore\n        /* \"#utility.yul\":885:889   */\n      0x00\n        /* \"#utility.yul\":942:987   */\n      tag_336\n        /* \"#utility.yul\":983:985   */\n      0x20\n        /* \"#utility.yul\":972:981   */\n      dup4\n        /* \"#utility.yul\":968:986   */\n      add\n        /* \"#utility.yul\":960:966   */\n      dup5\n        /* \"#utility.yul\":942:987   */\n      tag_321\n      jump\t// in\n    tag_336:\n        /* \"#utility.yul\":934:987   */\n      swap4\n        /* \"#utility.yul\":773:993   */\n      swap3\n      pop\n      pop\n      pop\n      jump\t// out\n        /* \"#utility.yul\":998:1178   */\n    tag_46:\n        /* \"#utility.yul\":1057:1063   */\n      0x00\n        /* \"#utility.yul\":1110:1112   */\n      0x20\n        /* \"#utility.yul\":1098:1107   */\n      dup3\n        /* \"#utility.yul\":1089:1096   */\n      dup5\n        /* \"#utility.yul\":1085:1108   */\n      sub\n        /* \"#utility.yul\":1081:1113   */\n      slt\n        /* \"#utility.yul\":1078:1130   */\n      iszero\n      tag_338\n      jumpi\n        /* \"#utility.yul\":1126:1127   */\n      0x00\n        /* \"#utility.yul\":1123:1124   */\n      dup1\n        /* \"#utility.yul\":1116:1128   */\n      revert\n        /* \"#utility.yul\":1078:1130   */\n    tag_338:\n      pop\n        /* \"#utility.yul\":1149:1172   */\n      calldataload\n      swap2\n        /* \"#utility.yul\":998:1178   */\n      swap1\n      pop\n      jump\t// out\n        /* \"#utility.yul\":1183:1775   */\n    tag_322:\n        /* \"#utility.yul\":1235:1238   */\n      0x00\n        /* \"#utility.yul\":1266:1269   */\n      dup3\n        /* \"#utility.yul\":1298:1303   */\n      dup3\n        /* \"#utility.yul\":1292:1304   */\n      mload\n        /* \"#utility.yul\":1325:1331   */\n      dup1\n        /* \"#utility.yul\":1320:1323   */\n      dup6\n        /* \"#utility.yul\":1313:1332   */\n      mstore\n        /* \"#utility.yul\":1351:1355   */\n      0x20\n        /* \"#utility.yul\":1380:1382   */\n      dup1\n        /* \"#utility.yul\":1375:1378   */\n      dup7\n        /* \"#utility.yul\":1371:1383   */\n      add\n        /* \"#utility.yul\":1364:1383   */\n      swap6\n      pop\n        /* \"#utility.yul\":1436:1438   */\n      dup1\n        /* \"#utility.yul\":1426:1432   */\n      dup3\n        /* \"#utility.yul\":1423:1424   */\n      0x05\n        /* \"#utility.yul\":1419:1433   */\n      shl\n        /* \"#utility.yul\":1412:1417   */\n      dup5\n        /* \"#utility.yul\":1408:1434   */\n      add\n        /* \"#utility.yul\":1404:1439   */\n      add\n        /* \"#utility.yul\":1473:1475   */\n      dup2\n        /* \"#utility.yul\":1466:1471   */\n      dup7\n        /* \"#utility.yul\":1462:1476   */\n      add\n        /* \"#utility.yul\":1494:1495   */\n      0x00\n        /* \"#utility.yul\":1504:1749   */\n    tag_340:\n        /* \"#utility.yul\":1518:1524   */\n      dup5\n        /* \"#utility.yul\":1515:1516   */\n      dup2\n        /* \"#utility.yul\":1512:1525   */\n      lt\n        /* \"#utility.yul\":1504:1749   */\n      iszero\n      tag_342\n      jumpi\n        /* \"#utility.yul\":1605:1607   */\n      0x1f\n        /* \"#utility.yul\":1601:1608   */\n      not\n        /* \"#utility.yul\":1593:1598   */\n      dup7\n        /* \"#utility.yul\":1587:1591   */\n      dup5\n        /* \"#utility.yul\":1583:1599   */\n      sub\n        /* \"#utility.yul\":1579:1609   */\n      add\n        /* \"#utility.yul\":1574:1577   */\n      dup10\n        /* \"#utility.yul\":1567:1610   */\n      mstore\n        /* \"#utility.yul\":1631:1669   */\n      tag_343\n        /* \"#utility.yul\":1664:1668   */\n      dup4\n        /* \"#utility.yul\":1655:1661   */\n      dup4\n        /* \"#utility.yul\":1649:1662   */\n      mload\n        /* \"#utility.yul\":1631:1669   */\n      tag_321\n      jump\t// in\n    tag_343:\n        /* \"#utility.yul\":1727:1739   */\n      swap9\n      dup5\n      add\n      swap9\n        /* \"#utility.yul\":1623:1669   */\n      swap3\n      pop\n        /* \"#utility.yul\":1692:1707   */\n      swap1\n      dup4\n      add\n      swap1\n        /* \"#utility.yul\":1540:1541   */\n      0x01\n        /* \"#utility.yul\":1533:1542   */\n      add\n        /* \"#utility.yul\":1504:1749   */\n      jump(tag_340)\n    tag_342:\n      pop\n        /* \"#utility.yul\":1765:1769   */\n      swap1\n      swap8\n        /* \"#utility.yul\":1183:1775   */\n      swap7\n      pop\n      pop\n      pop\n      pop\n      pop\n      pop\n      pop\n      jump\t// out\n        /* \"#utility.yul\":1780:3447   */\n    tag_57:\n      sub(shl(0xa0, 0x01), 0x01)\n        /* \"#utility.yul\":88:119   */\n      dup14\n      and\n        /* \"#utility.yul\":76:120   */\n      dup2\n      mstore\n      sub(shl(0xa0, 0x01), 0x01)\n        /* \"#utility.yul\":88:119   */\n      dup13\n      and\n        /* \"#utility.yul\":2495:2497   */\n      0x20\n        /* \"#utility.yul\":2480:2498   */\n      dup3\n      add\n        /* \"#utility.yul\":76:120   */\n      mstore\n        /* \"#utility.yul\":2535:2541   */\n      dup11\n        /* \"#utility.yul\":2530:2532   */\n      0x40\n        /* \"#utility.yul\":2519:2528   */\n      dup3\n        /* \"#utility.yul\":2515:2533   */\n      add\n        /* \"#utility.yul\":2508:2542   */\n      mstore\n        /* \"#utility.yul\":2578:2581   */\n      0x0180\n        /* \"#utility.yul\":2573:2575   */\n      0x60\n        /* \"#utility.yul\":2562:2571   */\n      dup3\n        /* \"#utility.yul\":2558:2576   */\n      add\n        /* \"#utility.yul\":2551:2582   */\n      mstore\n        /* \"#utility.yul\":2372:2376   */\n      0x00\n        /* \"#utility.yul\":2605:2651   */\n      tag_347\n        /* \"#utility.yul\":2646:2649   */\n      0x0180\n        /* \"#utility.yul\":2635:2644   */\n      dup4\n        /* \"#utility.yul\":2631:2650   */\n      add\n        /* \"#utility.yul\":2623:2629   */\n      dup13\n        /* \"#utility.yul\":2605:2651   */\n      tag_321\n      jump\t// in\n    tag_347:\n        /* \"#utility.yul\":2700:2709   */\n      dup3\n        /* \"#utility.yul\":2692:2698   */\n      dup2\n        /* \"#utility.yul\":2688:2710   */\n      sub\n        /* \"#utility.yul\":2682:2685   */\n      0x80\n        /* \"#utility.yul\":2671:2680   */\n      dup5\n        /* \"#utility.yul\":2667:2686   */\n      add\n        /* \"#utility.yul\":2660:2711   */\n      mstore\n        /* \"#utility.yul\":2734:2767   */\n      tag_348\n        /* \"#utility.yul\":2760:2766   */\n      dup2\n        /* \"#utility.yul\":2752:2758   */\n      dup13\n        /* \"#utility.yul\":2734:2767   */\n      tag_321\n      jump\t// in\n    tag_348:\n        /* \"#utility.yul\":2720:2767   */\n      swap1\n      pop\n        /* \"#utility.yul\":2804:2810   */\n      dup10\n        /* \"#utility.yul\":2798:2801   */\n      0xa0\n        /* \"#utility.yul\":2787:2796   */\n      dup5\n        /* \"#utility.yul\":2783:2802   */\n      add\n        /* \"#utility.yul\":2776:2811   */\n      mstore\n        /* \"#utility.yul\":2860:2869   */\n      dup3\n        /* \"#utility.yul\":2852:2858   */\n      dup2\n        /* \"#utility.yul\":2848:2870   */\n      sub\n        /* \"#utility.yul\":2842:2845   */\n      0xc0\n        /* \"#utility.yul\":2831:2840   */\n      dup5\n        /* \"#utility.yul\":2827:2846   */\n      add\n        /* \"#utility.yul\":2820:2871   */\n      mstore\n        /* \"#utility.yul\":2894:2927   */\n      tag_349\n        /* \"#utility.yul\":2920:2926   */\n      dup2\n        /* \"#utility.yul\":2912:2918   */\n      dup11\n        /* \"#utility.yul\":2894:2927   */\n      tag_321\n      jump\t// in\n    tag_349:\n        /* \"#utility.yul\":2880:2927   */\n      swap1\n      pop\n        /* \"#utility.yul\":2964:2970   */\n      dup8\n        /* \"#utility.yul\":2958:2961   */\n      0xe0\n        /* \"#utility.yul\":2947:2956   */\n      dup5\n        /* \"#utility.yul\":2943:2962   */\n      add\n        /* \"#utility.yul\":2936:2971   */\n      mstore\n        /* \"#utility.yul\":3020:3029   */\n      dup3\n        /* \"#utility.yul\":3012:3018   */\n      dup2\n        /* \"#utility.yul\":3008:3030   */\n      sub\n        /* \"#utility.yul\":3002:3005   */\n      0x0100\n        /* \"#utility.yul\":2991:3000   */\n      dup5\n        /* \"#utility.yul\":2987:3006   */\n      add\n        /* \"#utility.yul\":2980:3031   */\n      mstore\n        /* \"#utility.yul\":3054:3087   */\n      tag_350\n        /* \"#utility.yul\":3080:3086   */\n      dup2\n        /* \"#utility.yul\":3072:3078   */\n      dup9\n        /* \"#utility.yul\":3054:3087   */\n      tag_321\n      jump\t// in\n    tag_350:\n        /* \"#utility.yul\":3040:3087   */\n      swap1\n      pop\n        /* \"#utility.yul\":3136:3145   */\n      dup3\n        /* \"#utility.yul\":3128:3134   */\n      dup2\n        /* \"#utility.yul\":3124:3146   */\n      sub\n        /* \"#utility.yul\":3118:3121   */\n      0x0120\n        /* \"#utility.yul\":3107:3116   */\n      dup5\n        /* \"#utility.yul\":3103:3122   */\n      add\n        /* \"#utility.yul\":3096:3147   */\n      mstore\n        /* \"#utility.yul\":3170:3203   */\n      tag_351\n        /* \"#utility.yul\":3196:3202   */\n      dup2\n        /* \"#utility.yul\":3188:3194   */\n      dup8\n        /* \"#utility.yul\":3170:3203   */\n      tag_321\n      jump\t// in\n    tag_351:\n        /* \"#utility.yul\":3156:3203   */\n      swap1\n      pop\n        /* \"#utility.yul\":3252:3261   */\n      dup3\n        /* \"#utility.yul\":3244:3250   */\n      dup2\n        /* \"#utility.yul\":3240:3262   */\n      sub\n        /* \"#utility.yul\":3234:3237   */\n      0x0140\n        /* \"#utility.yul\":3223:3232   */\n      dup5\n        /* \"#utility.yul\":3219:3238   */\n      add\n        /* \"#utility.yul\":3212:3263   */\n      mstore\n        /* \"#utility.yul\":3286:3320   */\n      tag_352\n        /* \"#utility.yul\":3313:3319   */\n      dup2\n        /* \"#utility.yul\":3304:3311   */\n      dup7\n        /* \"#utility.yul\":3286:3320   */\n      tag_321\n      jump\t// in\n    tag_352:\n        /* \"#utility.yul\":3272:3320   */\n      swap1\n      pop\n        /* \"#utility.yul\":3369:3378   */\n      dup3\n        /* \"#utility.yul\":3361:3367   */\n      dup2\n        /* \"#utility.yul\":3357:3379   */\n      sub\n        /* \"#utility.yul\":3351:3354   */\n      0x0160\n        /* \"#utility.yul\":3340:3349   */\n      dup5\n        /* \"#utility.yul\":3336:3355   */\n      add\n        /* \"#utility.yul\":3329:3380   */\n      mstore\n        /* \"#utility.yul\":3397:3441   */\n      tag_353\n        /* \"#utility.yul\":3434:3440   */\n      dup2\n        /* \"#utility.yul\":3425:3432   */\n      dup6\n        /* \"#utility.yul\":3397:3441   */\n      tag_322\n      jump\t// in\n    tag_353:\n        /* \"#utility.yul\":3389:3441   */\n      swap16\n        /* \"#utility.yul\":1780:3447   */\n      swap15\n      pop\n      pop\n      pop\n      pop\n      pop\n      pop\n      pop\n      pop\n      pop\n      pop\n      pop\n      pop\n      pop\n      pop\n      pop\n      jump\t// out\n        /* \"#utility.yul\":3452:3732   */\n    tag_76:\n        /* \"#utility.yul\":3651:3653   */\n      0x20\n        /* \"#utility.yul\":3640:3649   */\n      dup2\n        /* \"#utility.yul\":3633:3654   */\n      mstore\n        /* \"#utility.yul\":3614:3618   */\n      0x00\n        /* \"#utility.yul\":3671:3726   */\n      tag_336\n        /* \"#utility.yul\":3722:3724   */\n      0x20\n        /* \"#utility.yul\":3711:3720   */\n      dup4\n        /* \"#utility.yul\":3707:3725   */\n      add\n        /* \"#utility.yul\":3699:3705   */\n      dup5\n        /* \"#utility.yul\":3671:3726   */\n      tag_322\n      jump\t// in\n        /* \"#utility.yul\":3919:4046   */\n    tag_323:\n        /* \"#utility.yul\":3980:3990   */\n      0x4e487b71\n        /* \"#utility.yul\":3975:3978   */\n      0xe0\n        /* \"#utility.yul\":3971:3991   */\n      shl\n        /* \"#utility.yul\":3968:3969   */\n      0x00\n        /* \"#utility.yul\":3961:3992   */\n      mstore\n        /* \"#utility.yul\":4011:4015   */\n      0x41\n        /* \"#utility.yul\":4008:4009   */\n      0x04\n        /* \"#utility.yul\":4001:4016   */\n      mstore\n        /* \"#utility.yul\":4035:4039   */\n      0x24\n        /* \"#utility.yul\":4032:4033   */\n      0x00\n        /* \"#utility.yul\":4025:4040   */\n      revert\n        /* \"#utility.yul\":4051:4326   */\n    tag_324:\n        /* \"#utility.yul\":4122:4124   */\n      0x40\n        /* \"#utility.yul\":4116:4125   */\n      mload\n        /* \"#utility.yul\":4187:4189   */\n      0x1f\n        /* \"#utility.yul\":4168:4181   */\n      dup3\n      add\n      not(0x1f)\n        /* \"#utility.yul\":4164:4191   */\n      and\n        /* \"#utility.yul\":4152:4192   */\n      dup2\n      add\n        /* \"#utility.yul\":4222:4240   */\n      0xffffffffffffffff\n        /* \"#utility.yul\":4207:4241   */\n      dup2\n      gt\n        /* \"#utility.yul\":4243:4265   */\n      dup3\n      dup3\n      lt\n        /* \"#utility.yul\":4204:4266   */\n      or\n        /* \"#utility.yul\":4201:4289   */\n      iszero\n      tag_360\n      jumpi\n        /* \"#utility.yul\":4269:4287   */\n      tag_360\n      tag_323\n      jump\t// in\n    tag_360:\n        /* \"#utility.yul\":4305:4307   */\n      0x40\n        /* \"#utility.yul\":4298:4320   */\n      mstore\n        /* \"#utility.yul\":4051:4326   */\n      swap2\n      swap1\n      pop\n      jump\t// out\n        /* \"#utility.yul\":4331:6129   */\n    tag_89:\n        /* \"#utility.yul\":4425:4431   */\n      0x00\n        /* \"#utility.yul\":4456:4458   */\n      0x20\n        /* \"#utility.yul\":4499:4501   */\n      dup1\n        /* \"#utility.yul\":4487:4496   */\n      dup4\n        /* \"#utility.yul\":4478:4485   */\n      dup6\n        /* \"#utility.yul\":4474:4497   */\n      sub\n        /* \"#utility.yul\":4470:4502   */\n      slt\n        /* \"#utility.yul\":4467:4519   */\n      iszero\n      tag_362\n      jumpi\n        /* \"#utility.yul\":4515:4516   */\n      0x00\n        /* \"#utility.yul\":4512:4513   */\n      dup1\n        /* \"#utility.yul\":4505:4517   */\n      revert\n        /* \"#utility.yul\":4467:4519   */\n    tag_362:\n        /* \"#utility.yul\":4555:4564   */\n      dup3\n        /* \"#utility.yul\":4542:4565   */\n      calldataload\n        /* \"#utility.yul\":4584:4602   */\n      0xffffffffffffffff\n        /* \"#utility.yul\":4625:4627   */\n      dup1\n        /* \"#utility.yul\":4617:4623   */\n      dup3\n        /* \"#utility.yul\":4614:4628   */\n      gt\n        /* \"#utility.yul\":4611:4645   */\n      iszero\n      tag_363\n      jumpi\n        /* \"#utility.yul\":4641:4642   */\n      0x00\n        /* \"#utility.yul\":4638:4639   */\n      dup1\n        /* \"#utility.yul\":4631:4643   */\n      revert\n        /* \"#utility.yul\":4611:4645   */\n    tag_363:\n        /* \"#utility.yul\":4679:4685   */\n      dup2\n        /* \"#utility.yul\":4668:4677   */\n      dup6\n        /* \"#utility.yul\":4664:4686   */\n      add\n        /* \"#utility.yul\":4654:4686   */\n      swap2\n      pop\n        /* \"#utility.yul\":4705:4709   */\n      0x1f\n        /* \"#utility.yul\":4745:4752   */\n      dup7\n        /* \"#utility.yul\":4740:4742   */\n      dup2\n        /* \"#utility.yul\":4736:4738   */\n      dup5\n        /* \"#utility.yul\":4732:4743   */\n      add\n        /* \"#utility.yul\":4728:4753   */\n      slt\n        /* \"#utility.yul\":4718:4771   */\n      tag_364\n      jumpi\n        /* \"#utility.yul\":4767:4768   */\n      0x00\n        /* \"#utility.yul\":4764:4765   */\n      dup1\n        /* \"#utility.yul\":4757:4769   */\n      revert\n        /* \"#utility.yul\":4718:4771   */\n    tag_364:\n        /* \"#utility.yul\":4803:4805   */\n      dup3\n        /* \"#utility.yul\":4790:4806   */\n      calldataload\n        /* \"#utility.yul\":4825:4827   */\n      dup3\n        /* \"#utility.yul\":4821:4823   */\n      dup2\n        /* \"#utility.yul\":4818:4828   */\n      gt\n        /* \"#utility.yul\":4815:4851   */\n      iszero\n      tag_366\n      jumpi\n        /* \"#utility.yul\":4831:4849   */\n      tag_366\n      tag_323\n      jump\t// in\n    tag_366:\n        /* \"#utility.yul\":4877:4879   */\n      dup1\n        /* \"#utility.yul\":4874:4875   */\n      0x05\n        /* \"#utility.yul\":4870:4880   */\n      shl\n        /* \"#utility.yul\":4900:4928   */\n      tag_367\n        /* \"#utility.yul\":4924:4926   */\n      dup7\n        /* \"#utility.yul\":4920:4922   */\n      dup3\n        /* \"#utility.yul\":4916:4927   */\n      add\n        /* \"#utility.yul\":4900:4928   */\n      tag_324\n      jump\t// in\n    tag_367:\n        /* \"#utility.yul\":4962:4977   */\n      swap2\n      dup3\n      mstore\n        /* \"#utility.yul\":5032:5043   */\n      dup5\n      dup2\n      add\n        /* \"#utility.yul\":5028:5048   */\n      dup7\n      add\n      swap2\n        /* \"#utility.yul\":4993:5005   */\n      dup7\n      dup2\n      add\n      swap1\n        /* \"#utility.yul\":5060:5079   */\n      dup11\n      dup5\n      gt\n        /* \"#utility.yul\":5057:5096   */\n      iszero\n      tag_368\n      jumpi\n        /* \"#utility.yul\":5092:5093   */\n      0x00\n        /* \"#utility.yul\":5089:5090   */\n      dup1\n        /* \"#utility.yul\":5082:5094   */\n      revert\n        /* \"#utility.yul\":5057:5096   */\n    tag_368:\n        /* \"#utility.yul\":5124:5126   */\n      dup8\n        /* \"#utility.yul\":5120:5122   */\n      dup8\n        /* \"#utility.yul\":5116:5127   */\n      add\n        /* \"#utility.yul\":5105:5127   */\n      swap3\n      pop\n        /* \"#utility.yul\":5136:6099   */\n    tag_369:\n        /* \"#utility.yul\":5152:5158   */\n      dup4\n        /* \"#utility.yul\":5147:5150   */\n      dup4\n        /* \"#utility.yul\":5144:5159   */\n      lt\n        /* \"#utility.yul\":5136:6099   */\n      iszero\n      tag_371\n      jumpi\n        /* \"#utility.yul\":5238:5241   */\n      dup3\n        /* \"#utility.yul\":5225:5242   */\n      calldataload\n        /* \"#utility.yul\":5274:5276   */\n      dup7\n        /* \"#utility.yul\":5261:5272   */\n      dup2\n        /* \"#utility.yul\":5258:5277   */\n      gt\n        /* \"#utility.yul\":5255:5364   */\n      iszero\n      tag_372\n      jumpi\n        /* \"#utility.yul\":5318:5319   */\n      0x00\n        /* \"#utility.yul\":5347:5349   */\n      dup1\n        /* \"#utility.yul\":5343:5345   */\n      dup2\n        /* \"#utility.yul\":5336:5350   */\n      revert\n        /* \"#utility.yul\":5255:5364   */\n    tag_372:\n        /* \"#utility.yul\":5387:5407   */\n      dup8\n      add\n        /* \"#utility.yul\":5442:5444   */\n      0x3f\n        /* \"#utility.yul\":5434:5445   */\n      dup2\n      add\n        /* \"#utility.yul\":5430:5455   */\n      dup13\n      sgt\n        /* \"#utility.yul\":5420:5543   */\n      tag_373\n      jumpi\n        /* \"#utility.yul\":5497:5498   */\n      0x00\n        /* \"#utility.yul\":5526:5528   */\n      dup1\n        /* \"#utility.yul\":5522:5524   */\n      dup2\n        /* \"#utility.yul\":5515:5529   */\n      revert\n        /* \"#utility.yul\":5420:5543   */\n    tag_373:\n        /* \"#utility.yul\":5588:5590   */\n      dup9\n        /* \"#utility.yul\":5584:5586   */\n      dup2\n        /* \"#utility.yul\":5580:5591   */\n      add\n        /* \"#utility.yul\":5567:5592   */\n      calldataload\n        /* \"#utility.yul\":5616:5618   */\n      0x40\n        /* \"#utility.yul\":5642:5644   */\n      dup9\n        /* \"#utility.yul\":5637:5640   */\n      dup3\n        /* \"#utility.yul\":5634:5645   */\n      gt\n        /* \"#utility.yul\":5631:5668   */\n      iszero\n      tag_375\n      jumpi\n        /* \"#utility.yul\":5648:5666   */\n      tag_375\n      tag_323\n      jump\t// in\n    tag_375:\n        /* \"#utility.yul\":5694:5746   */\n      tag_376\n        /* \"#utility.yul\":5718:5730   */\n      dup3\n      dup10\n      add\n      not(0x1f)\n        /* \"#utility.yul\":5714:5740   */\n      and\n        /* \"#utility.yul\":5710:5745   */\n      dup13\n      add\n        /* \"#utility.yul\":5694:5746   */\n      tag_324\n      jump\t// in\n    tag_376:\n        /* \"#utility.yul\":5773:5776   */\n      dup3\n        /* \"#utility.yul\":5766:5771   */\n      dup2\n        /* \"#utility.yul\":5759:5777   */\n      mstore\n        /* \"#utility.yul\":5820:5827   */\n      dup15\n        /* \"#utility.yul\":5814:5817   */\n      dup3\n        /* \"#utility.yul\":5808:5811   */\n      dup5\n        /* \"#utility.yul\":5804:5806   */\n      dup7\n        /* \"#utility.yul\":5800:5812   */\n      add\n        /* \"#utility.yul\":5796:5818   */\n      add\n        /* \"#utility.yul\":5793:5828   */\n      gt\n        /* \"#utility.yul\":5790:5918   */\n      iszero\n      tag_377\n      jumpi\n        /* \"#utility.yul\":5870:5871   */\n      0x00\n        /* \"#utility.yul\":5900:5903   */\n      dup1\n        /* \"#utility.yul\":5895:5898   */\n      dup2\n        /* \"#utility.yul\":5888:5904   */\n      revert\n        /* \"#utility.yul\":5790:5918   */\n    tag_377:\n        /* \"#utility.yul\":5974:5977   */\n      dup3\n        /* \"#utility.yul\":5968:5971   */\n      dup3\n        /* \"#utility.yul\":5964:5966   */\n      dup6\n        /* \"#utility.yul\":5960:5972   */\n      add\n        /* \"#utility.yul\":5955:5957   */\n      dup14\n        /* \"#utility.yul\":5948:5953   */\n      dup4\n        /* \"#utility.yul\":5944:5958   */\n      add\n        /* \"#utility.yul\":5931:5978   */\n      calldatacopy\n        /* \"#utility.yul\":6024:6025   */\n      0x00\n        /* \"#utility.yul\":6002:6017   */\n      swap3\n      dup2\n      add\n        /* \"#utility.yul\":5998:6022   */\n      dup13\n      add\n        /* \"#utility.yul\":5991:6026   */\n      swap3\n      swap1\n      swap3\n      mstore\n      pop\n        /* \"#utility.yul\":6039:6057   */\n      dup4\n      mstore\n      pop\n        /* \"#utility.yul\":5169:5181   */\n      swap2\n      dup8\n      add\n      swap2\n        /* \"#utility.yul\":6077:6089   */\n      swap1\n      dup8\n      add\n      swap1\n        /* \"#utility.yul\":5136:6099   */\n      jump(tag_369)\n    tag_371:\n        /* \"#utility.yul\":6118:6123   */\n      swap11\n        /* \"#utility.yul\":4331:6129   */\n      swap10\n      pop\n      pop\n      pop\n      pop\n      pop\n      pop\n      pop\n      pop\n      pop\n      pop\n      jump\t// out\n        /* \"#utility.yul\":6134:6514   */\n    tag_112:\n        /* \"#utility.yul\":6213:6214   */\n      0x01\n        /* \"#utility.yul\":6209:6221   */\n      dup2\n      dup2\n      shr\n      swap1\n        /* \"#utility.yul\":6256:6268   */\n      dup3\n      and\n      dup1\n        /* \"#utility.yul\":6277:6338   */\n      tag_379\n      jumpi\n        /* \"#utility.yul\":6331:6335   */\n      0x7f\n        /* \"#utility.yul\":6323:6329   */\n      dup3\n        /* \"#utility.yul\":6319:6336   */\n      and\n        /* \"#utility.yul\":6309:6336   */\n      swap2\n      pop\n        /* \"#utility.yul\":6277:6338   */\n    tag_379:\n        /* \"#utility.yul\":6384:6386   */\n      0x20\n        /* \"#utility.yul\":6376:6382   */\n      dup3\n        /* \"#utility.yul\":6373:6387   */\n      lt\n        /* \"#utility.yul\":6353:6371   */\n      dup2\n        /* \"#utility.yul\":6350:6388   */\n      sub\n        /* \"#utility.yul\":6347:6508   */\n      tag_380\n      jumpi\n        /* \"#utility.yul\":6430:6440   */\n      0x4e487b71\n        /* \"#utility.yul\":6425:6428   */\n      0xe0\n        /* \"#utility.yul\":6421:6441   */\n      shl\n        /* \"#utility.yul\":6418:6419   */\n      0x00\n        /* \"#utility.yul\":6411:6442   */\n      mstore\n        /* \"#utility.yul\":6465:6469   */\n      0x22\n        /* \"#utility.yul\":6462:6463   */\n      0x04\n        /* \"#utility.yul\":6455:6470   */\n      mstore\n        /* \"#utility.yul\":6493:6497   */\n      0x24\n        /* \"#utility.yul\":6490:6491   */\n      0x00\n        /* \"#utility.yul\":6483:6498   */\n      revert\n        /* \"#utility.yul\":6347:6508   */\n    tag_380:\n      pop\n        /* \"#utility.yul\":6134:6514   */\n      swap2\n      swap1\n      pop\n      jump\t// out\n        /* \"#utility.yul\":6645:7190   */\n    tag_326:\n        /* \"#utility.yul\":6747:6749   */\n      0x1f\n        /* \"#utility.yul\":6742:6745   */\n      dup3\n        /* \"#utility.yul\":6739:6750   */\n      gt\n        /* \"#utility.yul\":6736:7184   */\n      iszero\n      tag_383\n      jumpi\n        /* \"#utility.yul\":6783:6784   */\n      0x00\n        /* \"#utility.yul\":6808:6813   */\n      dup2\n        /* \"#utility.yul\":6804:6806   */\n      dup2\n        /* \"#utility.yul\":6797:6814   */\n      mstore\n        /* \"#utility.yul\":6853:6857   */\n      0x20\n        /* \"#utility.yul\":6849:6851   */\n      dup2\n        /* \"#utility.yul\":6839:6858   */\n      keccak256\n        /* \"#utility.yul\":6923:6925   */\n      0x1f\n        /* \"#utility.yul\":6911:6921   */\n      dup6\n        /* \"#utility.yul\":6907:6926   */\n      add\n        /* \"#utility.yul\":6904:6905   */\n      0x05\n        /* \"#utility.yul\":6900:6927   */\n      shr\n        /* \"#utility.yul\":6894:6898   */\n      dup2\n        /* \"#utility.yul\":6890:6928   */\n      add\n        /* \"#utility.yul\":6959:6963   */\n      0x20\n        /* \"#utility.yul\":6947:6957   */\n      dup7\n        /* \"#utility.yul\":6944:6964   */\n      lt\n        /* \"#utility.yul\":6941:6988   */\n      iszero\n      tag_384\n      jumpi\n      pop\n        /* \"#utility.yul\":6982:6986   */\n      dup1\n        /* \"#utility.yul\":6941:6988   */\n    tag_384:\n        /* \"#utility.yul\":7037:7039   */\n      0x1f\n        /* \"#utility.yul\":7032:7035   */\n      dup6\n        /* \"#utility.yul\":7028:7040   */\n      add\n        /* \"#utility.yul\":7025:7026   */\n      0x05\n        /* \"#utility.yul\":7021:7041   */\n      shr\n        /* \"#utility.yul\":7015:7019   */\n      dup3\n        /* \"#utility.yul\":7011:7042   */\n      add\n        /* \"#utility.yul\":7001:7042   */\n      swap2\n      pop\n        /* \"#utility.yul\":7092:7174   */\n    tag_385:\n        /* \"#utility.yul\":7110:7112   */\n      dup2\n        /* \"#utility.yul\":7103:7108   */\n      dup2\n        /* \"#utility.yul\":7100:7113   */\n      lt\n        /* \"#utility.yul\":7092:7174   */\n      iszero\n      tag_387\n      jumpi\n        /* \"#utility.yul\":7155:7172   */\n      dup3\n      dup2\n      sstore\n        /* \"#utility.yul\":7136:7137   */\n      0x01\n        /* \"#utility.yul\":7125:7138   */\n      add\n        /* \"#utility.yul\":7092:7174   */\n      jump(tag_385)\n    tag_387:\n        /* \"#utility.yul\":7096:7099   */\n      pop\n      pop\n      pop\n        /* \"#utility.yul\":6736:7184   */\n    tag_383:\n        /* \"#utility.yul\":6645:7190   */\n      pop\n      pop\n      pop\n      jump\t// out\n        /* \"#utility.yul\":7366:8718   */\n    tag_128:\n        /* \"#utility.yul\":7492:7495   */\n      dup2\n        /* \"#utility.yul\":7486:7496   */\n      mload\n        /* \"#utility.yul\":7519:7537   */\n      0xffffffffffffffff\n        /* \"#utility.yul\":7511:7517   */\n      dup2\n        /* \"#utility.yul\":7508:7538   */\n      gt\n        /* \"#utility.yul\":7505:7561   */\n      iszero\n      tag_391\n      jumpi\n        /* \"#utility.yul\":7541:7559   */\n      tag_391\n      tag_323\n      jump\t// in\n    tag_391:\n        /* \"#utility.yul\":7570:7667   */\n      tag_392\n        /* \"#utility.yul\":7660:7666   */\n      dup2\n        /* \"#utility.yul\":7620:7658   */\n      tag_393\n        /* \"#utility.yul\":7652:7656   */\n      dup5\n        /* \"#utility.yul\":7646:7657   */\n      sload\n        /* \"#utility.yul\":7620:7658   */\n      tag_112\n      jump\t// in\n    tag_393:\n        /* \"#utility.yul\":7614:7618   */\n      dup5\n        /* \"#utility.yul\":7570:7667   */\n      tag_326\n      jump\t// in\n    tag_392:\n        /* \"#utility.yul\":7722:7726   */\n      0x20\n      dup1\n        /* \"#utility.yul\":7786:7788   */\n      0x1f\n        /* \"#utility.yul\":7775:7789   */\n      dup4\n      gt\n        /* \"#utility.yul\":7803:7804   */\n      0x01\n        /* \"#utility.yul\":7798:8461   */\n      dup2\n      eq\n      tag_395\n      jumpi\n        /* \"#utility.yul\":8505:8506   */\n      0x00\n        /* \"#utility.yul\":8522:8528   */\n      dup5\n        /* \"#utility.yul\":8519:8608   */\n      iszero\n      tag_396\n      jumpi\n      pop\n        /* \"#utility.yul\":8574:8593   */\n      dup6\n      dup4\n      add\n        /* \"#utility.yul\":8568:8594   */\n      mload\n        /* \"#utility.yul\":8519:8608   */\n    tag_396:\n      not(0x00)\n        /* \"#utility.yul\":7323:7324   */\n      0x03\n        /* \"#utility.yul\":7319:7330   */\n      dup7\n      swap1\n      shl\n        /* \"#utility.yul\":7315:7339   */\n      shr\n        /* \"#utility.yul\":7311:7340   */\n      not\n        /* \"#utility.yul\":7301:7341   */\n      and\n        /* \"#utility.yul\":7347:7348   */\n      0x01\n        /* \"#utility.yul\":7343:7354   */\n      dup6\n      swap1\n      shl\n        /* \"#utility.yul\":7298:7355   */\n      or\n        /* \"#utility.yul\":8621:8702   */\n      dup6\n      sstore\n        /* \"#utility.yul\":7768:8712   */\n      jump(tag_387)\n        /* \"#utility.yul\":7798:8461   */\n    tag_395:\n        /* \"#utility.yul\":6592:6593   */\n      0x00\n        /* \"#utility.yul\":6585:6599   */\n      dup6\n      dup2\n      mstore\n        /* \"#utility.yul\":6629:6633   */\n      0x20\n        /* \"#utility.yul\":6616:6634   */\n      dup2\n      keccak256\n      not(0x1f)\n        /* \"#utility.yul\":7834:7854   */\n      dup7\n      and\n      swap2\n        /* \"#utility.yul\":7952:8188   */\n    tag_399:\n        /* \"#utility.yul\":7966:7973   */\n      dup3\n        /* \"#utility.yul\":7963:7964   */\n      dup2\n        /* \"#utility.yul\":7960:7974   */\n      lt\n        /* \"#utility.yul\":7952:8188   */\n      iszero\n      tag_401\n      jumpi\n        /* \"#utility.yul\":8055:8074   */\n      dup9\n      dup7\n      add\n        /* \"#utility.yul\":8049:8075   */\n      mload\n        /* \"#utility.yul\":8034:8076   */\n      dup3\n      sstore\n        /* \"#utility.yul\":8147:8174   */\n      swap5\n      dup5\n      add\n      swap5\n        /* \"#utility.yul\":8115:8116   */\n      0x01\n        /* \"#utility.yul\":8103:8117   */\n      swap1\n      swap2\n      add\n      swap1\n        /* \"#utility.yul\":7982:8001   */\n      dup5\n      add\n        /* \"#utility.yul\":7952:8188   */\n      jump(tag_399)\n    tag_401:\n        /* \"#utility.yul\":7956:7959   */\n      pop\n        /* \"#utility.yul\":8216:8222   */\n      dup6\n        /* \"#utility.yul\":8207:8214   */\n      dup3\n        /* \"#utility.yul\":8204:8223   */\n      lt\n        /* \"#utility.yul\":8201:8402   */\n      iszero\n      tag_402\n      jumpi\n        /* \"#utility.yul\":8277:8296   */\n      dup8\n      dup6\n      add\n        /* \"#utility.yul\":8271:8297   */\n      mload\n      not(0x00)\n        /* \"#utility.yul\":8360:8361   */\n      0x03\n        /* \"#utility.yul\":8356:8370   */\n      dup9\n      swap1\n      shl\n        /* \"#utility.yul\":8372:8375   */\n      0xf8\n        /* \"#utility.yul\":8352:8376   */\n      and\n        /* \"#utility.yul\":8348:8385   */\n      shr\n        /* \"#utility.yul\":8344:8386   */\n      not\n        /* \"#utility.yul\":8329:8387   */\n      and\n        /* \"#utility.yul\":8314:8388   */\n      dup2\n      sstore\n        /* \"#utility.yul\":8201:8402   */\n    tag_402:\n      pop\n      pop\n      pop\n      pop\n      pop\n        /* \"#utility.yul\":8448:8449   */\n      0x01\n        /* \"#utility.yul\":8432:8446   */\n      swap1\n      dup2\n      shl\n        /* \"#utility.yul\":8428:8450   */\n      add\n        /* \"#utility.yul\":8415:8451   */\n      swap1\n      sstore\n      pop\n        /* \"#utility.yul\":7366:8718   */\n      jump\t// out\n        /* \"#utility.yul\":8723:8988   */\n    tag_143:\n        /* \"#utility.yul\":8763:8770   */\n      0x00\n        /* \"#utility.yul\":8829:8830   */\n      dup2\n        /* \"#utility.yul\":8825:8826   */\n      0x00\n        /* \"#utility.yul\":8821:8827   */\n      not\n        /* \"#utility.yul\":8817:8831   */\n      div\n        /* \"#utility.yul\":8814:8815   */\n      dup4\n        /* \"#utility.yul\":8811:8832   */\n      gt\n        /* \"#utility.yul\":8806:8807   */\n      dup3\n        /* \"#utility.yul\":8799:8808   */\n      iszero\n        /* \"#utility.yul\":8792:8809   */\n      iszero\n        /* \"#utility.yul\":8788:8833   */\n      and\n        /* \"#utility.yul\":8785:8953   */\n      iszero\n      tag_404\n      jumpi\n        /* \"#utility.yul\":8875:8885   */\n      0x4e487b71\n        /* \"#utility.yul\":8870:8873   */\n      0xe0\n        /* \"#utility.yul\":8866:8886   */\n      shl\n        /* \"#utility.yul\":8863:8864   */\n      0x00\n        /* \"#utility.yul\":8856:8887   */\n      mstore\n        /* \"#utility.yul\":8910:8914   */\n      0x11\n        /* \"#utility.yul\":8907:8908   */\n      0x04\n        /* \"#utility.yul\":8900:8915   */\n      mstore\n        /* \"#utility.yul\":8938:8942   */\n      0x24\n        /* \"#utility.yul\":8935:8936   */\n      0x00\n        /* \"#utility.yul\":8928:8943   */\n      revert\n        /* \"#utility.yul\":8785:8953   */\n    tag_404:\n      pop\n        /* \"#utility.yul\":8973:8982   */\n      mul\n      swap1\n        /* \"#utility.yul\":8723:8988   */\n      jump\t// out\n        /* \"#utility.yul\":8993:9210   */\n    tag_145:\n        /* \"#utility.yul\":9033:9034   */\n      0x00\n        /* \"#utility.yul\":9059:9060   */\n      dup3\n        /* \"#utility.yul\":9049:9181   */\n      tag_406\n      jumpi\n        /* \"#utility.yul\":9103:9113   */\n      0x4e487b71\n        /* \"#utility.yul\":9098:9101   */\n      0xe0\n        /* \"#utility.yul\":9094:9114   */\n      shl\n        /* \"#utility.yul\":9091:9092   */\n      0x00\n        /* \"#utility.yul\":9084:9115   */\n      mstore\n        /* \"#utility.yul\":9138:9142   */\n      0x12\n        /* \"#utility.yul\":9135:9136   */\n      0x04\n        /* \"#utility.yul\":9128:9143   */\n      mstore\n        /* \"#utility.yul\":9166:9170   */\n      0x24\n        /* \"#utility.yul\":9163:9164   */\n      0x00\n        /* \"#utility.yul\":9156:9171   */\n      revert\n        /* \"#utility.yul\":9049:9181   */\n    tag_406:\n      pop\n        /* \"#utility.yul\":9195:9204   */\n      div\n      swap1\n        /* \"#utility.yul\":8993:9210   */\n      jump\t// out\n\n    auxdata: 0xa2646970667358221220c09ae43554bffead0b193993d547a8bbaba91fe8e772e6c93f29fb240caa42a464736f6c63430008100033\n}\n","bytecode":{"linkReferences":{},"object":"608060405260405162001965380380620019658339810160408190526200002691620001bd565b600080546001600160a01b0319166001600160a01b038316179055600588905560036200005488826200033f565b5060046200006387826200033f565b50600785905560096200007785826200033f565b50600a6200008684826200033f565b50600180546001600160a01b0319166001600160a01b03841617905560408051808201909152600481526337b832b760e11b6020820152600690620000cc90826200033f565b5050505050505050506200040b565b634e487b7160e01b600052604160045260246000fd5b600082601f8301126200010357600080fd5b81516001600160401b0380821115620001205762000120620000db565b604051601f8301601f19908116603f011681019082821181831017156200014b576200014b620000db565b816040528381526020925086838588010111156200016857600080fd5b600091505b838210156200018c57858201830151818301840152908201906200016d565b600093810190920192909252949350505050565b80516001600160a01b0381168114620001b857600080fd5b919050565b600080600080600080600080610100898b031215620001db57600080fd5b885160208a01519098506001600160401b0380821115620001fb57600080fd5b620002098c838d01620000f1565b985060408b01519150808211156200022057600080fd5b6200022e8c838d01620000f1565b975060608b0151965060808b01519150808211156200024c57600080fd5b6200025a8c838d01620000f1565b955060a08b01519150808211156200027157600080fd5b50620002808b828c01620000f1565b9350506200029160c08a01620001a0565b9150620002a160e08a01620001a0565b90509295985092959890939650565b600181811c90821680620002c557607f821691505b602082108103620002e657634e487b7160e01b600052602260045260246000fd5b50919050565b601f8211156200033a57600081815260208120601f850160051c81016020861015620003155750805b601f850160051c820191505b81811015620003365782815560010162000321565b5050505b505050565b81516001600160401b038111156200035b576200035b620000db565b62000373816200036c8454620002b0565b84620002ec565b602080601f831160018114620003ab5760008415620003925750858301515b600019600386901b1c1916600185901b17855562000336565b600085815260208120601f198616915b82811015620003dc57888601518255948401946001909101908401620003bb565b5085821015620003fb5787850151600019600388901b60f8161c191681555b5050505050600190811b01905550565b61154a806200041b6000396000f3fe60806040526004361061012a5760003560e01c80636a2e23f5116100ab578063af3b19e51161006f578063af3b19e514610301578063b1cb0db314610309578063cc5be5741461031f578063d5252dcf14610334578063f0de67ac14610354578063f32370e71461036957600080fd5b80636a2e23f5146102715780636a76ae98146102865780639b221c7d146102a85780639d9e27d9146102cc578063add08a8e146102e157600080fd5b80633283f641116100f25780633283f641146101e55780634051ddac146101fa5780634bde38c814610227578063516f279e14610247578063610be6541461025c57600080fd5b8063010ec4411461012f578063200d2ed21461016c5780632804b2c01461018e578063295f1b4d146101ae5780632d237d21146101c5575b600080fd5b34801561013b57600080fd5b5060025461014f906001600160a01b031681565b6040516001600160a01b0390911681526020015b60405180910390f35b34801561017857600080fd5b50610181610371565b60405161016391906110ac565b34801561019a57600080fd5b5060005461014f906001600160a01b031681565b3480156101ba57600080fd5b506101c36103ff565b005b3480156101d157600080fd5b506101816101e03660046110c6565b610502565b3480156101f157600080fd5b5061018161052d565b34801561020657600080fd5b5061020f61053a565b6040516101639c9b9a99989796959493929190611137565b34801561023357600080fd5b5060015461014f906001600160a01b031681565b34801561025357600080fd5b506101816109d1565b34801561026857600080fd5b506101c36109de565b34801561027d57600080fd5b506101c3610b12565b34801561029257600080fd5b5061029b610c1d565b6040516101639190611209565b3480156102b457600080fd5b506102be60075481565b604051908152602001610163565b3480156102d857600080fd5b50610181610cf6565b3480156102ed57600080fd5b506101c36102fc366004611263565b610d03565b6101c3610d80565b34801561031557600080fd5b506102be60055481565b34801561032b57600080fd5b50610181610e77565b34801561034057600080fd5b506101c361034f3660046110c6565b610e84565b34801561036057600080fd5b50610181610eed565b6101c3610efa565b6006805461037e9061137c565b80601f01602080910402602001604051908101604052809291908181526020018280546103aa9061137c565b80156103f75780601f106103cc576101008083540402835291602001916103f7565b820191906000526020600020905b8154815290600101906020018083116103da57829003601f168201915b505050505081565b6104b36006805461040f9061137c565b80601f016020809104026020016040519081016040528092919081815260200182805461043b9061137c565b80156104885780601f1061045d57610100808354040283529160200191610488565b820191906000526020600020905b81548152906001019060200180831161046b57829003601f168201915b5050505050604051806040016040528060088152602001671c1c9bdc1bdcd95960c21b815250610f21565b6104bc57600080fd5b6000546001600160a01b031633146104d357600080fd5b604080518082019091526008815267191a5cdc1d5d195960c21b60208201526006906104ff9082611405565b50565b600b818154811061051257600080fd5b90600052602060002001600091509050805461037e9061137c565b6003805461037e9061137c565b6000805460025482918291606091829184918391839183918291829182916001600160a01b039081169116606461057247605f6114c5565b61057c91906114f2565b60036004600554600660075460086009600a600b88805461059c9061137c565b80601f01602080910402602001604051908101604052809291908181526020018280546105c89061137c565b80156106155780601f106105ea57610100808354040283529160200191610615565b820191906000526020600020905b8154815290600101906020018083116105f857829003601f168201915b505050505098508780546106289061137c565b80601f01602080910402602001604051908101604052809291908181526020018280546106549061137c565b80156106a15780601f10610676576101008083540402835291602001916106a1565b820191906000526020600020905b81548152906001019060200180831161068457829003601f168201915b505050505097508580546106b49061137c565b80601f01602080910402602001604051908101604052809291908181526020018280546106e09061137c565b801561072d5780601f106107025761010080835404028352916020019161072d565b820191906000526020600020905b81548152906001019060200180831161071057829003601f168201915b505050505095508380546107409061137c565b80601f016020809104026020016040519081016040528092919081815260200182805461076c9061137c565b80156107b95780601f1061078e576101008083540402835291602001916107b9565b820191906000526020600020905b81548152906001019060200180831161079c57829003601f168201915b505050505093508280546107cc9061137c565b80601f01602080910402602001604051908101604052809291908181526020018280546107f89061137c565b80156108455780601f1061081a57610100808354040283529160200191610845565b820191906000526020600020905b81548152906001019060200180831161082857829003601f168201915b505050505092508180546108589061137c565b80601f01602080910402602001604051908101604052809291908181526020018280546108849061137c565b80156108d15780601f106108a6576101008083540402835291602001916108d1565b820191906000526020600020905b8154815290600101906020018083116108b457829003601f168201915b5050505050915080805480602002602001604051908101604052809291908181526020016000905b828210156109a55783829060005260206000200180546109189061137c565b80601f01602080910402602001604051908101604052809291908181526020018280546109449061137c565b80156109915780601f1061096657610100808354040283529160200191610991565b820191906000526020600020905b81548152906001019060200180831161097457829003601f168201915b5050505050815260200190600101906108f9565b5050505090509b509b509b509b509b509b509b509b509b509b509b509b50909192939495969798999a9b565b600a805461037e9061137c565b6000546001600160a01b031633146109f557600080fd5b610aa560068054610a059061137c565b80601f0160208091040260200160405190810160405280929190818152602001828054610a319061137c565b8015610a7e5780601f10610a5357610100808354040283529160200191610a7e565b820191906000526020600020905b815481529060010190602001808311610a6157829003601f168201915b50505050506040518060400160405280600481526020016337b832b760e11b815250610f21565b610aae57600080fd5b6040805180820190915260068082526518db1bdcd95960d21b602083015290610ad79082611405565b50600080546040516001600160a01b03909116914780156108fc02929091818181858888f193505050501580156104ff573d6000803e3d6000fd5b6001546001600160a01b03163314610b2957600080fd5b610bdd60068054610b399061137c565b80601f0160208091040260200160405190810160405280929190818152602001828054610b659061137c565b8015610bb25780601f10610b8757610100808354040283529160200191610bb2565b820191906000526020600020905b815481529060010190602001808311610b9557829003601f168201915b505050505060405180604001604052806008815260200167191a5cdc1d5d195960c21b815250610f21565b610be657600080fd5b60408051808201909152600481526337b832b760e11b6020820152600690610c0e9082611405565b50610c1b600b6000610f8c565b565b6060600b805480602002602001604051908101604052809291908181526020016000905b82821015610ced578382906000526020600020018054610c609061137c565b80601f0160208091040260200160405190810160405280929190818152602001828054610c8c9061137c565b8015610cd95780601f10610cae57610100808354040283529160200191610cd9565b820191906000526020600020905b815481529060010190602001808311610cbc57829003601f168201915b505050505081526020019060010190610c41565b50505050905090565b6009805461037e9061137c565b6005544210610d1157600080fd5b610d2160068054610a059061137c565b610d2a57600080fd5b600280546001600160a01b031916331790558051610d4f90600b906020840190610faa565b506040805180820190915260088152671c1c9bdc1bdcd95960c21b6020820152600690610d7c9082611405565b5050565b6000546001600160a01b03163314610d9757600080fd5b610da76006805461040f9061137c565b610db057600080fd5b6040805180820190915260068082526518db1bdcd95960d21b602083015290610dd99082611405565b506002546001600160a01b03166108fc6064610df647605f6114c5565b610e0091906114f2565b6040518115909202916000818181858888f19350505050158015610e28573d6000803e3d6000fd5b506001546001600160a01b03166108fc6064610e454760056114c5565b610e4f91906114f2565b6040518115909202916000818181858888f193505050501580156104ff573d6000803e3d6000fd5b6008805461037e9061137c565b6000546001600160a01b03163314610e9b57600080fd5b610eab60068054610a059061137c565b610eb457600080fd5b804210610ec057600080fd5b600581905560408051808201909152600481526337b832b760e11b6020820152600690610d7c9082611405565b6004805461037e9061137c565b6001546001600160a01b03163314610f1157600080fd5b610da760068054610b399061137c565b60008151835114610f3457506000610f86565b81604051602001610f4591906110ac565b6040516020818303038152906040528051906020012083604051602001610f6c91906110ac565b604051602081830303815290604052805190602001201490505b92915050565b50805460008255906000526020600020908101906104ff9190611000565b828054828255906000526020600020908101928215610ff0579160200282015b82811115610ff05782518290610fe09082611405565b5091602001919060010190610fca565b50610ffc929150611000565b5090565b80821115610ffc576000611014828261101d565b50600101611000565b5080546110299061137c565b6000825580601f10611039575050565b601f0160209004906000526020600020908101906104ff91905b80821115610ffc5760008155600101611053565b60008151808452602060005b8281101561108e578481018201518682018301528101611073565b506000858301820152601f909101601f191690930190920192915050565b6020815260006110bf6020830184611067565b9392505050565b6000602082840312156110d857600080fd5b5035919050565b600082825180855260208086019550808260051b84010181860160005b8481101561112a57601f19868403018952611118838351611067565b988401989250908301906001016110fc565b5090979650505050505050565b6001600160a01b038d1681526001600160a01b038c1660208201528a60408201526101806060820152600061117061018083018c611067565b8281036080840152611182818c611067565b90508960a084015282810360c084015261119c818a611067565b90508760e08401528281036101008401526111b78188611067565b90508281036101208401526111cc8187611067565b90508281036101408401526111e18186611067565b90508281036101608401526111f681856110df565b9f9e505050505050505050505050505050565b6020815260006110bf60208301846110df565b634e487b7160e01b600052604160045260246000fd5b604051601f8201601f1916810167ffffffffffffffff8111828210171561125b5761125b61121c565b604052919050565b6000602080838503121561127657600080fd5b823567ffffffffffffffff8082111561128e57600080fd5b8185019150601f86818401126112a357600080fd5b8235828111156112b5576112b561121c565b8060051b6112c4868201611232565b918252848101860191868101908a8411156112de57600080fd5b87870192505b8383101561136e578235868111156112fc5760008081fd5b8701603f81018c1361130e5760008081fd5b888101356040888211156113245761132461121c565b611335828901601f19168c01611232565b8281528e8284860101111561134a5760008081fd5b828285018d83013760009281018c01929092525083525091870191908701906112e4565b9a9950505050505050505050565b600181811c9082168061139057607f821691505b6020821081036113b057634e487b7160e01b600052602260045260246000fd5b50919050565b601f82111561140057600081815260208120601f850160051c810160208610156113dd5750805b601f850160051c820191505b818110156113fc578281556001016113e9565b5050505b505050565b815167ffffffffffffffff81111561141f5761141f61121c565b6114338161142d845461137c565b846113b6565b602080601f83116001811461146857600084156114505750858301515b600019600386901b1c1916600185901b1785556113fc565b600085815260208120601f198616915b8281101561149757888601518255948401946001909101908401611478565b50858210156114b55787850151600019600388901b60f8161c191681555b5050505050600190811b01905550565b60008160001904831182151516156114ed57634e487b7160e01b600052601160045260246000fd5b500290565b60008261150f57634e487b7160e01b600052601260045260246000fd5b50049056fea2646970667358221220c09ae43554bffead0b193993d547a8bbaba91fe8e772e6c93f29fb240caa42a464736f6c63430008100033","opcodes":"PUSH1 0x80 PUSH1 0x40 MSTORE PUSH1 0x40 MLOAD PUSH3 0x1965 CODESIZE SUB DUP1 PUSH3 0x1965 DUP4 CODECOPY DUP2 ADD PUSH1 0x40 DUP2 SWAP1 MSTORE PUSH3 0x26 SWAP2 PUSH3 0x1BD JUMP JUMPDEST PUSH1 0x0 DUP1 SLOAD PUSH1 0x1 PUSH1 0x1 PUSH1 0xA0 SHL SUB NOT AND PUSH1 0x1 PUSH1 0x1 PUSH1 0xA0 SHL SUB DUP4 AND OR SWAP1 SSTORE PUSH1 0x5 DUP9 SWAP1 SSTORE PUSH1 0x3 PUSH3 0x54 DUP9 DUP3 PUSH3 0x33F JUMP JUMPDEST POP PUSH1 0x4 PUSH3 0x63 DUP8 DUP3 PUSH3 0x33F JUMP JUMPDEST POP PUSH1 0x7 DUP6 SWAP1 SSTORE PUSH1 0x9 PUSH3 0x77 DUP6 DUP3 PUSH3 0x33F JUMP JUMPDEST POP PUSH1 0xA PUSH3 0x86 DUP5 DUP3 PUSH3 0x33F JUMP JUMPDEST POP PUSH1 0x1 DUP1 SLOAD PUSH1 0x1 PUSH1 0x1 PUSH1 0xA0 SHL SUB NOT AND PUSH1 0x1 PUSH1 0x1 PUSH1 0xA0 SHL SUB DUP5 AND OR SWAP1 SSTORE PUSH1 0x40 DUP1 MLOAD DUP1 DUP3 ADD SWAP1 SWAP2 MSTORE PUSH1 0x4 DUP2 MSTORE PUSH4 0x37B832B7 PUSH1 0xE1 SHL PUSH1 0x20 DUP3 ADD MSTORE PUSH1 0x6 SWAP1 PUSH3 0xCC SWAP1 DUP3 PUSH3 0x33F JUMP JUMPDEST POP POP POP POP POP POP POP POP POP PUSH3 0x40B JUMP JUMPDEST PUSH4 0x4E487B71 PUSH1 0xE0 SHL PUSH1 0x0 MSTORE PUSH1 0x41 PUSH1 0x4 MSTORE PUSH1 0x24 PUSH1 0x0 REVERT JUMPDEST PUSH1 0x0 DUP3 PUSH1 0x1F DUP4 ADD SLT PUSH3 0x103 JUMPI PUSH1 0x0 DUP1 REVERT JUMPDEST DUP2 MLOAD PUSH1 0x1 PUSH1 0x1 PUSH1 0x40 SHL SUB DUP1 DUP3 GT ISZERO PUSH3 0x120 JUMPI PUSH3 0x120 PUSH3 0xDB JUMP JUMPDEST PUSH1 0x40 MLOAD PUSH1 0x1F DUP4 ADD PUSH1 0x1F NOT SWAP1 DUP2 AND PUSH1 0x3F ADD AND DUP2 ADD SWAP1 DUP3 DUP3 GT DUP2 DUP4 LT OR ISZERO PUSH3 0x14B JUMPI PUSH3 0x14B PUSH3 0xDB JUMP JUMPDEST DUP2 PUSH1 0x40 MSTORE DUP4 DUP2 MSTORE PUSH1 0x20 SWAP3 POP DUP7 DUP4 DUP6 DUP9 ADD ADD GT ISZERO PUSH3 0x168 JUMPI PUSH1 0x0 DUP1 REVERT JUMPDEST PUSH1 0x0 SWAP2 POP JUMPDEST DUP4 DUP3 LT ISZERO PUSH3 0x18C JUMPI DUP6 DUP3 ADD DUP4 ADD MLOAD DUP2 DUP4 ADD DUP5 ADD MSTORE SWAP1 DUP3 ADD SWAP1 PUSH3 0x16D JUMP JUMPDEST PUSH1 0x0 SWAP4 DUP2 ADD SWAP1 SWAP3 ADD SWAP3 SWAP1 SWAP3 MSTORE SWAP5 SWAP4 POP POP POP POP JUMP JUMPDEST DUP1 MLOAD PUSH1 0x1 PUSH1 0x1 PUSH1 0xA0 SHL SUB DUP2 AND DUP2 EQ PUSH3 0x1B8 JUMPI PUSH1 0x0 DUP1 REVERT JUMPDEST SWAP2 SWAP1 POP JUMP JUMPDEST PUSH1 0x0 DUP1 PUSH1 0x0 DUP1 PUSH1 0x0 DUP1 PUSH1 0x0 DUP1 PUSH2 0x100 DUP10 DUP12 SUB SLT ISZERO PUSH3 0x1DB JUMPI PUSH1 0x0 DUP1 REVERT JUMPDEST DUP9 MLOAD PUSH1 0x20 DUP11 ADD MLOAD SWAP1 SWAP9 POP PUSH1 0x1 PUSH1 0x1 PUSH1 0x40 SHL SUB DUP1 DUP3 GT ISZERO PUSH3 0x1FB JUMPI PUSH1 0x0 DUP1 REVERT JUMPDEST PUSH3 0x209 DUP13 DUP4 DUP14 ADD PUSH3 0xF1 JUMP JUMPDEST SWAP9 POP PUSH1 0x40 DUP12 ADD MLOAD SWAP2 POP DUP1 DUP3 GT ISZERO PUSH3 0x220 JUMPI PUSH1 0x0 DUP1 REVERT JUMPDEST PUSH3 0x22E DUP13 DUP4 DUP14 ADD PUSH3 0xF1 JUMP JUMPDEST SWAP8 POP PUSH1 0x60 DUP12 ADD MLOAD SWAP7 POP PUSH1 0x80 DUP12 ADD MLOAD SWAP2 POP DUP1 DUP3 GT ISZERO PUSH3 0x24C JUMPI PUSH1 0x0 DUP1 REVERT JUMPDEST PUSH3 0x25A DUP13 DUP4 DUP14 ADD PUSH3 0xF1 JUMP JUMPDEST SWAP6 POP PUSH1 0xA0 DUP12 ADD MLOAD SWAP2 POP DUP1 DUP3 GT ISZERO PUSH3 0x271 JUMPI PUSH1 0x0 DUP1 REVERT JUMPDEST POP PUSH3 0x280 DUP12 DUP3 DUP13 ADD PUSH3 0xF1 JUMP JUMPDEST SWAP4 POP POP PUSH3 0x291 PUSH1 0xC0 DUP11 ADD PUSH3 0x1A0 JUMP JUMPDEST SWAP2 POP PUSH3 0x2A1 PUSH1 0xE0 DUP11 ADD PUSH3 0x1A0 JUMP JUMPDEST SWAP1 POP SWAP3 SWAP6 SWAP9 POP SWAP3 SWAP6 SWAP9 SWAP1 SWAP4 SWAP7 POP JUMP JUMPDEST PUSH1 0x1 DUP2 DUP2 SHR SWAP1 DUP3 AND DUP1 PUSH3 0x2C5 JUMPI PUSH1 0x7F DUP3 AND SWAP2 POP JUMPDEST PUSH1 0x20 DUP3 LT DUP2 SUB PUSH3 0x2E6 JUMPI PUSH4 0x4E487B71 PUSH1 0xE0 SHL PUSH1 0x0 MSTORE PUSH1 0x22 PUSH1 0x4 MSTORE PUSH1 0x24 PUSH1 0x0 REVERT JUMPDEST POP SWAP2 SWAP1 POP JUMP JUMPDEST PUSH1 0x1F DUP3 GT ISZERO PUSH3 0x33A JUMPI PUSH1 0x0 DUP2 DUP2 MSTORE PUSH1 0x20 DUP2 KECCAK256 PUSH1 0x1F DUP6 ADD PUSH1 0x5 SHR DUP2 ADD PUSH1 0x20 DUP7 LT ISZERO PUSH3 0x315 JUMPI POP DUP1 JUMPDEST PUSH1 0x1F DUP6 ADD PUSH1 0x5 SHR DUP3 ADD SWAP2 POP JUMPDEST DUP2 DUP2 LT ISZERO PUSH3 0x336 JUMPI DUP3 DUP2 SSTORE PUSH1 0x1 ADD PUSH3 0x321 JUMP JUMPDEST POP POP POP JUMPDEST POP POP POP JUMP JUMPDEST DUP2 MLOAD PUSH1 0x1 PUSH1 0x1 PUSH1 0x40 SHL SUB DUP2 GT ISZERO PUSH3 0x35B JUMPI PUSH3 0x35B PUSH3 0xDB JUMP JUMPDEST PUSH3 0x373 DUP2 PUSH3 0x36C DUP5 SLOAD PUSH3 0x2B0 JUMP JUMPDEST DUP5 PUSH3 0x2EC JUMP JUMPDEST PUSH1 0x20 DUP1 PUSH1 0x1F DUP4 GT PUSH1 0x1 DUP2 EQ PUSH3 0x3AB JUMPI PUSH1 0x0 DUP5 ISZERO PUSH3 0x392 JUMPI POP DUP6 DUP4 ADD MLOAD JUMPDEST PUSH1 0x0 NOT PUSH1 0x3 DUP7 SWAP1 SHL SHR NOT AND PUSH1 0x1 DUP6 SWAP1 SHL OR DUP6 SSTORE PUSH3 0x336 JUMP JUMPDEST PUSH1 0x0 DUP6 DUP2 MSTORE PUSH1 0x20 DUP2 KECCAK256 PUSH1 0x1F NOT DUP7 AND SWAP2 JUMPDEST DUP3 DUP2 LT ISZERO PUSH3 0x3DC JUMPI DUP9 DUP7 ADD MLOAD DUP3 SSTORE SWAP5 DUP5 ADD SWAP5 PUSH1 0x1 SWAP1 SWAP2 ADD SWAP1 DUP5 ADD PUSH3 0x3BB JUMP JUMPDEST POP DUP6 DUP3 LT ISZERO PUSH3 0x3FB JUMPI DUP8 DUP6 ADD MLOAD PUSH1 0x0 NOT PUSH1 0x3 DUP9 SWAP1 SHL PUSH1 0xF8 AND SHR NOT AND DUP2 SSTORE JUMPDEST POP POP POP POP POP PUSH1 0x1 SWAP1 DUP2 SHL ADD SWAP1 SSTORE POP JUMP JUMPDEST PUSH2 0x154A DUP1 PUSH3 0x41B PUSH1 0x0 CODECOPY PUSH1 0x0 RETURN INVALID PUSH1 0x80 PUSH1 0x40 MSTORE PUSH1 0x4 CALLDATASIZE LT PUSH2 0x12A JUMPI PUSH1 0x0 CALLDATALOAD PUSH1 0xE0 SHR DUP1 PUSH4 0x6A2E23F5 GT PUSH2 0xAB JUMPI DUP1 PUSH4 0xAF3B19E5 GT PUSH2 0x6F JUMPI DUP1 PUSH4 0xAF3B19E5 EQ PUSH2 0x301 JUMPI DUP1 PUSH4 0xB1CB0DB3 EQ PUSH2 0x309 JUMPI DUP1 PUSH4 0xCC5BE574 EQ PUSH2 0x31F JUMPI DUP1 PUSH4 0xD5252DCF EQ PUSH2 0x334 JUMPI DUP1 PUSH4 0xF0DE67AC EQ PUSH2 0x354 JUMPI DUP1 PUSH4 0xF32370E7 EQ PUSH2 0x369 JUMPI PUSH1 0x0 DUP1 REVERT JUMPDEST DUP1 PUSH4 0x6A2E23F5 EQ PUSH2 0x271 JUMPI DUP1 PUSH4 0x6A76AE98 EQ PUSH2 0x286 JUMPI DUP1 PUSH4 0x9B221C7D EQ PUSH2 0x2A8 JUMPI DUP1 PUSH4 0x9D9E27D9 EQ PUSH2 0x2CC JUMPI DUP1 PUSH4 0xADD08A8E EQ PUSH2 0x2E1 JUMPI PUSH1 0x0 DUP1 REVERT JUMPDEST DUP1 PUSH4 0x3283F641 GT PUSH2 0xF2 JUMPI DUP1 PUSH4 0x3283F641 EQ PUSH2 0x1E5 JUMPI DUP1 PUSH4 0x4051DDAC EQ PUSH2 0x1FA JUMPI DUP1 PUSH4 0x4BDE38C8 EQ PUSH2 0x227 JUMPI DUP1 PUSH4 0x516F279E EQ PUSH2 0x247 JUMPI DUP1 PUSH4 0x610BE654 EQ PUSH2 0x25C JUMPI PUSH1 0x0 DUP1 REVERT JUMPDEST DUP1 PUSH4 0x10EC441 EQ PUSH2 0x12F JUMPI DUP1 PUSH4 0x200D2ED2 EQ PUSH2 0x16C JUMPI DUP1 PUSH4 0x2804B2C0 EQ PUSH2 0x18E JUMPI DUP1 PUSH4 0x295F1B4D EQ PUSH2 0x1AE JUMPI DUP1 PUSH4 0x2D237D21 EQ PUSH2 0x1C5 JUMPI JUMPDEST PUSH1 0x0 DUP1 REVERT JUMPDEST CALLVALUE DUP1 ISZERO PUSH2 0x13B JUMPI PUSH1 0x0 DUP1 REVERT JUMPDEST POP PUSH1 0x2 SLOAD PUSH2 0x14F SWAP1 PUSH1 0x1 PUSH1 0x1 PUSH1 0xA0 SHL SUB AND DUP2 JUMP JUMPDEST PUSH1 0x40 MLOAD PUSH1 0x1 PUSH1 0x1 PUSH1 0xA0 SHL SUB SWAP1 SWAP2 AND DUP2 MSTORE PUSH1 0x20 ADD JUMPDEST PUSH1 0x40 MLOAD DUP1 SWAP2 SUB SWAP1 RETURN JUMPDEST CALLVALUE DUP1 ISZERO PUSH2 0x178 JUMPI PUSH1 0x0 DUP1 REVERT JUMPDEST POP PUSH2 0x181 PUSH2 0x371 JUMP JUMPDEST PUSH1 0x40 MLOAD PUSH2 0x163 SWAP2 SWAP1 PUSH2 0x10AC JUMP JUMPDEST CALLVALUE DUP1 ISZERO PUSH2 0x19A JUMPI PUSH1 0x0 DUP1 REVERT JUMPDEST POP PUSH1 0x0 SLOAD PUSH2 0x14F SWAP1 PUSH1 0x1 PUSH1 0x1 PUSH1 0xA0 SHL SUB AND DUP2 JUMP JUMPDEST CALLVALUE DUP1 ISZERO PUSH2 0x1BA JUMPI PUSH1 0x0 DUP1 REVERT JUMPDEST POP PUSH2 0x1C3 PUSH2 0x3FF JUMP JUMPDEST STOP JUMPDEST CALLVALUE DUP1 ISZERO PUSH2 0x1D1 JUMPI PUSH1 0x0 DUP1 REVERT JUMPDEST POP PUSH2 0x181 PUSH2 0x1E0 CALLDATASIZE PUSH1 0x4 PUSH2 0x10C6 JUMP JUMPDEST PUSH2 0x502 JUMP JUMPDEST CALLVALUE DUP1 ISZERO PUSH2 0x1F1 JUMPI PUSH1 0x0 DUP1 REVERT JUMPDEST POP PUSH2 0x181 PUSH2 0x52D JUMP JUMPDEST CALLVALUE DUP1 ISZERO PUSH2 0x206 JUMPI PUSH1 0x0 DUP1 REVERT JUMPDEST POP PUSH2 0x20F PUSH2 0x53A JUMP JUMPDEST PUSH1 0x40 MLOAD PUSH2 0x163 SWAP13 SWAP12 SWAP11 SWAP10 SWAP9 SWAP8 SWAP7 SWAP6 SWAP5 SWAP4 SWAP3 SWAP2 SWAP1 PUSH2 0x1137 JUMP JUMPDEST CALLVALUE DUP1 ISZERO PUSH2 0x233 JUMPI PUSH1 0x0 DUP1 REVERT JUMPDEST POP PUSH1 0x1 SLOAD PUSH2 0x14F SWAP1 PUSH1 0x1 PUSH1 0x1 PUSH1 0xA0 SHL SUB AND DUP2 JUMP JUMPDEST CALLVALUE DUP1 ISZERO PUSH2 0x253 JUMPI PUSH1 0x0 DUP1 REVERT JUMPDEST POP PUSH2 0x181 PUSH2 0x9D1 JUMP JUMPDEST CALLVALUE DUP1 ISZERO PUSH2 0x268 JUMPI PUSH1 0x0 DUP1 REVERT JUMPDEST POP PUSH2 0x1C3 PUSH2 0x9DE JUMP JUMPDEST CALLVALUE DUP1 ISZERO PUSH2 0x27D JUMPI PUSH1 0x0 DUP1 REVERT JUMPDEST POP PUSH2 0x1C3 PUSH2 0xB12 JUMP JUMPDEST CALLVALUE DUP1 ISZERO PUSH2 0x292 JUMPI PUSH1 0x0 DUP1 REVERT JUMPDEST POP PUSH2 0x29B PUSH2 0xC1D JUMP JUMPDEST PUSH1 0x40 MLOAD PUSH2 0x163 SWAP2 SWAP1 PUSH2 0x1209 JUMP JUMPDEST CALLVALUE DUP1 ISZERO PUSH2 0x2B4 JUMPI PUSH1 0x0 DUP1 REVERT JUMPDEST POP PUSH2 0x2BE PUSH1 0x7 SLOAD DUP2 JUMP JUMPDEST PUSH1 0x40 MLOAD SWAP1 DUP2 MSTORE PUSH1 0x20 ADD PUSH2 0x163 JUMP JUMPDEST CALLVALUE DUP1 ISZERO PUSH2 0x2D8 JUMPI PUSH1 0x0 DUP1 REVERT JUMPDEST POP PUSH2 0x181 PUSH2 0xCF6 JUMP JUMPDEST CALLVALUE DUP1 ISZERO PUSH2 0x2ED JUMPI PUSH1 0x0 DUP1 REVERT JUMPDEST POP PUSH2 0x1C3 PUSH2 0x2FC CALLDATASIZE PUSH1 0x4 PUSH2 0x1263 JUMP JUMPDEST PUSH2 0xD03 JUMP JUMPDEST PUSH2 0x1C3 PUSH2 0xD80 JUMP JUMPDEST CALLVALUE DUP1 ISZERO PUSH2 0x315 JUMPI PUSH1 0x0 DUP1 REVERT JUMPDEST POP PUSH2 0x2BE PUSH1 0x5 SLOAD DUP2 JUMP JUMPDEST CALLVALUE DUP1 ISZERO PUSH2 0x32B JUMPI PUSH1 0x0 DUP1 REVERT JUMPDEST POP PUSH2 0x181 PUSH2 0xE77 JUMP JUMPDEST CALLVALUE DUP1 ISZERO PUSH2 0x340 JUMPI PUSH1 0x0 DUP1 REVERT JUMPDEST POP PUSH2 0x1C3 PUSH2 0x34F CALLDATASIZE PUSH1 0x4 PUSH2 0x10C6 JUMP JUMPDEST PUSH2 0xE84 JUMP JUMPDEST CALLVALUE DUP1 ISZERO PUSH2 0x360 JUMPI PUSH1 0x0 DUP1 REVERT JUMPDEST POP PUSH2 0x181 PUSH2 0xEED JUMP JUMPDEST PUSH2 0x1C3 PUSH2 0xEFA JUMP JUMPDEST PUSH1 0x6 DUP1 SLOAD PUSH2 0x37E SWAP1 PUSH2 0x137C JUMP JUMPDEST DUP1 PUSH1 0x1F ADD PUSH1 0x20 DUP1 SWAP2 DIV MUL PUSH1 0x20 ADD PUSH1 0x40 MLOAD SWAP1 DUP2 ADD PUSH1 0x40 MSTORE DUP1 SWAP3 SWAP2 SWAP1 DUP2 DUP2 MSTORE PUSH1 0x20 ADD DUP3 DUP1 SLOAD PUSH2 0x3AA SWAP1 PUSH2 0x137C JUMP JUMPDEST DUP1 ISZERO PUSH2 0x3F7 JUMPI DUP1 PUSH1 0x1F LT PUSH2 0x3CC JUMPI PUSH2 0x100 DUP1 DUP4 SLOAD DIV MUL DUP4 MSTORE SWAP2 PUSH1 0x20 ADD SWAP2 PUSH2 0x3F7 JUMP JUMPDEST DUP3 ADD SWAP2 SWAP1 PUSH1 0x0 MSTORE PUSH1 0x20 PUSH1 0x0 KECCAK256 SWAP1 JUMPDEST DUP2 SLOAD DUP2 MSTORE SWAP1 PUSH1 0x1 ADD SWAP1 PUSH1 0x20 ADD DUP1 DUP4 GT PUSH2 0x3DA JUMPI DUP3 SWAP1 SUB PUSH1 0x1F AND DUP3 ADD SWAP2 JUMPDEST POP POP POP POP POP DUP2 JUMP JUMPDEST PUSH2 0x4B3 PUSH1 0x6 DUP1 SLOAD PUSH2 0x40F SWAP1 PUSH2 0x137C JUMP JUMPDEST DUP1 PUSH1 0x1F ADD PUSH1 0x20 DUP1 SWAP2 DIV MUL PUSH1 0x20 ADD PUSH1 0x40 MLOAD SWAP1 DUP2 ADD PUSH1 0x40 MSTORE DUP1 SWAP3 SWAP2 SWAP1 DUP2 DUP2 MSTORE PUSH1 0x20 ADD DUP3 DUP1 SLOAD PUSH2 0x43B SWAP1 PUSH2 0x137C JUMP JUMPDEST DUP1 ISZERO PUSH2 0x488 JUMPI DUP1 PUSH1 0x1F LT PUSH2 0x45D JUMPI PUSH2 0x100 DUP1 DUP4 SLOAD DIV MUL DUP4 MSTORE SWAP2 PUSH1 0x20 ADD SWAP2 PUSH2 0x488 JUMP JUMPDEST DUP3 ADD SWAP2 SWAP1 PUSH1 0x0 MSTORE PUSH1 0x20 PUSH1 0x0 KECCAK256 SWAP1 JUMPDEST DUP2 SLOAD DUP2 MSTORE SWAP1 PUSH1 0x1 ADD SWAP1 PUSH1 0x20 ADD DUP1 DUP4 GT PUSH2 0x46B JUMPI DUP3 SWAP1 SUB PUSH1 0x1F AND DUP3 ADD SWAP2 JUMPDEST POP POP POP POP POP PUSH1 0x40 MLOAD DUP1 PUSH1 0x40 ADD PUSH1 0x40 MSTORE DUP1 PUSH1 0x8 DUP2 MSTORE PUSH1 0x20 ADD PUSH8 0x1C1C9BDC1BDCD959 PUSH1 0xC2 SHL DUP2 MSTORE POP PUSH2 0xF21 JUMP JUMPDEST PUSH2 0x4BC JUMPI PUSH1 0x0 DUP1 REVERT JUMPDEST PUSH1 0x0 SLOAD PUSH1 0x1 PUSH1 0x1 PUSH1 0xA0 SHL SUB AND CALLER EQ PUSH2 0x4D3 JUMPI PUSH1 0x0 DUP1 REVERT JUMPDEST PUSH1 0x40 DUP1 MLOAD DUP1 DUP3 ADD SWAP1 SWAP2 MSTORE PUSH1 0x8 DUP2 MSTORE PUSH8 0x191A5CDC1D5D1959 PUSH1 0xC2 SHL PUSH1 0x20 DUP3 ADD MSTORE PUSH1 0x6 SWAP1 PUSH2 0x4FF SWAP1 DUP3 PUSH2 0x1405 JUMP JUMPDEST POP JUMP JUMPDEST PUSH1 0xB DUP2 DUP2 SLOAD DUP2 LT PUSH2 0x512 JUMPI PUSH1 0x0 DUP1 REVERT JUMPDEST SWAP1 PUSH1 0x0 MSTORE PUSH1 0x20 PUSH1 0x0 KECCAK256 ADD PUSH1 0x0 SWAP2 POP SWAP1 POP DUP1 SLOAD PUSH2 0x37E SWAP1 PUSH2 0x137C JUMP JUMPDEST PUSH1 0x3 DUP1 SLOAD PUSH2 0x37E SWAP1 PUSH2 0x137C JUMP JUMPDEST PUSH1 0x0 DUP1 SLOAD PUSH1 0x2 SLOAD DUP3 SWAP2 DUP3 SWAP2 PUSH1 0x60 SWAP2 DUP3 SWAP2 DUP5 SWAP2 DUP4 SWAP2 DUP4 SWAP2 DUP4 SWAP2 DUP3 SWAP2 DUP3 SWAP2 DUP3 SWAP2 PUSH1 0x1 PUSH1 0x1 PUSH1 0xA0 SHL SUB SWAP1 DUP2 AND SWAP2 AND PUSH1 0x64 PUSH2 0x572 SELFBALANCE PUSH1 0x5F PUSH2 0x14C5 JUMP JUMPDEST PUSH2 0x57C SWAP2 SWAP1 PUSH2 0x14F2 JUMP JUMPDEST PUSH1 0x3 PUSH1 0x4 PUSH1 0x5 SLOAD PUSH1 0x6 PUSH1 0x7 SLOAD PUSH1 0x8 PUSH1 0x9 PUSH1 0xA PUSH1 0xB DUP9 DUP1 SLOAD PUSH2 0x59C SWAP1 PUSH2 0x137C JUMP JUMPDEST DUP1 PUSH1 0x1F ADD PUSH1 0x20 DUP1 SWAP2 DIV MUL PUSH1 0x20 ADD PUSH1 0x40 MLOAD SWAP1 DUP2 ADD PUSH1 0x40 MSTORE DUP1 SWAP3 SWAP2 SWAP1 DUP2 DUP2 MSTORE PUSH1 0x20 ADD DUP3 DUP1 SLOAD PUSH2 0x5C8 SWAP1 PUSH2 0x137C JUMP JUMPDEST DUP1 ISZERO PUSH2 0x615 JUMPI DUP1 PUSH1 0x1F LT PUSH2 0x5EA JUMPI PUSH2 0x100 DUP1 DUP4 SLOAD DIV MUL DUP4 MSTORE SWAP2 PUSH1 0x20 ADD SWAP2 PUSH2 0x615 JUMP JUMPDEST DUP3 ADD SWAP2 SWAP1 PUSH1 0x0 MSTORE PUSH1 0x20 PUSH1 0x0 KECCAK256 SWAP1 JUMPDEST DUP2 SLOAD DUP2 MSTORE SWAP1 PUSH1 0x1 ADD SWAP1 PUSH1 0x20 ADD DUP1 DUP4 GT PUSH2 0x5F8 JUMPI DUP3 SWAP1 SUB PUSH1 0x1F AND DUP3 ADD SWAP2 JUMPDEST POP POP POP POP POP SWAP9 POP DUP8 DUP1 SLOAD PUSH2 0x628 SWAP1 PUSH2 0x137C JUMP JUMPDEST DUP1 PUSH1 0x1F ADD PUSH1 0x20 DUP1 SWAP2 DIV MUL PUSH1 0x20 ADD PUSH1 0x40 MLOAD SWAP1 DUP2 ADD PUSH1 0x40 MSTORE DUP1 SWAP3 SWAP2 SWAP1 DUP2 DUP2 MSTORE PUSH1 0x20 ADD DUP3 DUP1 SLOAD PUSH2 0x654 SWAP1 PUSH2 0x137C JUMP JUMPDEST DUP1 ISZERO PUSH2 0x6A1 JUMPI DUP1 PUSH1 0x1F LT PUSH2 0x676 JUMPI PUSH2 0x100 DUP1 DUP4 SLOAD DIV MUL DUP4 MSTORE SWAP2 PUSH1 0x20 ADD SWAP2 PUSH2 0x6A1 JUMP JUMPDEST DUP3 ADD SWAP2 SWAP1 PUSH1 0x0 MSTORE PUSH1 0x20 PUSH1 0x0 KECCAK256 SWAP1 JUMPDEST DUP2 SLOAD DUP2 MSTORE SWAP1 PUSH1 0x1 ADD SWAP1 PUSH1 0x20 ADD DUP1 DUP4 GT PUSH2 0x684 JUMPI DUP3 SWAP1 SUB PUSH1 0x1F AND DUP3 ADD SWAP2 JUMPDEST POP POP POP POP POP SWAP8 POP DUP6 DUP1 SLOAD PUSH2 0x6B4 SWAP1 PUSH2 0x137C JUMP JUMPDEST DUP1 PUSH1 0x1F ADD PUSH1 0x20 DUP1 SWAP2 DIV MUL PUSH1 0x20 ADD PUSH1 0x40 MLOAD SWAP1 DUP2 ADD PUSH1 0x40 MSTORE DUP1 SWAP3 SWAP2 SWAP1 DUP2 DUP2 MSTORE PUSH1 0x20 ADD DUP3 DUP1 SLOAD PUSH2 0x6E0 SWAP1 PUSH2 0x137C JUMP JUMPDEST DUP1 ISZERO PUSH2 0x72D JUMPI DUP1 PUSH1 0x1F LT PUSH2 0x702 JUMPI PUSH2 0x100 DUP1 DUP4 SLOAD DIV MUL DUP4 MSTORE SWAP2 PUSH1 0x20 ADD SWAP2 PUSH2 0x72D JUMP JUMPDEST DUP3 ADD SWAP2 SWAP1 PUSH1 0x0 MSTORE PUSH1 0x20 PUSH1 0x0 KECCAK256 SWAP1 JUMPDEST DUP2 SLOAD DUP2 MSTORE SWAP1 PUSH1 0x1 ADD SWAP1 PUSH1 0x20 ADD DUP1 DUP4 GT PUSH2 0x710 JUMPI DUP3 SWAP1 SUB PUSH1 0x1F AND DUP3 ADD SWAP2 JUMPDEST POP POP POP POP POP SWAP6 POP DUP4 DUP1 SLOAD PUSH2 0x740 SWAP1 PUSH2 0x137C JUMP JUMPDEST DUP1 PUSH1 0x1F ADD PUSH1 0x20 DUP1 SWAP2 DIV MUL PUSH1 0x20 ADD PUSH1 0x40 MLOAD SWAP1 DUP2 ADD PUSH1 0x40 MSTORE DUP1 SWAP3 SWAP2 SWAP1 DUP2 DUP2 MSTORE PUSH1 0x20 ADD DUP3 DUP1 SLOAD PUSH2 0x76C SWAP1 PUSH2 0x137C JUMP JUMPDEST DUP1 ISZERO PUSH2 0x7B9 JUMPI DUP1 PUSH1 0x1F LT PUSH2 0x78E JUMPI PUSH2 0x100 DUP1 DUP4 SLOAD DIV MUL DUP4 MSTORE SWAP2 PUSH1 0x20 ADD SWAP2 PUSH2 0x7B9 JUMP JUMPDEST DUP3 ADD SWAP2 SWAP1 PUSH1 0x0 MSTORE PUSH1 0x20 PUSH1 0x0 KECCAK256 SWAP1 JUMPDEST DUP2 SLOAD DUP2 MSTORE SWAP1 PUSH1 0x1 ADD SWAP1 PUSH1 0x20 ADD DUP1 DUP4 GT PUSH2 0x79C JUMPI DUP3 SWAP1 SUB PUSH1 0x1F AND DUP3 ADD SWAP2 JUMPDEST POP POP POP POP POP SWAP4 POP DUP3 DUP1 SLOAD PUSH2 0x7CC SWAP1 PUSH2 0x137C JUMP JUMPDEST DUP1 PUSH1 0x1F ADD PUSH1 0x20 DUP1 SWAP2 DIV MUL PUSH1 0x20 ADD PUSH1 0x40 MLOAD SWAP1 DUP2 ADD PUSH1 0x40 MSTORE DUP1 SWAP3 SWAP2 SWAP1 DUP2 DUP2 MSTORE PUSH1 0x20 ADD DUP3 DUP1 SLOAD PUSH2 0x7F8 SWAP1 PUSH2 0x137C JUMP JUMPDEST DUP1 ISZERO PUSH2 0x845 JUMPI DUP1 PUSH1 0x1F LT PUSH2 0x81A JUMPI PUSH2 0x100 DUP1 DUP4 SLOAD DIV MUL DUP4 MSTORE SWAP2 PUSH1 0x20 ADD SWAP2 PUSH2 0x845 JUMP JUMPDEST DUP3 ADD SWAP2 SWAP1 PUSH1 0x0 MSTORE PUSH1 0x20 PUSH1 0x0 KECCAK256 SWAP1 JUMPDEST DUP2 SLOAD DUP2 MSTORE SWAP1 PUSH1 0x1 ADD SWAP1 PUSH1 0x20 ADD DUP1 DUP4 GT PUSH2 0x828 JUMPI DUP3 SWAP1 SUB PUSH1 0x1F AND DUP3 ADD SWAP2 JUMPDEST POP POP POP POP POP SWAP3 POP DUP2 DUP1 SLOAD PUSH2 0x858 SWAP1 PUSH2 0x137C JUMP JUMPDEST DUP1 PUSH1 0x1F ADD PUSH1 0x20 DUP1 SWAP2 DIV MUL PUSH1 0x20 ADD PUSH1 0x40 MLOAD SWAP1 DUP2 ADD PUSH1 0x40 MSTORE DUP1 SWAP3 SWAP2 SWAP1 DUP2 DUP2 MSTORE PUSH1 0x20 ADD DUP3 DUP1 SLOAD PUSH2 0x884 SWAP1 PUSH2 0x137C JUMP JUMPDEST DUP1 ISZERO PUSH2 0x8D1 JUMPI DUP1 PUSH1 0x1F LT PUSH2 0x8A6 JUMPI PUSH2 0x100 DUP1 DUP4 SLOAD DIV MUL DUP4 MSTORE SWAP2 PUSH1 0x20 ADD SWAP2 PUSH2 0x8D1 JUMP JUMPDEST DUP3 ADD SWAP2 SWAP1 PUSH1 0x0 MSTORE PUSH1 0x20 PUSH1 0x0 KECCAK256 SWAP1 JUMPDEST DUP2 SLOAD DUP2 MSTORE SWAP1 PUSH1 0x1 ADD SWAP1 PUSH1 0x20 ADD DUP1 DUP4 GT PUSH2 0x8B4 JUMPI DUP3 SWAP1 SUB PUSH1 0x1F AND DUP3 ADD SWAP2 JUMPDEST POP POP POP POP POP SWAP2 POP DUP1 DUP1 SLOAD DUP1 PUSH1 0x20 MUL PUSH1 0x20 ADD PUSH1 0x40 MLOAD SWAP1 DUP2 ADD PUSH1 0x40 MSTORE DUP1 SWAP3 SWAP2 SWAP1 DUP2 DUP2 MSTORE PUSH1 0x20 ADD PUSH1 0x0 SWAP1 JUMPDEST DUP3 DUP3 LT ISZERO PUSH2 0x9A5 JUMPI DUP4 DUP3 SWAP1 PUSH1 0x0 MSTORE PUSH1 0x20 PUSH1 0x0 KECCAK256 ADD DUP1 SLOAD PUSH2 0x918 SWAP1 PUSH2 0x137C JUMP JUMPDEST DUP1 PUSH1 0x1F ADD PUSH1 0x20 DUP1 SWAP2 DIV MUL PUSH1 0x20 ADD PUSH1 0x40 MLOAD SWAP1 DUP2 ADD PUSH1 0x40 MSTORE DUP1 SWAP3 SWAP2 SWAP1 DUP2 DUP2 MSTORE PUSH1 0x20 ADD DUP3 DUP1 SLOAD PUSH2 0x944 SWAP1 PUSH2 0x137C JUMP JUMPDEST DUP1 ISZERO PUSH2 0x991 JUMPI DUP1 PUSH1 0x1F LT PUSH2 0x966 JUMPI PUSH2 0x100 DUP1 DUP4 SLOAD DIV MUL DUP4 MSTORE SWAP2 PUSH1 0x20 ADD SWAP2 PUSH2 0x991 JUMP JUMPDEST DUP3 ADD SWAP2 SWAP1 PUSH1 0x0 MSTORE PUSH1 0x20 PUSH1 0x0 KECCAK256 SWAP1 JUMPDEST DUP2 SLOAD DUP2 MSTORE SWAP1 PUSH1 0x1 ADD SWAP1 PUSH1 0x20 ADD DUP1 DUP4 GT PUSH2 0x974 JUMPI DUP3 SWAP1 SUB PUSH1 0x1F AND DUP3 ADD SWAP2 JUMPDEST POP POP POP POP POP DUP2 MSTORE PUSH1 0x20 ADD SWAP1 PUSH1 0x1 ADD SWAP1 PUSH2 0x8F9 JUMP JUMPDEST POP POP POP POP SWAP1 POP SWAP12 POP SWAP12 POP SWAP12 POP SWAP12 POP SWAP12 POP SWAP12 POP SWAP12 POP SWAP12 POP SWAP12 POP SWAP12 POP SWAP12 POP SWAP12 POP SWAP1 SWAP2 SWAP3 SWAP4 SWAP5 SWAP6 SWAP7 SWAP8 SWAP9 SWAP10 SWAP11 SWAP12 JUMP JUMPDEST PUSH1 0xA DUP1 SLOAD PUSH2 0x37E SWAP1 PUSH2 0x137C JUMP JUMPDEST PUSH1 0x0 SLOAD PUSH1 0x1 PUSH1 0x1 PUSH1 0xA0 SHL SUB AND CALLER EQ PUSH2 0x9F5 JUMPI PUSH1 0x0 DUP1 REVERT JUMPDEST PUSH2 0xAA5 PUSH1 0x6 DUP1 SLOAD PUSH2 0xA05 SWAP1 PUSH2 0x137C JUMP JUMPDEST DUP1 PUSH1 0x1F ADD PUSH1 0x20 DUP1 SWAP2 DIV MUL PUSH1 0x20 ADD PUSH1 0x40 MLOAD SWAP1 DUP2 ADD PUSH1 0x40 MSTORE DUP1 SWAP3 SWAP2 SWAP1 DUP2 DUP2 MSTORE PUSH1 0x20 ADD DUP3 DUP1 SLOAD PUSH2 0xA31 SWAP1 PUSH2 0x137C JUMP JUMPDEST DUP1 ISZERO PUSH2 0xA7E JUMPI DUP1 PUSH1 0x1F LT PUSH2 0xA53 JUMPI PUSH2 0x100 DUP1 DUP4 SLOAD DIV MUL DUP4 MSTORE SWAP2 PUSH1 0x20 ADD SWAP2 PUSH2 0xA7E JUMP JUMPDEST DUP3 ADD SWAP2 SWAP1 PUSH1 0x0 MSTORE PUSH1 0x20 PUSH1 0x0 KECCAK256 SWAP1 JUMPDEST DUP2 SLOAD DUP2 MSTORE SWAP1 PUSH1 0x1 ADD SWAP1 PUSH1 0x20 ADD DUP1 DUP4 GT PUSH2 0xA61 JUMPI DUP3 SWAP1 SUB PUSH1 0x1F AND DUP3 ADD SWAP2 JUMPDEST POP POP POP POP POP PUSH1 0x40 MLOAD DUP1 PUSH1 0x40 ADD PUSH1 0x40 MSTORE DUP1 PUSH1 0x4 DUP2 MSTORE PUSH1 0x20 ADD PUSH4 0x37B832B7 PUSH1 0xE1 SHL DUP2 MSTORE POP PUSH2 0xF21 JUMP JUMPDEST PUSH2 0xAAE JUMPI PUSH1 0x0 DUP1 REVERT JUMPDEST PUSH1 0x40 DUP1 MLOAD DUP1 DUP3 ADD SWAP1 SWAP2 MSTORE PUSH1 0x6 DUP1 DUP3 MSTORE PUSH6 0x18DB1BDCD959 PUSH1 0xD2 SHL PUSH1 0x20 DUP4 ADD MSTORE SWAP1 PUSH2 0xAD7 SWAP1 DUP3 PUSH2 0x1405 JUMP JUMPDEST POP PUSH1 0x0 DUP1 SLOAD PUSH1 0x40 MLOAD PUSH1 0x1 PUSH1 0x1 PUSH1 0xA0 SHL SUB SWAP1 SWAP2 AND SWAP2 SELFBALANCE DUP1 ISZERO PUSH2 0x8FC MUL SWAP3 SWAP1 SWAP2 DUP2 DUP2 DUP2 DUP6 DUP9 DUP9 CALL SWAP4 POP POP POP POP ISZERO DUP1 ISZERO PUSH2 0x4FF JUMPI RETURNDATASIZE PUSH1 0x0 DUP1 RETURNDATACOPY RETURNDATASIZE PUSH1 0x0 REVERT JUMPDEST PUSH1 0x1 SLOAD PUSH1 0x1 PUSH1 0x1 PUSH1 0xA0 SHL SUB AND CALLER EQ PUSH2 0xB29 JUMPI PUSH1 0x0 DUP1 REVERT JUMPDEST PUSH2 0xBDD PUSH1 0x6 DUP1 SLOAD PUSH2 0xB39 SWAP1 PUSH2 0x137C JUMP JUMPDEST DUP1 PUSH1 0x1F ADD PUSH1 0x20 DUP1 SWAP2 DIV MUL PUSH1 0x20 ADD PUSH1 0x40 MLOAD SWAP1 DUP2 ADD PUSH1 0x40 MSTORE DUP1 SWAP3 SWAP2 SWAP1 DUP2 DUP2 MSTORE PUSH1 0x20 ADD DUP3 DUP1 SLOAD PUSH2 0xB65 SWAP1 PUSH2 0x137C JUMP JUMPDEST DUP1 ISZERO PUSH2 0xBB2 JUMPI DUP1 PUSH1 0x1F LT PUSH2 0xB87 JUMPI PUSH2 0x100 DUP1 DUP4 SLOAD DIV MUL DUP4 MSTORE SWAP2 PUSH1 0x20 ADD SWAP2 PUSH2 0xBB2 JUMP JUMPDEST DUP3 ADD SWAP2 SWAP1 PUSH1 0x0 MSTORE PUSH1 0x20 PUSH1 0x0 KECCAK256 SWAP1 JUMPDEST DUP2 SLOAD DUP2 MSTORE SWAP1 PUSH1 0x1 ADD SWAP1 PUSH1 0x20 ADD DUP1 DUP4 GT PUSH2 0xB95 JUMPI DUP3 SWAP1 SUB PUSH1 0x1F AND DUP3 ADD SWAP2 JUMPDEST POP POP POP POP POP PUSH1 0x40 MLOAD DUP1 PUSH1 0x40 ADD PUSH1 0x40 MSTORE DUP1 PUSH1 0x8 DUP2 MSTORE PUSH1 0x20 ADD PUSH8 0x191A5CDC1D5D1959 PUSH1 0xC2 SHL DUP2 MSTORE POP PUSH2 0xF21 JUMP JUMPDEST PUSH2 0xBE6 JUMPI PUSH1 0x0 DUP1 REVERT JUMPDEST PUSH1 0x40 DUP1 MLOAD DUP1 DUP3 ADD SWAP1 SWAP2 MSTORE PUSH1 0x4 DUP2 MSTORE PUSH4 0x37B832B7 PUSH1 0xE1 SHL PUSH1 0x20 DUP3 ADD MSTORE PUSH1 0x6 SWAP1 PUSH2 0xC0E SWAP1 DUP3 PUSH2 0x1405 JUMP JUMPDEST POP PUSH2 0xC1B PUSH1 0xB PUSH1 0x0 PUSH2 0xF8C JUMP JUMPDEST JUMP JUMPDEST PUSH1 0x60 PUSH1 0xB DUP1 SLOAD DUP1 PUSH1 0x20 MUL PUSH1 0x20 ADD PUSH1 0x40 MLOAD SWAP1 DUP2 ADD PUSH1 0x40 MSTORE DUP1 SWAP3 SWAP2 SWAP1 DUP2 DUP2 MSTORE PUSH1 0x20 ADD PUSH1 0x0 SWAP1 JUMPDEST DUP3 DUP3 LT ISZERO PUSH2 0xCED JUMPI DUP4 DUP3 SWAP1 PUSH1 0x0 MSTORE PUSH1 0x20 PUSH1 0x0 KECCAK256 ADD DUP1 SLOAD PUSH2 0xC60 SWAP1 PUSH2 0x137C JUMP JUMPDEST DUP1 PUSH1 0x1F ADD PUSH1 0x20 DUP1 SWAP2 DIV MUL PUSH1 0x20 ADD PUSH1 0x40 MLOAD SWAP1 DUP2 ADD PUSH1 0x40 MSTORE DUP1 SWAP3 SWAP2 SWAP1 DUP2 DUP2 MSTORE PUSH1 0x20 ADD DUP3 DUP1 SLOAD PUSH2 0xC8C SWAP1 PUSH2 0x137C JUMP JUMPDEST DUP1 ISZERO PUSH2 0xCD9 JUMPI DUP1 PUSH1 0x1F LT PUSH2 0xCAE JUMPI PUSH2 0x100 DUP1 DUP4 SLOAD DIV MUL DUP4 MSTORE SWAP2 PUSH1 0x20 ADD SWAP2 PUSH2 0xCD9 JUMP JUMPDEST DUP3 ADD SWAP2 SWAP1 PUSH1 0x0 MSTORE PUSH1 0x20 PUSH1 0x0 KECCAK256 SWAP1 JUMPDEST DUP2 SLOAD DUP2 MSTORE SWAP1 PUSH1 0x1 ADD SWAP1 PUSH1 0x20 ADD DUP1 DUP4 GT PUSH2 0xCBC JUMPI DUP3 SWAP1 SUB PUSH1 0x1F AND DUP3 ADD SWAP2 JUMPDEST POP POP POP POP POP DUP2 MSTORE PUSH1 0x20 ADD SWAP1 PUSH1 0x1 ADD SWAP1 PUSH2 0xC41 JUMP JUMPDEST POP POP POP POP SWAP1 POP SWAP1 JUMP JUMPDEST PUSH1 0x9 DUP1 SLOAD PUSH2 0x37E SWAP1 PUSH2 0x137C JUMP JUMPDEST PUSH1 0x5 SLOAD TIMESTAMP LT PUSH2 0xD11 JUMPI PUSH1 0x0 DUP1 REVERT JUMPDEST PUSH2 0xD21 PUSH1 0x6 DUP1 SLOAD PUSH2 0xA05 SWAP1 PUSH2 0x137C JUMP JUMPDEST PUSH2 0xD2A JUMPI PUSH1 0x0 DUP1 REVERT JUMPDEST PUSH1 0x2 DUP1 SLOAD PUSH1 0x1 PUSH1 0x1 PUSH1 0xA0 SHL SUB NOT AND CALLER OR SWAP1 SSTORE DUP1 MLOAD PUSH2 0xD4F SWAP1 PUSH1 0xB SWAP1 PUSH1 0x20 DUP5 ADD SWAP1 PUSH2 0xFAA JUMP JUMPDEST POP PUSH1 0x40 DUP1 MLOAD DUP1 DUP3 ADD SWAP1 SWAP2 MSTORE PUSH1 0x8 DUP2 MSTORE PUSH8 0x1C1C9BDC1BDCD959 PUSH1 0xC2 SHL PUSH1 0x20 DUP3 ADD MSTORE PUSH1 0x6 SWAP1 PUSH2 0xD7C SWAP1 DUP3 PUSH2 0x1405 JUMP JUMPDEST POP POP JUMP JUMPDEST PUSH1 0x0 SLOAD PUSH1 0x1 PUSH1 0x1 PUSH1 0xA0 SHL SUB AND CALLER EQ PUSH2 0xD97 JUMPI PUSH1 0x0 DUP1 REVERT JUMPDEST PUSH2 0xDA7 PUSH1 0x6 DUP1 SLOAD PUSH2 0x40F SWAP1 PUSH2 0x137C JUMP JUMPDEST PUSH2 0xDB0 JUMPI PUSH1 0x0 DUP1 REVERT JUMPDEST PUSH1 0x40 DUP1 MLOAD DUP1 DUP3 ADD SWAP1 SWAP2 MSTORE PUSH1 0x6 DUP1 DUP3 MSTORE PUSH6 0x18DB1BDCD959 PUSH1 0xD2 SHL PUSH1 0x20 DUP4 ADD MSTORE SWAP1 PUSH2 0xDD9 SWAP1 DUP3 PUSH2 0x1405 JUMP JUMPDEST POP PUSH1 0x2 SLOAD PUSH1 0x1 PUSH1 0x1 PUSH1 0xA0 SHL SUB AND PUSH2 0x8FC PUSH1 0x64 PUSH2 0xDF6 SELFBALANCE PUSH1 0x5F PUSH2 0x14C5 JUMP JUMPDEST PUSH2 0xE00 SWAP2 SWAP1 PUSH2 0x14F2 JUMP JUMPDEST PUSH1 0x40 MLOAD DUP2 ISZERO SWAP1 SWAP3 MUL SWAP2 PUSH1 0x0 DUP2 DUP2 DUP2 DUP6 DUP9 DUP9 CALL SWAP4 POP POP POP POP ISZERO DUP1 ISZERO PUSH2 0xE28 JUMPI RETURNDATASIZE PUSH1 0x0 DUP1 RETURNDATACOPY RETURNDATASIZE PUSH1 0x0 REVERT JUMPDEST POP PUSH1 0x1 SLOAD PUSH1 0x1 PUSH1 0x1 PUSH1 0xA0 SHL SUB AND PUSH2 0x8FC PUSH1 0x64 PUSH2 0xE45 SELFBALANCE PUSH1 0x5 PUSH2 0x14C5 JUMP JUMPDEST PUSH2 0xE4F SWAP2 SWAP1 PUSH2 0x14F2 JUMP JUMPDEST PUSH1 0x40 MLOAD DUP2 ISZERO SWAP1 SWAP3 MUL SWAP2 PUSH1 0x0 DUP2 DUP2 DUP2 DUP6 DUP9 DUP9 CALL SWAP4 POP POP POP POP ISZERO DUP1 ISZERO PUSH2 0x4FF JUMPI RETURNDATASIZE PUSH1 0x0 DUP1 RETURNDATACOPY RETURNDATASIZE PUSH1 0x0 REVERT JUMPDEST PUSH1 0x8 DUP1 SLOAD PUSH2 0x37E SWAP1 PUSH2 0x137C JUMP JUMPDEST PUSH1 0x0 SLOAD PUSH1 0x1 PUSH1 0x1 PUSH1 0xA0 SHL SUB AND CALLER EQ PUSH2 0xE9B JUMPI PUSH1 0x0 DUP1 REVERT JUMPDEST PUSH2 0xEAB PUSH1 0x6 DUP1 SLOAD PUSH2 0xA05 SWAP1 PUSH2 0x137C JUMP JUMPDEST PUSH2 0xEB4 JUMPI PUSH1 0x0 DUP1 REVERT JUMPDEST DUP1 TIMESTAMP LT PUSH2 0xEC0 JUMPI PUSH1 0x0 DUP1 REVERT JUMPDEST PUSH1 0x5 DUP2 SWAP1 SSTORE PUSH1 0x40 DUP1 MLOAD DUP1 DUP3 ADD SWAP1 SWAP2 MSTORE PUSH1 0x4 DUP2 MSTORE PUSH4 0x37B832B7 PUSH1 0xE1 SHL PUSH1 0x20 DUP3 ADD MSTORE PUSH1 0x6 SWAP1 PUSH2 0xD7C SWAP1 DUP3 PUSH2 0x1405 JUMP JUMPDEST PUSH1 0x4 DUP1 SLOAD PUSH2 0x37E SWAP1 PUSH2 0x137C JUMP JUMPDEST PUSH1 0x1 SLOAD PUSH1 0x1 PUSH1 0x1 PUSH1 0xA0 SHL SUB AND CALLER EQ PUSH2 0xF11 JUMPI PUSH1 0x0 DUP1 REVERT JUMPDEST PUSH2 0xDA7 PUSH1 0x6 DUP1 SLOAD PUSH2 0xB39 SWAP1 PUSH2 0x137C JUMP JUMPDEST PUSH1 0x0 DUP2 MLOAD DUP4 MLOAD EQ PUSH2 0xF34 JUMPI POP PUSH1 0x0 PUSH2 0xF86 JUMP JUMPDEST DUP2 PUSH1 0x40 MLOAD PUSH1 0x20 ADD PUSH2 0xF45 SWAP2 SWAP1 PUSH2 0x10AC JUMP JUMPDEST PUSH1 0x40 MLOAD PUSH1 0x20 DUP2 DUP4 SUB SUB DUP2 MSTORE SWAP1 PUSH1 0x40 MSTORE DUP1 MLOAD SWAP1 PUSH1 0x20 ADD KECCAK256 DUP4 PUSH1 0x40 MLOAD PUSH1 0x20 ADD PUSH2 0xF6C SWAP2 SWAP1 PUSH2 0x10AC JUMP JUMPDEST PUSH1 0x40 MLOAD PUSH1 0x20 DUP2 DUP4 SUB SUB DUP2 MSTORE SWAP1 PUSH1 0x40 MSTORE DUP1 MLOAD SWAP1 PUSH1 0x20 ADD KECCAK256 EQ SWAP1 POP JUMPDEST SWAP3 SWAP2 POP POP JUMP JUMPDEST POP DUP1 SLOAD PUSH1 0x0 DUP3 SSTORE SWAP1 PUSH1 0x0 MSTORE PUSH1 0x20 PUSH1 0x0 KECCAK256 SWAP1 DUP2 ADD SWAP1 PUSH2 0x4FF SWAP2 SWAP1 PUSH2 0x1000 JUMP JUMPDEST DUP3 DUP1 SLOAD DUP3 DUP3 SSTORE SWAP1 PUSH1 0x0 MSTORE PUSH1 0x20 PUSH1 0x0 KECCAK256 SWAP1 DUP2 ADD SWAP3 DUP3 ISZERO PUSH2 0xFF0 JUMPI SWAP2 PUSH1 0x20 MUL DUP3 ADD JUMPDEST DUP3 DUP2 GT ISZERO PUSH2 0xFF0 JUMPI DUP3 MLOAD DUP3 SWAP1 PUSH2 0xFE0 SWAP1 DUP3 PUSH2 0x1405 JUMP JUMPDEST POP SWAP2 PUSH1 0x20 ADD SWAP2 SWAP1 PUSH1 0x1 ADD SWAP1 PUSH2 0xFCA JUMP JUMPDEST POP PUSH2 0xFFC SWAP3 SWAP2 POP PUSH2 0x1000 JUMP JUMPDEST POP SWAP1 JUMP JUMPDEST DUP1 DUP3 GT ISZERO PUSH2 0xFFC JUMPI PUSH1 0x0 PUSH2 0x1014 DUP3 DUP3 PUSH2 0x101D JUMP JUMPDEST POP PUSH1 0x1 ADD PUSH2 0x1000 JUMP JUMPDEST POP DUP1 SLOAD PUSH2 0x1029 SWAP1 PUSH2 0x137C JUMP JUMPDEST PUSH1 0x0 DUP3 SSTORE DUP1 PUSH1 0x1F LT PUSH2 0x1039 JUMPI POP POP JUMP JUMPDEST PUSH1 0x1F ADD PUSH1 0x20 SWAP1 DIV SWAP1 PUSH1 0x0 MSTORE PUSH1 0x20 PUSH1 0x0 KECCAK256 SWAP1 DUP2 ADD SWAP1 PUSH2 0x4FF SWAP2 SWAP1 JUMPDEST DUP1 DUP3 GT ISZERO PUSH2 0xFFC JUMPI PUSH1 0x0 DUP2 SSTORE PUSH1 0x1 ADD PUSH2 0x1053 JUMP JUMPDEST PUSH1 0x0 DUP2 MLOAD DUP1 DUP5 MSTORE PUSH1 0x20 PUSH1 0x0 JUMPDEST DUP3 DUP2 LT ISZERO PUSH2 0x108E JUMPI DUP5 DUP2 ADD DUP3 ADD MLOAD DUP7 DUP3 ADD DUP4 ADD MSTORE DUP2 ADD PUSH2 0x1073 JUMP JUMPDEST POP PUSH1 0x0 DUP6 DUP4 ADD DUP3 ADD MSTORE PUSH1 0x1F SWAP1 SWAP2 ADD PUSH1 0x1F NOT AND SWAP1 SWAP4 ADD SWAP1 SWAP3 ADD SWAP3 SWAP2 POP POP JUMP JUMPDEST PUSH1 0x20 DUP2 MSTORE PUSH1 0x0 PUSH2 0x10BF PUSH1 0x20 DUP4 ADD DUP5 PUSH2 0x1067 JUMP JUMPDEST SWAP4 SWAP3 POP POP POP JUMP JUMPDEST PUSH1 0x0 PUSH1 0x20 DUP3 DUP5 SUB SLT ISZERO PUSH2 0x10D8 JUMPI PUSH1 0x0 DUP1 REVERT JUMPDEST POP CALLDATALOAD SWAP2 SWAP1 POP JUMP JUMPDEST PUSH1 0x0 DUP3 DUP3 MLOAD DUP1 DUP6 MSTORE PUSH1 0x20 DUP1 DUP7 ADD SWAP6 POP DUP1 DUP3 PUSH1 0x5 SHL DUP5 ADD ADD DUP2 DUP7 ADD PUSH1 0x0 JUMPDEST DUP5 DUP2 LT ISZERO PUSH2 0x112A JUMPI PUSH1 0x1F NOT DUP7 DUP5 SUB ADD DUP10 MSTORE PUSH2 0x1118 DUP4 DUP4 MLOAD PUSH2 0x1067 JUMP JUMPDEST SWAP9 DUP5 ADD SWAP9 SWAP3 POP SWAP1 DUP4 ADD SWAP1 PUSH1 0x1 ADD PUSH2 0x10FC JUMP JUMPDEST POP SWAP1 SWAP8 SWAP7 POP POP POP POP POP POP POP JUMP JUMPDEST PUSH1 0x1 PUSH1 0x1 PUSH1 0xA0 SHL SUB DUP14 AND DUP2 MSTORE PUSH1 0x1 PUSH1 0x1 PUSH1 0xA0 SHL SUB DUP13 AND PUSH1 0x20 DUP3 ADD MSTORE DUP11 PUSH1 0x40 DUP3 ADD MSTORE PUSH2 0x180 PUSH1 0x60 DUP3 ADD MSTORE PUSH1 0x0 PUSH2 0x1170 PUSH2 0x180 DUP4 ADD DUP13 PUSH2 0x1067 JUMP JUMPDEST DUP3 DUP2 SUB PUSH1 0x80 DUP5 ADD MSTORE PUSH2 0x1182 DUP2 DUP13 PUSH2 0x1067 JUMP JUMPDEST SWAP1 POP DUP10 PUSH1 0xA0 DUP5 ADD MSTORE DUP3 DUP2 SUB PUSH1 0xC0 DUP5 ADD MSTORE PUSH2 0x119C DUP2 DUP11 PUSH2 0x1067 JUMP JUMPDEST SWAP1 POP DUP8 PUSH1 0xE0 DUP5 ADD MSTORE DUP3 DUP2 SUB PUSH2 0x100 DUP5 ADD MSTORE PUSH2 0x11B7 DUP2 DUP9 PUSH2 0x1067 JUMP JUMPDEST SWAP1 POP DUP3 DUP2 SUB PUSH2 0x120 DUP5 ADD MSTORE PUSH2 0x11CC DUP2 DUP8 PUSH2 0x1067 JUMP JUMPDEST SWAP1 POP DUP3 DUP2 SUB PUSH2 0x140 DUP5 ADD MSTORE PUSH2 0x11E1 DUP2 DUP7 PUSH2 0x1067 JUMP JUMPDEST SWAP1 POP DUP3 DUP2 SUB PUSH2 0x160 DUP5 ADD MSTORE PUSH2 0x11F6 DUP2 DUP6 PUSH2 0x10DF JUMP JUMPDEST SWAP16 SWAP15 POP POP POP POP POP POP POP POP POP POP POP POP POP POP POP JUMP JUMPDEST PUSH1 0x20 DUP2 MSTORE PUSH1 0x0 PUSH2 0x10BF PUSH1 0x20 DUP4 ADD DUP5 PUSH2 0x10DF JUMP JUMPDEST PUSH4 0x4E487B71 PUSH1 0xE0 SHL PUSH1 0x0 MSTORE PUSH1 0x41 PUSH1 0x4 MSTORE PUSH1 0x24 PUSH1 0x0 REVERT JUMPDEST PUSH1 0x40 MLOAD PUSH1 0x1F DUP3 ADD PUSH1 0x1F NOT AND DUP2 ADD PUSH8 0xFFFFFFFFFFFFFFFF DUP2 GT DUP3 DUP3 LT OR ISZERO PUSH2 0x125B JUMPI PUSH2 0x125B PUSH2 0x121C JUMP JUMPDEST PUSH1 0x40 MSTORE SWAP2 SWAP1 POP JUMP JUMPDEST PUSH1 0x0 PUSH1 0x20 DUP1 DUP4 DUP6 SUB SLT ISZERO PUSH2 0x1276 JUMPI PUSH1 0x0 DUP1 REVERT JUMPDEST DUP3 CALLDATALOAD PUSH8 0xFFFFFFFFFFFFFFFF DUP1 DUP3 GT ISZERO PUSH2 0x128E JUMPI PUSH1 0x0 DUP1 REVERT JUMPDEST DUP2 DUP6 ADD SWAP2 POP PUSH1 0x1F DUP7 DUP2 DUP5 ADD SLT PUSH2 0x12A3 JUMPI PUSH1 0x0 DUP1 REVERT JUMPDEST DUP3 CALLDATALOAD DUP3 DUP2 GT ISZERO PUSH2 0x12B5 JUMPI PUSH2 0x12B5 PUSH2 0x121C JUMP JUMPDEST DUP1 PUSH1 0x5 SHL PUSH2 0x12C4 DUP7 DUP3 ADD PUSH2 0x1232 JUMP JUMPDEST SWAP2 DUP3 MSTORE DUP5 DUP2 ADD DUP7 ADD SWAP2 DUP7 DUP2 ADD SWAP1 DUP11 DUP5 GT ISZERO PUSH2 0x12DE JUMPI PUSH1 0x0 DUP1 REVERT JUMPDEST DUP8 DUP8 ADD SWAP3 POP JUMPDEST DUP4 DUP4 LT ISZERO PUSH2 0x136E JUMPI DUP3 CALLDATALOAD DUP7 DUP2 GT ISZERO PUSH2 0x12FC JUMPI PUSH1 0x0 DUP1 DUP2 REVERT JUMPDEST DUP8 ADD PUSH1 0x3F DUP2 ADD DUP13 SGT PUSH2 0x130E JUMPI PUSH1 0x0 DUP1 DUP2 REVERT JUMPDEST DUP9 DUP2 ADD CALLDATALOAD PUSH1 0x40 DUP9 DUP3 GT ISZERO PUSH2 0x1324 JUMPI PUSH2 0x1324 PUSH2 0x121C JUMP JUMPDEST PUSH2 0x1335 DUP3 DUP10 ADD PUSH1 0x1F NOT AND DUP13 ADD PUSH2 0x1232 JUMP JUMPDEST DUP3 DUP2 MSTORE DUP15 DUP3 DUP5 DUP7 ADD ADD GT ISZERO PUSH2 0x134A JUMPI PUSH1 0x0 DUP1 DUP2 REVERT JUMPDEST DUP3 DUP3 DUP6 ADD DUP14 DUP4 ADD CALLDATACOPY PUSH1 0x0 SWAP3 DUP2 ADD DUP13 ADD SWAP3 SWAP1 SWAP3 MSTORE POP DUP4 MSTORE POP SWAP2 DUP8 ADD SWAP2 SWAP1 DUP8 ADD SWAP1 PUSH2 0x12E4 JUMP JUMPDEST SWAP11 SWAP10 POP POP POP POP POP POP POP POP POP POP JUMP JUMPDEST PUSH1 0x1 DUP2 DUP2 SHR SWAP1 DUP3 AND DUP1 PUSH2 0x1390 JUMPI PUSH1 0x7F DUP3 AND SWAP2 POP JUMPDEST PUSH1 0x20 DUP3 LT DUP2 SUB PUSH2 0x13B0 JUMPI PUSH4 0x4E487B71 PUSH1 0xE0 SHL PUSH1 0x0 MSTORE PUSH1 0x22 PUSH1 0x4 MSTORE PUSH1 0x24 PUSH1 0x0 REVERT JUMPDEST POP SWAP2 SWAP1 POP JUMP JUMPDEST PUSH1 0x1F DUP3 GT ISZERO PUSH2 0x1400 JUMPI PUSH1 0x0 DUP2 DUP2 MSTORE PUSH1 0x20 DUP2 KECCAK256 PUSH1 0x1F DUP6 ADD PUSH1 0x5 SHR DUP2 ADD PUSH1 0x20 DUP7 LT ISZERO PUSH2 0x13DD JUMPI POP DUP1 JUMPDEST PUSH1 0x1F DUP6 ADD PUSH1 0x5 SHR DUP3 ADD SWAP2 POP JUMPDEST DUP2 DUP2 LT ISZERO PUSH2 0x13FC JUMPI DUP3 DUP2 SSTORE PUSH1 0x1 ADD PUSH2 0x13E9 JUMP JUMPDEST POP POP POP JUMPDEST POP POP POP JUMP JUMPDEST DUP2 MLOAD PUSH8 0xFFFFFFFFFFFFFFFF DUP2 GT ISZERO PUSH2 0x141F JUMPI PUSH2 0x141F PUSH2 0x121C JUMP JUMPDEST PUSH2 0x1433 DUP2 PUSH2 0x142D DUP5 SLOAD PUSH2 0x137C JUMP JUMPDEST DUP5 PUSH2 0x13B6 JUMP JUMPDEST PUSH1 0x20 DUP1 PUSH1 0x1F DUP4 GT PUSH1 0x1 DUP2 EQ PUSH2 0x1468 JUMPI PUSH1 0x0 DUP5 ISZERO PUSH2 0x1450 JUMPI POP DUP6 DUP4 ADD MLOAD JUMPDEST PUSH1 0x0 NOT PUSH1 0x3 DUP7 SWAP1 SHL SHR NOT AND PUSH1 0x1 DUP6 SWAP1 SHL OR DUP6 SSTORE PUSH2 0x13FC JUMP JUMPDEST PUSH1 0x0 DUP6 DUP2 MSTORE PUSH1 0x20 DUP2 KECCAK256 PUSH1 0x1F NOT DUP7 AND SWAP2 JUMPDEST DUP3 DUP2 LT ISZERO PUSH2 0x1497 JUMPI DUP9 DUP7 ADD MLOAD DUP3 SSTORE SWAP5 DUP5 ADD SWAP5 PUSH1 0x1 SWAP1 SWAP2 ADD SWAP1 DUP5 ADD PUSH2 0x1478 JUMP JUMPDEST POP DUP6 DUP3 LT ISZERO PUSH2 0x14B5 JUMPI DUP8 DUP6 ADD MLOAD PUSH1 0x0 NOT PUSH1 0x3 DUP9 SWAP1 SHL PUSH1 0xF8 AND SHR NOT AND DUP2 SSTORE JUMPDEST POP POP POP POP POP PUSH1 0x1 SWAP1 DUP2 SHL ADD SWAP1 SSTORE POP JUMP JUMPDEST PUSH1 0x0 DUP2 PUSH1 0x0 NOT DIV DUP4 GT DUP3 ISZERO ISZERO AND ISZERO PUSH2 0x14ED JUMPI PUSH4 0x4E487B71 PUSH1 0xE0 SHL PUSH1 0x0 MSTORE PUSH1 0x11 PUSH1 0x4 MSTORE PUSH1 0x24 PUSH1 0x0 REVERT JUMPDEST POP MUL SWAP1 JUMP JUMPDEST PUSH1 0x0 DUP3 PUSH2 0x150F JUMPI PUSH4 0x4E487B71 PUSH1 0xE0 SHL PUSH1 0x0 MSTORE PUSH1 0x12 PUSH1 0x4 MSTORE PUSH1 0x24 PUSH1 0x0 REVERT JUMPDEST POP DIV SWAP1 JUMP INVALID LOG2 PUSH5 0x6970667358 0x22 SLT KECCAK256 0xC0 SWAP11 0xE4 CALLDATALOAD SLOAD 0xBF INVALID 0xAD SIGNEXTEND NOT CODECOPY SWAP4 0xD5 SELFBALANCE 0xA8 0xBB 0xAB 0xA9 0x1F 0xE8 0xE7 PUSH19 0xE6C93F29FB240CAA42A464736F6C6343000810 STOP CALLER "},"gasEstimates":{"creation":{"codeDepositCost":"1090000","executionCost":"infinite","totalCost":"infinite"},"external":{"acceptDispute()":"infinite","acceptProposal()":"infinite","closeContract()":"infinite","customer()":"2394","disputeProposal()":"infinite","expires()":"2339","format()":"infinite","getMediaAddresses()":"infinite","getSummary()":"infinite","location()":"infinite","mediaAddresses(uint256)":"infinite","minimalLength()":"2362","minimalResolution()":"infinite","platform()":"2393","proposeMedia(string[])":"infinite","rejectDispute()":"infinite","renewContract(uint256)":"infinite","reporter()":"2350","specialInstructions()":"infinite","status()":"infinite","task()":"infinite"},"internal":{"hashCompareWithLengthCheck(string memory,string memory)":"infinite"}},"methodIdentifiers":{"acceptDispute()":"6a2e23f5","acceptProposal()":"af3b19e5","closeContract()":"610be654","customer()":"2804b2c0","disputeProposal()":"295f1b4d","expires()":"b1cb0db3","format()":"f0de67ac","getMediaAddresses()":"6a76ae98","getSummary()":"4051ddac","location()":"516f279e","mediaAddresses(uint256)":"2d237d21","minimalLength()":"9b221c7d","minimalResolution()":"9d9e27d9","platform()":"4bde38c8","proposeMedia(string[])":"add08a8e","rejectDispute()":"f32370e7","renewContract(uint256)":"d5252dcf","reporter()":"010ec441","specialInstructions()":"cc5be574","status()":"200d2ed2","task()":"3283f641"}},"storageLayout":{"storage":[{"astId":77,"contract":"Contract.sol:MediaContract","label":"customer","offset":0,"slot":"0","type":"t_address_payable"},{"astId":79,"contract":"Contract.sol:MediaContract","label":"platform","offset":0,"slot":"1","type":"t_address_payable"},{"astId":81,"contract":"Contract.sol:MediaContract","label":"reporter","offset":0,"slot":"2","type":"t_address_payable"},{"astId":83,"contract":"Contract.sol:MediaContract","label":"task","offset":0,"slot":"3","type":"t_string_storage"},{"astId":85,"contract":"Contract.sol:MediaContract","label":"format","offset":0,"slot":"4","type":"t_string_storage"},{"astId":87,"contract":"Contract.sol:MediaContract","label":"expires","offset":0,"slot":"5","type":"t_uint256"},{"astId":89,"contract":"Contract.sol:MediaContract","label":"status","offset":0,"slot":"6","type":"t_string_storage"},{"astId":91,"contract":"Contract.sol:MediaContract","label":"minimalLength","offset":0,"slot":"7","type":"t_uint256"},{"astId":93,"contract":"Contract.sol:MediaContract","label":"specialInstructions","offset":0,"slot":"8","type":"t_string_storage"},{"astId":95,"contract":"Contract.sol:MediaContract","label":"minimalResolution","offset":0,"slot":"9","type":"t_string_storage"},{"astId":97,"contract":"Contract.sol:MediaContract","label":"location","offset":0,"slot":"10","type":"t_string_storage"},{"astId":100,"contract":"Contract.sol:MediaContract","label":"mediaAddresses","offset":0,"slot":"11","type":"t_array(t_string_storage)dyn_storage"}],"types":{"t_address_payable":{"encoding":"inplace","label":"address payable","numberOfBytes":"20"},"t_array(t_string_storage)dyn_storage":{"base":"t_string_storage","encoding":"dynamic_array","label":"string[]","numberOfBytes":"32"},"t_string_storage":{"encoding":"bytes","label":"string","numberOfBytes":"32"},"t_uint256":{"encoding":"inplace","label":"uint256","numberOfBytes":"32"}}},"userdoc":{"kind":"user","methods":{},"version":1}}