{"abi":[{"inputs":[{"internalType":"uint256","name":"expiration","type":"uint256"},{"internalType":"string","name":"tasking_","type":"string"},{"internalType":"string","name":"formatting_","type":"string"},{"internalType":"uint256","name":"minimalLength_","type":"uint256"},{"internalType":"string","name":"minimalResolution_","type":"string"},{"internalType":"string","name":"location_","type":"string"},{"internalType":"address payable","name":"platform_","type":"address"},{"internalType":"address payable","name":"newCustomer","type":"address"}],"stateMutability":"payable","type":"constructor"},{"inputs":[],"name":"acceptDispute","outputs":[],"stateMutability":"nonpayable","type":"function"},{"inputs":[],"name":"acceptProposal","outputs":[],"stateMutability":"payable","type":"function"},{"inputs":[],"name":"closeContract","outputs":[],"stateMutability":"nonpayable","type":"function"},{"inputs":[],"name":"contractPrice","outputs":[{"internalType":"uint256","name":"","type":"uint256"}],"stateMutability":"view","type":"function"},{"inputs":[],"name":"created","outputs":[{"internalType":"uint256","name":"","type":"uint256"}],"stateMutability":"view","type":"function"},{"inputs":[],"name":"customer","outputs":[{"internalType":"address payable","name":"","type":"address"}],"stateMutability":"view","type":"function"},{"inputs":[],"name":"disputeProposal","outputs":[],"stateMutability":"nonpayable","type":"function"},{"inputs":[],"name":"expires","outputs":[{"internalType":"uint256","name":"","type":"uint256"}],"stateMutability":"view","type":"function"},{"inputs":[],"name":"format","outputs":[{"internalType":"string","name":"","type":"string"}],"stateMutability":"view","type":"function"},{"inputs":[],"name":"getMediaAddresses","outputs":[{"internalType":"string[]","name":"","type":"string[]"}],"stateMutability":"view","type":"function"},{"inputs":[],"name":"location","outputs":[{"internalType":"string","name":"","type":"string"}],"stateMutability":"view","type":"function"},{"inputs":[{"internalType":"uint256","name":"","type":"uint256"}],"name":"mediaAddresses","outputs":[{"internalType":"string","name":"","type":"string"}],"stateMutability":"view","type":"function"},{"inputs":[],"name":"minimalLength","outputs":[{"internalType":"uint256","name":"","type":"uint256"}],"stateMutability":"view","type":"function"},{"inputs":[],"name":"minimalResolution","outputs":[{"internalType":"string","name":"","type":"string"}],"stateMutability":"view","type":"function"},{"inputs":[],"name":"pay","outputs":[{"internalType":"string","name":"","type":"string"}],"stateMutability":"view","type":"function"},{"inputs":[],"name":"platform","outputs":[{"internalType":"address payable","name":"","type":"address"}],"stateMutability":"view","type":"function"},{"inputs":[],"name":"platformFee","outputs":[{"internalType":"uint256","name":"","type":"uint256"}],"stateMutability":"view","type":"function"},{"inputs":[{"internalType":"string[]","name":"addresses","type":"string[]"}],"name":"proposeMedia","outputs":[],"stateMutability":"nonpayable","type":"function"},{"inputs":[],"name":"rejectDispute","outputs":[],"stateMutability":"payable","type":"function"},{"inputs":[{"internalType":"uint256","name":"newExpiration","type":"uint256"}],"name":"renewContract","outputs":[],"stateMutability":"nonpayable","type":"function"},{"inputs":[],"name":"reporter","outputs":[{"internalType":"address payable","name":"","type":"address"}],"stateMutability":"view","type":"function"},{"inputs":[],"name":"specialInstructions","outputs":[{"internalType":"string","name":"","type":"string"}],"stateMutability":"view","type":"function"},{"inputs":[],"name":"status","outputs":[{"internalType":"string","name":"","type":"string"}],"stateMutability":"view","type":"function"},{"inputs":[],"name":"task","outputs":[{"internalType":"string","name":"","type":"string"}],"stateMutability":"view","type":"function"},{"inputs":[],"name":"tasking","outputs":[{"internalType":"string","name":"","type":"string"}],"stateMutability":"view","type":"function"}],"devdoc":{"kind":"dev","methods":{},"version":1},"evm":{"assembly":"    /* \"Contract.sol\":871:4171  contract MediaContract {... */\n  mstore(0x40, 0x80)\n    /* \"Contract.sol\":1384:2016  constructor (... */\n  mload(0x40)\n  sub(codesize, bytecodeSize)\n  dup1\n  bytecodeSize\n  dup4\n  codecopy\n  dup2\n  add\n  0x40\n  dup2\n  swap1\n  mstore\n  tag_1\n  swap2\n  tag_2\n  jump\t// in\ntag_1:\n    /* \"Contract.sol\":1650:1658  customer */\n  0x00\n    /* \"Contract.sol\":1650:1672  customer = newCustomer */\n  dup1\n  sload\n  not(sub(shl(0xa0, 0x01), 0x01))\n  and\n  sub(shl(0xa0, 0x01), 0x01)\n  dup4\n  and\n  or\n  swap1\n  sstore\n    /* \"Contract.sol\":1712:1715  100 */\n  0x64\n    /* \"Contract.sol\":1695:1709  msg.value * 95 */\n  tag_5\n    /* \"Contract.sol\":1695:1704  msg.value */\n  callvalue\n    /* \"Contract.sol\":1707:1709  95 */\n  0x5f\n    /* \"Contract.sol\":1695:1709  msg.value * 95 */\n  tag_6\n  jump\t// in\ntag_5:\n    /* \"Contract.sol\":1695:1715  msg.value * 95 / 100 */\n  tag_7\n  swap2\n  swap1\n  tag_8\n  jump\t// in\ntag_7:\n    /* \"Contract.sol\":1678:1691  contractPrice */\n  0x03\n    /* \"Contract.sol\":1678:1715  contractPrice =  msg.value * 95 / 100 */\n  sstore\n    /* \"Contract.sol\":1751:1754  100 */\n  0x64\n    /* \"Contract.sol\":1735:1748  msg.value * 5 */\n  tag_9\n    /* \"Contract.sol\":1735:1744  msg.value */\n  callvalue\n    /* \"Contract.sol\":1747:1748  5 */\n  0x05\n    /* \"Contract.sol\":1735:1748  msg.value * 5 */\n  tag_6\n  jump\t// in\ntag_9:\n    /* \"Contract.sol\":1735:1754  msg.value * 5 / 100 */\n  tag_10\n  swap2\n  swap1\n  tag_8\n  jump\t// in\ntag_10:\n    /* \"Contract.sol\":1721:1732  platformFee */\n  0x04\n    /* \"Contract.sol\":1721:1754  platformFee = msg.value * 5 / 100 */\n  sstore\n    /* \"Contract.sol\":1770:1785  block.timestamp */\n  timestamp\n    /* \"Contract.sol\":1760:1767  created */\n  0x07\n    /* \"Contract.sol\":1760:1785  created = block.timestamp */\n  sstore\n    /* \"Contract.sol\":1791:1798  expires */\n  0x08\n    /* \"Contract.sol\":1791:1811  expires = expiration */\n  dup9\n  swap1\n  sstore\n    /* \"Contract.sol\":1817:1821  task */\n  0x05\n    /* \"Contract.sol\":1817:1832  task = tasking_ */\n  tag_11\n    /* \"Contract.sol\":1824:1832  tasking_ */\n  dup9\n    /* \"Contract.sol\":1817:1821  task */\n  dup3\n    /* \"Contract.sol\":1817:1832  task = tasking_ */\n  tag_12\n  jump\t// in\ntag_11:\n  pop\n    /* \"Contract.sol\":1838:1844  format */\n  0x06\n    /* \"Contract.sol\":1838:1858  format = formatting_ */\n  tag_13\n    /* \"Contract.sol\":1847:1858  formatting_ */\n  dup8\n    /* \"Contract.sol\":1838:1844  format */\n  dup3\n    /* \"Contract.sol\":1838:1858  format = formatting_ */\n  tag_12\n  jump\t// in\ntag_13:\n  pop\n    /* \"Contract.sol\":1864:1877  minimalLength */\n  0x0c\n    /* \"Contract.sol\":1864:1894  minimalLength = minimalLength_ */\n  dup6\n  swap1\n  sstore\n    /* \"Contract.sol\":1900:1917  minimalResolution */\n  0x0e\n    /* \"Contract.sol\":1900:1938  minimalResolution = minimalResolution_ */\n  tag_14\n    /* \"Contract.sol\":1920:1938  minimalResolution_ */\n  dup6\n    /* \"Contract.sol\":1900:1917  minimalResolution */\n  dup3\n    /* \"Contract.sol\":1900:1938  minimalResolution = minimalResolution_ */\n  tag_12\n  jump\t// in\ntag_14:\n  pop\n    /* \"Contract.sol\":1944:1952  location */\n  0x0f\n    /* \"Contract.sol\":1944:1964  location = location_ */\n  tag_15\n    /* \"Contract.sol\":1955:1964  location_ */\n  dup5\n    /* \"Contract.sol\":1944:1952  location */\n  dup3\n    /* \"Contract.sol\":1944:1964  location = location_ */\n  tag_12\n  jump\t// in\ntag_15:\n  pop\n    /* \"Contract.sol\":1970:1978  platform */\n  0x01\n    /* \"Contract.sol\":1970:1990  platform = platform_ */\n  dup1\n  sload\n  not(sub(shl(0xa0, 0x01), 0x01))\n  and\n  sub(shl(0xa0, 0x01), 0x01)\n  dup5\n  and\n  or\n  swap1\n  sstore\n    /* \"Contract.sol\":1996:2011  status = 'open' */\n  0x40\n  dup1\n  mload\n  dup1\n  dup3\n  add\n  swap1\n  swap2\n  mstore\n  0x04\n  dup2\n  mstore\n  shl(0xe1, 0x37b832b7)\n  0x20\n  dup3\n  add\n  mstore\n    /* \"Contract.sol\":1996:2002  status */\n  0x09\n  swap1\n    /* \"Contract.sol\":1996:2011  status = 'open' */\n  tag_16\n  swap1\n    /* \"Contract.sol\":1996:2002  status */\n  dup3\n    /* \"Contract.sol\":1996:2011  status = 'open' */\n  tag_12\n  jump\t// in\ntag_16:\n  pop\n    /* \"Contract.sol\":1384:2016  constructor (... */\n  pop\n  pop\n  pop\n  pop\n  pop\n  pop\n  pop\n  pop\n    /* \"Contract.sol\":871:4171  contract MediaContract {... */\n  jump(tag_25)\n    /* \"#utility.yul\":14:141   */\ntag_18:\n    /* \"#utility.yul\":75:85   */\n  0x4e487b71\n    /* \"#utility.yul\":70:73   */\n  0xe0\n    /* \"#utility.yul\":66:86   */\n  shl\n    /* \"#utility.yul\":63:64   */\n  0x00\n    /* \"#utility.yul\":56:87   */\n  mstore\n    /* \"#utility.yul\":106:110   */\n  0x41\n    /* \"#utility.yul\":103:104   */\n  0x04\n    /* \"#utility.yul\":96:111   */\n  mstore\n    /* \"#utility.yul\":130:134   */\n  0x24\n    /* \"#utility.yul\":127:128   */\n  0x00\n    /* \"#utility.yul\":120:135   */\n  revert\n    /* \"#utility.yul\":146:986   */\ntag_19:\n    /* \"#utility.yul\":200:205   */\n  0x00\n    /* \"#utility.yul\":253:256   */\n  dup3\n    /* \"#utility.yul\":246:250   */\n  0x1f\n    /* \"#utility.yul\":238:244   */\n  dup4\n    /* \"#utility.yul\":234:251   */\n  add\n    /* \"#utility.yul\":230:257   */\n  slt\n    /* \"#utility.yul\":220:275   */\n  tag_28\n  jumpi\n    /* \"#utility.yul\":271:272   */\n  0x00\n    /* \"#utility.yul\":268:269   */\n  dup1\n    /* \"#utility.yul\":261:273   */\n  revert\n    /* \"#utility.yul\":220:275   */\ntag_28:\n    /* \"#utility.yul\":294:307   */\n  dup2\n  mload\n  sub(shl(0x40, 0x01), 0x01)\n    /* \"#utility.yul\":356:366   */\n  dup1\n  dup3\n  gt\n    /* \"#utility.yul\":353:389   */\n  iszero\n  tag_30\n  jumpi\n    /* \"#utility.yul\":369:387   */\n  tag_30\n  tag_18\n  jump\t// in\ntag_30:\n    /* \"#utility.yul\":444:446   */\n  0x40\n    /* \"#utility.yul\":438:447   */\n  mload\n    /* \"#utility.yul\":412:414   */\n  0x1f\n    /* \"#utility.yul\":498:511   */\n  dup4\n  add\n  not(0x1f)\n    /* \"#utility.yul\":494:516   */\n  swap1\n  dup2\n  and\n    /* \"#utility.yul\":518:520   */\n  0x3f\n    /* \"#utility.yul\":490:521   */\n  add\n    /* \"#utility.yul\":486:526   */\n  and\n    /* \"#utility.yul\":474:527   */\n  dup2\n  add\n  swap1\n    /* \"#utility.yul\":542:560   */\n  dup3\n  dup3\n  gt\n    /* \"#utility.yul\":562:584   */\n  dup2\n  dup4\n  lt\n    /* \"#utility.yul\":539:585   */\n  or\n    /* \"#utility.yul\":536:608   */\n  iszero\n  tag_32\n  jumpi\n    /* \"#utility.yul\":588:606   */\n  tag_32\n  tag_18\n  jump\t// in\ntag_32:\n    /* \"#utility.yul\":628:638   */\n  dup2\n    /* \"#utility.yul\":624:626   */\n  0x40\n    /* \"#utility.yul\":617:639   */\n  mstore\n    /* \"#utility.yul\":663:665   */\n  dup4\n    /* \"#utility.yul\":655:661   */\n  dup2\n    /* \"#utility.yul\":648:666   */\n  mstore\n    /* \"#utility.yul\":685:689   */\n  0x20\n    /* \"#utility.yul\":675:689   */\n  swap3\n  pop\n    /* \"#utility.yul\":730:733   */\n  dup7\n    /* \"#utility.yul\":725:727   */\n  dup4\n    /* \"#utility.yul\":720:722   */\n  dup6\n    /* \"#utility.yul\":712:718   */\n  dup9\n    /* \"#utility.yul\":708:723   */\n  add\n    /* \"#utility.yul\":704:728   */\n  add\n    /* \"#utility.yul\":701:734   */\n  gt\n    /* \"#utility.yul\":698:751   */\n  iszero\n  tag_33\n  jumpi\n    /* \"#utility.yul\":747:748   */\n  0x00\n    /* \"#utility.yul\":744:745   */\n  dup1\n    /* \"#utility.yul\":737:749   */\n  revert\n    /* \"#utility.yul\":698:751   */\ntag_33:\n    /* \"#utility.yul\":769:770   */\n  0x00\n    /* \"#utility.yul\":760:770   */\n  swap2\n  pop\n    /* \"#utility.yul\":779:912   */\ntag_34:\n    /* \"#utility.yul\":793:795   */\n  dup4\n    /* \"#utility.yul\":790:791   */\n  dup3\n    /* \"#utility.yul\":787:796   */\n  lt\n    /* \"#utility.yul\":779:912   */\n  iszero\n  tag_36\n  jumpi\n    /* \"#utility.yul\":881:895   */\n  dup6\n  dup3\n  add\n    /* \"#utility.yul\":877:900   */\n  dup4\n  add\n    /* \"#utility.yul\":871:901   */\n  mload\n    /* \"#utility.yul\":850:864   */\n  dup2\n  dup4\n  add\n    /* \"#utility.yul\":846:869   */\n  dup5\n  add\n    /* \"#utility.yul\":839:902   */\n  mstore\n    /* \"#utility.yul\":804:814   */\n  swap1\n  dup3\n  add\n  swap1\n    /* \"#utility.yul\":779:912   */\n  jump(tag_34)\ntag_36:\n    /* \"#utility.yul\":954:955   */\n  0x00\n    /* \"#utility.yul\":932:947   */\n  swap4\n  dup2\n  add\n    /* \"#utility.yul\":928:952   */\n  swap1\n  swap3\n  add\n    /* \"#utility.yul\":921:956   */\n  swap3\n  swap1\n  swap3\n  mstore\n    /* \"#utility.yul\":936:942   */\n  swap5\n    /* \"#utility.yul\":146:986   */\n  swap4\n  pop\n  pop\n  pop\n  pop\n  jump\t// out\n    /* \"#utility.yul\":991:1176   */\ntag_20:\n    /* \"#utility.yul\":1078:1091   */\n  dup1\n  mload\n  sub(shl(0xa0, 0x01), 0x01)\n    /* \"#utility.yul\":1120:1151   */\n  dup2\n  and\n    /* \"#utility.yul\":1110:1152   */\n  dup2\n  eq\n    /* \"#utility.yul\":1100:1170   */\n  tag_38\n  jumpi\n    /* \"#utility.yul\":1166:1167   */\n  0x00\n    /* \"#utility.yul\":1163:1164   */\n  dup1\n    /* \"#utility.yul\":1156:1168   */\n  revert\n    /* \"#utility.yul\":1100:1170   */\ntag_38:\n    /* \"#utility.yul\":991:1176   */\n  swap2\n  swap1\n  pop\n  jump\t// out\n    /* \"#utility.yul\":1181:2480   */\ntag_2:\n    /* \"#utility.yul\":1370:1376   */\n  0x00\n    /* \"#utility.yul\":1378:1384   */\n  dup1\n    /* \"#utility.yul\":1386:1392   */\n  0x00\n    /* \"#utility.yul\":1394:1400   */\n  dup1\n    /* \"#utility.yul\":1402:1408   */\n  0x00\n    /* \"#utility.yul\":1410:1416   */\n  dup1\n    /* \"#utility.yul\":1418:1424   */\n  0x00\n    /* \"#utility.yul\":1426:1432   */\n  dup1\n    /* \"#utility.yul\":1479:1482   */\n  0x0100\n    /* \"#utility.yul\":1467:1476   */\n  dup10\n    /* \"#utility.yul\":1458:1465   */\n  dup12\n    /* \"#utility.yul\":1454:1477   */\n  sub\n    /* \"#utility.yul\":1450:1483   */\n  slt\n    /* \"#utility.yul\":1447:1500   */\n  iszero\n  tag_40\n  jumpi\n    /* \"#utility.yul\":1496:1497   */\n  0x00\n    /* \"#utility.yul\":1493:1494   */\n  dup1\n    /* \"#utility.yul\":1486:1498   */\n  revert\n    /* \"#utility.yul\":1447:1500   */\ntag_40:\n    /* \"#utility.yul\":1519:1535   */\n  dup9\n  mload\n    /* \"#utility.yul\":1579:1581   */\n  0x20\n    /* \"#utility.yul\":1564:1582   */\n  dup11\n  add\n    /* \"#utility.yul\":1558:1583   */\n  mload\n    /* \"#utility.yul\":1519:1535   */\n  swap1\n  swap9\n  pop\n  sub(shl(0x40, 0x01), 0x01)\n    /* \"#utility.yul\":1632:1646   */\n  dup1\n  dup3\n  gt\n    /* \"#utility.yul\":1629:1663   */\n  iszero\n  tag_41\n  jumpi\n    /* \"#utility.yul\":1659:1660   */\n  0x00\n    /* \"#utility.yul\":1656:1657   */\n  dup1\n    /* \"#utility.yul\":1649:1661   */\n  revert\n    /* \"#utility.yul\":1629:1663   */\ntag_41:\n    /* \"#utility.yul\":1682:1743   */\n  tag_42\n    /* \"#utility.yul\":1735:1742   */\n  dup13\n    /* \"#utility.yul\":1726:1732   */\n  dup4\n    /* \"#utility.yul\":1715:1724   */\n  dup14\n    /* \"#utility.yul\":1711:1733   */\n  add\n    /* \"#utility.yul\":1682:1743   */\n  tag_19\n  jump\t// in\ntag_42:\n    /* \"#utility.yul\":1672:1743   */\n  swap9\n  pop\n    /* \"#utility.yul\":1789:1791   */\n  0x40\n    /* \"#utility.yul\":1778:1787   */\n  dup12\n    /* \"#utility.yul\":1774:1792   */\n  add\n    /* \"#utility.yul\":1768:1793   */\n  mload\n    /* \"#utility.yul\":1752:1793   */\n  swap2\n  pop\n    /* \"#utility.yul\":1818:1820   */\n  dup1\n    /* \"#utility.yul\":1808:1816   */\n  dup3\n    /* \"#utility.yul\":1805:1821   */\n  gt\n    /* \"#utility.yul\":1802:1838   */\n  iszero\n  tag_43\n  jumpi\n    /* \"#utility.yul\":1834:1835   */\n  0x00\n    /* \"#utility.yul\":1831:1832   */\n  dup1\n    /* \"#utility.yul\":1824:1836   */\n  revert\n    /* \"#utility.yul\":1802:1838   */\ntag_43:\n    /* \"#utility.yul\":1857:1920   */\n  tag_44\n    /* \"#utility.yul\":1912:1919   */\n  dup13\n    /* \"#utility.yul\":1901:1909   */\n  dup4\n    /* \"#utility.yul\":1890:1899   */\n  dup14\n    /* \"#utility.yul\":1886:1910   */\n  add\n    /* \"#utility.yul\":1857:1920   */\n  tag_19\n  jump\t// in\ntag_44:\n    /* \"#utility.yul\":1847:1920   */\n  swap8\n  pop\n    /* \"#utility.yul\":1960:1962   */\n  0x60\n    /* \"#utility.yul\":1949:1958   */\n  dup12\n    /* \"#utility.yul\":1945:1963   */\n  add\n    /* \"#utility.yul\":1939:1964   */\n  mload\n    /* \"#utility.yul\":1929:1964   */\n  swap7\n  pop\n    /* \"#utility.yul\":2010:2013   */\n  0x80\n    /* \"#utility.yul\":1999:2008   */\n  dup12\n    /* \"#utility.yul\":1995:2014   */\n  add\n    /* \"#utility.yul\":1989:2015   */\n  mload\n    /* \"#utility.yul\":1973:2015   */\n  swap2\n  pop\n    /* \"#utility.yul\":2040:2042   */\n  dup1\n    /* \"#utility.yul\":2030:2038   */\n  dup3\n    /* \"#utility.yul\":2027:2043   */\n  gt\n    /* \"#utility.yul\":2024:2060   */\n  iszero\n  tag_45\n  jumpi\n    /* \"#utility.yul\":2056:2057   */\n  0x00\n    /* \"#utility.yul\":2053:2054   */\n  dup1\n    /* \"#utility.yul\":2046:2058   */\n  revert\n    /* \"#utility.yul\":2024:2060   */\ntag_45:\n    /* \"#utility.yul\":2079:2142   */\n  tag_46\n    /* \"#utility.yul\":2134:2141   */\n  dup13\n    /* \"#utility.yul\":2123:2131   */\n  dup4\n    /* \"#utility.yul\":2112:2121   */\n  dup14\n    /* \"#utility.yul\":2108:2132   */\n  add\n    /* \"#utility.yul\":2079:2142   */\n  tag_19\n  jump\t// in\ntag_46:\n    /* \"#utility.yul\":2069:2142   */\n  swap6\n  pop\n    /* \"#utility.yul\":2188:2191   */\n  0xa0\n    /* \"#utility.yul\":2177:2186   */\n  dup12\n    /* \"#utility.yul\":2173:2192   */\n  add\n    /* \"#utility.yul\":2167:2193   */\n  mload\n    /* \"#utility.yul\":2151:2193   */\n  swap2\n  pop\n    /* \"#utility.yul\":2218:2220   */\n  dup1\n    /* \"#utility.yul\":2208:2216   */\n  dup3\n    /* \"#utility.yul\":2205:2221   */\n  gt\n    /* \"#utility.yul\":2202:2238   */\n  iszero\n  tag_47\n  jumpi\n    /* \"#utility.yul\":2234:2235   */\n  0x00\n    /* \"#utility.yul\":2231:2232   */\n  dup1\n    /* \"#utility.yul\":2224:2236   */\n  revert\n    /* \"#utility.yul\":2202:2238   */\ntag_47:\n  pop\n    /* \"#utility.yul\":2257:2320   */\n  tag_48\n    /* \"#utility.yul\":2312:2319   */\n  dup12\n    /* \"#utility.yul\":2301:2309   */\n  dup3\n    /* \"#utility.yul\":2290:2299   */\n  dup13\n    /* \"#utility.yul\":2286:2310   */\n  add\n    /* \"#utility.yul\":2257:2320   */\n  tag_19\n  jump\t// in\ntag_48:\n    /* \"#utility.yul\":2247:2320   */\n  swap4\n  pop\n  pop\n    /* \"#utility.yul\":2339:2397   */\n  tag_49\n    /* \"#utility.yul\":2392:2395   */\n  0xc0\n    /* \"#utility.yul\":2381:2390   */\n  dup11\n    /* \"#utility.yul\":2377:2396   */\n  add\n    /* \"#utility.yul\":2339:2397   */\n  tag_20\n  jump\t// in\ntag_49:\n    /* \"#utility.yul\":2329:2397   */\n  swap2\n  pop\n    /* \"#utility.yul\":2416:2474   */\n  tag_50\n    /* \"#utility.yul\":2469:2472   */\n  0xe0\n    /* \"#utility.yul\":2458:2467   */\n  dup11\n    /* \"#utility.yul\":2454:2473   */\n  add\n    /* \"#utility.yul\":2416:2474   */\n  tag_20\n  jump\t// in\ntag_50:\n    /* \"#utility.yul\":2406:2474   */\n  swap1\n  pop\n    /* \"#utility.yul\":1181:2480   */\n  swap3\n  swap6\n  swap9\n  pop\n  swap3\n  swap6\n  swap9\n  swap1\n  swap4\n  swap7\n  pop\n  jump\t// out\n    /* \"#utility.yul\":2485:2750   */\ntag_6:\n    /* \"#utility.yul\":2525:2532   */\n  0x00\n    /* \"#utility.yul\":2591:2592   */\n  dup2\n    /* \"#utility.yul\":2587:2588   */\n  0x00\n    /* \"#utility.yul\":2583:2589   */\n  not\n    /* \"#utility.yul\":2579:2593   */\n  div\n    /* \"#utility.yul\":2576:2577   */\n  dup4\n    /* \"#utility.yul\":2573:2594   */\n  gt\n    /* \"#utility.yul\":2568:2569   */\n  dup3\n    /* \"#utility.yul\":2561:2570   */\n  iszero\n    /* \"#utility.yul\":2554:2571   */\n  iszero\n    /* \"#utility.yul\":2550:2595   */\n  and\n    /* \"#utility.yul\":2547:2715   */\n  iszero\n  tag_52\n  jumpi\n    /* \"#utility.yul\":2637:2647   */\n  0x4e487b71\n    /* \"#utility.yul\":2632:2635   */\n  0xe0\n    /* \"#utility.yul\":2628:2648   */\n  shl\n    /* \"#utility.yul\":2625:2626   */\n  0x00\n    /* \"#utility.yul\":2618:2649   */\n  mstore\n    /* \"#utility.yul\":2672:2676   */\n  0x11\n    /* \"#utility.yul\":2669:2670   */\n  0x04\n    /* \"#utility.yul\":2662:2677   */\n  mstore\n    /* \"#utility.yul\":2700:2704   */\n  0x24\n    /* \"#utility.yul\":2697:2698   */\n  0x00\n    /* \"#utility.yul\":2690:2705   */\n  revert\n    /* \"#utility.yul\":2547:2715   */\ntag_52:\n  pop\n    /* \"#utility.yul\":2735:2744   */\n  mul\n  swap1\n    /* \"#utility.yul\":2485:2750   */\n  jump\t// out\n    /* \"#utility.yul\":2755:2972   */\ntag_8:\n    /* \"#utility.yul\":2795:2796   */\n  0x00\n    /* \"#utility.yul\":2821:2822   */\n  dup3\n    /* \"#utility.yul\":2811:2943   */\n  tag_54\n  jumpi\n    /* \"#utility.yul\":2865:2875   */\n  0x4e487b71\n    /* \"#utility.yul\":2860:2863   */\n  0xe0\n    /* \"#utility.yul\":2856:2876   */\n  shl\n    /* \"#utility.yul\":2853:2854   */\n  0x00\n    /* \"#utility.yul\":2846:2877   */\n  mstore\n    /* \"#utility.yul\":2900:2904   */\n  0x12\n    /* \"#utility.yul\":2897:2898   */\n  0x04\n    /* \"#utility.yul\":2890:2905   */\n  mstore\n    /* \"#utility.yul\":2928:2932   */\n  0x24\n    /* \"#utility.yul\":2925:2926   */\n  0x00\n    /* \"#utility.yul\":2918:2933   */\n  revert\n    /* \"#utility.yul\":2811:2943   */\ntag_54:\n  pop\n    /* \"#utility.yul\":2957:2966   */\n  div\n  swap1\n    /* \"#utility.yul\":2755:2972   */\n  jump\t// out\n    /* \"#utility.yul\":2977:3357   */\ntag_21:\n    /* \"#utility.yul\":3056:3057   */\n  0x01\n    /* \"#utility.yul\":3052:3064   */\n  dup2\n  dup2\n  shr\n  swap1\n    /* \"#utility.yul\":3099:3111   */\n  dup3\n  and\n  dup1\n    /* \"#utility.yul\":3120:3181   */\n  tag_56\n  jumpi\n    /* \"#utility.yul\":3174:3178   */\n  0x7f\n    /* \"#utility.yul\":3166:3172   */\n  dup3\n    /* \"#utility.yul\":3162:3179   */\n  and\n    /* \"#utility.yul\":3152:3179   */\n  swap2\n  pop\n    /* \"#utility.yul\":3120:3181   */\ntag_56:\n    /* \"#utility.yul\":3227:3229   */\n  0x20\n    /* \"#utility.yul\":3219:3225   */\n  dup3\n    /* \"#utility.yul\":3216:3230   */\n  lt\n    /* \"#utility.yul\":3196:3214   */\n  dup2\n    /* \"#utility.yul\":3193:3231   */\n  sub\n    /* \"#utility.yul\":3190:3351   */\n  tag_57\n  jumpi\n    /* \"#utility.yul\":3273:3283   */\n  0x4e487b71\n    /* \"#utility.yul\":3268:3271   */\n  0xe0\n    /* \"#utility.yul\":3264:3284   */\n  shl\n    /* \"#utility.yul\":3261:3262   */\n  0x00\n    /* \"#utility.yul\":3254:3285   */\n  mstore\n    /* \"#utility.yul\":3308:3312   */\n  0x22\n    /* \"#utility.yul\":3305:3306   */\n  0x04\n    /* \"#utility.yul\":3298:3313   */\n  mstore\n    /* \"#utility.yul\":3336:3340   */\n  0x24\n    /* \"#utility.yul\":3333:3334   */\n  0x00\n    /* \"#utility.yul\":3326:3341   */\n  revert\n    /* \"#utility.yul\":3190:3351   */\ntag_57:\n  pop\n    /* \"#utility.yul\":2977:3357   */\n  swap2\n  swap1\n  pop\n  jump\t// out\n    /* \"#utility.yul\":3488:4033   */\ntag_23:\n    /* \"#utility.yul\":3590:3592   */\n  0x1f\n    /* \"#utility.yul\":3585:3588   */\n  dup3\n    /* \"#utility.yul\":3582:3593   */\n  gt\n    /* \"#utility.yul\":3579:4027   */\n  iszero\n  tag_60\n  jumpi\n    /* \"#utility.yul\":3626:3627   */\n  0x00\n    /* \"#utility.yul\":3651:3656   */\n  dup2\n    /* \"#utility.yul\":3647:3649   */\n  dup2\n    /* \"#utility.yul\":3640:3657   */\n  mstore\n    /* \"#utility.yul\":3696:3700   */\n  0x20\n    /* \"#utility.yul\":3692:3694   */\n  dup2\n    /* \"#utility.yul\":3682:3701   */\n  keccak256\n    /* \"#utility.yul\":3766:3768   */\n  0x1f\n    /* \"#utility.yul\":3754:3764   */\n  dup6\n    /* \"#utility.yul\":3750:3769   */\n  add\n    /* \"#utility.yul\":3747:3748   */\n  0x05\n    /* \"#utility.yul\":3743:3770   */\n  shr\n    /* \"#utility.yul\":3737:3741   */\n  dup2\n    /* \"#utility.yul\":3733:3771   */\n  add\n    /* \"#utility.yul\":3802:3806   */\n  0x20\n    /* \"#utility.yul\":3790:3800   */\n  dup7\n    /* \"#utility.yul\":3787:3807   */\n  lt\n    /* \"#utility.yul\":3784:3831   */\n  iszero\n  tag_61\n  jumpi\n  pop\n    /* \"#utility.yul\":3825:3829   */\n  dup1\n    /* \"#utility.yul\":3784:3831   */\ntag_61:\n    /* \"#utility.yul\":3880:3882   */\n  0x1f\n    /* \"#utility.yul\":3875:3878   */\n  dup6\n    /* \"#utility.yul\":3871:3883   */\n  add\n    /* \"#utility.yul\":3868:3869   */\n  0x05\n    /* \"#utility.yul\":3864:3884   */\n  shr\n    /* \"#utility.yul\":3858:3862   */\n  dup3\n    /* \"#utility.yul\":3854:3885   */\n  add\n    /* \"#utility.yul\":3844:3885   */\n  swap2\n  pop\n    /* \"#utility.yul\":3935:4017   */\ntag_62:\n    /* \"#utility.yul\":3953:3955   */\n  dup2\n    /* \"#utility.yul\":3946:3951   */\n  dup2\n    /* \"#utility.yul\":3943:3956   */\n  lt\n    /* \"#utility.yul\":3935:4017   */\n  iszero\n  tag_64\n  jumpi\n    /* \"#utility.yul\":3998:4015   */\n  dup3\n  dup2\n  sstore\n    /* \"#utility.yul\":3979:3980   */\n  0x01\n    /* \"#utility.yul\":3968:3981   */\n  add\n    /* \"#utility.yul\":3935:4017   */\n  jump(tag_62)\ntag_64:\n    /* \"#utility.yul\":3939:3942   */\n  pop\n  pop\n  pop\n    /* \"#utility.yul\":3579:4027   */\ntag_60:\n    /* \"#utility.yul\":3488:4033   */\n  pop\n  pop\n  pop\n  jump\t// out\n    /* \"#utility.yul\":4209:5561   */\ntag_12:\n    /* \"#utility.yul\":4329:4339   */\n  dup2\n  mload\n  sub(shl(0x40, 0x01), 0x01)\n    /* \"#utility.yul\":4351:4381   */\n  dup2\n  gt\n    /* \"#utility.yul\":4348:4404   */\n  iszero\n  tag_68\n  jumpi\n    /* \"#utility.yul\":4384:4402   */\n  tag_68\n  tag_18\n  jump\t// in\ntag_68:\n    /* \"#utility.yul\":4413:4510   */\n  tag_69\n    /* \"#utility.yul\":4503:4509   */\n  dup2\n    /* \"#utility.yul\":4463:4501   */\n  tag_70\n    /* \"#utility.yul\":4495:4499   */\n  dup5\n    /* \"#utility.yul\":4489:4500   */\n  sload\n    /* \"#utility.yul\":4463:4501   */\n  tag_21\n  jump\t// in\ntag_70:\n    /* \"#utility.yul\":4457:4461   */\n  dup5\n    /* \"#utility.yul\":4413:4510   */\n  tag_23\n  jump\t// in\ntag_69:\n    /* \"#utility.yul\":4565:4569   */\n  0x20\n  dup1\n    /* \"#utility.yul\":4629:4631   */\n  0x1f\n    /* \"#utility.yul\":4618:4632   */\n  dup4\n  gt\n    /* \"#utility.yul\":4646:4647   */\n  0x01\n    /* \"#utility.yul\":4641:5304   */\n  dup2\n  eq\n  tag_72\n  jumpi\n    /* \"#utility.yul\":5348:5349   */\n  0x00\n    /* \"#utility.yul\":5365:5371   */\n  dup5\n    /* \"#utility.yul\":5362:5451   */\n  iszero\n  tag_73\n  jumpi\n  pop\n    /* \"#utility.yul\":5417:5436   */\n  dup6\n  dup4\n  add\n    /* \"#utility.yul\":5411:5437   */\n  mload\n    /* \"#utility.yul\":5362:5451   */\ntag_73:\n  not(0x00)\n    /* \"#utility.yul\":4166:4167   */\n  0x03\n    /* \"#utility.yul\":4162:4173   */\n  dup7\n  swap1\n  shl\n    /* \"#utility.yul\":4158:4182   */\n  shr\n    /* \"#utility.yul\":4154:4183   */\n  not\n    /* \"#utility.yul\":4144:4184   */\n  and\n    /* \"#utility.yul\":4190:4191   */\n  0x01\n    /* \"#utility.yul\":4186:4197   */\n  dup6\n  swap1\n  shl\n    /* \"#utility.yul\":4141:4198   */\n  or\n    /* \"#utility.yul\":5464:5545   */\n  dup6\n  sstore\n    /* \"#utility.yul\":4611:5555   */\n  jump(tag_64)\n    /* \"#utility.yul\":4641:5304   */\ntag_72:\n    /* \"#utility.yul\":3435:3436   */\n  0x00\n    /* \"#utility.yul\":3428:3442   */\n  dup6\n  dup2\n  mstore\n    /* \"#utility.yul\":3472:3476   */\n  0x20\n    /* \"#utility.yul\":3459:3477   */\n  dup2\n  keccak256\n  not(0x1f)\n    /* \"#utility.yul\":4677:4697   */\n  dup7\n  and\n  swap2\n    /* \"#utility.yul\":4795:5031   */\ntag_76:\n    /* \"#utility.yul\":4809:4816   */\n  dup3\n    /* \"#utility.yul\":4806:4807   */\n  dup2\n    /* \"#utility.yul\":4803:4817   */\n  lt\n    /* \"#utility.yul\":4795:5031   */\n  iszero\n  tag_78\n  jumpi\n    /* \"#utility.yul\":4898:4917   */\n  dup9\n  dup7\n  add\n    /* \"#utility.yul\":4892:4918   */\n  mload\n    /* \"#utility.yul\":4877:4919   */\n  dup3\n  sstore\n    /* \"#utility.yul\":4990:5017   */\n  swap5\n  dup5\n  add\n  swap5\n    /* \"#utility.yul\":4958:4959   */\n  0x01\n    /* \"#utility.yul\":4946:4960   */\n  swap1\n  swap2\n  add\n  swap1\n    /* \"#utility.yul\":4825:4844   */\n  dup5\n  add\n    /* \"#utility.yul\":4795:5031   */\n  jump(tag_76)\ntag_78:\n    /* \"#utility.yul\":4799:4802   */\n  pop\n    /* \"#utility.yul\":5059:5065   */\n  dup6\n    /* \"#utility.yul\":5050:5057   */\n  dup3\n    /* \"#utility.yul\":5047:5066   */\n  lt\n    /* \"#utility.yul\":5044:5245   */\n  iszero\n  tag_79\n  jumpi\n    /* \"#utility.yul\":5120:5139   */\n  dup8\n  dup6\n  add\n    /* \"#utility.yul\":5114:5140   */\n  mload\n  not(0x00)\n    /* \"#utility.yul\":5203:5204   */\n  0x03\n    /* \"#utility.yul\":5199:5213   */\n  dup9\n  swap1\n  shl\n    /* \"#utility.yul\":5215:5218   */\n  0xf8\n    /* \"#utility.yul\":5195:5219   */\n  and\n    /* \"#utility.yul\":5191:5228   */\n  shr\n    /* \"#utility.yul\":5187:5229   */\n  not\n    /* \"#utility.yul\":5172:5230   */\n  and\n    /* \"#utility.yul\":5157:5231   */\n  dup2\n  sstore\n    /* \"#utility.yul\":5044:5245   */\ntag_79:\n  pop\n  pop\n  pop\n  pop\n  pop\n    /* \"#utility.yul\":5291:5292   */\n  0x01\n    /* \"#utility.yul\":5275:5289   */\n  swap1\n  dup2\n  shl\n    /* \"#utility.yul\":5271:5293   */\n  add\n    /* \"#utility.yul\":5258:5294   */\n  swap1\n  sstore\n  pop\n    /* \"#utility.yul\":4209:5561   */\n  jump\t// out\ntag_25:\n    /* \"Contract.sol\":871:4171  contract MediaContract {... */\n  dataSize(sub_0)\n  dup1\n  dataOffset(sub_0)\n  0x00\n  codecopy\n  0x00\n  return\nstop\n\nsub_0: assembly {\n        /* \"Contract.sol\":871:4171  contract MediaContract {... */\n      mstore(0x40, 0x80)\n      jumpi(tag_1, lt(calldatasize, 0x04))\n      shr(0xe0, calldataload(0x00))\n      dup1\n      0x6a2e23f5\n      gt\n      tag_27\n      jumpi\n      dup1\n      0xaf3b19e5\n      gt\n      tag_28\n      jumpi\n      dup1\n      0xd5252dcf\n      gt\n      tag_29\n      jumpi\n      dup1\n      0xd5252dcf\n      eq\n      tag_23\n      jumpi\n      dup1\n      0xe050ced2\n      eq\n      tag_24\n      jumpi\n      dup1\n      0xf0de67ac\n      eq\n      tag_25\n      jumpi\n      dup1\n      0xf32370e7\n      eq\n      tag_26\n      jumpi\n      0x00\n      dup1\n      revert\n    tag_29:\n      dup1\n      0xaf3b19e5\n      eq\n      tag_20\n      jumpi\n      dup1\n      0xb1cb0db3\n      eq\n      tag_21\n      jumpi\n      dup1\n      0xcc5be574\n      eq\n      tag_22\n      jumpi\n      0x00\n      dup1\n      revert\n    tag_28:\n      dup1\n      0x6a2e23f5\n      eq\n      tag_14\n      jumpi\n      dup1\n      0x6a76ae98\n      eq\n      tag_15\n      jumpi\n      dup1\n      0x97e9a0bf\n      eq\n      tag_16\n      jumpi\n      dup1\n      0x9b221c7d\n      eq\n      tag_17\n      jumpi\n      dup1\n      0x9d9e27d9\n      eq\n      tag_18\n      jumpi\n      dup1\n      0xadd08a8e\n      eq\n      tag_19\n      jumpi\n      0x00\n      dup1\n      revert\n    tag_27:\n      dup1\n      0x2d237d21\n      gt\n      tag_30\n      jumpi\n      dup1\n      0x2d237d21\n      eq\n      tag_8\n      jumpi\n      dup1\n      0x325a19f1\n      eq\n      tag_9\n      jumpi\n      dup1\n      0x3283f641\n      eq\n      tag_10\n      jumpi\n      dup1\n      0x4bde38c8\n      eq\n      tag_11\n      jumpi\n      dup1\n      0x516f279e\n      eq\n      tag_12\n      jumpi\n      dup1\n      0x610be654\n      eq\n      tag_13\n      jumpi\n      0x00\n      dup1\n      revert\n    tag_30:\n      dup1\n      0x010ec441\n      eq\n      tag_2\n      jumpi\n      dup1\n      0x1b9265b8\n      eq\n      tag_3\n      jumpi\n      dup1\n      0x200d2ed2\n      eq\n      tag_4\n      jumpi\n      dup1\n      0x26232a2e\n      eq\n      tag_5\n      jumpi\n      dup1\n      0x2804b2c0\n      eq\n      tag_6\n      jumpi\n      dup1\n      0x295f1b4d\n      eq\n      tag_7\n      jumpi\n    tag_1:\n      0x00\n      dup1\n      revert\n        /* \"Contract.sol\":969:1000  address payable public reporter */\n    tag_2:\n      callvalue\n      dup1\n      iszero\n      tag_31\n      jumpi\n      0x00\n      dup1\n      revert\n    tag_31:\n      pop\n      sload(0x02)\n      tag_32\n      swap1\n      sub(shl(0xa0, 0x01), 0x01)\n      and\n      dup2\n      jump\n    tag_32:\n      mload(0x40)\n      sub(shl(0xa0, 0x01), 0x01)\n        /* \"#utility.yul\":194:226   */\n      swap1\n      swap2\n      and\n        /* \"#utility.yul\":176:227   */\n      dup2\n      mstore\n        /* \"#utility.yul\":164:166   */\n      0x20\n        /* \"#utility.yul\":149:167   */\n      add\n        /* \"Contract.sol\":969:1000  address payable public reporter */\n    tag_34:\n      mload(0x40)\n      dup1\n      swap2\n      sub\n      swap1\n      return\n        /* \"Contract.sol\":1176:1193  string public pay */\n    tag_3:\n      callvalue\n      dup1\n      iszero\n      tag_36\n      jumpi\n      0x00\n      dup1\n      revert\n    tag_36:\n      pop\n      tag_37\n      tag_38\n      jump\t// in\n    tag_37:\n      mload(0x40)\n      tag_34\n      swap2\n      swap1\n      tag_40\n      jump\t// in\n        /* \"Contract.sol\":1152:1172  string public status */\n    tag_4:\n      callvalue\n      dup1\n      iszero\n      tag_41\n      jumpi\n      0x00\n      dup1\n      revert\n    tag_41:\n      pop\n      tag_37\n      tag_43\n      jump\t// in\n        /* \"Contract.sol\":1033:1056  uint public platformFee */\n    tag_5:\n      callvalue\n      dup1\n      iszero\n      tag_45\n      jumpi\n      0x00\n      dup1\n      revert\n    tag_45:\n      pop\n      tag_46\n      sload(0x04)\n      dup2\n      jump\n    tag_46:\n      mload(0x40)\n        /* \"#utility.yul\":1037:1062   */\n      swap1\n      dup2\n      mstore\n        /* \"#utility.yul\":1025:1027   */\n      0x20\n        /* \"#utility.yul\":1010:1028   */\n      add\n        /* \"Contract.sol\":1033:1056  uint public platformFee */\n      tag_34\n        /* \"#utility.yul\":891:1068   */\n      jump\n        /* \"Contract.sol\":898:929  address payable public customer */\n    tag_6:\n      callvalue\n      dup1\n      iszero\n      tag_50\n      jumpi\n      0x00\n      dup1\n      revert\n    tag_50:\n      pop\n      sload(0x00)\n      tag_32\n      swap1\n      sub(shl(0xa0, 0x01), 0x01)\n      and\n      dup2\n      jump\n        /* \"Contract.sol\":2637:2808  function disputeProposal() public {... */\n    tag_7:\n      callvalue\n      dup1\n      iszero\n      tag_54\n      jumpi\n      0x00\n      dup1\n      revert\n    tag_54:\n      pop\n      tag_55\n      tag_56\n      jump\t// in\n    tag_55:\n      stop\n        /* \"Contract.sol\":1349:1379  string[] public mediaAddresses */\n    tag_8:\n      callvalue\n      dup1\n      iszero\n      tag_57\n      jumpi\n      0x00\n      dup1\n      revert\n    tag_57:\n      pop\n      tag_37\n      tag_59\n      calldatasize\n      0x04\n      tag_60\n      jump\t// in\n    tag_59:\n      tag_61\n      jump\t// in\n        /* \"Contract.sol\":1106:1125  uint public created */\n    tag_9:\n      callvalue\n      dup1\n      iszero\n      tag_63\n      jumpi\n      0x00\n      dup1\n      revert\n    tag_63:\n      pop\n      tag_46\n      sload(0x07)\n      dup2\n      jump\n        /* \"Contract.sol\":1060:1078  string public task */\n    tag_10:\n      callvalue\n      dup1\n      iszero\n      tag_67\n      jumpi\n      0x00\n      dup1\n      revert\n    tag_67:\n      pop\n      tag_37\n      tag_69\n      jump\t// in\n        /* \"Contract.sol\":934:965  address payable public platform */\n    tag_11:\n      callvalue\n      dup1\n      iszero\n      tag_71\n      jumpi\n      0x00\n      dup1\n      revert\n    tag_71:\n      pop\n      sload(0x01)\n      tag_32\n      swap1\n      sub(shl(0xa0, 0x01), 0x01)\n      and\n      dup2\n      jump\n        /* \"Contract.sol\":1323:1345  string public location */\n    tag_12:\n      callvalue\n      dup1\n      iszero\n      tag_75\n      jumpi\n      0x00\n      dup1\n      revert\n    tag_75:\n      pop\n      tag_37\n      tag_77\n      jump\t// in\n        /* \"Contract.sol\":3357:3557  function closeContract() public {... */\n    tag_13:\n      callvalue\n      dup1\n      iszero\n      tag_79\n      jumpi\n      0x00\n      dup1\n      revert\n    tag_79:\n      pop\n      tag_55\n      tag_81\n      jump\t// in\n        /* \"Contract.sol\":2812:3004  function acceptDispute() public {... */\n    tag_14:\n      callvalue\n      dup1\n      iszero\n      tag_82\n      jumpi\n      0x00\n      dup1\n      revert\n    tag_82:\n      pop\n      tag_55\n      tag_84\n      jump\t// in\n        /* \"Contract.sol\":3810:3909  function getMediaAddresses() public view returns (string[] memory) {... */\n    tag_15:\n      callvalue\n      dup1\n      iszero\n      tag_85\n      jumpi\n      0x00\n      dup1\n      revert\n    tag_85:\n      pop\n      tag_86\n      tag_87\n      jump\t// in\n    tag_86:\n      mload(0x40)\n      tag_34\n      swap2\n      swap1\n      tag_89\n      jump\t// in\n        /* \"Contract.sol\":1004:1029  uint public contractPrice */\n    tag_16:\n      callvalue\n      dup1\n      iszero\n      tag_90\n      jumpi\n      0x00\n      dup1\n      revert\n    tag_90:\n      pop\n      tag_46\n      sload(0x03)\n      dup2\n      jump\n        /* \"Contract.sol\":1222:1247  uint public minimalLength */\n    tag_17:\n      callvalue\n      dup1\n      iszero\n      tag_94\n      jumpi\n      0x00\n      dup1\n      revert\n    tag_94:\n      pop\n      tag_46\n      sload(0x0c)\n      dup2\n      jump\n        /* \"Contract.sol\":1288:1319  string public minimalResolution */\n    tag_18:\n      callvalue\n      dup1\n      iszero\n      tag_98\n      jumpi\n      0x00\n      dup1\n      revert\n    tag_98:\n      pop\n      tag_37\n      tag_100\n      jump\t// in\n        /* \"Contract.sol\":2020:2273  function proposeMedia (string[] memory addresses) public {... */\n    tag_19:\n      callvalue\n      dup1\n      iszero\n      tag_102\n      jumpi\n      0x00\n      dup1\n      revert\n    tag_102:\n      pop\n      tag_55\n      tag_104\n      calldatasize\n      0x04\n      tag_105\n      jump\t// in\n    tag_104:\n      tag_106\n      jump\t// in\n        /* \"Contract.sol\":2277:2633  function acceptProposal() public payable {... */\n    tag_20:\n      tag_55\n      tag_108\n      jump\t// in\n        /* \"Contract.sol\":1129:1148  uint public expires */\n    tag_21:\n      callvalue\n      dup1\n      iszero\n      tag_109\n      jumpi\n      0x00\n      dup1\n      revert\n    tag_109:\n      pop\n      tag_46\n      sload(0x08)\n      dup2\n      jump\n        /* \"Contract.sol\":1251:1284  string public specialInstructions */\n    tag_22:\n      callvalue\n      dup1\n      iszero\n      tag_113\n      jumpi\n      0x00\n      dup1\n      revert\n    tag_113:\n      pop\n      tag_37\n      tag_115\n      jump\t// in\n        /* \"Contract.sol\":3561:3806  function renewContract(uint newExpiration) public {... */\n    tag_23:\n      callvalue\n      dup1\n      iszero\n      tag_117\n      jumpi\n      0x00\n      dup1\n      revert\n    tag_117:\n      pop\n      tag_55\n      tag_119\n      calldatasize\n      0x04\n      tag_60\n      jump\t// in\n    tag_119:\n      tag_120\n      jump\t// in\n        /* \"Contract.sol\":1197:1218  string public tasking */\n    tag_24:\n      callvalue\n      dup1\n      iszero\n      tag_121\n      jumpi\n      0x00\n      dup1\n      revert\n    tag_121:\n      pop\n      tag_37\n      tag_123\n      jump\t// in\n        /* \"Contract.sol\":1082:1102  string public format */\n    tag_25:\n      callvalue\n      dup1\n      iszero\n      tag_125\n      jumpi\n      0x00\n      dup1\n      revert\n    tag_125:\n      pop\n      tag_37\n      tag_127\n      jump\t// in\n        /* \"Contract.sol\":3008:3353  function rejectDispute() public payable{... */\n    tag_26:\n      tag_55\n      tag_130\n      jump\t// in\n        /* \"Contract.sol\":1176:1193  string public pay */\n    tag_38:\n      0x0a\n      dup1\n      sload\n      tag_131\n      swap1\n      tag_132\n      jump\t// in\n    tag_131:\n      dup1\n      0x1f\n      add\n      0x20\n      dup1\n      swap2\n      div\n      mul\n      0x20\n      add\n      mload(0x40)\n      swap1\n      dup2\n      add\n      0x40\n      mstore\n      dup1\n      swap3\n      swap2\n      swap1\n      dup2\n      dup2\n      mstore\n      0x20\n      add\n      dup3\n      dup1\n      sload\n      tag_133\n      swap1\n      tag_132\n      jump\t// in\n    tag_133:\n      dup1\n      iszero\n      tag_134\n      jumpi\n      dup1\n      0x1f\n      lt\n      tag_135\n      jumpi\n      0x0100\n      dup1\n      dup4\n      sload\n      div\n      mul\n      dup4\n      mstore\n      swap2\n      0x20\n      add\n      swap2\n      jump(tag_134)\n    tag_135:\n      dup3\n      add\n      swap2\n      swap1\n      0x00\n      mstore\n      keccak256(0x00, 0x20)\n      swap1\n    tag_136:\n      dup2\n      sload\n      dup2\n      mstore\n      swap1\n      0x01\n      add\n      swap1\n      0x20\n      add\n      dup1\n      dup4\n      gt\n      tag_136\n      jumpi\n      dup3\n      swap1\n      sub\n      0x1f\n      and\n      dup3\n      add\n      swap2\n    tag_134:\n      pop\n      pop\n      pop\n      pop\n      pop\n      dup2\n      jump\t// out\n        /* \"Contract.sol\":1152:1172  string public status */\n    tag_43:\n      0x09\n      dup1\n      sload\n      tag_131\n      swap1\n      tag_132\n      jump\t// in\n        /* \"Contract.sol\":2637:2808  function disputeProposal() public {... */\n    tag_56:\n        /* \"Contract.sol\":2685:2731  hashCompareWithLengthCheck(status, 'proposed') */\n      tag_143\n        /* \"Contract.sol\":2712:2718  status */\n      0x09\n        /* \"Contract.sol\":2685:2731  hashCompareWithLengthCheck(status, 'proposed') */\n      dup1\n      sload\n      tag_144\n      swap1\n      tag_132\n      jump\t// in\n    tag_144:\n      dup1\n      0x1f\n      add\n      0x20\n      dup1\n      swap2\n      div\n      mul\n      0x20\n      add\n      mload(0x40)\n      swap1\n      dup2\n      add\n      0x40\n      mstore\n      dup1\n      swap3\n      swap2\n      swap1\n      dup2\n      dup2\n      mstore\n      0x20\n      add\n      dup3\n      dup1\n      sload\n      tag_145\n      swap1\n      tag_132\n      jump\t// in\n    tag_145:\n      dup1\n      iszero\n      tag_146\n      jumpi\n      dup1\n      0x1f\n      lt\n      tag_147\n      jumpi\n      0x0100\n      dup1\n      dup4\n      sload\n      div\n      mul\n      dup4\n      mstore\n      swap2\n      0x20\n      add\n      swap2\n      jump(tag_146)\n    tag_147:\n      dup3\n      add\n      swap2\n      swap1\n      0x00\n      mstore\n      keccak256(0x00, 0x20)\n      swap1\n    tag_148:\n      dup2\n      sload\n      dup2\n      mstore\n      swap1\n      0x01\n      add\n      swap1\n      0x20\n      add\n      dup1\n      dup4\n      gt\n      tag_148\n      jumpi\n      dup3\n      swap1\n      sub\n      0x1f\n      and\n      dup3\n      add\n      swap2\n    tag_146:\n      pop\n      pop\n      pop\n      pop\n      pop\n      mload(0x40)\n      dup1\n      0x40\n      add\n      0x40\n      mstore\n      dup1\n      0x08\n      dup2\n      mstore\n      0x20\n      add\n      shl(0xc2, 0x1c1c9bdc1bdcd959)\n      dup2\n      mstore\n      pop\n        /* \"Contract.sol\":2685:2711  hashCompareWithLengthCheck */\n      tag_149\n        /* \"Contract.sol\":2685:2731  hashCompareWithLengthCheck(status, 'proposed') */\n      jump\t// in\n    tag_143:\n        /* \"Contract.sol\":2677:2732  require(hashCompareWithLengthCheck(status, 'proposed')) */\n      tag_150\n      jumpi\n      0x00\n      dup1\n      revert\n    tag_150:\n        /* \"Contract.sol\":2769:2777  customer */\n      and(sub(shl(0xa0, 0x01), 0x01), sload(0x00))\n        /* \"Contract.sol\":2754:2764  msg.sender */\n      caller\n        /* \"Contract.sol\":2746:2777  payable(msg.sender) == customer */\n      eq\n        /* \"Contract.sol\":2738:2778  require(payable(msg.sender) == customer) */\n      tag_151\n      jumpi\n      0x00\n      dup1\n      revert\n    tag_151:\n        /* \"Contract.sol\":2784:2803  status = 'disputed' */\n      0x40\n      dup1\n      mload\n      dup1\n      dup3\n      add\n      swap1\n      swap2\n      mstore\n      0x08\n      dup2\n      mstore\n      shl(0xc2, 0x191a5cdc1d5d1959)\n      0x20\n      dup3\n      add\n      mstore\n        /* \"Contract.sol\":2784:2790  status */\n      0x09\n      swap1\n        /* \"Contract.sol\":2784:2803  status = 'disputed' */\n      tag_152\n      swap1\n        /* \"Contract.sol\":2784:2790  status */\n      dup3\n        /* \"Contract.sol\":2784:2803  status = 'disputed' */\n      tag_153\n      jump\t// in\n    tag_152:\n      pop\n        /* \"Contract.sol\":2637:2808  function disputeProposal() public {... */\n      jump\t// out\n        /* \"Contract.sol\":1349:1379  string[] public mediaAddresses */\n    tag_61:\n      0x10\n      dup2\n      dup2\n      sload\n      dup2\n      lt\n      tag_154\n      jumpi\n      0x00\n      dup1\n      revert\n    tag_154:\n      swap1\n      0x00\n      mstore\n      keccak256(0x00, 0x20)\n      add\n      0x00\n      swap2\n      pop\n      swap1\n      pop\n      dup1\n      sload\n      tag_131\n      swap1\n      tag_132\n      jump\t// in\n        /* \"Contract.sol\":1060:1078  string public task */\n    tag_69:\n      0x05\n      dup1\n      sload\n      tag_131\n      swap1\n      tag_132\n      jump\t// in\n        /* \"Contract.sol\":1323:1345  string public location */\n    tag_77:\n      0x0f\n      dup1\n      sload\n      tag_131\n      swap1\n      tag_132\n      jump\t// in\n        /* \"Contract.sol\":3357:3557  function closeContract() public {... */\n    tag_81:\n        /* \"Contract.sol\":3417:3425  customer */\n      and(sub(shl(0xa0, 0x01), 0x01), sload(0x00))\n        /* \"Contract.sol\":3403:3413  msg.sender */\n      caller\n        /* \"Contract.sol\":3403:3425  msg.sender == customer */\n      eq\n        /* \"Contract.sol\":3395:3426  require(msg.sender == customer) */\n      tag_172\n      jumpi\n      0x00\n      dup1\n      revert\n    tag_172:\n        /* \"Contract.sol\":3440:3482  hashCompareWithLengthCheck(status, 'open') */\n      tag_173\n        /* \"Contract.sol\":3467:3473  status */\n      0x09\n        /* \"Contract.sol\":3440:3482  hashCompareWithLengthCheck(status, 'open') */\n      dup1\n      sload\n      tag_174\n      swap1\n      tag_132\n      jump\t// in\n    tag_174:\n      dup1\n      0x1f\n      add\n      0x20\n      dup1\n      swap2\n      div\n      mul\n      0x20\n      add\n      mload(0x40)\n      swap1\n      dup2\n      add\n      0x40\n      mstore\n      dup1\n      swap3\n      swap2\n      swap1\n      dup2\n      dup2\n      mstore\n      0x20\n      add\n      dup3\n      dup1\n      sload\n      tag_175\n      swap1\n      tag_132\n      jump\t// in\n    tag_175:\n      dup1\n      iszero\n      tag_176\n      jumpi\n      dup1\n      0x1f\n      lt\n      tag_177\n      jumpi\n      0x0100\n      dup1\n      dup4\n      sload\n      div\n      mul\n      dup4\n      mstore\n      swap2\n      0x20\n      add\n      swap2\n      jump(tag_176)\n    tag_177:\n      dup3\n      add\n      swap2\n      swap1\n      0x00\n      mstore\n      keccak256(0x00, 0x20)\n      swap1\n    tag_178:\n      dup2\n      sload\n      dup2\n      mstore\n      swap1\n      0x01\n      add\n      swap1\n      0x20\n      add\n      dup1\n      dup4\n      gt\n      tag_178\n      jumpi\n      dup3\n      swap1\n      sub\n      0x1f\n      and\n      dup3\n      add\n      swap2\n    tag_176:\n      pop\n      pop\n      pop\n      pop\n      pop\n      mload(0x40)\n      dup1\n      0x40\n      add\n      0x40\n      mstore\n      dup1\n      0x04\n      dup2\n      mstore\n      0x20\n      add\n      shl(0xe1, 0x37b832b7)\n      dup2\n      mstore\n      pop\n        /* \"Contract.sol\":3440:3466  hashCompareWithLengthCheck */\n      tag_149\n        /* \"Contract.sol\":3440:3482  hashCompareWithLengthCheck(status, 'open') */\n      jump\t// in\n    tag_173:\n        /* \"Contract.sol\":3432:3483  require(hashCompareWithLengthCheck(status, 'open')) */\n      tag_179\n      jumpi\n      0x00\n      dup1\n      revert\n    tag_179:\n        /* \"Contract.sol\":3489:3506  status = 'closed' */\n      0x40\n      dup1\n      mload\n      dup1\n      dup3\n      add\n      swap1\n      swap2\n      mstore\n      0x06\n      dup2\n      mstore\n      shl(0xd2, 0x18db1bdcd959)\n      0x20\n      dup3\n      add\n      mstore\n        /* \"Contract.sol\":3489:3495  status */\n      0x09\n      swap1\n        /* \"Contract.sol\":3489:3506  status = 'closed' */\n      tag_180\n      swap1\n        /* \"Contract.sol\":3489:3495  status */\n      dup3\n        /* \"Contract.sol\":3489:3506  status = 'closed' */\n      tag_153\n      jump\t// in\n    tag_180:\n      pop\n        /* \"Contract.sol\":3512:3520  customer */\n      0x00\n      dup1\n      sload\n        /* \"Contract.sol\":3512:3552  customer.transfer(address(this).balance) */\n      mload(0x40)\n      sub(shl(0xa0, 0x01), 0x01)\n        /* \"Contract.sol\":3512:3520  customer */\n      swap1\n      swap2\n      and\n      swap2\n        /* \"Contract.sol\":3530:3551  address(this).balance */\n      selfbalance\n        /* \"Contract.sol\":3512:3552  customer.transfer(address(this).balance) */\n      dup1\n      iszero\n      0x08fc\n      mul\n      swap3\n        /* \"Contract.sol\":3530:3551  address(this).balance */\n      swap1\n      swap2\n        /* \"Contract.sol\":3512:3552  customer.transfer(address(this).balance) */\n      dup2\n        /* \"Contract.sol\":3512:3520  customer */\n      dup2\n        /* \"Contract.sol\":3512:3552  customer.transfer(address(this).balance) */\n      dup2\n        /* \"Contract.sol\":3530:3551  address(this).balance */\n      dup6\n        /* \"Contract.sol\":3512:3520  customer */\n      dup9\n        /* \"Contract.sol\":3512:3552  customer.transfer(address(this).balance) */\n      dup9\n      call\n      swap4\n      pop\n      pop\n      pop\n      pop\n      iszero\n      dup1\n      iszero\n      tag_152\n      jumpi\n      returndatasize\n      0x00\n      dup1\n      returndatacopy\n      revert(0x00, returndatasize)\n        /* \"Contract.sol\":2812:3004  function acceptDispute() public {... */\n    tag_84:\n        /* \"Contract.sol\":2881:2889  platform */\n      and(sub(shl(0xa0, 0x01), 0x01), sload(0x01))\n        /* \"Contract.sol\":2866:2876  msg.sender */\n      caller\n        /* \"Contract.sol\":2858:2889  payable(msg.sender) == platform */\n      eq\n        /* \"Contract.sol\":2850:2890  require(payable(msg.sender) == platform) */\n      tag_184\n      jumpi\n      0x00\n      dup1\n      revert\n    tag_184:\n        /* \"Contract.sol\":2904:2950  hashCompareWithLengthCheck(status, 'disputed') */\n      tag_185\n        /* \"Contract.sol\":2931:2937  status */\n      0x09\n        /* \"Contract.sol\":2904:2950  hashCompareWithLengthCheck(status, 'disputed') */\n      dup1\n      sload\n      tag_186\n      swap1\n      tag_132\n      jump\t// in\n    tag_186:\n      dup1\n      0x1f\n      add\n      0x20\n      dup1\n      swap2\n      div\n      mul\n      0x20\n      add\n      mload(0x40)\n      swap1\n      dup2\n      add\n      0x40\n      mstore\n      dup1\n      swap3\n      swap2\n      swap1\n      dup2\n      dup2\n      mstore\n      0x20\n      add\n      dup3\n      dup1\n      sload\n      tag_187\n      swap1\n      tag_132\n      jump\t// in\n    tag_187:\n      dup1\n      iszero\n      tag_188\n      jumpi\n      dup1\n      0x1f\n      lt\n      tag_189\n      jumpi\n      0x0100\n      dup1\n      dup4\n      sload\n      div\n      mul\n      dup4\n      mstore\n      swap2\n      0x20\n      add\n      swap2\n      jump(tag_188)\n    tag_189:\n      dup3\n      add\n      swap2\n      swap1\n      0x00\n      mstore\n      keccak256(0x00, 0x20)\n      swap1\n    tag_190:\n      dup2\n      sload\n      dup2\n      mstore\n      swap1\n      0x01\n      add\n      swap1\n      0x20\n      add\n      dup1\n      dup4\n      gt\n      tag_190\n      jumpi\n      dup3\n      swap1\n      sub\n      0x1f\n      and\n      dup3\n      add\n      swap2\n    tag_188:\n      pop\n      pop\n      pop\n      pop\n      pop\n      mload(0x40)\n      dup1\n      0x40\n      add\n      0x40\n      mstore\n      dup1\n      0x08\n      dup2\n      mstore\n      0x20\n      add\n      shl(0xc2, 0x191a5cdc1d5d1959)\n      dup2\n      mstore\n      pop\n        /* \"Contract.sol\":2904:2930  hashCompareWithLengthCheck */\n      tag_149\n        /* \"Contract.sol\":2904:2950  hashCompareWithLengthCheck(status, 'disputed') */\n      jump\t// in\n    tag_185:\n        /* \"Contract.sol\":2896:2951  require(hashCompareWithLengthCheck(status, 'disputed')) */\n      tag_191\n      jumpi\n      0x00\n      dup1\n      revert\n    tag_191:\n        /* \"Contract.sol\":2957:2972  status = 'open' */\n      0x40\n      dup1\n      mload\n      dup1\n      dup3\n      add\n      swap1\n      swap2\n      mstore\n      0x04\n      dup2\n      mstore\n      shl(0xe1, 0x37b832b7)\n      0x20\n      dup3\n      add\n      mstore\n        /* \"Contract.sol\":2957:2963  status */\n      0x09\n      swap1\n        /* \"Contract.sol\":2957:2972  status = 'open' */\n      tag_192\n      swap1\n        /* \"Contract.sol\":2957:2963  status */\n      dup3\n        /* \"Contract.sol\":2957:2972  status = 'open' */\n      tag_153\n      jump\t// in\n    tag_192:\n      pop\n        /* \"Contract.sol\":2978:2999  delete mediaAddresses */\n      tag_193\n        /* \"Contract.sol\":2985:2999  mediaAddresses */\n      0x10\n      0x00\n        /* \"Contract.sol\":2978:2999  delete mediaAddresses */\n      tag_194\n      jump\t// in\n    tag_193:\n        /* \"Contract.sol\":2812:3004  function acceptDispute() public {... */\n      jump\t// out\n        /* \"Contract.sol\":3810:3909  function getMediaAddresses() public view returns (string[] memory) {... */\n    tag_87:\n        /* \"Contract.sol\":3860:3875  string[] memory */\n      0x60\n        /* \"Contract.sol\":3890:3904  mediaAddresses */\n      0x10\n        /* \"Contract.sol\":3883:3904  return mediaAddresses */\n      dup1\n      sload\n      dup1\n      0x20\n      mul\n      0x20\n      add\n      mload(0x40)\n      swap1\n      dup2\n      add\n      0x40\n      mstore\n      dup1\n      swap3\n      swap2\n      swap1\n      dup2\n      dup2\n      mstore\n      0x20\n      add\n      0x00\n      swap1\n    tag_196:\n      dup3\n      dup3\n      lt\n      iszero\n      tag_197\n      jumpi\n      dup4\n      dup3\n      swap1\n      0x00\n      mstore\n      keccak256(0x00, 0x20)\n      add\n      dup1\n      sload\n      tag_199\n      swap1\n      tag_132\n      jump\t// in\n    tag_199:\n      dup1\n      0x1f\n      add\n      0x20\n      dup1\n      swap2\n      div\n      mul\n      0x20\n      add\n      mload(0x40)\n      swap1\n      dup2\n      add\n      0x40\n      mstore\n      dup1\n      swap3\n      swap2\n      swap1\n      dup2\n      dup2\n      mstore\n      0x20\n      add\n      dup3\n      dup1\n      sload\n      tag_200\n      swap1\n      tag_132\n      jump\t// in\n    tag_200:\n      dup1\n      iszero\n      tag_201\n      jumpi\n      dup1\n      0x1f\n      lt\n      tag_202\n      jumpi\n      0x0100\n      dup1\n      dup4\n      sload\n      div\n      mul\n      dup4\n      mstore\n      swap2\n      0x20\n      add\n      swap2\n      jump(tag_201)\n    tag_202:\n      dup3\n      add\n      swap2\n      swap1\n      0x00\n      mstore\n      keccak256(0x00, 0x20)\n      swap1\n    tag_203:\n      dup2\n      sload\n      dup2\n      mstore\n      swap1\n      0x01\n      add\n      swap1\n      0x20\n      add\n      dup1\n      dup4\n      gt\n      tag_203\n      jumpi\n      dup3\n      swap1\n      sub\n      0x1f\n      and\n      dup3\n      add\n      swap2\n    tag_201:\n      pop\n      pop\n      pop\n      pop\n      pop\n      dup2\n      mstore\n      0x20\n      add\n      swap1\n      0x01\n      add\n      swap1\n      jump(tag_196)\n    tag_197:\n      pop\n      pop\n      pop\n      pop\n      swap1\n      pop\n        /* \"Contract.sol\":3810:3909  function getMediaAddresses() public view returns (string[] memory) {... */\n      swap1\n      jump\t// out\n        /* \"Contract.sol\":1288:1319  string public minimalResolution */\n    tag_100:\n      0x0e\n      dup1\n      sload\n      tag_131\n      swap1\n      tag_132\n      jump\t// in\n        /* \"Contract.sol\":2020:2273  function proposeMedia (string[] memory addresses) public {... */\n    tag_106:\n        /* \"Contract.sol\":2109:2116  expires */\n      sload(0x08)\n        /* \"Contract.sol\":2091:2106  block.timestamp */\n      timestamp\n        /* \"Contract.sol\":2091:2116  block.timestamp < expires */\n      lt\n        /* \"Contract.sol\":2083:2117  require(block.timestamp < expires) */\n      tag_210\n      jumpi\n      0x00\n      dup1\n      revert\n    tag_210:\n        /* \"Contract.sol\":2131:2173  hashCompareWithLengthCheck(status, 'open') */\n      tag_211\n        /* \"Contract.sol\":2158:2164  status */\n      0x09\n        /* \"Contract.sol\":2131:2173  hashCompareWithLengthCheck(status, 'open') */\n      dup1\n      sload\n      tag_174\n      swap1\n      tag_132\n      jump\t// in\n    tag_211:\n        /* \"Contract.sol\":2123:2174  require(hashCompareWithLengthCheck(status, 'open')) */\n      tag_217\n      jumpi\n      0x00\n      dup1\n      revert\n    tag_217:\n        /* \"Contract.sol\":2180:2188  reporter */\n      0x02\n        /* \"Contract.sol\":2180:2211  reporter =  payable(msg.sender) */\n      dup1\n      sload\n      not(sub(shl(0xa0, 0x01), 0x01))\n      and\n        /* \"Contract.sol\":2200:2210  msg.sender */\n      caller\n        /* \"Contract.sol\":2180:2211  reporter =  payable(msg.sender) */\n      or\n      swap1\n      sstore\n        /* \"Contract.sol\":2217:2243  mediaAddresses = addresses */\n      dup1\n      mload\n      tag_218\n      swap1\n        /* \"Contract.sol\":2217:2231  mediaAddresses */\n      0x10\n      swap1\n        /* \"Contract.sol\":2217:2243  mediaAddresses = addresses */\n      0x20\n      dup5\n      add\n      swap1\n      tag_219\n      jump\t// in\n    tag_218:\n      pop\n        /* \"Contract.sol\":2249:2268  status = 'proposed' */\n      0x40\n      dup1\n      mload\n      dup1\n      dup3\n      add\n      swap1\n      swap2\n      mstore\n      0x08\n      dup2\n      mstore\n      shl(0xc2, 0x1c1c9bdc1bdcd959)\n      0x20\n      dup3\n      add\n      mstore\n        /* \"Contract.sol\":2249:2255  status */\n      0x09\n      swap1\n        /* \"Contract.sol\":2249:2268  status = 'proposed' */\n      tag_220\n      swap1\n        /* \"Contract.sol\":2249:2255  status */\n      dup3\n        /* \"Contract.sol\":2249:2268  status = 'proposed' */\n      tag_153\n      jump\t// in\n    tag_220:\n      pop\n        /* \"Contract.sol\":2020:2273  function proposeMedia (string[] memory addresses) public {... */\n      pop\n      jump\t// out\n        /* \"Contract.sol\":2277:2633  function acceptProposal() public payable {... */\n    tag_108:\n        /* \"Contract.sol\":2355:2363  customer */\n      and(sub(shl(0xa0, 0x01), 0x01), sload(0x00))\n        /* \"Contract.sol\":2340:2350  msg.sender */\n      caller\n        /* \"Contract.sol\":2332:2363  payable(msg.sender) == customer */\n      eq\n        /* \"Contract.sol\":2324:2364  require(payable(msg.sender) == customer) */\n      tag_222\n      jumpi\n      0x00\n      dup1\n      revert\n    tag_222:\n        /* \"Contract.sol\":2378:2424  hashCompareWithLengthCheck(status, 'proposed') */\n      tag_223\n        /* \"Contract.sol\":2405:2411  status */\n      0x09\n        /* \"Contract.sol\":2378:2424  hashCompareWithLengthCheck(status, 'proposed') */\n      dup1\n      sload\n      tag_144\n      swap1\n      tag_132\n      jump\t// in\n    tag_223:\n        /* \"Contract.sol\":2370:2425  require(hashCompareWithLengthCheck(status, 'proposed')) */\n      tag_229\n      jumpi\n      0x00\n      dup1\n      revert\n    tag_229:\n        /* \"Contract.sol\":2431:2448  status = 'closed' */\n      0x40\n      dup1\n      mload\n      dup1\n      dup3\n      add\n      swap1\n      swap2\n      mstore\n      0x06\n      dup2\n      mstore\n      shl(0xd2, 0x18db1bdcd959)\n      0x20\n      dup3\n      add\n      mstore\n        /* \"Contract.sol\":2431:2437  status */\n      0x09\n      swap1\n        /* \"Contract.sol\":2431:2448  status = 'closed' */\n      tag_230\n      swap1\n        /* \"Contract.sol\":2431:2437  status */\n      dup3\n        /* \"Contract.sol\":2431:2448  status = 'closed' */\n      tag_153\n      jump\t// in\n    tag_230:\n      pop\n        /* \"Contract.sol\":2500:2503  100 */\n      0x64\n        /* \"Contract.sol\":2471:2497  address(this).balance * 95 */\n      tag_231\n        /* \"Contract.sol\":2471:2492  address(this).balance */\n      selfbalance\n        /* \"Contract.sol\":2495:2497  95 */\n      0x5f\n        /* \"Contract.sol\":2471:2497  address(this).balance * 95 */\n      tag_232\n      jump\t// in\n    tag_231:\n        /* \"Contract.sol\":2471:2503  address(this).balance * 95 / 100 */\n      tag_233\n      swap2\n      swap1\n      tag_234\n      jump\t// in\n    tag_233:\n        /* \"Contract.sol\":2454:2467  contractPrice */\n      0x03\n        /* \"Contract.sol\":2454:2503  contractPrice =  address(this).balance * 95 / 100 */\n      sstore\n        /* \"Contract.sol\":2551:2554  100 */\n      0x64\n        /* \"Contract.sol\":2523:2548  address(this).balance * 5 */\n      tag_235\n        /* \"Contract.sol\":2523:2544  address(this).balance */\n      selfbalance\n        /* \"Contract.sol\":2547:2548  5 */\n      0x05\n        /* \"Contract.sol\":2523:2548  address(this).balance * 5 */\n      tag_232\n      jump\t// in\n    tag_235:\n        /* \"Contract.sol\":2523:2554  address(this).balance * 5 / 100 */\n      tag_236\n      swap2\n      swap1\n      tag_234\n      jump\t// in\n    tag_236:\n        /* \"Contract.sol\":2509:2520  platformFee */\n      0x04\n        /* \"Contract.sol\":2509:2554  platformFee = address(this).balance * 5 / 100 */\n      sstore\n        /* \"Contract.sol\":2560:2568  reporter */\n      sload(0x02)\n        /* \"Contract.sol\":2578:2591  contractPrice */\n      sload(0x03)\n        /* \"Contract.sol\":2560:2592  reporter.transfer(contractPrice) */\n      mload(0x40)\n      sub(shl(0xa0, 0x01), 0x01)\n        /* \"Contract.sol\":2560:2568  reporter */\n      swap1\n      swap3\n      and\n      swap2\n        /* \"Contract.sol\":2560:2592  reporter.transfer(contractPrice) */\n      dup2\n      iszero\n      0x08fc\n      mul\n      swap2\n        /* \"Contract.sol\":2578:2591  contractPrice */\n      swap1\n        /* \"Contract.sol\":2560:2568  reporter */\n      0x00\n        /* \"Contract.sol\":2560:2592  reporter.transfer(contractPrice) */\n      dup2\n        /* \"Contract.sol\":2560:2568  reporter */\n      dup2\n        /* \"Contract.sol\":2560:2592  reporter.transfer(contractPrice) */\n      dup2\n        /* \"Contract.sol\":2578:2591  contractPrice */\n      dup6\n        /* \"Contract.sol\":2560:2568  reporter */\n      dup9\n        /* \"Contract.sol\":2560:2592  reporter.transfer(contractPrice) */\n      dup9\n      call\n      swap4\n      pop\n      pop\n      pop\n      pop\n      iszero\n      dup1\n      iszero\n      tag_238\n      jumpi\n      returndatasize\n      0x00\n      dup1\n      returndatacopy\n      revert(0x00, returndatasize)\n    tag_238:\n      pop\n        /* \"Contract.sol\":2598:2606  platform */\n      sload(0x01)\n        /* \"Contract.sol\":2616:2627  platformFee */\n      sload(0x04)\n        /* \"Contract.sol\":2598:2628  platform.transfer(platformFee) */\n      mload(0x40)\n      sub(shl(0xa0, 0x01), 0x01)\n        /* \"Contract.sol\":2598:2606  platform */\n      swap1\n      swap3\n      and\n      swap2\n        /* \"Contract.sol\":2598:2628  platform.transfer(platformFee) */\n      dup2\n      iszero\n      0x08fc\n      mul\n      swap2\n        /* \"Contract.sol\":2616:2627  platformFee */\n      swap1\n        /* \"Contract.sol\":2598:2606  platform */\n      0x00\n        /* \"Contract.sol\":2598:2628  platform.transfer(platformFee) */\n      dup2\n        /* \"Contract.sol\":2598:2606  platform */\n      dup2\n        /* \"Contract.sol\":2598:2628  platform.transfer(platformFee) */\n      dup2\n        /* \"Contract.sol\":2616:2627  platformFee */\n      dup6\n        /* \"Contract.sol\":2598:2606  platform */\n      dup9\n        /* \"Contract.sol\":2598:2628  platform.transfer(platformFee) */\n      dup9\n      call\n      swap4\n      pop\n      pop\n      pop\n      pop\n      iszero\n      dup1\n      iszero\n      tag_152\n      jumpi\n      returndatasize\n      0x00\n      dup1\n      returndatacopy\n      revert(0x00, returndatasize)\n        /* \"Contract.sol\":1251:1284  string public specialInstructions */\n    tag_115:\n      0x0d\n      dup1\n      sload\n      tag_131\n      swap1\n      tag_132\n      jump\t// in\n        /* \"Contract.sol\":3561:3806  function renewContract(uint newExpiration) public {... */\n    tag_120:\n        /* \"Contract.sol\":3639:3647  customer */\n      and(sub(shl(0xa0, 0x01), 0x01), sload(0x00))\n        /* \"Contract.sol\":3625:3635  msg.sender */\n      caller\n        /* \"Contract.sol\":3625:3647  msg.sender == customer */\n      eq\n        /* \"Contract.sol\":3617:3648  require(msg.sender == customer) */\n      tag_247\n      jumpi\n      0x00\n      dup1\n      revert\n    tag_247:\n        /* \"Contract.sol\":3662:3704  hashCompareWithLengthCheck(status, 'open') */\n      tag_248\n        /* \"Contract.sol\":3689:3695  status */\n      0x09\n        /* \"Contract.sol\":3662:3704  hashCompareWithLengthCheck(status, 'open') */\n      dup1\n      sload\n      tag_174\n      swap1\n      tag_132\n      jump\t// in\n    tag_248:\n        /* \"Contract.sol\":3654:3705  require(hashCompareWithLengthCheck(status, 'open')) */\n      tag_254\n      jumpi\n      0x00\n      dup1\n      revert\n    tag_254:\n        /* \"Contract.sol\":3737:3750  newExpiration */\n      dup1\n        /* \"Contract.sol\":3719:3734  block.timestamp */\n      timestamp\n        /* \"Contract.sol\":3719:3750  block.timestamp < newExpiration */\n      lt\n        /* \"Contract.sol\":3711:3751  require(block.timestamp < newExpiration) */\n      tag_255\n      jumpi\n      0x00\n      dup1\n      revert\n    tag_255:\n        /* \"Contract.sol\":3757:3764  expires */\n      0x08\n        /* \"Contract.sol\":3757:3780  expires = newExpiration */\n      dup2\n      swap1\n      sstore\n        /* \"Contract.sol\":3786:3801  status = 'open' */\n      0x40\n      dup1\n      mload\n      dup1\n      dup3\n      add\n      swap1\n      swap2\n      mstore\n      0x04\n      dup2\n      mstore\n      shl(0xe1, 0x37b832b7)\n      0x20\n      dup3\n      add\n      mstore\n        /* \"Contract.sol\":3786:3792  status */\n      0x09\n      swap1\n        /* \"Contract.sol\":3786:3801  status = 'open' */\n      tag_220\n      swap1\n        /* \"Contract.sol\":3786:3792  status */\n      dup3\n        /* \"Contract.sol\":3786:3801  status = 'open' */\n      tag_153\n      jump\t// in\n        /* \"Contract.sol\":1197:1218  string public tasking */\n    tag_123:\n      0x0b\n      dup1\n      sload\n      tag_131\n      swap1\n      tag_132\n      jump\t// in\n        /* \"Contract.sol\":1082:1102  string public format */\n    tag_127:\n      0x06\n      dup1\n      sload\n      tag_131\n      swap1\n      tag_132\n      jump\t// in\n        /* \"Contract.sol\":3008:3353  function rejectDispute() public payable{... */\n    tag_130:\n        /* \"Contract.sol\":3075:3083  platform */\n      and(sub(shl(0xa0, 0x01), 0x01), sload(0x01))\n        /* \"Contract.sol\":3061:3071  msg.sender */\n      caller\n        /* \"Contract.sol\":3061:3083  msg.sender == platform */\n      eq\n        /* \"Contract.sol\":3053:3084  require(msg.sender == platform) */\n      tag_268\n      jumpi\n      0x00\n      dup1\n      revert\n    tag_268:\n        /* \"Contract.sol\":3098:3144  hashCompareWithLengthCheck(status, 'disputed') */\n      tag_223\n        /* \"Contract.sol\":3125:3131  status */\n      0x09\n        /* \"Contract.sol\":3098:3144  hashCompareWithLengthCheck(status, 'disputed') */\n      dup1\n      sload\n      tag_186\n      swap1\n      tag_132\n      jump\t// in\n        /* \"Contract.sol\":3912:4169  function hashCompareWithLengthCheck( string memory a, string memory b) internal pure returns (bool)  {... */\n    tag_149:\n        /* \"Contract.sol\":4006:4010  bool */\n      0x00\n        /* \"Contract.sol\":4047:4048  b */\n      dup2\n        /* \"Contract.sol\":4041:4056  bytes(b).length */\n      mload\n        /* \"Contract.sol\":4028:4029  a */\n      dup4\n        /* \"Contract.sol\":4022:4037  bytes(a).length */\n      mload\n        /* \"Contract.sol\":4022:4056  bytes(a).length != bytes(b).length */\n      eq\n        /* \"Contract.sol\":4019:4165  if(bytes(a).length != bytes(b).length) {... */\n      tag_286\n      jumpi\n      pop\n        /* \"Contract.sol\":4073:4078  false */\n      0x00\n        /* \"Contract.sol\":4066:4078  return false */\n      jump(tag_287)\n        /* \"Contract.sol\":4019:4165  if(bytes(a).length != bytes(b).length) {... */\n    tag_286:\n        /* \"Contract.sol\":4155:4156  b */\n      dup2\n        /* \"Contract.sol\":4144:4157  abi.encode(b) */\n      add(0x20, mload(0x40))\n      tag_288\n      swap2\n      swap1\n      tag_40\n      jump\t// in\n    tag_288:\n      mload(0x40)\n      0x20\n      dup2\n      dup4\n      sub\n      sub\n      dup2\n      mstore\n      swap1\n      0x40\n      mstore\n        /* \"Contract.sol\":4134:4158  keccak256(abi.encode(b)) */\n      dup1\n      mload\n      swap1\n      0x20\n      add\n      keccak256\n        /* \"Contract.sol\":4127:4128  a */\n      dup4\n        /* \"Contract.sol\":4116:4129  abi.encode(a) */\n      add(0x20, mload(0x40))\n      tag_289\n      swap2\n      swap1\n      tag_40\n      jump\t// in\n    tag_289:\n      mload(0x40)\n      0x20\n      dup2\n      dup4\n      sub\n      sub\n      dup2\n      mstore\n      swap1\n      0x40\n      mstore\n        /* \"Contract.sol\":4106:4130  keccak256(abi.encode(a)) */\n      dup1\n      mload\n      swap1\n      0x20\n      add\n      keccak256\n        /* \"Contract.sol\":4106:4158  keccak256(abi.encode(a)) == keccak256(abi.encode(b)) */\n      eq\n        /* \"Contract.sol\":4099:4158  return keccak256(abi.encode(a)) == keccak256(abi.encode(b)) */\n      swap1\n      pop\n        /* \"Contract.sol\":4019:4165  if(bytes(a).length != bytes(b).length) {... */\n    tag_287:\n        /* \"Contract.sol\":3912:4169  function hashCompareWithLengthCheck( string memory a, string memory b) internal pure returns (bool)  {... */\n      swap3\n      swap2\n      pop\n      pop\n      jump\t// out\n    tag_194:\n      pop\n      dup1\n      sload\n      0x00\n      dup3\n      sstore\n      swap1\n      0x00\n      mstore\n      keccak256(0x00, 0x20)\n      swap1\n      dup2\n      add\n      swap1\n      tag_152\n      swap2\n      swap1\n      tag_292\n      jump\t// in\n    tag_219:\n      dup3\n      dup1\n      sload\n      dup3\n      dup3\n      sstore\n      swap1\n      0x00\n      mstore\n      keccak256(0x00, 0x20)\n      swap1\n      dup2\n      add\n      swap3\n      dup3\n      iszero\n      tag_295\n      jumpi\n      swap2\n      0x20\n      mul\n      dup3\n      add\n    tag_294:\n      dup3\n      dup2\n      gt\n      iszero\n      tag_295\n      jumpi\n      dup3\n      mload\n      dup3\n      swap1\n      tag_296\n      swap1\n      dup3\n      tag_153\n      jump\t// in\n    tag_296:\n      pop\n      swap2\n      0x20\n      add\n      swap2\n      swap1\n      0x01\n      add\n      swap1\n      jump(tag_294)\n    tag_295:\n      pop\n      tag_297\n      swap3\n      swap2\n      pop\n      tag_292\n      jump\t// in\n    tag_297:\n      pop\n      swap1\n      jump\t// out\n    tag_292:\n      dup1\n      dup3\n      gt\n      iszero\n      tag_297\n      jumpi\n      0x00\n      tag_300\n      dup3\n      dup3\n      tag_301\n      jump\t// in\n    tag_300:\n      pop\n      0x01\n      add\n      jump(tag_292)\n    tag_301:\n      pop\n      dup1\n      sload\n      tag_302\n      swap1\n      tag_132\n      jump\t// in\n    tag_302:\n      0x00\n      dup3\n      sstore\n      dup1\n      0x1f\n      lt\n      tag_304\n      jumpi\n      pop\n      pop\n      jump\t// out\n    tag_304:\n      0x1f\n      add\n      0x20\n      swap1\n      div\n      swap1\n      0x00\n      mstore\n      keccak256(0x00, 0x20)\n      swap1\n      dup2\n      add\n      swap1\n      tag_152\n      swap2\n      swap1\n    tag_307:\n      dup1\n      dup3\n      gt\n      iszero\n      tag_297\n      jumpi\n      0x00\n      dup2\n      sstore\n      0x01\n      add\n      jump(tag_307)\n        /* \"#utility.yul\":238:661   */\n    tag_309:\n        /* \"#utility.yul\":280:283   */\n      0x00\n        /* \"#utility.yul\":318:323   */\n      dup2\n        /* \"#utility.yul\":312:324   */\n      mload\n        /* \"#utility.yul\":345:351   */\n      dup1\n        /* \"#utility.yul\":340:343   */\n      dup5\n        /* \"#utility.yul\":333:352   */\n      mstore\n        /* \"#utility.yul\":370:371   */\n      0x00\n        /* \"#utility.yul\":380:542   */\n    tag_318:\n        /* \"#utility.yul\":394:400   */\n      dup2\n        /* \"#utility.yul\":391:392   */\n      dup2\n        /* \"#utility.yul\":388:401   */\n      lt\n        /* \"#utility.yul\":380:542   */\n      iszero\n      tag_320\n      jumpi\n        /* \"#utility.yul\":456:460   */\n      0x20\n        /* \"#utility.yul\":512:525   */\n      dup2\n      dup6\n      add\n        /* \"#utility.yul\":508:530   */\n      dup2\n      add\n        /* \"#utility.yul\":502:531   */\n      mload\n        /* \"#utility.yul\":484:495   */\n      dup7\n      dup4\n      add\n        /* \"#utility.yul\":480:500   */\n      dup3\n      add\n        /* \"#utility.yul\":473:532   */\n      mstore\n        /* \"#utility.yul\":409:421   */\n      add\n        /* \"#utility.yul\":380:542   */\n      jump(tag_318)\n    tag_320:\n        /* \"#utility.yul\":384:387   */\n      pop\n        /* \"#utility.yul\":587:588   */\n      0x00\n        /* \"#utility.yul\":580:584   */\n      0x20\n        /* \"#utility.yul\":571:577   */\n      dup3\n        /* \"#utility.yul\":566:569   */\n      dup7\n        /* \"#utility.yul\":562:578   */\n      add\n        /* \"#utility.yul\":558:585   */\n      add\n        /* \"#utility.yul\":551:589   */\n      mstore\n        /* \"#utility.yul\":650:654   */\n      0x20\n        /* \"#utility.yul\":643:645   */\n      0x1f\n        /* \"#utility.yul\":639:646   */\n      not\n        /* \"#utility.yul\":634:636   */\n      0x1f\n        /* \"#utility.yul\":626:632   */\n      dup4\n        /* \"#utility.yul\":622:637   */\n      add\n        /* \"#utility.yul\":618:647   */\n      and\n        /* \"#utility.yul\":613:616   */\n      dup6\n        /* \"#utility.yul\":609:648   */\n      add\n        /* \"#utility.yul\":605:655   */\n      add\n        /* \"#utility.yul\":598:655   */\n      swap2\n      pop\n      pop\n        /* \"#utility.yul\":238:661   */\n      swap3\n      swap2\n      pop\n      pop\n      jump\t// out\n        /* \"#utility.yul\":666:886   */\n    tag_40:\n        /* \"#utility.yul\":815:817   */\n      0x20\n        /* \"#utility.yul\":804:813   */\n      dup2\n        /* \"#utility.yul\":797:818   */\n      mstore\n        /* \"#utility.yul\":778:782   */\n      0x00\n        /* \"#utility.yul\":835:880   */\n      tag_322\n        /* \"#utility.yul\":876:878   */\n      0x20\n        /* \"#utility.yul\":865:874   */\n      dup4\n        /* \"#utility.yul\":861:879   */\n      add\n        /* \"#utility.yul\":853:859   */\n      dup5\n        /* \"#utility.yul\":835:880   */\n      tag_309\n      jump\t// in\n    tag_322:\n        /* \"#utility.yul\":827:880   */\n      swap4\n        /* \"#utility.yul\":666:886   */\n      swap3\n      pop\n      pop\n      pop\n      jump\t// out\n        /* \"#utility.yul\":1073:1253   */\n    tag_60:\n        /* \"#utility.yul\":1132:1138   */\n      0x00\n        /* \"#utility.yul\":1185:1187   */\n      0x20\n        /* \"#utility.yul\":1173:1182   */\n      dup3\n        /* \"#utility.yul\":1164:1171   */\n      dup5\n        /* \"#utility.yul\":1160:1183   */\n      sub\n        /* \"#utility.yul\":1156:1188   */\n      slt\n        /* \"#utility.yul\":1153:1205   */\n      iszero\n      tag_325\n      jumpi\n        /* \"#utility.yul\":1201:1202   */\n      0x00\n        /* \"#utility.yul\":1198:1199   */\n      dup1\n        /* \"#utility.yul\":1191:1203   */\n      revert\n        /* \"#utility.yul\":1153:1205   */\n    tag_325:\n      pop\n        /* \"#utility.yul\":1224:1247   */\n      calldataload\n      swap2\n        /* \"#utility.yul\":1073:1253   */\n      swap1\n      pop\n      jump\t// out\n        /* \"#utility.yul\":1258:2061   */\n    tag_89:\n        /* \"#utility.yul\":1420:1424   */\n      0x00\n        /* \"#utility.yul\":1449:1451   */\n      0x20\n        /* \"#utility.yul\":1489:1491   */\n      dup1\n        /* \"#utility.yul\":1478:1487   */\n      dup4\n        /* \"#utility.yul\":1474:1492   */\n      add\n        /* \"#utility.yul\":1519:1521   */\n      dup2\n        /* \"#utility.yul\":1508:1517   */\n      dup5\n        /* \"#utility.yul\":1501:1522   */\n      mstore\n        /* \"#utility.yul\":1542:1548   */\n      dup1\n        /* \"#utility.yul\":1577:1583   */\n      dup6\n        /* \"#utility.yul\":1571:1584   */\n      mload\n        /* \"#utility.yul\":1608:1614   */\n      dup1\n        /* \"#utility.yul\":1600:1606   */\n      dup4\n        /* \"#utility.yul\":1593:1615   */\n      mstore\n        /* \"#utility.yul\":1646:1648   */\n      0x40\n        /* \"#utility.yul\":1635:1644   */\n      dup7\n        /* \"#utility.yul\":1631:1649   */\n      add\n        /* \"#utility.yul\":1624:1649   */\n      swap2\n      pop\n        /* \"#utility.yul\":1708:1710   */\n      0x40\n        /* \"#utility.yul\":1698:1704   */\n      dup2\n        /* \"#utility.yul\":1695:1696   */\n      0x05\n        /* \"#utility.yul\":1691:1705   */\n      shl\n        /* \"#utility.yul\":1680:1689   */\n      dup8\n        /* \"#utility.yul\":1676:1706   */\n      add\n        /* \"#utility.yul\":1672:1711   */\n      add\n        /* \"#utility.yul\":1658:1711   */\n      swap3\n      pop\n        /* \"#utility.yul\":1746:1748   */\n      dup4\n        /* \"#utility.yul\":1738:1744   */\n      dup8\n        /* \"#utility.yul\":1734:1749   */\n      add\n        /* \"#utility.yul\":1767:1768   */\n      0x00\n        /* \"#utility.yul\":1777:2032   */\n    tag_327:\n        /* \"#utility.yul\":1791:1797   */\n      dup3\n        /* \"#utility.yul\":1788:1789   */\n      dup2\n        /* \"#utility.yul\":1785:1798   */\n      lt\n        /* \"#utility.yul\":1777:2032   */\n      iszero\n      tag_329\n      jumpi\n        /* \"#utility.yul\":1884:1886   */\n      0x3f\n        /* \"#utility.yul\":1880:1887   */\n      not\n        /* \"#utility.yul\":1868:1877   */\n      dup9\n        /* \"#utility.yul\":1860:1866   */\n      dup7\n        /* \"#utility.yul\":1856:1878   */\n      sub\n        /* \"#utility.yul\":1852:1888   */\n      add\n        /* \"#utility.yul\":1847:1850   */\n      dup5\n        /* \"#utility.yul\":1840:1889   */\n      mstore\n        /* \"#utility.yul\":1912:1952   */\n      tag_330\n        /* \"#utility.yul\":1945:1951   */\n      dup6\n        /* \"#utility.yul\":1936:1942   */\n      dup4\n        /* \"#utility.yul\":1930:1943   */\n      mload\n        /* \"#utility.yul\":1912:1952   */\n      tag_309\n      jump\t// in\n    tag_330:\n        /* \"#utility.yul\":1902:1952   */\n      swap5\n      pop\n        /* \"#utility.yul\":2010:2022   */\n      swap3\n      dup6\n      add\n      swap3\n        /* \"#utility.yul\":1975:1990   */\n      swap1\n      dup6\n      add\n      swap1\n        /* \"#utility.yul\":1813:1814   */\n      0x01\n        /* \"#utility.yul\":1806:1815   */\n      add\n        /* \"#utility.yul\":1777:2032   */\n      jump(tag_327)\n    tag_329:\n      pop\n        /* \"#utility.yul\":2049:2055   */\n      swap3\n      swap8\n        /* \"#utility.yul\":1258:2061   */\n      swap7\n      pop\n      pop\n      pop\n      pop\n      pop\n      pop\n      pop\n      jump\t// out\n        /* \"#utility.yul\":2066:2193   */\n    tag_310:\n        /* \"#utility.yul\":2127:2137   */\n      0x4e487b71\n        /* \"#utility.yul\":2122:2125   */\n      0xe0\n        /* \"#utility.yul\":2118:2138   */\n      shl\n        /* \"#utility.yul\":2115:2116   */\n      0x00\n        /* \"#utility.yul\":2108:2139   */\n      mstore\n        /* \"#utility.yul\":2158:2162   */\n      0x41\n        /* \"#utility.yul\":2155:2156   */\n      0x04\n        /* \"#utility.yul\":2148:2163   */\n      mstore\n        /* \"#utility.yul\":2182:2186   */\n      0x24\n        /* \"#utility.yul\":2179:2180   */\n      0x00\n        /* \"#utility.yul\":2172:2187   */\n      revert\n        /* \"#utility.yul\":2198:2473   */\n    tag_311:\n        /* \"#utility.yul\":2269:2271   */\n      0x40\n        /* \"#utility.yul\":2263:2272   */\n      mload\n        /* \"#utility.yul\":2334:2336   */\n      0x1f\n        /* \"#utility.yul\":2315:2328   */\n      dup3\n      add\n      not(0x1f)\n        /* \"#utility.yul\":2311:2338   */\n      and\n        /* \"#utility.yul\":2299:2339   */\n      dup2\n      add\n        /* \"#utility.yul\":2369:2387   */\n      0xffffffffffffffff\n        /* \"#utility.yul\":2354:2388   */\n      dup2\n      gt\n        /* \"#utility.yul\":2390:2412   */\n      dup3\n      dup3\n      lt\n        /* \"#utility.yul\":2351:2413   */\n      or\n        /* \"#utility.yul\":2348:2436   */\n      iszero\n      tag_334\n      jumpi\n        /* \"#utility.yul\":2416:2434   */\n      tag_334\n      tag_310\n      jump\t// in\n    tag_334:\n        /* \"#utility.yul\":2452:2454   */\n      0x40\n        /* \"#utility.yul\":2445:2467   */\n      mstore\n        /* \"#utility.yul\":2198:2473   */\n      swap2\n      swap1\n      pop\n      jump\t// out\n        /* \"#utility.yul\":2478:4276   */\n    tag_105:\n        /* \"#utility.yul\":2572:2578   */\n      0x00\n        /* \"#utility.yul\":2603:2605   */\n      0x20\n        /* \"#utility.yul\":2646:2648   */\n      dup1\n        /* \"#utility.yul\":2634:2643   */\n      dup4\n        /* \"#utility.yul\":2625:2632   */\n      dup6\n        /* \"#utility.yul\":2621:2644   */\n      sub\n        /* \"#utility.yul\":2617:2649   */\n      slt\n        /* \"#utility.yul\":2614:2666   */\n      iszero\n      tag_336\n      jumpi\n        /* \"#utility.yul\":2662:2663   */\n      0x00\n        /* \"#utility.yul\":2659:2660   */\n      dup1\n        /* \"#utility.yul\":2652:2664   */\n      revert\n        /* \"#utility.yul\":2614:2666   */\n    tag_336:\n        /* \"#utility.yul\":2702:2711   */\n      dup3\n        /* \"#utility.yul\":2689:2712   */\n      calldataload\n        /* \"#utility.yul\":2731:2749   */\n      0xffffffffffffffff\n        /* \"#utility.yul\":2772:2774   */\n      dup1\n        /* \"#utility.yul\":2764:2770   */\n      dup3\n        /* \"#utility.yul\":2761:2775   */\n      gt\n        /* \"#utility.yul\":2758:2792   */\n      iszero\n      tag_337\n      jumpi\n        /* \"#utility.yul\":2788:2789   */\n      0x00\n        /* \"#utility.yul\":2785:2786   */\n      dup1\n        /* \"#utility.yul\":2778:2790   */\n      revert\n        /* \"#utility.yul\":2758:2792   */\n    tag_337:\n        /* \"#utility.yul\":2826:2832   */\n      dup2\n        /* \"#utility.yul\":2815:2824   */\n      dup6\n        /* \"#utility.yul\":2811:2833   */\n      add\n        /* \"#utility.yul\":2801:2833   */\n      swap2\n      pop\n        /* \"#utility.yul\":2852:2856   */\n      0x1f\n        /* \"#utility.yul\":2892:2899   */\n      dup7\n        /* \"#utility.yul\":2887:2889   */\n      dup2\n        /* \"#utility.yul\":2883:2885   */\n      dup5\n        /* \"#utility.yul\":2879:2890   */\n      add\n        /* \"#utility.yul\":2875:2900   */\n      slt\n        /* \"#utility.yul\":2865:2918   */\n      tag_338\n      jumpi\n        /* \"#utility.yul\":2914:2915   */\n      0x00\n        /* \"#utility.yul\":2911:2912   */\n      dup1\n        /* \"#utility.yul\":2904:2916   */\n      revert\n        /* \"#utility.yul\":2865:2918   */\n    tag_338:\n        /* \"#utility.yul\":2950:2952   */\n      dup3\n        /* \"#utility.yul\":2937:2953   */\n      calldataload\n        /* \"#utility.yul\":2972:2974   */\n      dup3\n        /* \"#utility.yul\":2968:2970   */\n      dup2\n        /* \"#utility.yul\":2965:2975   */\n      gt\n        /* \"#utility.yul\":2962:2998   */\n      iszero\n      tag_340\n      jumpi\n        /* \"#utility.yul\":2978:2996   */\n      tag_340\n      tag_310\n      jump\t// in\n    tag_340:\n        /* \"#utility.yul\":3024:3026   */\n      dup1\n        /* \"#utility.yul\":3021:3022   */\n      0x05\n        /* \"#utility.yul\":3017:3027   */\n      shl\n        /* \"#utility.yul\":3047:3075   */\n      tag_341\n        /* \"#utility.yul\":3071:3073   */\n      dup7\n        /* \"#utility.yul\":3067:3069   */\n      dup3\n        /* \"#utility.yul\":3063:3074   */\n      add\n        /* \"#utility.yul\":3047:3075   */\n      tag_311\n      jump\t// in\n    tag_341:\n        /* \"#utility.yul\":3109:3124   */\n      swap2\n      dup3\n      mstore\n        /* \"#utility.yul\":3179:3190   */\n      dup5\n      dup2\n      add\n        /* \"#utility.yul\":3175:3195   */\n      dup7\n      add\n      swap2\n        /* \"#utility.yul\":3140:3152   */\n      dup7\n      dup2\n      add\n      swap1\n        /* \"#utility.yul\":3207:3226   */\n      dup11\n      dup5\n      gt\n        /* \"#utility.yul\":3204:3243   */\n      iszero\n      tag_342\n      jumpi\n        /* \"#utility.yul\":3239:3240   */\n      0x00\n        /* \"#utility.yul\":3236:3237   */\n      dup1\n        /* \"#utility.yul\":3229:3241   */\n      revert\n        /* \"#utility.yul\":3204:3243   */\n    tag_342:\n        /* \"#utility.yul\":3271:3273   */\n      dup8\n        /* \"#utility.yul\":3267:3269   */\n      dup8\n        /* \"#utility.yul\":3263:3274   */\n      add\n        /* \"#utility.yul\":3252:3274   */\n      swap3\n      pop\n        /* \"#utility.yul\":3283:4246   */\n    tag_343:\n        /* \"#utility.yul\":3299:3305   */\n      dup4\n        /* \"#utility.yul\":3294:3297   */\n      dup4\n        /* \"#utility.yul\":3291:3306   */\n      lt\n        /* \"#utility.yul\":3283:4246   */\n      iszero\n      tag_345\n      jumpi\n        /* \"#utility.yul\":3385:3388   */\n      dup3\n        /* \"#utility.yul\":3372:3389   */\n      calldataload\n        /* \"#utility.yul\":3421:3423   */\n      dup7\n        /* \"#utility.yul\":3408:3419   */\n      dup2\n        /* \"#utility.yul\":3405:3424   */\n      gt\n        /* \"#utility.yul\":3402:3511   */\n      iszero\n      tag_346\n      jumpi\n        /* \"#utility.yul\":3465:3466   */\n      0x00\n        /* \"#utility.yul\":3494:3496   */\n      dup1\n        /* \"#utility.yul\":3490:3492   */\n      dup2\n        /* \"#utility.yul\":3483:3497   */\n      revert\n        /* \"#utility.yul\":3402:3511   */\n    tag_346:\n        /* \"#utility.yul\":3534:3554   */\n      dup8\n      add\n        /* \"#utility.yul\":3589:3591   */\n      0x3f\n        /* \"#utility.yul\":3581:3592   */\n      dup2\n      add\n        /* \"#utility.yul\":3577:3602   */\n      dup13\n      sgt\n        /* \"#utility.yul\":3567:3690   */\n      tag_347\n      jumpi\n        /* \"#utility.yul\":3644:3645   */\n      0x00\n        /* \"#utility.yul\":3673:3675   */\n      dup1\n        /* \"#utility.yul\":3669:3671   */\n      dup2\n        /* \"#utility.yul\":3662:3676   */\n      revert\n        /* \"#utility.yul\":3567:3690   */\n    tag_347:\n        /* \"#utility.yul\":3735:3737   */\n      dup9\n        /* \"#utility.yul\":3731:3733   */\n      dup2\n        /* \"#utility.yul\":3727:3738   */\n      add\n        /* \"#utility.yul\":3714:3739   */\n      calldataload\n        /* \"#utility.yul\":3763:3765   */\n      0x40\n        /* \"#utility.yul\":3789:3791   */\n      dup9\n        /* \"#utility.yul\":3784:3787   */\n      dup3\n        /* \"#utility.yul\":3781:3792   */\n      gt\n        /* \"#utility.yul\":3778:3815   */\n      iszero\n      tag_349\n      jumpi\n        /* \"#utility.yul\":3795:3813   */\n      tag_349\n      tag_310\n      jump\t// in\n    tag_349:\n        /* \"#utility.yul\":3841:3893   */\n      tag_350\n        /* \"#utility.yul\":3865:3877   */\n      dup3\n      dup10\n      add\n      not(0x1f)\n        /* \"#utility.yul\":3861:3887   */\n      and\n        /* \"#utility.yul\":3857:3892   */\n      dup13\n      add\n        /* \"#utility.yul\":3841:3893   */\n      tag_311\n      jump\t// in\n    tag_350:\n        /* \"#utility.yul\":3920:3923   */\n      dup3\n        /* \"#utility.yul\":3913:3918   */\n      dup2\n        /* \"#utility.yul\":3906:3924   */\n      mstore\n        /* \"#utility.yul\":3967:3974   */\n      dup15\n        /* \"#utility.yul\":3961:3964   */\n      dup3\n        /* \"#utility.yul\":3955:3958   */\n      dup5\n        /* \"#utility.yul\":3951:3953   */\n      dup7\n        /* \"#utility.yul\":3947:3959   */\n      add\n        /* \"#utility.yul\":3943:3965   */\n      add\n        /* \"#utility.yul\":3940:3975   */\n      gt\n        /* \"#utility.yul\":3937:4065   */\n      iszero\n      tag_351\n      jumpi\n        /* \"#utility.yul\":4017:4018   */\n      0x00\n        /* \"#utility.yul\":4047:4050   */\n      dup1\n        /* \"#utility.yul\":4042:4045   */\n      dup2\n        /* \"#utility.yul\":4035:4051   */\n      revert\n        /* \"#utility.yul\":3937:4065   */\n    tag_351:\n        /* \"#utility.yul\":4121:4124   */\n      dup3\n        /* \"#utility.yul\":4115:4118   */\n      dup3\n        /* \"#utility.yul\":4111:4113   */\n      dup6\n        /* \"#utility.yul\":4107:4119   */\n      add\n        /* \"#utility.yul\":4102:4104   */\n      dup14\n        /* \"#utility.yul\":4095:4100   */\n      dup4\n        /* \"#utility.yul\":4091:4105   */\n      add\n        /* \"#utility.yul\":4078:4125   */\n      calldatacopy\n        /* \"#utility.yul\":4171:4172   */\n      0x00\n        /* \"#utility.yul\":4149:4164   */\n      swap3\n      dup2\n      add\n        /* \"#utility.yul\":4145:4169   */\n      dup13\n      add\n        /* \"#utility.yul\":4138:4173   */\n      swap3\n      swap1\n      swap3\n      mstore\n      pop\n        /* \"#utility.yul\":4186:4204   */\n      dup4\n      mstore\n      pop\n        /* \"#utility.yul\":3316:3328   */\n      swap2\n      dup8\n      add\n      swap2\n        /* \"#utility.yul\":4224:4236   */\n      swap1\n      dup8\n      add\n      swap1\n        /* \"#utility.yul\":3283:4246   */\n      jump(tag_343)\n    tag_345:\n        /* \"#utility.yul\":4265:4270   */\n      swap11\n        /* \"#utility.yul\":2478:4276   */\n      swap10\n      pop\n      pop\n      pop\n      pop\n      pop\n      pop\n      pop\n      pop\n      pop\n      pop\n      jump\t// out\n        /* \"#utility.yul\":4281:4661   */\n    tag_132:\n        /* \"#utility.yul\":4360:4361   */\n      0x01\n        /* \"#utility.yul\":4356:4368   */\n      dup2\n      dup2\n      shr\n      swap1\n        /* \"#utility.yul\":4403:4415   */\n      dup3\n      and\n      dup1\n        /* \"#utility.yul\":4424:4485   */\n      tag_353\n      jumpi\n        /* \"#utility.yul\":4478:4482   */\n      0x7f\n        /* \"#utility.yul\":4470:4476   */\n      dup3\n        /* \"#utility.yul\":4466:4483   */\n      and\n        /* \"#utility.yul\":4456:4483   */\n      swap2\n      pop\n        /* \"#utility.yul\":4424:4485   */\n    tag_353:\n        /* \"#utility.yul\":4531:4533   */\n      0x20\n        /* \"#utility.yul\":4523:4529   */\n      dup3\n        /* \"#utility.yul\":4520:4534   */\n      lt\n        /* \"#utility.yul\":4500:4518   */\n      dup2\n        /* \"#utility.yul\":4497:4535   */\n      sub\n        /* \"#utility.yul\":4494:4655   */\n      tag_354\n      jumpi\n        /* \"#utility.yul\":4577:4587   */\n      0x4e487b71\n        /* \"#utility.yul\":4572:4575   */\n      0xe0\n        /* \"#utility.yul\":4568:4588   */\n      shl\n        /* \"#utility.yul\":4565:4566   */\n      0x00\n        /* \"#utility.yul\":4558:4589   */\n      mstore\n        /* \"#utility.yul\":4612:4616   */\n      0x22\n        /* \"#utility.yul\":4609:4610   */\n      0x04\n        /* \"#utility.yul\":4602:4617   */\n      mstore\n        /* \"#utility.yul\":4640:4644   */\n      0x24\n        /* \"#utility.yul\":4637:4638   */\n      0x00\n        /* \"#utility.yul\":4630:4645   */\n      revert\n        /* \"#utility.yul\":4494:4655   */\n    tag_354:\n      pop\n        /* \"#utility.yul\":4281:4661   */\n      swap2\n      swap1\n      pop\n      jump\t// out\n        /* \"#utility.yul\":4792:5337   */\n    tag_313:\n        /* \"#utility.yul\":4894:4896   */\n      0x1f\n        /* \"#utility.yul\":4889:4892   */\n      dup3\n        /* \"#utility.yul\":4886:4897   */\n      gt\n        /* \"#utility.yul\":4883:5331   */\n      iszero\n      tag_357\n      jumpi\n        /* \"#utility.yul\":4930:4931   */\n      0x00\n        /* \"#utility.yul\":4955:4960   */\n      dup2\n        /* \"#utility.yul\":4951:4953   */\n      dup2\n        /* \"#utility.yul\":4944:4961   */\n      mstore\n        /* \"#utility.yul\":5000:5004   */\n      0x20\n        /* \"#utility.yul\":4996:4998   */\n      dup2\n        /* \"#utility.yul\":4986:5005   */\n      keccak256\n        /* \"#utility.yul\":5070:5072   */\n      0x1f\n        /* \"#utility.yul\":5058:5068   */\n      dup6\n        /* \"#utility.yul\":5054:5073   */\n      add\n        /* \"#utility.yul\":5051:5052   */\n      0x05\n        /* \"#utility.yul\":5047:5074   */\n      shr\n        /* \"#utility.yul\":5041:5045   */\n      dup2\n        /* \"#utility.yul\":5037:5075   */\n      add\n        /* \"#utility.yul\":5106:5110   */\n      0x20\n        /* \"#utility.yul\":5094:5104   */\n      dup7\n        /* \"#utility.yul\":5091:5111   */\n      lt\n        /* \"#utility.yul\":5088:5135   */\n      iszero\n      tag_358\n      jumpi\n      pop\n        /* \"#utility.yul\":5129:5133   */\n      dup1\n        /* \"#utility.yul\":5088:5135   */\n    tag_358:\n        /* \"#utility.yul\":5184:5186   */\n      0x1f\n        /* \"#utility.yul\":5179:5182   */\n      dup6\n        /* \"#utility.yul\":5175:5187   */\n      add\n        /* \"#utility.yul\":5172:5173   */\n      0x05\n        /* \"#utility.yul\":5168:5188   */\n      shr\n        /* \"#utility.yul\":5162:5166   */\n      dup3\n        /* \"#utility.yul\":5158:5189   */\n      add\n        /* \"#utility.yul\":5148:5189   */\n      swap2\n      pop\n        /* \"#utility.yul\":5239:5321   */\n    tag_359:\n        /* \"#utility.yul\":5257:5259   */\n      dup2\n        /* \"#utility.yul\":5250:5255   */\n      dup2\n        /* \"#utility.yul\":5247:5260   */\n      lt\n        /* \"#utility.yul\":5239:5321   */\n      iszero\n      tag_361\n      jumpi\n        /* \"#utility.yul\":5302:5319   */\n      dup3\n      dup2\n      sstore\n        /* \"#utility.yul\":5283:5284   */\n      0x01\n        /* \"#utility.yul\":5272:5285   */\n      add\n        /* \"#utility.yul\":5239:5321   */\n      jump(tag_359)\n    tag_361:\n        /* \"#utility.yul\":5243:5246   */\n      pop\n      pop\n      pop\n        /* \"#utility.yul\":4883:5331   */\n    tag_357:\n        /* \"#utility.yul\":4792:5337   */\n      pop\n      pop\n      pop\n      jump\t// out\n        /* \"#utility.yul\":5513:6865   */\n    tag_153:\n        /* \"#utility.yul\":5639:5642   */\n      dup2\n        /* \"#utility.yul\":5633:5643   */\n      mload\n        /* \"#utility.yul\":5666:5684   */\n      0xffffffffffffffff\n        /* \"#utility.yul\":5658:5664   */\n      dup2\n        /* \"#utility.yul\":5655:5685   */\n      gt\n        /* \"#utility.yul\":5652:5708   */\n      iszero\n      tag_365\n      jumpi\n        /* \"#utility.yul\":5688:5706   */\n      tag_365\n      tag_310\n      jump\t// in\n    tag_365:\n        /* \"#utility.yul\":5717:5814   */\n      tag_366\n        /* \"#utility.yul\":5807:5813   */\n      dup2\n        /* \"#utility.yul\":5767:5805   */\n      tag_367\n        /* \"#utility.yul\":5799:5803   */\n      dup5\n        /* \"#utility.yul\":5793:5804   */\n      sload\n        /* \"#utility.yul\":5767:5805   */\n      tag_132\n      jump\t// in\n    tag_367:\n        /* \"#utility.yul\":5761:5765   */\n      dup5\n        /* \"#utility.yul\":5717:5814   */\n      tag_313\n      jump\t// in\n    tag_366:\n        /* \"#utility.yul\":5869:5873   */\n      0x20\n      dup1\n        /* \"#utility.yul\":5933:5935   */\n      0x1f\n        /* \"#utility.yul\":5922:5936   */\n      dup4\n      gt\n        /* \"#utility.yul\":5950:5951   */\n      0x01\n        /* \"#utility.yul\":5945:6608   */\n      dup2\n      eq\n      tag_369\n      jumpi\n        /* \"#utility.yul\":6652:6653   */\n      0x00\n        /* \"#utility.yul\":6669:6675   */\n      dup5\n        /* \"#utility.yul\":6666:6755   */\n      iszero\n      tag_370\n      jumpi\n      pop\n        /* \"#utility.yul\":6721:6740   */\n      dup6\n      dup4\n      add\n        /* \"#utility.yul\":6715:6741   */\n      mload\n        /* \"#utility.yul\":6666:6755   */\n    tag_370:\n      not(0x00)\n        /* \"#utility.yul\":5470:5471   */\n      0x03\n        /* \"#utility.yul\":5466:5477   */\n      dup7\n      swap1\n      shl\n        /* \"#utility.yul\":5462:5486   */\n      shr\n        /* \"#utility.yul\":5458:5487   */\n      not\n        /* \"#utility.yul\":5448:5488   */\n      and\n        /* \"#utility.yul\":5494:5495   */\n      0x01\n        /* \"#utility.yul\":5490:5501   */\n      dup6\n      swap1\n      shl\n        /* \"#utility.yul\":5445:5502   */\n      or\n        /* \"#utility.yul\":6768:6849   */\n      dup6\n      sstore\n        /* \"#utility.yul\":5915:6859   */\n      jump(tag_361)\n        /* \"#utility.yul\":5945:6608   */\n    tag_369:\n        /* \"#utility.yul\":4739:4740   */\n      0x00\n        /* \"#utility.yul\":4732:4746   */\n      dup6\n      dup2\n      mstore\n        /* \"#utility.yul\":4776:4780   */\n      0x20\n        /* \"#utility.yul\":4763:4781   */\n      dup2\n      keccak256\n      not(0x1f)\n        /* \"#utility.yul\":5981:6001   */\n      dup7\n      and\n      swap2\n        /* \"#utility.yul\":6099:6335   */\n    tag_373:\n        /* \"#utility.yul\":6113:6120   */\n      dup3\n        /* \"#utility.yul\":6110:6111   */\n      dup2\n        /* \"#utility.yul\":6107:6121   */\n      lt\n        /* \"#utility.yul\":6099:6335   */\n      iszero\n      tag_375\n      jumpi\n        /* \"#utility.yul\":6202:6221   */\n      dup9\n      dup7\n      add\n        /* \"#utility.yul\":6196:6222   */\n      mload\n        /* \"#utility.yul\":6181:6223   */\n      dup3\n      sstore\n        /* \"#utility.yul\":6294:6321   */\n      swap5\n      dup5\n      add\n      swap5\n        /* \"#utility.yul\":6262:6263   */\n      0x01\n        /* \"#utility.yul\":6250:6264   */\n      swap1\n      swap2\n      add\n      swap1\n        /* \"#utility.yul\":6129:6148   */\n      dup5\n      add\n        /* \"#utility.yul\":6099:6335   */\n      jump(tag_373)\n    tag_375:\n        /* \"#utility.yul\":6103:6106   */\n      pop\n        /* \"#utility.yul\":6363:6369   */\n      dup6\n        /* \"#utility.yul\":6354:6361   */\n      dup3\n        /* \"#utility.yul\":6351:6370   */\n      lt\n        /* \"#utility.yul\":6348:6549   */\n      iszero\n      tag_376\n      jumpi\n        /* \"#utility.yul\":6424:6443   */\n      dup8\n      dup6\n      add\n        /* \"#utility.yul\":6418:6444   */\n      mload\n      not(0x00)\n        /* \"#utility.yul\":6507:6508   */\n      0x03\n        /* \"#utility.yul\":6503:6517   */\n      dup9\n      swap1\n      shl\n        /* \"#utility.yul\":6519:6522   */\n      0xf8\n        /* \"#utility.yul\":6499:6523   */\n      and\n        /* \"#utility.yul\":6495:6532   */\n      shr\n        /* \"#utility.yul\":6491:6533   */\n      not\n        /* \"#utility.yul\":6476:6534   */\n      and\n        /* \"#utility.yul\":6461:6535   */\n      dup2\n      sstore\n        /* \"#utility.yul\":6348:6549   */\n    tag_376:\n      pop\n      pop\n      pop\n      pop\n      pop\n        /* \"#utility.yul\":6595:6596   */\n      0x01\n        /* \"#utility.yul\":6579:6593   */\n      swap1\n      dup2\n      shl\n        /* \"#utility.yul\":6575:6597   */\n      add\n        /* \"#utility.yul\":6562:6598   */\n      swap1\n      sstore\n      pop\n        /* \"#utility.yul\":5513:6865   */\n      jump\t// out\n        /* \"#utility.yul\":6870:7135   */\n    tag_232:\n        /* \"#utility.yul\":6910:6917   */\n      0x00\n        /* \"#utility.yul\":6976:6977   */\n      dup2\n        /* \"#utility.yul\":6972:6973   */\n      0x00\n        /* \"#utility.yul\":6968:6974   */\n      not\n        /* \"#utility.yul\":6964:6978   */\n      div\n        /* \"#utility.yul\":6961:6962   */\n      dup4\n        /* \"#utility.yul\":6958:6979   */\n      gt\n        /* \"#utility.yul\":6953:6954   */\n      dup3\n        /* \"#utility.yul\":6946:6955   */\n      iszero\n        /* \"#utility.yul\":6939:6956   */\n      iszero\n        /* \"#utility.yul\":6935:6980   */\n      and\n        /* \"#utility.yul\":6932:7100   */\n      iszero\n      tag_378\n      jumpi\n        /* \"#utility.yul\":7022:7032   */\n      0x4e487b71\n        /* \"#utility.yul\":7017:7020   */\n      0xe0\n        /* \"#utility.yul\":7013:7033   */\n      shl\n        /* \"#utility.yul\":7010:7011   */\n      0x00\n        /* \"#utility.yul\":7003:7034   */\n      mstore\n        /* \"#utility.yul\":7057:7061   */\n      0x11\n        /* \"#utility.yul\":7054:7055   */\n      0x04\n        /* \"#utility.yul\":7047:7062   */\n      mstore\n        /* \"#utility.yul\":7085:7089   */\n      0x24\n        /* \"#utility.yul\":7082:7083   */\n      0x00\n        /* \"#utility.yul\":7075:7090   */\n      revert\n        /* \"#utility.yul\":6932:7100   */\n    tag_378:\n      pop\n        /* \"#utility.yul\":7120:7129   */\n      mul\n      swap1\n        /* \"#utility.yul\":6870:7135   */\n      jump\t// out\n        /* \"#utility.yul\":7140:7357   */\n    tag_234:\n        /* \"#utility.yul\":7180:7181   */\n      0x00\n        /* \"#utility.yul\":7206:7207   */\n      dup3\n        /* \"#utility.yul\":7196:7328   */\n      tag_380\n      jumpi\n        /* \"#utility.yul\":7250:7260   */\n      0x4e487b71\n        /* \"#utility.yul\":7245:7248   */\n      0xe0\n        /* \"#utility.yul\":7241:7261   */\n      shl\n        /* \"#utility.yul\":7238:7239   */\n      0x00\n        /* \"#utility.yul\":7231:7262   */\n      mstore\n        /* \"#utility.yul\":7285:7289   */\n      0x12\n        /* \"#utility.yul\":7282:7283   */\n      0x04\n        /* \"#utility.yul\":7275:7290   */\n      mstore\n        /* \"#utility.yul\":7313:7317   */\n      0x24\n        /* \"#utility.yul\":7310:7311   */\n      0x00\n        /* \"#utility.yul\":7303:7318   */\n      revert\n        /* \"#utility.yul\":7196:7328   */\n    tag_380:\n      pop\n        /* \"#utility.yul\":7342:7351   */\n      div\n      swap1\n        /* \"#utility.yul\":7140:7357   */\n      jump\t// out\n\n    auxdata: 0xa26469706673582212209f78a22016521ac4ee182fe9c0a93e8762482a99afc5e07cb96dd82c5273fa1a64736f6c63430008100033\n}\n","bytecode":{"linkReferences":{},"object":"60806040526040516200152c3803806200152c8339810160408190526200002691620001fd565b600080546001600160a01b0319166001600160a01b03831617905560646200005034605f620002f0565b6200005c91906200031e565b60035560646200006e346005620002f0565b6200007a91906200031e565b6004554260075560088890556005620000948882620003d0565b506006620000a38782620003d0565b50600c859055600e620000b78582620003d0565b50600f620000c68482620003d0565b50600180546001600160a01b0319166001600160a01b03841617905560408051808201909152600481526337b832b760e11b60208201526009906200010c9082620003d0565b5050505050505050506200049c565b634e487b7160e01b600052604160045260246000fd5b600082601f8301126200014357600080fd5b81516001600160401b03808211156200016057620001606200011b565b604051601f8301601f19908116603f011681019082821181831017156200018b576200018b6200011b565b81604052838152602092508683858801011115620001a857600080fd5b600091505b83821015620001cc5785820183015181830184015290820190620001ad565b600093810190920192909252949350505050565b80516001600160a01b0381168114620001f857600080fd5b919050565b600080600080600080600080610100898b0312156200021b57600080fd5b885160208a01519098506001600160401b03808211156200023b57600080fd5b620002498c838d0162000131565b985060408b01519150808211156200026057600080fd5b6200026e8c838d0162000131565b975060608b0151965060808b01519150808211156200028c57600080fd5b6200029a8c838d0162000131565b955060a08b0151915080821115620002b157600080fd5b50620002c08b828c0162000131565b935050620002d160c08a01620001e0565b9150620002e160e08a01620001e0565b90509295985092959890939650565b60008160001904831182151516156200031957634e487b7160e01b600052601160045260246000fd5b500290565b6000826200033c57634e487b7160e01b600052601260045260246000fd5b500490565b600181811c908216806200035657607f821691505b6020821081036200037757634e487b7160e01b600052602260045260246000fd5b50919050565b601f821115620003cb57600081815260208120601f850160051c81016020861015620003a65750805b601f850160051c820191505b81811015620003c757828155600101620003b2565b5050505b505050565b81516001600160401b03811115620003ec57620003ec6200011b565b6200040481620003fd845462000341565b846200037d565b602080601f8311600181146200043c5760008415620004235750858301515b600019600386901b1c1916600185901b178555620003c7565b600085815260208120601f198616915b828110156200046d578886015182559484019460019091019084016200044c565b50858210156200048c5787850151600019600388901b60f8161c191681555b5050505050600190811b01905550565b61108080620004ac6000396000f3fe6080604052600436106101665760003560e01c80636a2e23f5116100d1578063af3b19e51161008a578063d5252dcf11610064578063d5252dcf1461039a578063e050ced2146103ba578063f0de67ac146103cf578063f32370e7146103e457600080fd5b8063af3b19e514610367578063b1cb0db31461036f578063cc5be5741461038557600080fd5b80636a2e23f5146102cf5780636a76ae98146102e457806397e9a0bf146103065780639b221c7d1461031c5780639d9e27d914610332578063add08a8e1461034757600080fd5b80632d237d21116101235780632d237d211461023a578063325a19f11461025a5780633283f641146102705780634bde38c814610285578063516f279e146102a5578063610be654146102ba57600080fd5b8063010ec4411461016b5780631b9265b8146101a8578063200d2ed2146101ca57806326232a2e146101df5780632804b2c014610203578063295f1b4d14610223575b600080fd5b34801561017757600080fd5b5060025461018b906001600160a01b031681565b6040516001600160a01b0390911681526020015b60405180910390f35b3480156101b457600080fd5b506101bd6103ec565b60405161019f9190610cbd565b3480156101d657600080fd5b506101bd61047a565b3480156101eb57600080fd5b506101f560045481565b60405190815260200161019f565b34801561020f57600080fd5b5060005461018b906001600160a01b031681565b34801561022f57600080fd5b50610238610487565b005b34801561024657600080fd5b506101bd610255366004610cd7565b61058a565b34801561026657600080fd5b506101f560075481565b34801561027c57600080fd5b506101bd6105b5565b34801561029157600080fd5b5060015461018b906001600160a01b031681565b3480156102b157600080fd5b506101bd6105c2565b3480156102c657600080fd5b506102386105cf565b3480156102db57600080fd5b50610238610704565b3480156102f057600080fd5b506102f961080f565b60405161019f9190610cf0565b34801561031257600080fd5b506101f560035481565b34801561032857600080fd5b506101f5600c5481565b34801561033e57600080fd5b506101bd6108e8565b34801561035357600080fd5b50610238610362366004610d99565b6108f5565b610238610972565b34801561037b57600080fd5b506101f560085481565b34801561039157600080fd5b506101bd610a7a565b3480156103a657600080fd5b506102386103b5366004610cd7565b610a87565b3480156103c657600080fd5b506101bd610af0565b3480156103db57600080fd5b506101bd610afd565b610238610b0a565b600a80546103f990610eb2565b80601f016020809104026020016040519081016040528092919081815260200182805461042590610eb2565b80156104725780601f1061044757610100808354040283529160200191610472565b820191906000526020600020905b81548152906001019060200180831161045557829003601f168201915b505050505081565b600980546103f990610eb2565b61053b6009805461049790610eb2565b80601f01602080910402602001604051908101604052809291908181526020018280546104c390610eb2565b80156105105780601f106104e557610100808354040283529160200191610510565b820191906000526020600020905b8154815290600101906020018083116104f357829003601f168201915b5050505050604051806040016040528060088152602001671c1c9bdc1bdcd95960c21b815250610b31565b61054457600080fd5b6000546001600160a01b0316331461055b57600080fd5b604080518082019091526008815267191a5cdc1d5d195960c21b60208201526009906105879082610f3b565b50565b6010818154811061059a57600080fd5b9060005260206000200160009150905080546103f990610eb2565b600580546103f990610eb2565b600f80546103f990610eb2565b6000546001600160a01b031633146105e657600080fd5b610696600980546105f690610eb2565b80601f016020809104026020016040519081016040528092919081815260200182805461062290610eb2565b801561066f5780601f106106445761010080835404028352916020019161066f565b820191906000526020600020905b81548152906001019060200180831161065257829003601f168201915b50505050506040518060400160405280600481526020016337b832b760e11b815250610b31565b61069f57600080fd5b60408051808201909152600681526518db1bdcd95960d21b60208201526009906106c99082610f3b565b50600080546040516001600160a01b03909116914780156108fc02929091818181858888f19350505050158015610587573d6000803e3d6000fd5b6001546001600160a01b0316331461071b57600080fd5b6107cf6009805461072b90610eb2565b80601f016020809104026020016040519081016040528092919081815260200182805461075790610eb2565b80156107a45780601f10610779576101008083540402835291602001916107a4565b820191906000526020600020905b81548152906001019060200180831161078757829003601f168201915b505050505060405180604001604052806008815260200167191a5cdc1d5d195960c21b815250610b31565b6107d857600080fd5b60408051808201909152600481526337b832b760e11b60208201526009906108009082610f3b565b5061080d60106000610b9c565b565b60606010805480602002602001604051908101604052809291908181526020016000905b828210156108df57838290600052602060002001805461085290610eb2565b80601f016020809104026020016040519081016040528092919081815260200182805461087e90610eb2565b80156108cb5780601f106108a0576101008083540402835291602001916108cb565b820191906000526020600020905b8154815290600101906020018083116108ae57829003601f168201915b505050505081526020019060010190610833565b50505050905090565b600e80546103f990610eb2565b600854421061090357600080fd5b610913600980546105f690610eb2565b61091c57600080fd5b600280546001600160a01b031916331790558051610941906010906020840190610bba565b506040805180820190915260088152671c1c9bdc1bdcd95960c21b602082015260099061096e9082610f3b565b5050565b6000546001600160a01b0316331461098957600080fd5b6109996009805461049790610eb2565b6109a257600080fd5b60408051808201909152600681526518db1bdcd95960d21b60208201526009906109cc9082610f3b565b5060646109da47605f610ffb565b6109e49190611028565b60035560646109f4476005610ffb565b6109fe9190611028565b6004556002546003546040516001600160a01b039092169181156108fc0291906000818181858888f19350505050158015610a3d573d6000803e3d6000fd5b506001546004546040516001600160a01b039092169181156108fc0291906000818181858888f19350505050158015610587573d6000803e3d6000fd5b600d80546103f990610eb2565b6000546001600160a01b03163314610a9e57600080fd5b610aae600980546105f690610eb2565b610ab757600080fd5b804210610ac357600080fd5b600881905560408051808201909152600481526337b832b760e11b602082015260099061096e9082610f3b565b600b80546103f990610eb2565b600680546103f990610eb2565b6001546001600160a01b03163314610b2157600080fd5b6109996009805461072b90610eb2565b60008151835114610b4457506000610b96565b81604051602001610b559190610cbd565b6040516020818303038152906040528051906020012083604051602001610b7c9190610cbd565b604051602081830303815290604052805190602001201490505b92915050565b50805460008255906000526020600020908101906105879190610c10565b828054828255906000526020600020908101928215610c00579160200282015b82811115610c005782518290610bf09082610f3b565b5091602001919060010190610bda565b50610c0c929150610c10565b5090565b80821115610c0c576000610c248282610c2d565b50600101610c10565b508054610c3990610eb2565b6000825580601f10610c49575050565b601f01602090049060005260206000209081019061058791905b80821115610c0c5760008155600101610c63565b6000815180845260005b81811015610c9d57602081850181015186830182015201610c81565b506000602082860101526020601f19601f83011685010191505092915050565b602081526000610cd06020830184610c77565b9392505050565b600060208284031215610ce957600080fd5b5035919050565b6000602080830181845280855180835260408601915060408160051b870101925083870160005b82811015610d4557603f19888603018452610d33858351610c77565b94509285019290850190600101610d17565b5092979650505050505050565b634e487b7160e01b600052604160045260246000fd5b604051601f8201601f1916810167ffffffffffffffff81118282101715610d9157610d91610d52565b604052919050565b60006020808385031215610dac57600080fd5b823567ffffffffffffffff80821115610dc457600080fd5b8185019150601f8681840112610dd957600080fd5b823582811115610deb57610deb610d52565b8060051b610dfa868201610d68565b918252848101860191868101908a841115610e1457600080fd5b87870192505b83831015610ea457823586811115610e325760008081fd5b8701603f81018c13610e445760008081fd5b88810135604088821115610e5a57610e5a610d52565b610e6b828901601f19168c01610d68565b8281528e82848601011115610e805760008081fd5b828285018d83013760009281018c0192909252508352509187019190870190610e1a565b9a9950505050505050505050565b600181811c90821680610ec657607f821691505b602082108103610ee657634e487b7160e01b600052602260045260246000fd5b50919050565b601f821115610f3657600081815260208120601f850160051c81016020861015610f135750805b601f850160051c820191505b81811015610f3257828155600101610f1f565b5050505b505050565b815167ffffffffffffffff811115610f5557610f55610d52565b610f6981610f638454610eb2565b84610eec565b602080601f831160018114610f9e5760008415610f865750858301515b600019600386901b1c1916600185901b178555610f32565b600085815260208120601f198616915b82811015610fcd57888601518255948401946001909101908401610fae565b5085821015610feb5787850151600019600388901b60f8161c191681555b5050505050600190811b01905550565b600081600019048311821515161561102357634e487b7160e01b600052601160045260246000fd5b500290565b60008261104557634e487b7160e01b600052601260045260246000fd5b50049056fea26469706673582212209f78a22016521ac4ee182fe9c0a93e8762482a99afc5e07cb96dd82c5273fa1a64736f6c63430008100033","opcodes":"PUSH1 0x80 PUSH1 0x40 MSTORE PUSH1 0x40 MLOAD PUSH3 0x152C CODESIZE SUB DUP1 PUSH3 0x152C DUP4 CODECOPY DUP2 ADD PUSH1 0x40 DUP2 SWAP1 MSTORE PUSH3 0x26 SWAP2 PUSH3 0x1FD JUMP JUMPDEST PUSH1 0x0 DUP1 SLOAD PUSH1 0x1 PUSH1 0x1 PUSH1 0xA0 SHL SUB NOT AND PUSH1 0x1 PUSH1 0x1 PUSH1 0xA0 SHL SUB DUP4 AND OR SWAP1 SSTORE PUSH1 0x64 PUSH3 0x50 CALLVALUE PUSH1 0x5F PUSH3 0x2F0 JUMP JUMPDEST PUSH3 0x5C SWAP2 SWAP1 PUSH3 0x31E JUMP JUMPDEST PUSH1 0x3 SSTORE PUSH1 0x64 PUSH3 0x6E CALLVALUE PUSH1 0x5 PUSH3 0x2F0 JUMP JUMPDEST PUSH3 0x7A SWAP2 SWAP1 PUSH3 0x31E JUMP JUMPDEST PUSH1 0x4 SSTORE TIMESTAMP PUSH1 0x7 SSTORE PUSH1 0x8 DUP9 SWAP1 SSTORE PUSH1 0x5 PUSH3 0x94 DUP9 DUP3 PUSH3 0x3D0 JUMP JUMPDEST POP PUSH1 0x6 PUSH3 0xA3 DUP8 DUP3 PUSH3 0x3D0 JUMP JUMPDEST POP PUSH1 0xC DUP6 SWAP1 SSTORE PUSH1 0xE PUSH3 0xB7 DUP6 DUP3 PUSH3 0x3D0 JUMP JUMPDEST POP PUSH1 0xF PUSH3 0xC6 DUP5 DUP3 PUSH3 0x3D0 JUMP JUMPDEST POP PUSH1 0x1 DUP1 SLOAD PUSH1 0x1 PUSH1 0x1 PUSH1 0xA0 SHL SUB NOT AND PUSH1 0x1 PUSH1 0x1 PUSH1 0xA0 SHL SUB DUP5 AND OR SWAP1 SSTORE PUSH1 0x40 DUP1 MLOAD DUP1 DUP3 ADD SWAP1 SWAP2 MSTORE PUSH1 0x4 DUP2 MSTORE PUSH4 0x37B832B7 PUSH1 0xE1 SHL PUSH1 0x20 DUP3 ADD MSTORE PUSH1 0x9 SWAP1 PUSH3 0x10C SWAP1 DUP3 PUSH3 0x3D0 JUMP JUMPDEST POP POP POP POP POP POP POP POP POP PUSH3 0x49C JUMP JUMPDEST PUSH4 0x4E487B71 PUSH1 0xE0 SHL PUSH1 0x0 MSTORE PUSH1 0x41 PUSH1 0x4 MSTORE PUSH1 0x24 PUSH1 0x0 REVERT JUMPDEST PUSH1 0x0 DUP3 PUSH1 0x1F DUP4 ADD SLT PUSH3 0x143 JUMPI PUSH1 0x0 DUP1 REVERT JUMPDEST DUP2 MLOAD PUSH1 0x1 PUSH1 0x1 PUSH1 0x40 SHL SUB DUP1 DUP3 GT ISZERO PUSH3 0x160 JUMPI PUSH3 0x160 PUSH3 0x11B JUMP JUMPDEST PUSH1 0x40 MLOAD PUSH1 0x1F DUP4 ADD PUSH1 0x1F NOT SWAP1 DUP2 AND PUSH1 0x3F ADD AND DUP2 ADD SWAP1 DUP3 DUP3 GT DUP2 DUP4 LT OR ISZERO PUSH3 0x18B JUMPI PUSH3 0x18B PUSH3 0x11B JUMP JUMPDEST DUP2 PUSH1 0x40 MSTORE DUP4 DUP2 MSTORE PUSH1 0x20 SWAP3 POP DUP7 DUP4 DUP6 DUP9 ADD ADD GT ISZERO PUSH3 0x1A8 JUMPI PUSH1 0x0 DUP1 REVERT JUMPDEST PUSH1 0x0 SWAP2 POP JUMPDEST DUP4 DUP3 LT ISZERO PUSH3 0x1CC JUMPI DUP6 DUP3 ADD DUP4 ADD MLOAD DUP2 DUP4 ADD DUP5 ADD MSTORE SWAP1 DUP3 ADD SWAP1 PUSH3 0x1AD JUMP JUMPDEST PUSH1 0x0 SWAP4 DUP2 ADD SWAP1 SWAP3 ADD SWAP3 SWAP1 SWAP3 MSTORE SWAP5 SWAP4 POP POP POP POP JUMP JUMPDEST DUP1 MLOAD PUSH1 0x1 PUSH1 0x1 PUSH1 0xA0 SHL SUB DUP2 AND DUP2 EQ PUSH3 0x1F8 JUMPI PUSH1 0x0 DUP1 REVERT JUMPDEST SWAP2 SWAP1 POP JUMP JUMPDEST PUSH1 0x0 DUP1 PUSH1 0x0 DUP1 PUSH1 0x0 DUP1 PUSH1 0x0 DUP1 PUSH2 0x100 DUP10 DUP12 SUB SLT ISZERO PUSH3 0x21B JUMPI PUSH1 0x0 DUP1 REVERT JUMPDEST DUP9 MLOAD PUSH1 0x20 DUP11 ADD MLOAD SWAP1 SWAP9 POP PUSH1 0x1 PUSH1 0x1 PUSH1 0x40 SHL SUB DUP1 DUP3 GT ISZERO PUSH3 0x23B JUMPI PUSH1 0x0 DUP1 REVERT JUMPDEST PUSH3 0x249 DUP13 DUP4 DUP14 ADD PUSH3 0x131 JUMP JUMPDEST SWAP9 POP PUSH1 0x40 DUP12 ADD MLOAD SWAP2 POP DUP1 DUP3 GT ISZERO PUSH3 0x260 JUMPI PUSH1 0x0 DUP1 REVERT JUMPDEST PUSH3 0x26E DUP13 DUP4 DUP14 ADD PUSH3 0x131 JUMP JUMPDEST SWAP8 POP PUSH1 0x60 DUP12 ADD MLOAD SWAP7 POP PUSH1 0x80 DUP12 ADD MLOAD SWAP2 POP DUP1 DUP3 GT ISZERO PUSH3 0x28C JUMPI PUSH1 0x0 DUP1 REVERT JUMPDEST PUSH3 0x29A DUP13 DUP4 DUP14 ADD PUSH3 0x131 JUMP JUMPDEST SWAP6 POP PUSH1 0xA0 DUP12 ADD MLOAD SWAP2 POP DUP1 DUP3 GT ISZERO PUSH3 0x2B1 JUMPI PUSH1 0x0 DUP1 REVERT JUMPDEST POP PUSH3 0x2C0 DUP12 DUP3 DUP13 ADD PUSH3 0x131 JUMP JUMPDEST SWAP4 POP POP PUSH3 0x2D1 PUSH1 0xC0 DUP11 ADD PUSH3 0x1E0 JUMP JUMPDEST SWAP2 POP PUSH3 0x2E1 PUSH1 0xE0 DUP11 ADD PUSH3 0x1E0 JUMP JUMPDEST SWAP1 POP SWAP3 SWAP6 SWAP9 POP SWAP3 SWAP6 SWAP9 SWAP1 SWAP4 SWAP7 POP JUMP JUMPDEST PUSH1 0x0 DUP2 PUSH1 0x0 NOT DIV DUP4 GT DUP3 ISZERO ISZERO AND ISZERO PUSH3 0x319 JUMPI PUSH4 0x4E487B71 PUSH1 0xE0 SHL PUSH1 0x0 MSTORE PUSH1 0x11 PUSH1 0x4 MSTORE PUSH1 0x24 PUSH1 0x0 REVERT JUMPDEST POP MUL SWAP1 JUMP JUMPDEST PUSH1 0x0 DUP3 PUSH3 0x33C JUMPI PUSH4 0x4E487B71 PUSH1 0xE0 SHL PUSH1 0x0 MSTORE PUSH1 0x12 PUSH1 0x4 MSTORE PUSH1 0x24 PUSH1 0x0 REVERT JUMPDEST POP DIV SWAP1 JUMP JUMPDEST PUSH1 0x1 DUP2 DUP2 SHR SWAP1 DUP3 AND DUP1 PUSH3 0x356 JUMPI PUSH1 0x7F DUP3 AND SWAP2 POP JUMPDEST PUSH1 0x20 DUP3 LT DUP2 SUB PUSH3 0x377 JUMPI PUSH4 0x4E487B71 PUSH1 0xE0 SHL PUSH1 0x0 MSTORE PUSH1 0x22 PUSH1 0x4 MSTORE PUSH1 0x24 PUSH1 0x0 REVERT JUMPDEST POP SWAP2 SWAP1 POP JUMP JUMPDEST PUSH1 0x1F DUP3 GT ISZERO PUSH3 0x3CB JUMPI PUSH1 0x0 DUP2 DUP2 MSTORE PUSH1 0x20 DUP2 KECCAK256 PUSH1 0x1F DUP6 ADD PUSH1 0x5 SHR DUP2 ADD PUSH1 0x20 DUP7 LT ISZERO PUSH3 0x3A6 JUMPI POP DUP1 JUMPDEST PUSH1 0x1F DUP6 ADD PUSH1 0x5 SHR DUP3 ADD SWAP2 POP JUMPDEST DUP2 DUP2 LT ISZERO PUSH3 0x3C7 JUMPI DUP3 DUP2 SSTORE PUSH1 0x1 ADD PUSH3 0x3B2 JUMP JUMPDEST POP POP POP JUMPDEST POP POP POP JUMP JUMPDEST DUP2 MLOAD PUSH1 0x1 PUSH1 0x1 PUSH1 0x40 SHL SUB DUP2 GT ISZERO PUSH3 0x3EC JUMPI PUSH3 0x3EC PUSH3 0x11B JUMP JUMPDEST PUSH3 0x404 DUP2 PUSH3 0x3FD DUP5 SLOAD PUSH3 0x341 JUMP JUMPDEST DUP5 PUSH3 0x37D JUMP JUMPDEST PUSH1 0x20 DUP1 PUSH1 0x1F DUP4 GT PUSH1 0x1 DUP2 EQ PUSH3 0x43C JUMPI PUSH1 0x0 DUP5 ISZERO PUSH3 0x423 JUMPI POP DUP6 DUP4 ADD MLOAD JUMPDEST PUSH1 0x0 NOT PUSH1 0x3 DUP7 SWAP1 SHL SHR NOT AND PUSH1 0x1 DUP6 SWAP1 SHL OR DUP6 SSTORE PUSH3 0x3C7 JUMP JUMPDEST PUSH1 0x0 DUP6 DUP2 MSTORE PUSH1 0x20 DUP2 KECCAK256 PUSH1 0x1F NOT DUP7 AND SWAP2 JUMPDEST DUP3 DUP2 LT ISZERO PUSH3 0x46D JUMPI DUP9 DUP7 ADD MLOAD DUP3 SSTORE SWAP5 DUP5 ADD SWAP5 PUSH1 0x1 SWAP1 SWAP2 ADD SWAP1 DUP5 ADD PUSH3 0x44C JUMP JUMPDEST POP DUP6 DUP3 LT ISZERO PUSH3 0x48C JUMPI DUP8 DUP6 ADD MLOAD PUSH1 0x0 NOT PUSH1 0x3 DUP9 SWAP1 SHL PUSH1 0xF8 AND SHR NOT AND DUP2 SSTORE JUMPDEST POP POP POP POP POP PUSH1 0x1 SWAP1 DUP2 SHL ADD SWAP1 SSTORE POP JUMP JUMPDEST PUSH2 0x1080 DUP1 PUSH3 0x4AC PUSH1 0x0 CODECOPY PUSH1 0x0 RETURN INVALID PUSH1 0x80 PUSH1 0x40 MSTORE PUSH1 0x4 CALLDATASIZE LT PUSH2 0x166 JUMPI PUSH1 0x0 CALLDATALOAD PUSH1 0xE0 SHR DUP1 PUSH4 0x6A2E23F5 GT PUSH2 0xD1 JUMPI DUP1 PUSH4 0xAF3B19E5 GT PUSH2 0x8A JUMPI DUP1 PUSH4 0xD5252DCF GT PUSH2 0x64 JUMPI DUP1 PUSH4 0xD5252DCF EQ PUSH2 0x39A JUMPI DUP1 PUSH4 0xE050CED2 EQ PUSH2 0x3BA JUMPI DUP1 PUSH4 0xF0DE67AC EQ PUSH2 0x3CF JUMPI DUP1 PUSH4 0xF32370E7 EQ PUSH2 0x3E4 JUMPI PUSH1 0x0 DUP1 REVERT JUMPDEST DUP1 PUSH4 0xAF3B19E5 EQ PUSH2 0x367 JUMPI DUP1 PUSH4 0xB1CB0DB3 EQ PUSH2 0x36F JUMPI DUP1 PUSH4 0xCC5BE574 EQ PUSH2 0x385 JUMPI PUSH1 0x0 DUP1 REVERT JUMPDEST DUP1 PUSH4 0x6A2E23F5 EQ PUSH2 0x2CF JUMPI DUP1 PUSH4 0x6A76AE98 EQ PUSH2 0x2E4 JUMPI DUP1 PUSH4 0x97E9A0BF EQ PUSH2 0x306 JUMPI DUP1 PUSH4 0x9B221C7D EQ PUSH2 0x31C JUMPI DUP1 PUSH4 0x9D9E27D9 EQ PUSH2 0x332 JUMPI DUP1 PUSH4 0xADD08A8E EQ PUSH2 0x347 JUMPI PUSH1 0x0 DUP1 REVERT JUMPDEST DUP1 PUSH4 0x2D237D21 GT PUSH2 0x123 JUMPI DUP1 PUSH4 0x2D237D21 EQ PUSH2 0x23A JUMPI DUP1 PUSH4 0x325A19F1 EQ PUSH2 0x25A JUMPI DUP1 PUSH4 0x3283F641 EQ PUSH2 0x270 JUMPI DUP1 PUSH4 0x4BDE38C8 EQ PUSH2 0x285 JUMPI DUP1 PUSH4 0x516F279E EQ PUSH2 0x2A5 JUMPI DUP1 PUSH4 0x610BE654 EQ PUSH2 0x2BA JUMPI PUSH1 0x0 DUP1 REVERT JUMPDEST DUP1 PUSH4 0x10EC441 EQ PUSH2 0x16B JUMPI DUP1 PUSH4 0x1B9265B8 EQ PUSH2 0x1A8 JUMPI DUP1 PUSH4 0x200D2ED2 EQ PUSH2 0x1CA JUMPI DUP1 PUSH4 0x26232A2E EQ PUSH2 0x1DF JUMPI DUP1 PUSH4 0x2804B2C0 EQ PUSH2 0x203 JUMPI DUP1 PUSH4 0x295F1B4D EQ PUSH2 0x223 JUMPI JUMPDEST PUSH1 0x0 DUP1 REVERT JUMPDEST CALLVALUE DUP1 ISZERO PUSH2 0x177 JUMPI PUSH1 0x0 DUP1 REVERT JUMPDEST POP PUSH1 0x2 SLOAD PUSH2 0x18B SWAP1 PUSH1 0x1 PUSH1 0x1 PUSH1 0xA0 SHL SUB AND DUP2 JUMP JUMPDEST PUSH1 0x40 MLOAD PUSH1 0x1 PUSH1 0x1 PUSH1 0xA0 SHL SUB SWAP1 SWAP2 AND DUP2 MSTORE PUSH1 0x20 ADD JUMPDEST PUSH1 0x40 MLOAD DUP1 SWAP2 SUB SWAP1 RETURN JUMPDEST CALLVALUE DUP1 ISZERO PUSH2 0x1B4 JUMPI PUSH1 0x0 DUP1 REVERT JUMPDEST POP PUSH2 0x1BD PUSH2 0x3EC JUMP JUMPDEST PUSH1 0x40 MLOAD PUSH2 0x19F SWAP2 SWAP1 PUSH2 0xCBD JUMP JUMPDEST CALLVALUE DUP1 ISZERO PUSH2 0x1D6 JUMPI PUSH1 0x0 DUP1 REVERT JUMPDEST POP PUSH2 0x1BD PUSH2 0x47A JUMP JUMPDEST CALLVALUE DUP1 ISZERO PUSH2 0x1EB JUMPI PUSH1 0x0 DUP1 REVERT JUMPDEST POP PUSH2 0x1F5 PUSH1 0x4 SLOAD DUP2 JUMP JUMPDEST PUSH1 0x40 MLOAD SWAP1 DUP2 MSTORE PUSH1 0x20 ADD PUSH2 0x19F JUMP JUMPDEST CALLVALUE DUP1 ISZERO PUSH2 0x20F JUMPI PUSH1 0x0 DUP1 REVERT JUMPDEST POP PUSH1 0x0 SLOAD PUSH2 0x18B SWAP1 PUSH1 0x1 PUSH1 0x1 PUSH1 0xA0 SHL SUB AND DUP2 JUMP JUMPDEST CALLVALUE DUP1 ISZERO PUSH2 0x22F JUMPI PUSH1 0x0 DUP1 REVERT JUMPDEST POP PUSH2 0x238 PUSH2 0x487 JUMP JUMPDEST STOP JUMPDEST CALLVALUE DUP1 ISZERO PUSH2 0x246 JUMPI PUSH1 0x0 DUP1 REVERT JUMPDEST POP PUSH2 0x1BD PUSH2 0x255 CALLDATASIZE PUSH1 0x4 PUSH2 0xCD7 JUMP JUMPDEST PUSH2 0x58A JUMP JUMPDEST CALLVALUE DUP1 ISZERO PUSH2 0x266 JUMPI PUSH1 0x0 DUP1 REVERT JUMPDEST POP PUSH2 0x1F5 PUSH1 0x7 SLOAD DUP2 JUMP JUMPDEST CALLVALUE DUP1 ISZERO PUSH2 0x27C JUMPI PUSH1 0x0 DUP1 REVERT JUMPDEST POP PUSH2 0x1BD PUSH2 0x5B5 JUMP JUMPDEST CALLVALUE DUP1 ISZERO PUSH2 0x291 JUMPI PUSH1 0x0 DUP1 REVERT JUMPDEST POP PUSH1 0x1 SLOAD PUSH2 0x18B SWAP1 PUSH1 0x1 PUSH1 0x1 PUSH1 0xA0 SHL SUB AND DUP2 JUMP JUMPDEST CALLVALUE DUP1 ISZERO PUSH2 0x2B1 JUMPI PUSH1 0x0 DUP1 REVERT JUMPDEST POP PUSH2 0x1BD PUSH2 0x5C2 JUMP JUMPDEST CALLVALUE DUP1 ISZERO PUSH2 0x2C6 JUMPI PUSH1 0x0 DUP1 REVERT JUMPDEST POP PUSH2 0x238 PUSH2 0x5CF JUMP JUMPDEST CALLVALUE DUP1 ISZERO PUSH2 0x2DB JUMPI PUSH1 0x0 DUP1 REVERT JUMPDEST POP PUSH2 0x238 PUSH2 0x704 JUMP JUMPDEST CALLVALUE DUP1 ISZERO PUSH2 0x2F0 JUMPI PUSH1 0x0 DUP1 REVERT JUMPDEST POP PUSH2 0x2F9 PUSH2 0x80F JUMP JUMPDEST PUSH1 0x40 MLOAD PUSH2 0x19F SWAP2 SWAP1 PUSH2 0xCF0 JUMP JUMPDEST CALLVALUE DUP1 ISZERO PUSH2 0x312 JUMPI PUSH1 0x0 DUP1 REVERT JUMPDEST POP PUSH2 0x1F5 PUSH1 0x3 SLOAD DUP2 JUMP JUMPDEST CALLVALUE DUP1 ISZERO PUSH2 0x328 JUMPI PUSH1 0x0 DUP1 REVERT JUMPDEST POP PUSH2 0x1F5 PUSH1 0xC SLOAD DUP2 JUMP JUMPDEST CALLVALUE DUP1 ISZERO PUSH2 0x33E JUMPI PUSH1 0x0 DUP1 REVERT JUMPDEST POP PUSH2 0x1BD PUSH2 0x8E8 JUMP JUMPDEST CALLVALUE DUP1 ISZERO PUSH2 0x353 JUMPI PUSH1 0x0 DUP1 REVERT JUMPDEST POP PUSH2 0x238 PUSH2 0x362 CALLDATASIZE PUSH1 0x4 PUSH2 0xD99 JUMP JUMPDEST PUSH2 0x8F5 JUMP JUMPDEST PUSH2 0x238 PUSH2 0x972 JUMP JUMPDEST CALLVALUE DUP1 ISZERO PUSH2 0x37B JUMPI PUSH1 0x0 DUP1 REVERT JUMPDEST POP PUSH2 0x1F5 PUSH1 0x8 SLOAD DUP2 JUMP JUMPDEST CALLVALUE DUP1 ISZERO PUSH2 0x391 JUMPI PUSH1 0x0 DUP1 REVERT JUMPDEST POP PUSH2 0x1BD PUSH2 0xA7A JUMP JUMPDEST CALLVALUE DUP1 ISZERO PUSH2 0x3A6 JUMPI PUSH1 0x0 DUP1 REVERT JUMPDEST POP PUSH2 0x238 PUSH2 0x3B5 CALLDATASIZE PUSH1 0x4 PUSH2 0xCD7 JUMP JUMPDEST PUSH2 0xA87 JUMP JUMPDEST CALLVALUE DUP1 ISZERO PUSH2 0x3C6 JUMPI PUSH1 0x0 DUP1 REVERT JUMPDEST POP PUSH2 0x1BD PUSH2 0xAF0 JUMP JUMPDEST CALLVALUE DUP1 ISZERO PUSH2 0x3DB JUMPI PUSH1 0x0 DUP1 REVERT JUMPDEST POP PUSH2 0x1BD PUSH2 0xAFD JUMP JUMPDEST PUSH2 0x238 PUSH2 0xB0A JUMP JUMPDEST PUSH1 0xA DUP1 SLOAD PUSH2 0x3F9 SWAP1 PUSH2 0xEB2 JUMP JUMPDEST DUP1 PUSH1 0x1F ADD PUSH1 0x20 DUP1 SWAP2 DIV MUL PUSH1 0x20 ADD PUSH1 0x40 MLOAD SWAP1 DUP2 ADD PUSH1 0x40 MSTORE DUP1 SWAP3 SWAP2 SWAP1 DUP2 DUP2 MSTORE PUSH1 0x20 ADD DUP3 DUP1 SLOAD PUSH2 0x425 SWAP1 PUSH2 0xEB2 JUMP JUMPDEST DUP1 ISZERO PUSH2 0x472 JUMPI DUP1 PUSH1 0x1F LT PUSH2 0x447 JUMPI PUSH2 0x100 DUP1 DUP4 SLOAD DIV MUL DUP4 MSTORE SWAP2 PUSH1 0x20 ADD SWAP2 PUSH2 0x472 JUMP JUMPDEST DUP3 ADD SWAP2 SWAP1 PUSH1 0x0 MSTORE PUSH1 0x20 PUSH1 0x0 KECCAK256 SWAP1 JUMPDEST DUP2 SLOAD DUP2 MSTORE SWAP1 PUSH1 0x1 ADD SWAP1 PUSH1 0x20 ADD DUP1 DUP4 GT PUSH2 0x455 JUMPI DUP3 SWAP1 SUB PUSH1 0x1F AND DUP3 ADD SWAP2 JUMPDEST POP POP POP POP POP DUP2 JUMP JUMPDEST PUSH1 0x9 DUP1 SLOAD PUSH2 0x3F9 SWAP1 PUSH2 0xEB2 JUMP JUMPDEST PUSH2 0x53B PUSH1 0x9 DUP1 SLOAD PUSH2 0x497 SWAP1 PUSH2 0xEB2 JUMP JUMPDEST DUP1 PUSH1 0x1F ADD PUSH1 0x20 DUP1 SWAP2 DIV MUL PUSH1 0x20 ADD PUSH1 0x40 MLOAD SWAP1 DUP2 ADD PUSH1 0x40 MSTORE DUP1 SWAP3 SWAP2 SWAP1 DUP2 DUP2 MSTORE PUSH1 0x20 ADD DUP3 DUP1 SLOAD PUSH2 0x4C3 SWAP1 PUSH2 0xEB2 JUMP JUMPDEST DUP1 ISZERO PUSH2 0x510 JUMPI DUP1 PUSH1 0x1F LT PUSH2 0x4E5 JUMPI PUSH2 0x100 DUP1 DUP4 SLOAD DIV MUL DUP4 MSTORE SWAP2 PUSH1 0x20 ADD SWAP2 PUSH2 0x510 JUMP JUMPDEST DUP3 ADD SWAP2 SWAP1 PUSH1 0x0 MSTORE PUSH1 0x20 PUSH1 0x0 KECCAK256 SWAP1 JUMPDEST DUP2 SLOAD DUP2 MSTORE SWAP1 PUSH1 0x1 ADD SWAP1 PUSH1 0x20 ADD DUP1 DUP4 GT PUSH2 0x4F3 JUMPI DUP3 SWAP1 SUB PUSH1 0x1F AND DUP3 ADD SWAP2 JUMPDEST POP POP POP POP POP PUSH1 0x40 MLOAD DUP1 PUSH1 0x40 ADD PUSH1 0x40 MSTORE DUP1 PUSH1 0x8 DUP2 MSTORE PUSH1 0x20 ADD PUSH8 0x1C1C9BDC1BDCD959 PUSH1 0xC2 SHL DUP2 MSTORE POP PUSH2 0xB31 JUMP JUMPDEST PUSH2 0x544 JUMPI PUSH1 0x0 DUP1 REVERT JUMPDEST PUSH1 0x0 SLOAD PUSH1 0x1 PUSH1 0x1 PUSH1 0xA0 SHL SUB AND CALLER EQ PUSH2 0x55B JUMPI PUSH1 0x0 DUP1 REVERT JUMPDEST PUSH1 0x40 DUP1 MLOAD DUP1 DUP3 ADD SWAP1 SWAP2 MSTORE PUSH1 0x8 DUP2 MSTORE PUSH8 0x191A5CDC1D5D1959 PUSH1 0xC2 SHL PUSH1 0x20 DUP3 ADD MSTORE PUSH1 0x9 SWAP1 PUSH2 0x587 SWAP1 DUP3 PUSH2 0xF3B JUMP JUMPDEST POP JUMP JUMPDEST PUSH1 0x10 DUP2 DUP2 SLOAD DUP2 LT PUSH2 0x59A JUMPI PUSH1 0x0 DUP1 REVERT JUMPDEST SWAP1 PUSH1 0x0 MSTORE PUSH1 0x20 PUSH1 0x0 KECCAK256 ADD PUSH1 0x0 SWAP2 POP SWAP1 POP DUP1 SLOAD PUSH2 0x3F9 SWAP1 PUSH2 0xEB2 JUMP JUMPDEST PUSH1 0x5 DUP1 SLOAD PUSH2 0x3F9 SWAP1 PUSH2 0xEB2 JUMP JUMPDEST PUSH1 0xF DUP1 SLOAD PUSH2 0x3F9 SWAP1 PUSH2 0xEB2 JUMP JUMPDEST PUSH1 0x0 SLOAD PUSH1 0x1 PUSH1 0x1 PUSH1 0xA0 SHL SUB AND CALLER EQ PUSH2 0x5E6 JUMPI PUSH1 0x0 DUP1 REVERT JUMPDEST PUSH2 0x696 PUSH1 0x9 DUP1 SLOAD PUSH2 0x5F6 SWAP1 PUSH2 0xEB2 JUMP JUMPDEST DUP1 PUSH1 0x1F ADD PUSH1 0x20 DUP1 SWAP2 DIV MUL PUSH1 0x20 ADD PUSH1 0x40 MLOAD SWAP1 DUP2 ADD PUSH1 0x40 MSTORE DUP1 SWAP3 SWAP2 SWAP1 DUP2 DUP2 MSTORE PUSH1 0x20 ADD DUP3 DUP1 SLOAD PUSH2 0x622 SWAP1 PUSH2 0xEB2 JUMP JUMPDEST DUP1 ISZERO PUSH2 0x66F JUMPI DUP1 PUSH1 0x1F LT PUSH2 0x644 JUMPI PUSH2 0x100 DUP1 DUP4 SLOAD DIV MUL DUP4 MSTORE SWAP2 PUSH1 0x20 ADD SWAP2 PUSH2 0x66F JUMP JUMPDEST DUP3 ADD SWAP2 SWAP1 PUSH1 0x0 MSTORE PUSH1 0x20 PUSH1 0x0 KECCAK256 SWAP1 JUMPDEST DUP2 SLOAD DUP2 MSTORE SWAP1 PUSH1 0x1 ADD SWAP1 PUSH1 0x20 ADD DUP1 DUP4 GT PUSH2 0x652 JUMPI DUP3 SWAP1 SUB PUSH1 0x1F AND DUP3 ADD SWAP2 JUMPDEST POP POP POP POP POP PUSH1 0x40 MLOAD DUP1 PUSH1 0x40 ADD PUSH1 0x40 MSTORE DUP1 PUSH1 0x4 DUP2 MSTORE PUSH1 0x20 ADD PUSH4 0x37B832B7 PUSH1 0xE1 SHL DUP2 MSTORE POP PUSH2 0xB31 JUMP JUMPDEST PUSH2 0x69F JUMPI PUSH1 0x0 DUP1 REVERT JUMPDEST PUSH1 0x40 DUP1 MLOAD DUP1 DUP3 ADD SWAP1 SWAP2 MSTORE PUSH1 0x6 DUP2 MSTORE PUSH6 0x18DB1BDCD959 PUSH1 0xD2 SHL PUSH1 0x20 DUP3 ADD MSTORE PUSH1 0x9 SWAP1 PUSH2 0x6C9 SWAP1 DUP3 PUSH2 0xF3B JUMP JUMPDEST POP PUSH1 0x0 DUP1 SLOAD PUSH1 0x40 MLOAD PUSH1 0x1 PUSH1 0x1 PUSH1 0xA0 SHL SUB SWAP1 SWAP2 AND SWAP2 SELFBALANCE DUP1 ISZERO PUSH2 0x8FC MUL SWAP3 SWAP1 SWAP2 DUP2 DUP2 DUP2 DUP6 DUP9 DUP9 CALL SWAP4 POP POP POP POP ISZERO DUP1 ISZERO PUSH2 0x587 JUMPI RETURNDATASIZE PUSH1 0x0 DUP1 RETURNDATACOPY RETURNDATASIZE PUSH1 0x0 REVERT JUMPDEST PUSH1 0x1 SLOAD PUSH1 0x1 PUSH1 0x1 PUSH1 0xA0 SHL SUB AND CALLER EQ PUSH2 0x71B JUMPI PUSH1 0x0 DUP1 REVERT JUMPDEST PUSH2 0x7CF PUSH1 0x9 DUP1 SLOAD PUSH2 0x72B SWAP1 PUSH2 0xEB2 JUMP JUMPDEST DUP1 PUSH1 0x1F ADD PUSH1 0x20 DUP1 SWAP2 DIV MUL PUSH1 0x20 ADD PUSH1 0x40 MLOAD SWAP1 DUP2 ADD PUSH1 0x40 MSTORE DUP1 SWAP3 SWAP2 SWAP1 DUP2 DUP2 MSTORE PUSH1 0x20 ADD DUP3 DUP1 SLOAD PUSH2 0x757 SWAP1 PUSH2 0xEB2 JUMP JUMPDEST DUP1 ISZERO PUSH2 0x7A4 JUMPI DUP1 PUSH1 0x1F LT PUSH2 0x779 JUMPI PUSH2 0x100 DUP1 DUP4 SLOAD DIV MUL DUP4 MSTORE SWAP2 PUSH1 0x20 ADD SWAP2 PUSH2 0x7A4 JUMP JUMPDEST DUP3 ADD SWAP2 SWAP1 PUSH1 0x0 MSTORE PUSH1 0x20 PUSH1 0x0 KECCAK256 SWAP1 JUMPDEST DUP2 SLOAD DUP2 MSTORE SWAP1 PUSH1 0x1 ADD SWAP1 PUSH1 0x20 ADD DUP1 DUP4 GT PUSH2 0x787 JUMPI DUP3 SWAP1 SUB PUSH1 0x1F AND DUP3 ADD SWAP2 JUMPDEST POP POP POP POP POP PUSH1 0x40 MLOAD DUP1 PUSH1 0x40 ADD PUSH1 0x40 MSTORE DUP1 PUSH1 0x8 DUP2 MSTORE PUSH1 0x20 ADD PUSH8 0x191A5CDC1D5D1959 PUSH1 0xC2 SHL DUP2 MSTORE POP PUSH2 0xB31 JUMP JUMPDEST PUSH2 0x7D8 JUMPI PUSH1 0x0 DUP1 REVERT JUMPDEST PUSH1 0x40 DUP1 MLOAD DUP1 DUP3 ADD SWAP1 SWAP2 MSTORE PUSH1 0x4 DUP2 MSTORE PUSH4 0x37B832B7 PUSH1 0xE1 SHL PUSH1 0x20 DUP3 ADD MSTORE PUSH1 0x9 SWAP1 PUSH2 0x800 SWAP1 DUP3 PUSH2 0xF3B JUMP JUMPDEST POP PUSH2 0x80D PUSH1 0x10 PUSH1 0x0 PUSH2 0xB9C JUMP JUMPDEST JUMP JUMPDEST PUSH1 0x60 PUSH1 0x10 DUP1 SLOAD DUP1 PUSH1 0x20 MUL PUSH1 0x20 ADD PUSH1 0x40 MLOAD SWAP1 DUP2 ADD PUSH1 0x40 MSTORE DUP1 SWAP3 SWAP2 SWAP1 DUP2 DUP2 MSTORE PUSH1 0x20 ADD PUSH1 0x0 SWAP1 JUMPDEST DUP3 DUP3 LT ISZERO PUSH2 0x8DF JUMPI DUP4 DUP3 SWAP1 PUSH1 0x0 MSTORE PUSH1 0x20 PUSH1 0x0 KECCAK256 ADD DUP1 SLOAD PUSH2 0x852 SWAP1 PUSH2 0xEB2 JUMP JUMPDEST DUP1 PUSH1 0x1F ADD PUSH1 0x20 DUP1 SWAP2 DIV MUL PUSH1 0x20 ADD PUSH1 0x40 MLOAD SWAP1 DUP2 ADD PUSH1 0x40 MSTORE DUP1 SWAP3 SWAP2 SWAP1 DUP2 DUP2 MSTORE PUSH1 0x20 ADD DUP3 DUP1 SLOAD PUSH2 0x87E SWAP1 PUSH2 0xEB2 JUMP JUMPDEST DUP1 ISZERO PUSH2 0x8CB JUMPI DUP1 PUSH1 0x1F LT PUSH2 0x8A0 JUMPI PUSH2 0x100 DUP1 DUP4 SLOAD DIV MUL DUP4 MSTORE SWAP2 PUSH1 0x20 ADD SWAP2 PUSH2 0x8CB JUMP JUMPDEST DUP3 ADD SWAP2 SWAP1 PUSH1 0x0 MSTORE PUSH1 0x20 PUSH1 0x0 KECCAK256 SWAP1 JUMPDEST DUP2 SLOAD DUP2 MSTORE SWAP1 PUSH1 0x1 ADD SWAP1 PUSH1 0x20 ADD DUP1 DUP4 GT PUSH2 0x8AE JUMPI DUP3 SWAP1 SUB PUSH1 0x1F AND DUP3 ADD SWAP2 JUMPDEST POP POP POP POP POP DUP2 MSTORE PUSH1 0x20 ADD SWAP1 PUSH1 0x1 ADD SWAP1 PUSH2 0x833 JUMP JUMPDEST POP POP POP POP SWAP1 POP SWAP1 JUMP JUMPDEST PUSH1 0xE DUP1 SLOAD PUSH2 0x3F9 SWAP1 PUSH2 0xEB2 JUMP JUMPDEST PUSH1 0x8 SLOAD TIMESTAMP LT PUSH2 0x903 JUMPI PUSH1 0x0 DUP1 REVERT JUMPDEST PUSH2 0x913 PUSH1 0x9 DUP1 SLOAD PUSH2 0x5F6 SWAP1 PUSH2 0xEB2 JUMP JUMPDEST PUSH2 0x91C JUMPI PUSH1 0x0 DUP1 REVERT JUMPDEST PUSH1 0x2 DUP1 SLOAD PUSH1 0x1 PUSH1 0x1 PUSH1 0xA0 SHL SUB NOT AND CALLER OR SWAP1 SSTORE DUP1 MLOAD PUSH2 0x941 SWAP1 PUSH1 0x10 SWAP1 PUSH1 0x20 DUP5 ADD SWAP1 PUSH2 0xBBA JUMP JUMPDEST POP PUSH1 0x40 DUP1 MLOAD DUP1 DUP3 ADD SWAP1 SWAP2 MSTORE PUSH1 0x8 DUP2 MSTORE PUSH8 0x1C1C9BDC1BDCD959 PUSH1 0xC2 SHL PUSH1 0x20 DUP3 ADD MSTORE PUSH1 0x9 SWAP1 PUSH2 0x96E SWAP1 DUP3 PUSH2 0xF3B JUMP JUMPDEST POP POP JUMP JUMPDEST PUSH1 0x0 SLOAD PUSH1 0x1 PUSH1 0x1 PUSH1 0xA0 SHL SUB AND CALLER EQ PUSH2 0x989 JUMPI PUSH1 0x0 DUP1 REVERT JUMPDEST PUSH2 0x999 PUSH1 0x9 DUP1 SLOAD PUSH2 0x497 SWAP1 PUSH2 0xEB2 JUMP JUMPDEST PUSH2 0x9A2 JUMPI PUSH1 0x0 DUP1 REVERT JUMPDEST PUSH1 0x40 DUP1 MLOAD DUP1 DUP3 ADD SWAP1 SWAP2 MSTORE PUSH1 0x6 DUP2 MSTORE PUSH6 0x18DB1BDCD959 PUSH1 0xD2 SHL PUSH1 0x20 DUP3 ADD MSTORE PUSH1 0x9 SWAP1 PUSH2 0x9CC SWAP1 DUP3 PUSH2 0xF3B JUMP JUMPDEST POP PUSH1 0x64 PUSH2 0x9DA SELFBALANCE PUSH1 0x5F PUSH2 0xFFB JUMP JUMPDEST PUSH2 0x9E4 SWAP2 SWAP1 PUSH2 0x1028 JUMP JUMPDEST PUSH1 0x3 SSTORE PUSH1 0x64 PUSH2 0x9F4 SELFBALANCE PUSH1 0x5 PUSH2 0xFFB JUMP JUMPDEST PUSH2 0x9FE SWAP2 SWAP1 PUSH2 0x1028 JUMP JUMPDEST PUSH1 0x4 SSTORE PUSH1 0x2 SLOAD PUSH1 0x3 SLOAD PUSH1 0x40 MLOAD PUSH1 0x1 PUSH1 0x1 PUSH1 0xA0 SHL SUB SWAP1 SWAP3 AND SWAP2 DUP2 ISZERO PUSH2 0x8FC MUL SWAP2 SWAP1 PUSH1 0x0 DUP2 DUP2 DUP2 DUP6 DUP9 DUP9 CALL SWAP4 POP POP POP POP ISZERO DUP1 ISZERO PUSH2 0xA3D JUMPI RETURNDATASIZE PUSH1 0x0 DUP1 RETURNDATACOPY RETURNDATASIZE PUSH1 0x0 REVERT JUMPDEST POP PUSH1 0x1 SLOAD PUSH1 0x4 SLOAD PUSH1 0x40 MLOAD PUSH1 0x1 PUSH1 0x1 PUSH1 0xA0 SHL SUB SWAP1 SWAP3 AND SWAP2 DUP2 ISZERO PUSH2 0x8FC MUL SWAP2 SWAP1 PUSH1 0x0 DUP2 DUP2 DUP2 DUP6 DUP9 DUP9 CALL SWAP4 POP POP POP POP ISZERO DUP1 ISZERO PUSH2 0x587 JUMPI RETURNDATASIZE PUSH1 0x0 DUP1 RETURNDATACOPY RETURNDATASIZE PUSH1 0x0 REVERT JUMPDEST PUSH1 0xD DUP1 SLOAD PUSH2 0x3F9 SWAP1 PUSH2 0xEB2 JUMP JUMPDEST PUSH1 0x0 SLOAD PUSH1 0x1 PUSH1 0x1 PUSH1 0xA0 SHL SUB AND CALLER EQ PUSH2 0xA9E JUMPI PUSH1 0x0 DUP1 REVERT JUMPDEST PUSH2 0xAAE PUSH1 0x9 DUP1 SLOAD PUSH2 0x5F6 SWAP1 PUSH2 0xEB2 JUMP JUMPDEST PUSH2 0xAB7 JUMPI PUSH1 0x0 DUP1 REVERT JUMPDEST DUP1 TIMESTAMP LT PUSH2 0xAC3 JUMPI PUSH1 0x0 DUP1 REVERT JUMPDEST PUSH1 0x8 DUP2 SWAP1 SSTORE PUSH1 0x40 DUP1 MLOAD DUP1 DUP3 ADD SWAP1 SWAP2 MSTORE PUSH1 0x4 DUP2 MSTORE PUSH4 0x37B832B7 PUSH1 0xE1 SHL PUSH1 0x20 DUP3 ADD MSTORE PUSH1 0x9 SWAP1 PUSH2 0x96E SWAP1 DUP3 PUSH2 0xF3B JUMP JUMPDEST PUSH1 0xB DUP1 SLOAD PUSH2 0x3F9 SWAP1 PUSH2 0xEB2 JUMP JUMPDEST PUSH1 0x6 DUP1 SLOAD PUSH2 0x3F9 SWAP1 PUSH2 0xEB2 JUMP JUMPDEST PUSH1 0x1 SLOAD PUSH1 0x1 PUSH1 0x1 PUSH1 0xA0 SHL SUB AND CALLER EQ PUSH2 0xB21 JUMPI PUSH1 0x0 DUP1 REVERT JUMPDEST PUSH2 0x999 PUSH1 0x9 DUP1 SLOAD PUSH2 0x72B SWAP1 PUSH2 0xEB2 JUMP JUMPDEST PUSH1 0x0 DUP2 MLOAD DUP4 MLOAD EQ PUSH2 0xB44 JUMPI POP PUSH1 0x0 PUSH2 0xB96 JUMP JUMPDEST DUP2 PUSH1 0x40 MLOAD PUSH1 0x20 ADD PUSH2 0xB55 SWAP2 SWAP1 PUSH2 0xCBD JUMP JUMPDEST PUSH1 0x40 MLOAD PUSH1 0x20 DUP2 DUP4 SUB SUB DUP2 MSTORE SWAP1 PUSH1 0x40 MSTORE DUP1 MLOAD SWAP1 PUSH1 0x20 ADD KECCAK256 DUP4 PUSH1 0x40 MLOAD PUSH1 0x20 ADD PUSH2 0xB7C SWAP2 SWAP1 PUSH2 0xCBD JUMP JUMPDEST PUSH1 0x40 MLOAD PUSH1 0x20 DUP2 DUP4 SUB SUB DUP2 MSTORE SWAP1 PUSH1 0x40 MSTORE DUP1 MLOAD SWAP1 PUSH1 0x20 ADD KECCAK256 EQ SWAP1 POP JUMPDEST SWAP3 SWAP2 POP POP JUMP JUMPDEST POP DUP1 SLOAD PUSH1 0x0 DUP3 SSTORE SWAP1 PUSH1 0x0 MSTORE PUSH1 0x20 PUSH1 0x0 KECCAK256 SWAP1 DUP2 ADD SWAP1 PUSH2 0x587 SWAP2 SWAP1 PUSH2 0xC10 JUMP JUMPDEST DUP3 DUP1 SLOAD DUP3 DUP3 SSTORE SWAP1 PUSH1 0x0 MSTORE PUSH1 0x20 PUSH1 0x0 KECCAK256 SWAP1 DUP2 ADD SWAP3 DUP3 ISZERO PUSH2 0xC00 JUMPI SWAP2 PUSH1 0x20 MUL DUP3 ADD JUMPDEST DUP3 DUP2 GT ISZERO PUSH2 0xC00 JUMPI DUP3 MLOAD DUP3 SWAP1 PUSH2 0xBF0 SWAP1 DUP3 PUSH2 0xF3B JUMP JUMPDEST POP SWAP2 PUSH1 0x20 ADD SWAP2 SWAP1 PUSH1 0x1 ADD SWAP1 PUSH2 0xBDA JUMP JUMPDEST POP PUSH2 0xC0C SWAP3 SWAP2 POP PUSH2 0xC10 JUMP JUMPDEST POP SWAP1 JUMP JUMPDEST DUP1 DUP3 GT ISZERO PUSH2 0xC0C JUMPI PUSH1 0x0 PUSH2 0xC24 DUP3 DUP3 PUSH2 0xC2D JUMP JUMPDEST POP PUSH1 0x1 ADD PUSH2 0xC10 JUMP JUMPDEST POP DUP1 SLOAD PUSH2 0xC39 SWAP1 PUSH2 0xEB2 JUMP JUMPDEST PUSH1 0x0 DUP3 SSTORE DUP1 PUSH1 0x1F LT PUSH2 0xC49 JUMPI POP POP JUMP JUMPDEST PUSH1 0x1F ADD PUSH1 0x20 SWAP1 DIV SWAP1 PUSH1 0x0 MSTORE PUSH1 0x20 PUSH1 0x0 KECCAK256 SWAP1 DUP2 ADD SWAP1 PUSH2 0x587 SWAP2 SWAP1 JUMPDEST DUP1 DUP3 GT ISZERO PUSH2 0xC0C JUMPI PUSH1 0x0 DUP2 SSTORE PUSH1 0x1 ADD PUSH2 0xC63 JUMP JUMPDEST PUSH1 0x0 DUP2 MLOAD DUP1 DUP5 MSTORE PUSH1 0x0 JUMPDEST DUP2 DUP2 LT ISZERO PUSH2 0xC9D JUMPI PUSH1 0x20 DUP2 DUP6 ADD DUP2 ADD MLOAD DUP7 DUP4 ADD DUP3 ADD MSTORE ADD PUSH2 0xC81 JUMP JUMPDEST POP PUSH1 0x0 PUSH1 0x20 DUP3 DUP7 ADD ADD MSTORE PUSH1 0x20 PUSH1 0x1F NOT PUSH1 0x1F DUP4 ADD AND DUP6 ADD ADD SWAP2 POP POP SWAP3 SWAP2 POP POP JUMP JUMPDEST PUSH1 0x20 DUP2 MSTORE PUSH1 0x0 PUSH2 0xCD0 PUSH1 0x20 DUP4 ADD DUP5 PUSH2 0xC77 JUMP JUMPDEST SWAP4 SWAP3 POP POP POP JUMP JUMPDEST PUSH1 0x0 PUSH1 0x20 DUP3 DUP5 SUB SLT ISZERO PUSH2 0xCE9 JUMPI PUSH1 0x0 DUP1 REVERT JUMPDEST POP CALLDATALOAD SWAP2 SWAP1 POP JUMP JUMPDEST PUSH1 0x0 PUSH1 0x20 DUP1 DUP4 ADD DUP2 DUP5 MSTORE DUP1 DUP6 MLOAD DUP1 DUP4 MSTORE PUSH1 0x40 DUP7 ADD SWAP2 POP PUSH1 0x40 DUP2 PUSH1 0x5 SHL DUP8 ADD ADD SWAP3 POP DUP4 DUP8 ADD PUSH1 0x0 JUMPDEST DUP3 DUP2 LT ISZERO PUSH2 0xD45 JUMPI PUSH1 0x3F NOT DUP9 DUP7 SUB ADD DUP5 MSTORE PUSH2 0xD33 DUP6 DUP4 MLOAD PUSH2 0xC77 JUMP JUMPDEST SWAP5 POP SWAP3 DUP6 ADD SWAP3 SWAP1 DUP6 ADD SWAP1 PUSH1 0x1 ADD PUSH2 0xD17 JUMP JUMPDEST POP SWAP3 SWAP8 SWAP7 POP POP POP POP POP POP POP JUMP JUMPDEST PUSH4 0x4E487B71 PUSH1 0xE0 SHL PUSH1 0x0 MSTORE PUSH1 0x41 PUSH1 0x4 MSTORE PUSH1 0x24 PUSH1 0x0 REVERT JUMPDEST PUSH1 0x40 MLOAD PUSH1 0x1F DUP3 ADD PUSH1 0x1F NOT AND DUP2 ADD PUSH8 0xFFFFFFFFFFFFFFFF DUP2 GT DUP3 DUP3 LT OR ISZERO PUSH2 0xD91 JUMPI PUSH2 0xD91 PUSH2 0xD52 JUMP JUMPDEST PUSH1 0x40 MSTORE SWAP2 SWAP1 POP JUMP JUMPDEST PUSH1 0x0 PUSH1 0x20 DUP1 DUP4 DUP6 SUB SLT ISZERO PUSH2 0xDAC JUMPI PUSH1 0x0 DUP1 REVERT JUMPDEST DUP3 CALLDATALOAD PUSH8 0xFFFFFFFFFFFFFFFF DUP1 DUP3 GT ISZERO PUSH2 0xDC4 JUMPI PUSH1 0x0 DUP1 REVERT JUMPDEST DUP2 DUP6 ADD SWAP2 POP PUSH1 0x1F DUP7 DUP2 DUP5 ADD SLT PUSH2 0xDD9 JUMPI PUSH1 0x0 DUP1 REVERT JUMPDEST DUP3 CALLDATALOAD DUP3 DUP2 GT ISZERO PUSH2 0xDEB JUMPI PUSH2 0xDEB PUSH2 0xD52 JUMP JUMPDEST DUP1 PUSH1 0x5 SHL PUSH2 0xDFA DUP7 DUP3 ADD PUSH2 0xD68 JUMP JUMPDEST SWAP2 DUP3 MSTORE DUP5 DUP2 ADD DUP7 ADD SWAP2 DUP7 DUP2 ADD SWAP1 DUP11 DUP5 GT ISZERO PUSH2 0xE14 JUMPI PUSH1 0x0 DUP1 REVERT JUMPDEST DUP8 DUP8 ADD SWAP3 POP JUMPDEST DUP4 DUP4 LT ISZERO PUSH2 0xEA4 JUMPI DUP3 CALLDATALOAD DUP7 DUP2 GT ISZERO PUSH2 0xE32 JUMPI PUSH1 0x0 DUP1 DUP2 REVERT JUMPDEST DUP8 ADD PUSH1 0x3F DUP2 ADD DUP13 SGT PUSH2 0xE44 JUMPI PUSH1 0x0 DUP1 DUP2 REVERT JUMPDEST DUP9 DUP2 ADD CALLDATALOAD PUSH1 0x40 DUP9 DUP3 GT ISZERO PUSH2 0xE5A JUMPI PUSH2 0xE5A PUSH2 0xD52 JUMP JUMPDEST PUSH2 0xE6B DUP3 DUP10 ADD PUSH1 0x1F NOT AND DUP13 ADD PUSH2 0xD68 JUMP JUMPDEST DUP3 DUP2 MSTORE DUP15 DUP3 DUP5 DUP7 ADD ADD GT ISZERO PUSH2 0xE80 JUMPI PUSH1 0x0 DUP1 DUP2 REVERT JUMPDEST DUP3 DUP3 DUP6 ADD DUP14 DUP4 ADD CALLDATACOPY PUSH1 0x0 SWAP3 DUP2 ADD DUP13 ADD SWAP3 SWAP1 SWAP3 MSTORE POP DUP4 MSTORE POP SWAP2 DUP8 ADD SWAP2 SWAP1 DUP8 ADD SWAP1 PUSH2 0xE1A JUMP JUMPDEST SWAP11 SWAP10 POP POP POP POP POP POP POP POP POP POP JUMP JUMPDEST PUSH1 0x1 DUP2 DUP2 SHR SWAP1 DUP3 AND DUP1 PUSH2 0xEC6 JUMPI PUSH1 0x7F DUP3 AND SWAP2 POP JUMPDEST PUSH1 0x20 DUP3 LT DUP2 SUB PUSH2 0xEE6 JUMPI PUSH4 0x4E487B71 PUSH1 0xE0 SHL PUSH1 0x0 MSTORE PUSH1 0x22 PUSH1 0x4 MSTORE PUSH1 0x24 PUSH1 0x0 REVERT JUMPDEST POP SWAP2 SWAP1 POP JUMP JUMPDEST PUSH1 0x1F DUP3 GT ISZERO PUSH2 0xF36 JUMPI PUSH1 0x0 DUP2 DUP2 MSTORE PUSH1 0x20 DUP2 KECCAK256 PUSH1 0x1F DUP6 ADD PUSH1 0x5 SHR DUP2 ADD PUSH1 0x20 DUP7 LT ISZERO PUSH2 0xF13 JUMPI POP DUP1 JUMPDEST PUSH1 0x1F DUP6 ADD PUSH1 0x5 SHR DUP3 ADD SWAP2 POP JUMPDEST DUP2 DUP2 LT ISZERO PUSH2 0xF32 JUMPI DUP3 DUP2 SSTORE PUSH1 0x1 ADD PUSH2 0xF1F JUMP JUMPDEST POP POP POP JUMPDEST POP POP POP JUMP JUMPDEST DUP2 MLOAD PUSH8 0xFFFFFFFFFFFFFFFF DUP2 GT ISZERO PUSH2 0xF55 JUMPI PUSH2 0xF55 PUSH2 0xD52 JUMP JUMPDEST PUSH2 0xF69 DUP2 PUSH2 0xF63 DUP5 SLOAD PUSH2 0xEB2 JUMP JUMPDEST DUP5 PUSH2 0xEEC JUMP JUMPDEST PUSH1 0x20 DUP1 PUSH1 0x1F DUP4 GT PUSH1 0x1 DUP2 EQ PUSH2 0xF9E JUMPI PUSH1 0x0 DUP5 ISZERO PUSH2 0xF86 JUMPI POP DUP6 DUP4 ADD MLOAD JUMPDEST PUSH1 0x0 NOT PUSH1 0x3 DUP7 SWAP1 SHL SHR NOT AND PUSH1 0x1 DUP6 SWAP1 SHL OR DUP6 SSTORE PUSH2 0xF32 JUMP JUMPDEST PUSH1 0x0 DUP6 DUP2 MSTORE PUSH1 0x20 DUP2 KECCAK256 PUSH1 0x1F NOT DUP7 AND SWAP2 JUMPDEST DUP3 DUP2 LT ISZERO PUSH2 0xFCD JUMPI DUP9 DUP7 ADD MLOAD DUP3 SSTORE SWAP5 DUP5 ADD SWAP5 PUSH1 0x1 SWAP1 SWAP2 ADD SWAP1 DUP5 ADD PUSH2 0xFAE JUMP JUMPDEST POP DUP6 DUP3 LT ISZERO PUSH2 0xFEB JUMPI DUP8 DUP6 ADD MLOAD PUSH1 0x0 NOT PUSH1 0x3 DUP9 SWAP1 SHL PUSH1 0xF8 AND SHR NOT AND DUP2 SSTORE JUMPDEST POP POP POP POP POP PUSH1 0x1 SWAP1 DUP2 SHL ADD SWAP1 SSTORE POP JUMP JUMPDEST PUSH1 0x0 DUP2 PUSH1 0x0 NOT DIV DUP4 GT DUP3 ISZERO ISZERO AND ISZERO PUSH2 0x1023 JUMPI PUSH4 0x4E487B71 PUSH1 0xE0 SHL PUSH1 0x0 MSTORE PUSH1 0x11 PUSH1 0x4 MSTORE PUSH1 0x24 PUSH1 0x0 REVERT JUMPDEST POP MUL SWAP1 JUMP JUMPDEST PUSH1 0x0 DUP3 PUSH2 0x1045 JUMPI PUSH4 0x4E487B71 PUSH1 0xE0 SHL PUSH1 0x0 MSTORE PUSH1 0x12 PUSH1 0x4 MSTORE PUSH1 0x24 PUSH1 0x0 REVERT JUMPDEST POP DIV SWAP1 JUMP INVALID LOG2 PUSH5 0x6970667358 0x22 SLT KECCAK256 SWAP16 PUSH25 0xA22016521AC4EE182FE9C0A93E8762482A99AFC5E07CB96DD8 0x2C MSTORE PUSH20 0xFA1A64736F6C6343000810003300000000000000 "},"gasEstimates":{"creation":{"codeDepositCost":"844800","executionCost":"infinite","totalCost":"infinite"},"external":{"acceptDispute()":"infinite","acceptProposal()":"infinite","closeContract()":"infinite","contractPrice()":"2362","created()":"2340","customer()":"2438","disputeProposal()":"infinite","expires()":"2362","format()":"infinite","getMediaAddresses()":"infinite","location()":"infinite","mediaAddresses(uint256)":"infinite","minimalLength()":"2384","minimalResolution()":"infinite","pay()":"infinite","platform()":"2415","platformFee()":"2385","proposeMedia(string[])":"infinite","rejectDispute()":"infinite","renewContract(uint256)":"infinite","reporter()":"2350","specialInstructions()":"infinite","status()":"infinite","task()":"infinite","tasking()":"infinite"},"internal":{"hashCompareWithLengthCheck(string memory,string memory)":"infinite"}},"methodIdentifiers":{"acceptDispute()":"6a2e23f5","acceptProposal()":"af3b19e5","closeContract()":"610be654","contractPrice()":"97e9a0bf","created()":"325a19f1","customer()":"2804b2c0","disputeProposal()":"295f1b4d","expires()":"b1cb0db3","format()":"f0de67ac","getMediaAddresses()":"6a76ae98","location()":"516f279e","mediaAddresses(uint256)":"2d237d21","minimalLength()":"9b221c7d","minimalResolution()":"9d9e27d9","pay()":"1b9265b8","platform()":"4bde38c8","platformFee()":"26232a2e","proposeMedia(string[])":"add08a8e","rejectDispute()":"f32370e7","renewContract(uint256)":"d5252dcf","reporter()":"010ec441","specialInstructions()":"cc5be574","status()":"200d2ed2","task()":"3283f641","tasking()":"e050ced2"}},"storageLayout":{"storage":[{"astId":77,"contract":"Contract.sol:MediaContract","label":"customer","offset":0,"slot":"0","type":"t_address_payable"},{"astId":79,"contract":"Contract.sol:MediaContract","label":"platform","offset":0,"slot":"1","type":"t_address_payable"},{"astId":81,"contract":"Contract.sol:MediaContract","label":"reporter","offset":0,"slot":"2","type":"t_address_payable"},{"astId":83,"contract":"Contract.sol:MediaContract","label":"contractPrice","offset":0,"slot":"3","type":"t_uint256"},{"astId":85,"contract":"Contract.sol:MediaContract","label":"platformFee","offset":0,"slot":"4","type":"t_uint256"},{"astId":87,"contract":"Contract.sol:MediaContract","label":"task","offset":0,"slot":"5","type":"t_string_storage"},{"astId":89,"contract":"Contract.sol:MediaContract","label":"format","offset":0,"slot":"6","type":"t_string_storage"},{"astId":91,"contract":"Contract.sol:MediaContract","label":"created","offset":0,"slot":"7","type":"t_uint256"},{"astId":93,"contract":"Contract.sol:MediaContract","label":"expires","offset":0,"slot":"8","type":"t_uint256"},{"astId":95,"contract":"Contract.sol:MediaContract","label":"status","offset":0,"slot":"9","type":"t_string_storage"},{"astId":97,"contract":"Contract.sol:MediaContract","label":"pay","offset":0,"slot":"10","type":"t_string_storage"},{"astId":99,"contract":"Contract.sol:MediaContract","label":"tasking","offset":0,"slot":"11","type":"t_string_storage"},{"astId":101,"contract":"Contract.sol:MediaContract","label":"minimalLength","offset":0,"slot":"12","type":"t_uint256"},{"astId":103,"contract":"Contract.sol:MediaContract","label":"specialInstructions","offset":0,"slot":"13","type":"t_string_storage"},{"astId":105,"contract":"Contract.sol:MediaContract","label":"minimalResolution","offset":0,"slot":"14","type":"t_string_storage"},{"astId":107,"contract":"Contract.sol:MediaContract","label":"location","offset":0,"slot":"15","type":"t_string_storage"},{"astId":110,"contract":"Contract.sol:MediaContract","label":"mediaAddresses","offset":0,"slot":"16","type":"t_array(t_string_storage)dyn_storage"}],"types":{"t_address_payable":{"encoding":"inplace","label":"address payable","numberOfBytes":"20"},"t_array(t_string_storage)dyn_storage":{"base":"t_string_storage","encoding":"dynamic_array","label":"string[]","numberOfBytes":"32"},"t_string_storage":{"encoding":"bytes","label":"string","numberOfBytes":"32"},"t_uint256":{"encoding":"inplace","label":"uint256","numberOfBytes":"32"}}},"userdoc":{"kind":"user","methods":{},"version":1}}