{"abi":[{"inputs":[],"stateMutability":"payable","type":"constructor"},{"anonymous":false,"inputs":[{"indexed":false,"internalType":"address","name":"contractAddress","type":"address"},{"indexed":false,"internalType":"address","name":"customerAddress","type":"address"}],"name":"contractDeployed","type":"event"},{"inputs":[],"name":"_platform","outputs":[{"internalType":"address","name":"","type":"address"}],"stateMutability":"view","type":"function"},{"inputs":[{"internalType":"uint256","name":"_expiration","type":"uint256"},{"internalType":"string","name":"_tasking","type":"string"},{"internalType":"string","name":"_formatting","type":"string"},{"internalType":"uint256","name":"_minimalLength","type":"uint256"},{"internalType":"string","name":"_minimalResolution","type":"string"},{"internalType":"string","name":"_location","type":"string"}],"name":"createContract","outputs":[],"stateMutability":"payable","type":"function"},{"inputs":[{"internalType":"uint256","name":"","type":"uint256"}],"name":"deployedContracts","outputs":[{"internalType":"address","name":"","type":"address"}],"stateMutability":"view","type":"function"},{"inputs":[],"name":"getDeployedContracts","outputs":[{"internalType":"address[]","name":"","type":"address[]"}],"stateMutability":"view","type":"function"}],"devdoc":{"kind":"dev","methods":{},"version":1},"evm":{"assembly":"    /* \"Contract.sol\":59:997  contract MediaContractFactory {... */\n  mstore(0x40, 0x80)\n    /* \"Contract.sol\":264:273  _platform */\n  0x00\n    /* \"Contract.sol\":264:286  _platform = msg.sender */\n  dup1\n  sload\n  not(sub(shl(0xa0, 0x01), 0x01))\n  and\n    /* \"Contract.sol\":276:286  msg.sender */\n  caller\n    /* \"Contract.sol\":264:286  _platform = msg.sender */\n  or\n  swap1\n  sstore\n    /* \"Contract.sol\":59:997  contract MediaContractFactory {... */\n  dataSize(sub_0)\n  dup1\n  dataOffset(sub_0)\n  0x00\n  codecopy\n  0x00\n  return\nstop\n\nsub_0: assembly {\n        /* \"Contract.sol\":59:997  contract MediaContractFactory {... */\n      mstore(0x40, 0x80)\n      jumpi(tag_1, lt(calldatasize, 0x04))\n      shr(0xe0, calldataload(0x00))\n      dup1\n      0x1adc7d4c\n      eq\n      tag_2\n      jumpi\n      dup1\n      0x4387965f\n      eq\n      tag_3\n      jumpi\n      dup1\n      0x9ad1ee10\n      eq\n      tag_4\n      jumpi\n      dup1\n      0xaa9a068f\n      eq\n      tag_5\n      jumpi\n    tag_1:\n      0x00\n      dup1\n      revert\n        /* \"Contract.sol\":169:193  address public _platform */\n    tag_2:\n      callvalue\n      dup1\n      iszero\n      tag_6\n      jumpi\n      0x00\n      dup1\n      revert\n    tag_6:\n      pop\n      sload(0x00)\n      tag_7\n      swap1\n      sub(shl(0xa0, 0x01), 0x01)\n      and\n      dup2\n      jump\n    tag_7:\n      mload(0x40)\n      sub(shl(0xa0, 0x01), 0x01)\n        /* \"#utility.yul\":178:210   */\n      swap1\n      swap2\n      and\n        /* \"#utility.yul\":160:211   */\n      dup2\n      mstore\n        /* \"#utility.yul\":148:150   */\n      0x20\n        /* \"#utility.yul\":133:151   */\n      add\n        /* \"Contract.sol\":169:193  address public _platform */\n    tag_9:\n      mload(0x40)\n      dup1\n      swap2\n      sub\n      swap1\n      return\n        /* \"Contract.sol\":294:885  function createContract(... */\n    tag_3:\n      tag_11\n      tag_12\n      calldatasize\n      0x04\n      tag_13\n      jump\t// in\n    tag_12:\n      tag_14\n      jump\t// in\n    tag_11:\n      stop\n        /* \"Contract.sol\":197:232  address [] public deployedContracts */\n    tag_4:\n      callvalue\n      dup1\n      iszero\n      tag_15\n      jumpi\n      0x00\n      dup1\n      revert\n    tag_15:\n      pop\n      tag_7\n      tag_17\n      calldatasize\n      0x04\n      tag_18\n      jump\t// in\n    tag_17:\n      tag_19\n      jump\t// in\n        /* \"Contract.sol\":889:995  function getDeployedContracts() public view returns (address [] memory){... */\n    tag_5:\n      callvalue\n      dup1\n      iszero\n      tag_21\n      jumpi\n      0x00\n      dup1\n      revert\n    tag_21:\n      pop\n      tag_22\n      tag_23\n      jump\t// in\n    tag_22:\n      mload(0x40)\n      tag_9\n      swap2\n      swap1\n      tag_25\n      jump\t// in\n        /* \"Contract.sol\":294:885  function createContract(... */\n    tag_14:\n        /* \"Contract.sol\":524:543  address newContract */\n      0x00\n        /* \"Contract.sol\":580:589  msg.value */\n      callvalue\n        /* \"Contract.sol\":600:611  _expiration */\n      dup12\n        /* \"Contract.sol\":621:629  _tasking */\n      dup12\n      dup12\n        /* \"Contract.sol\":639:650  _formatting */\n      dup12\n      dup12\n        /* \"Contract.sol\":660:674  _minimalLength */\n      dup12\n        /* \"Contract.sol\":684:702  _minimalResolution */\n      dup12\n      dup12\n        /* \"Contract.sol\":712:721  _location */\n      dup12\n      dup12\n        /* \"Contract.sol\":739:748  _platform */\n      0x00\n      dup1\n      sload\n      swap1\n      0x0100\n      exp\n      swap1\n      div\n      sub(shl(0xa0, 0x01), 0x01)\n      and\n        /* \"Contract.sol\":767:777  msg.sender */\n      caller\n        /* \"Contract.sol\":554:786  new MediaContract{value : msg.value}(... */\n      mload(0x40)\n      tag_27\n      swap1\n      tag_28\n      jump\t// in\n    tag_27:\n      tag_29\n      swap13\n      swap12\n      swap11\n      swap10\n      swap9\n      swap8\n      swap7\n      swap6\n      swap5\n      swap4\n      swap3\n      swap2\n      swap1\n      tag_30\n      jump\t// in\n    tag_29:\n      mload(0x40)\n      dup1\n      swap2\n      sub\n      swap1\n      dup3\n      create\n      swap1\n      pop\n      dup1\n      iszero\n      dup1\n      iszero\n      tag_31\n      jumpi\n      returndatasize\n      0x00\n      dup1\n      returndatacopy\n      revert(0x00, returndatasize)\n    tag_31:\n      pop\n        /* \"Contract.sol\":793:810  deployedContracts */\n      0x01\n        /* \"Contract.sol\":793:828  deployedContracts.push(newContract) */\n      dup1\n      sload\n      dup1\n      dup3\n      add\n      dup3\n      sstore\n      0x00\n      swap2\n      swap1\n      swap2\n      mstore\n      0xb10e2d527612073b26eecdfd717e6a320cf44b4afac2b0732d9fcbe2b7fa0cf6\n      add\n      dup1\n      sload\n      not(sub(shl(0xa0, 0x01), 0x01))\n      and\n      sub(shl(0xa0, 0x01), 0x01)\n      dup4\n      and\n      swap1\n      dup2\n      or\n      swap1\n      swap2\n      sstore\n        /* \"Contract.sol\":839:880  contractDeployed(newContract, msg.sender) */\n      0x40\n      dup1\n      mload\n        /* \"#utility.yul\":4554:4588   */\n      swap2\n      dup3\n      mstore\n        /* \"Contract.sol\":869:879  msg.sender */\n      caller\n        /* \"#utility.yul\":4619:4621   */\n      0x20\n        /* \"#utility.yul\":4604:4622   */\n      dup4\n      add\n        /* \"#utility.yul\":4597:4640   */\n      mstore\n        /* \"Contract.sol\":793:828  deployedContracts.push(newContract) */\n      swap2\n      swap3\n      pop\n        /* \"Contract.sol\":839:880  contractDeployed(newContract, msg.sender) */\n      0xecbf40c9e0b620c53e41cea507376c12230d35bbd84b001d481c10b9c0ceccec\n      swap2\n        /* \"#utility.yul\":4489:4507   */\n      add\n        /* \"Contract.sol\":839:880  contractDeployed(newContract, msg.sender) */\n      mload(0x40)\n      dup1\n      swap2\n      sub\n      swap1\n      log1\n        /* \"Contract.sol\":518:885  {... */\n      pop\n        /* \"Contract.sol\":294:885  function createContract(... */\n      pop\n      pop\n      pop\n      pop\n      pop\n      pop\n      pop\n      pop\n      pop\n      pop\n      jump\t// out\n        /* \"Contract.sol\":197:232  address [] public deployedContracts */\n    tag_19:\n      0x01\n      dup2\n      dup2\n      sload\n      dup2\n      lt\n      tag_35\n      jumpi\n      0x00\n      dup1\n      revert\n    tag_35:\n      0x00\n      swap2\n      dup3\n      mstore\n      0x20\n      swap1\n      swap2\n      keccak256\n      add\n      sload\n      sub(shl(0xa0, 0x01), 0x01)\n      and\n      swap1\n      pop\n      dup2\n      jump\t// out\n        /* \"Contract.sol\":889:995  function getDeployedContracts() public view returns (address [] memory){... */\n    tag_23:\n        /* \"Contract.sol\":942:959  address [] memory */\n      0x60\n        /* \"Contract.sol\":973:990  deployedContracts */\n      0x01\n        /* \"Contract.sol\":966:990  return deployedContracts */\n      dup1\n      sload\n      dup1\n      0x20\n      mul\n      0x20\n      add\n      mload(0x40)\n      swap1\n      dup2\n      add\n      0x40\n      mstore\n      dup1\n      swap3\n      swap2\n      swap1\n      dup2\n      dup2\n      mstore\n      0x20\n      add\n      dup3\n      dup1\n      sload\n      dup1\n      iszero\n      tag_38\n      jumpi\n      0x20\n      mul\n      dup3\n      add\n      swap2\n      swap1\n      0x00\n      mstore\n      keccak256(0x00, 0x20)\n      swap1\n    tag_39:\n      dup2\n      sload\n      sub(shl(0xa0, 0x01), 0x01)\n      and\n      dup2\n      mstore\n      0x01\n      swap1\n      swap2\n      add\n      swap1\n      0x20\n      add\n      dup1\n      dup4\n      gt\n      tag_39\n      jumpi\n    tag_38:\n      pop\n      pop\n      pop\n      pop\n      pop\n      swap1\n      pop\n        /* \"Contract.sol\":889:995  function getDeployedContracts() public view returns (address [] memory){... */\n      swap1\n      jump\t// out\n    tag_28:\n      dataSize(sub_0)\n      dup1\n      dataOffset(sub_0)\n      dup4\n      codecopy\n      add\n      swap1\n      jump\t// out\n        /* \"#utility.yul\":222:570   */\n    tag_40:\n        /* \"#utility.yul\":274:282   */\n      0x00\n        /* \"#utility.yul\":284:290   */\n      dup1\n        /* \"#utility.yul\":338:341   */\n      dup4\n        /* \"#utility.yul\":331:335   */\n      0x1f\n        /* \"#utility.yul\":323:329   */\n      dup5\n        /* \"#utility.yul\":319:336   */\n      add\n        /* \"#utility.yul\":315:342   */\n      slt\n        /* \"#utility.yul\":305:360   */\n      tag_45\n      jumpi\n        /* \"#utility.yul\":356:357   */\n      0x00\n        /* \"#utility.yul\":353:354   */\n      dup1\n        /* \"#utility.yul\":346:358   */\n      revert\n        /* \"#utility.yul\":305:360   */\n    tag_45:\n      pop\n        /* \"#utility.yul\":379:399   */\n      dup2\n      calldataload\n        /* \"#utility.yul\":422:440   */\n      0xffffffffffffffff\n        /* \"#utility.yul\":411:441   */\n      dup2\n      gt\n        /* \"#utility.yul\":408:458   */\n      iszero\n      tag_46\n      jumpi\n        /* \"#utility.yul\":454:455   */\n      0x00\n        /* \"#utility.yul\":451:452   */\n      dup1\n        /* \"#utility.yul\":444:456   */\n      revert\n        /* \"#utility.yul\":408:458   */\n    tag_46:\n        /* \"#utility.yul\":491:495   */\n      0x20\n        /* \"#utility.yul\":483:489   */\n      dup4\n        /* \"#utility.yul\":479:496   */\n      add\n        /* \"#utility.yul\":467:496   */\n      swap2\n      pop\n        /* \"#utility.yul\":543:546   */\n      dup4\n        /* \"#utility.yul\":536:540   */\n      0x20\n        /* \"#utility.yul\":527:533   */\n      dup3\n        /* \"#utility.yul\":519:525   */\n      dup6\n        /* \"#utility.yul\":515:534   */\n      add\n        /* \"#utility.yul\":511:541   */\n      add\n        /* \"#utility.yul\":508:547   */\n      gt\n        /* \"#utility.yul\":505:564   */\n      iszero\n      tag_47\n      jumpi\n        /* \"#utility.yul\":560:561   */\n      0x00\n        /* \"#utility.yul\":557:558   */\n      dup1\n        /* \"#utility.yul\":550:562   */\n      revert\n        /* \"#utility.yul\":505:564   */\n    tag_47:\n        /* \"#utility.yul\":222:570   */\n      swap3\n      pop\n      swap3\n      swap1\n      pop\n      jump\t// out\n        /* \"#utility.yul\":575:2013   */\n    tag_13:\n        /* \"#utility.yul\":727:733   */\n      0x00\n        /* \"#utility.yul\":735:741   */\n      dup1\n        /* \"#utility.yul\":743:749   */\n      0x00\n        /* \"#utility.yul\":751:757   */\n      dup1\n        /* \"#utility.yul\":759:765   */\n      0x00\n        /* \"#utility.yul\":767:773   */\n      dup1\n        /* \"#utility.yul\":775:781   */\n      0x00\n        /* \"#utility.yul\":783:789   */\n      dup1\n        /* \"#utility.yul\":791:797   */\n      0x00\n        /* \"#utility.yul\":799:805   */\n      dup1\n        /* \"#utility.yul\":852:855   */\n      0xc0\n        /* \"#utility.yul\":840:849   */\n      dup12\n        /* \"#utility.yul\":831:838   */\n      dup14\n        /* \"#utility.yul\":827:850   */\n      sub\n        /* \"#utility.yul\":823:856   */\n      slt\n        /* \"#utility.yul\":820:873   */\n      iszero\n      tag_49\n      jumpi\n        /* \"#utility.yul\":869:870   */\n      0x00\n        /* \"#utility.yul\":866:867   */\n      dup1\n        /* \"#utility.yul\":859:871   */\n      revert\n        /* \"#utility.yul\":820:873   */\n    tag_49:\n        /* \"#utility.yul\":905:914   */\n      dup11\n        /* \"#utility.yul\":892:915   */\n      calldataload\n        /* \"#utility.yul\":882:915   */\n      swap10\n      pop\n        /* \"#utility.yul\":966:968   */\n      0x20\n        /* \"#utility.yul\":955:964   */\n      dup12\n        /* \"#utility.yul\":951:969   */\n      add\n        /* \"#utility.yul\":938:970   */\n      calldataload\n        /* \"#utility.yul\":989:1007   */\n      0xffffffffffffffff\n        /* \"#utility.yul\":1030:1032   */\n      dup1\n        /* \"#utility.yul\":1022:1028   */\n      dup3\n        /* \"#utility.yul\":1019:1033   */\n      gt\n        /* \"#utility.yul\":1016:1050   */\n      iszero\n      tag_50\n      jumpi\n        /* \"#utility.yul\":1046:1047   */\n      0x00\n        /* \"#utility.yul\":1043:1044   */\n      dup1\n        /* \"#utility.yul\":1036:1048   */\n      revert\n        /* \"#utility.yul\":1016:1050   */\n    tag_50:\n        /* \"#utility.yul\":1085:1144   */\n      tag_51\n        /* \"#utility.yul\":1136:1143   */\n      dup15\n        /* \"#utility.yul\":1127:1133   */\n      dup4\n        /* \"#utility.yul\":1116:1125   */\n      dup16\n        /* \"#utility.yul\":1112:1134   */\n      add\n        /* \"#utility.yul\":1085:1144   */\n      tag_40\n      jump\t// in\n    tag_51:\n        /* \"#utility.yul\":1163:1171   */\n      swap1\n      swap12\n      pop\n        /* \"#utility.yul\":1059:1144   */\n      swap10\n      pop\n        /* \"#utility.yul\":1251:1253   */\n      0x40\n        /* \"#utility.yul\":1236:1254   */\n      dup14\n      add\n        /* \"#utility.yul\":1223:1255   */\n      calldataload\n      swap2\n      pop\n        /* \"#utility.yul\":1267:1283   */\n      dup1\n      dup3\n      gt\n        /* \"#utility.yul\":1264:1300   */\n      iszero\n      tag_52\n      jumpi\n        /* \"#utility.yul\":1296:1297   */\n      0x00\n        /* \"#utility.yul\":1293:1294   */\n      dup1\n        /* \"#utility.yul\":1286:1298   */\n      revert\n        /* \"#utility.yul\":1264:1300   */\n    tag_52:\n        /* \"#utility.yul\":1335:1396   */\n      tag_53\n        /* \"#utility.yul\":1388:1395   */\n      dup15\n        /* \"#utility.yul\":1377:1385   */\n      dup4\n        /* \"#utility.yul\":1366:1375   */\n      dup16\n        /* \"#utility.yul\":1362:1386   */\n      add\n        /* \"#utility.yul\":1335:1396   */\n      tag_40\n      jump\t// in\n    tag_53:\n        /* \"#utility.yul\":1415:1423   */\n      swap1\n      swap10\n      pop\n        /* \"#utility.yul\":1309:1396   */\n      swap8\n      pop\n        /* \"#utility.yul\":1497:1499   */\n      0x60\n        /* \"#utility.yul\":1482:1500   */\n      dup14\n      add\n        /* \"#utility.yul\":1469:1501   */\n      calldataload\n      swap7\n      pop\n        /* \"#utility.yul\":1554:1557   */\n      0x80\n        /* \"#utility.yul\":1539:1558   */\n      dup14\n      add\n        /* \"#utility.yul\":1526:1559   */\n      calldataload\n      swap2\n      pop\n        /* \"#utility.yul\":1571:1587   */\n      dup1\n      dup3\n      gt\n        /* \"#utility.yul\":1568:1604   */\n      iszero\n      tag_54\n      jumpi\n        /* \"#utility.yul\":1600:1601   */\n      0x00\n        /* \"#utility.yul\":1597:1598   */\n      dup1\n        /* \"#utility.yul\":1590:1602   */\n      revert\n        /* \"#utility.yul\":1568:1604   */\n    tag_54:\n        /* \"#utility.yul\":1639:1700   */\n      tag_55\n        /* \"#utility.yul\":1692:1699   */\n      dup15\n        /* \"#utility.yul\":1681:1689   */\n      dup4\n        /* \"#utility.yul\":1670:1679   */\n      dup16\n        /* \"#utility.yul\":1666:1690   */\n      add\n        /* \"#utility.yul\":1639:1700   */\n      tag_40\n      jump\t// in\n    tag_55:\n        /* \"#utility.yul\":1719:1727   */\n      swap1\n      swap7\n      pop\n        /* \"#utility.yul\":1613:1700   */\n      swap5\n      pop\n        /* \"#utility.yul\":1807:1810   */\n      0xa0\n        /* \"#utility.yul\":1792:1811   */\n      dup14\n      add\n        /* \"#utility.yul\":1779:1812   */\n      calldataload\n      swap2\n      pop\n        /* \"#utility.yul\":1824:1840   */\n      dup1\n      dup3\n      gt\n        /* \"#utility.yul\":1821:1857   */\n      iszero\n      tag_56\n      jumpi\n        /* \"#utility.yul\":1853:1854   */\n      0x00\n        /* \"#utility.yul\":1850:1851   */\n      dup1\n        /* \"#utility.yul\":1843:1855   */\n      revert\n        /* \"#utility.yul\":1821:1857   */\n    tag_56:\n      pop\n        /* \"#utility.yul\":1892:1953   */\n      tag_57\n        /* \"#utility.yul\":1945:1952   */\n      dup14\n        /* \"#utility.yul\":1934:1942   */\n      dup3\n        /* \"#utility.yul\":1923:1932   */\n      dup15\n        /* \"#utility.yul\":1919:1943   */\n      add\n        /* \"#utility.yul\":1892:1953   */\n      tag_40\n      jump\t// in\n    tag_57:\n        /* \"#utility.yul\":1866:1953   */\n      swap2\n      pop\n        /* \"#utility.yul\":1972:1980   */\n      dup1\n        /* \"#utility.yul\":1962:1980   */\n      swap4\n      pop\n      pop\n        /* \"#utility.yul\":1999:2007   */\n      dup1\n        /* \"#utility.yul\":1989:2007   */\n      swap2\n      pop\n      pop\n        /* \"#utility.yul\":575:2013   */\n      swap3\n      swap6\n      swap9\n      swap12\n      swap2\n      swap5\n      swap8\n      swap11\n      pop\n      swap3\n      swap6\n      swap9\n      pop\n      jump\t// out\n        /* \"#utility.yul\":2018:2198   */\n    tag_18:\n        /* \"#utility.yul\":2077:2083   */\n      0x00\n        /* \"#utility.yul\":2130:2132   */\n      0x20\n        /* \"#utility.yul\":2118:2127   */\n      dup3\n        /* \"#utility.yul\":2109:2116   */\n      dup5\n        /* \"#utility.yul\":2105:2128   */\n      sub\n        /* \"#utility.yul\":2101:2133   */\n      slt\n        /* \"#utility.yul\":2098:2150   */\n      iszero\n      tag_59\n      jumpi\n        /* \"#utility.yul\":2146:2147   */\n      0x00\n        /* \"#utility.yul\":2143:2144   */\n      dup1\n        /* \"#utility.yul\":2136:2148   */\n      revert\n        /* \"#utility.yul\":2098:2150   */\n    tag_59:\n      pop\n        /* \"#utility.yul\":2169:2192   */\n      calldataload\n      swap2\n        /* \"#utility.yul\":2018:2198   */\n      swap1\n      pop\n      jump\t// out\n        /* \"#utility.yul\":2203:2861   */\n    tag_25:\n        /* \"#utility.yul\":2374:2376   */\n      0x20\n        /* \"#utility.yul\":2426:2447   */\n      dup1\n      dup3\n      mstore\n        /* \"#utility.yul\":2496:2509   */\n      dup3\n      mload\n        /* \"#utility.yul\":2399:2417   */\n      dup3\n      dup3\n      add\n        /* \"#utility.yul\":2518:2540   */\n      dup2\n      swap1\n      mstore\n        /* \"#utility.yul\":2345:2349   */\n      0x00\n      swap2\n        /* \"#utility.yul\":2374:2376   */\n      swap1\n        /* \"#utility.yul\":2597:2612   */\n      dup5\n      dup3\n      add\n      swap1\n        /* \"#utility.yul\":2571:2573   */\n      0x40\n        /* \"#utility.yul\":2556:2574   */\n      dup6\n      add\n      swap1\n        /* \"#utility.yul\":2345:2349   */\n      dup5\n        /* \"#utility.yul\":2640:2835   */\n    tag_61:\n        /* \"#utility.yul\":2654:2660   */\n      dup2\n        /* \"#utility.yul\":2651:2652   */\n      dup2\n        /* \"#utility.yul\":2648:2661   */\n      lt\n        /* \"#utility.yul\":2640:2835   */\n      iszero\n      tag_63\n      jumpi\n        /* \"#utility.yul\":2719:2732   */\n      dup4\n      mload\n      sub(shl(0xa0, 0x01), 0x01)\n        /* \"#utility.yul\":2715:2754   */\n      and\n        /* \"#utility.yul\":2703:2755   */\n      dup4\n      mstore\n        /* \"#utility.yul\":2810:2825   */\n      swap3\n      dup5\n      add\n      swap3\n        /* \"#utility.yul\":2775:2787   */\n      swap2\n      dup5\n      add\n      swap2\n        /* \"#utility.yul\":2751:2752   */\n      0x01\n        /* \"#utility.yul\":2669:2678   */\n      add\n        /* \"#utility.yul\":2640:2835   */\n      jump(tag_61)\n    tag_63:\n      pop\n        /* \"#utility.yul\":2852:2855   */\n      swap1\n      swap7\n        /* \"#utility.yul\":2203:2861   */\n      swap6\n      pop\n      pop\n      pop\n      pop\n      pop\n      pop\n      jump\t// out\n        /* \"#utility.yul\":2866:3133   */\n    tag_41:\n        /* \"#utility.yul\":2955:2961   */\n      dup2\n        /* \"#utility.yul\":2950:2953   */\n      dup4\n        /* \"#utility.yul\":2943:2962   */\n      mstore\n        /* \"#utility.yul\":3007:3013   */\n      dup2\n        /* \"#utility.yul\":3000:3005   */\n      dup2\n        /* \"#utility.yul\":2993:2997   */\n      0x20\n        /* \"#utility.yul\":2988:2991   */\n      dup6\n        /* \"#utility.yul\":2984:2998   */\n      add\n        /* \"#utility.yul\":2971:3014   */\n      calldatacopy\n      pop\n        /* \"#utility.yul\":3059:3060   */\n      0x00\n        /* \"#utility.yul\":3034:3050   */\n      dup3\n      dup3\n      add\n        /* \"#utility.yul\":3052:3056   */\n      0x20\n        /* \"#utility.yul\":3030:3057   */\n      swap1\n      dup2\n      add\n        /* \"#utility.yul\":3023:3061   */\n      swap2\n      swap1\n      swap2\n      mstore\n        /* \"#utility.yul\":3115:3117   */\n      0x1f\n        /* \"#utility.yul\":3094:3109   */\n      swap1\n      swap2\n      add\n      not(0x1f)\n        /* \"#utility.yul\":3090:3119   */\n      and\n        /* \"#utility.yul\":3081:3120   */\n      swap1\n      swap2\n      add\n        /* \"#utility.yul\":3077:3127   */\n      add\n      swap1\n        /* \"#utility.yul\":2866:3133   */\n      jump\t// out\n        /* \"#utility.yul\":3138:4337   */\n    tag_30:\n        /* \"#utility.yul\":3617:3623   */\n      dup13\n        /* \"#utility.yul\":3606:3615   */\n      dup2\n        /* \"#utility.yul\":3599:3624   */\n      mstore\n        /* \"#utility.yul\":3660:3663   */\n      0x0100\n        /* \"#utility.yul\":3655:3657   */\n      0x20\n        /* \"#utility.yul\":3644:3653   */\n      dup3\n        /* \"#utility.yul\":3640:3658   */\n      add\n        /* \"#utility.yul\":3633:3664   */\n      mstore\n        /* \"#utility.yul\":3580:3584   */\n      0x00\n        /* \"#utility.yul\":3687:3750   */\n      tag_66\n        /* \"#utility.yul\":3745:3748   */\n      0x0100\n        /* \"#utility.yul\":3734:3743   */\n      dup4\n        /* \"#utility.yul\":3730:3749   */\n      add\n        /* \"#utility.yul\":3722:3728   */\n      dup14\n        /* \"#utility.yul\":3714:3720   */\n      dup16\n        /* \"#utility.yul\":3687:3750   */\n      tag_41\n      jump\t// in\n    tag_66:\n        /* \"#utility.yul\":3798:3807   */\n      dup3\n        /* \"#utility.yul\":3790:3796   */\n      dup2\n        /* \"#utility.yul\":3786:3808   */\n      sub\n        /* \"#utility.yul\":3781:3783   */\n      0x40\n        /* \"#utility.yul\":3770:3779   */\n      dup5\n        /* \"#utility.yul\":3766:3784   */\n      add\n        /* \"#utility.yul\":3759:3809   */\n      mstore\n        /* \"#utility.yul\":3832:3882   */\n      tag_67\n        /* \"#utility.yul\":3875:3881   */\n      dup2\n        /* \"#utility.yul\":3867:3873   */\n      dup13\n        /* \"#utility.yul\":3859:3865   */\n      dup15\n        /* \"#utility.yul\":3832:3882   */\n      tag_41\n      jump\t// in\n    tag_67:\n        /* \"#utility.yul\":3818:3882   */\n      swap1\n      pop\n        /* \"#utility.yul\":3918:3924   */\n      dup10\n        /* \"#utility.yul\":3913:3915   */\n      0x60\n        /* \"#utility.yul\":3902:3911   */\n      dup5\n        /* \"#utility.yul\":3898:3916   */\n      add\n        /* \"#utility.yul\":3891:3925   */\n      mstore\n        /* \"#utility.yul\":3974:3983   */\n      dup3\n        /* \"#utility.yul\":3966:3972   */\n      dup2\n        /* \"#utility.yul\":3962:3984   */\n      sub\n        /* \"#utility.yul\":3956:3959   */\n      0x80\n        /* \"#utility.yul\":3945:3954   */\n      dup5\n        /* \"#utility.yul\":3941:3960   */\n      add\n        /* \"#utility.yul\":3934:3985   */\n      mstore\n        /* \"#utility.yul\":4008:4058   */\n      tag_68\n        /* \"#utility.yul\":4051:4057   */\n      dup2\n        /* \"#utility.yul\":4043:4049   */\n      dup10\n        /* \"#utility.yul\":4035:4041   */\n      dup12\n        /* \"#utility.yul\":4008:4058   */\n      tag_41\n      jump\t// in\n    tag_68:\n        /* \"#utility.yul\":3994:4058   */\n      swap1\n      pop\n        /* \"#utility.yul\":4107:4116   */\n      dup3\n        /* \"#utility.yul\":4099:4105   */\n      dup2\n        /* \"#utility.yul\":4095:4117   */\n      sub\n        /* \"#utility.yul\":4089:4092   */\n      0xa0\n        /* \"#utility.yul\":4078:4087   */\n      dup5\n        /* \"#utility.yul\":4074:4093   */\n      add\n        /* \"#utility.yul\":4067:4118   */\n      mstore\n        /* \"#utility.yul\":4135:4185   */\n      tag_69\n        /* \"#utility.yul\":4178:4184   */\n      dup2\n        /* \"#utility.yul\":4170:4176   */\n      dup8\n        /* \"#utility.yul\":4162:4168   */\n      dup10\n        /* \"#utility.yul\":4135:4185   */\n      tag_41\n      jump\t// in\n    tag_69:\n      sub(shl(0xa0, 0x01), 0x01)\n        /* \"#utility.yul\":4260:4276   */\n      swap6\n      dup7\n      and\n        /* \"#utility.yul\":4254:4257   */\n      0xc0\n        /* \"#utility.yul\":4239:4258   */\n      dup6\n      add\n        /* \"#utility.yul\":4232:4277   */\n      mstore\n        /* \"#utility.yul\":4314:4330   */\n      swap4\n      swap1\n      swap5\n      and\n        /* \"#utility.yul\":4308:4311   */\n      0xe0\n        /* \"#utility.yul\":4293:4312   */\n      swap1\n      swap3\n      add\n        /* \"#utility.yul\":4286:4331   */\n      swap2\n      swap1\n      swap2\n      mstore\n      pop\n        /* \"#utility.yul\":4127:4185   */\n      swap12\n        /* \"#utility.yul\":3138:4337   */\n      swap11\n      pop\n      pop\n      pop\n      pop\n      pop\n      pop\n      pop\n      pop\n      pop\n      pop\n      pop\n      jump\t// out\n    stop\n\n    sub_0: assembly {\n            /* \"Contract.sol\":999:5179  contract MediaContract {... */\n          mstore(0x40, 0x80)\n            /* \"Contract.sol\":1485:2004  constructor (... */\n          mload(0x40)\n          sub(codesize, bytecodeSize)\n          dup1\n          bytecodeSize\n          dup4\n          codecopy\n          dup2\n          add\n          0x40\n          dup2\n          swap1\n          mstore\n          tag_1\n          swap2\n          tag_2\n          jump\t// in\n        tag_1:\n            /* \"Contract.sol\":1751:1759  customer */\n          0x00\n            /* \"Contract.sol\":1751:1773  customer = newCustomer */\n          dup1\n          sload\n          not(sub(shl(0xa0, 0x01), 0x01))\n          and\n          sub(shl(0xa0, 0x01), 0x01)\n          dup4\n          and\n          or\n          swap1\n          sstore\n            /* \"Contract.sol\":1779:1786  expires */\n          0x05\n            /* \"Contract.sol\":1779:1799  expires = expiration */\n          dup9\n          swap1\n          sstore\n            /* \"Contract.sol\":1805:1809  task */\n          0x03\n            /* \"Contract.sol\":1805:1820  task = tasking_ */\n          tag_5\n            /* \"Contract.sol\":1812:1820  tasking_ */\n          dup9\n            /* \"Contract.sol\":1805:1809  task */\n          dup3\n            /* \"Contract.sol\":1805:1820  task = tasking_ */\n          tag_6\n          jump\t// in\n        tag_5:\n          pop\n            /* \"Contract.sol\":1826:1832  format */\n          0x04\n            /* \"Contract.sol\":1826:1846  format = formatting_ */\n          tag_7\n            /* \"Contract.sol\":1835:1846  formatting_ */\n          dup8\n            /* \"Contract.sol\":1826:1832  format */\n          dup3\n            /* \"Contract.sol\":1826:1846  format = formatting_ */\n          tag_6\n          jump\t// in\n        tag_7:\n          pop\n            /* \"Contract.sol\":1852:1865  minimalLength */\n          0x07\n            /* \"Contract.sol\":1852:1882  minimalLength = minimalLength_ */\n          dup6\n          swap1\n          sstore\n            /* \"Contract.sol\":1888:1905  minimalResolution */\n          0x09\n            /* \"Contract.sol\":1888:1926  minimalResolution = minimalResolution_ */\n          tag_8\n            /* \"Contract.sol\":1908:1926  minimalResolution_ */\n          dup6\n            /* \"Contract.sol\":1888:1905  minimalResolution */\n          dup3\n            /* \"Contract.sol\":1888:1926  minimalResolution = minimalResolution_ */\n          tag_6\n          jump\t// in\n        tag_8:\n          pop\n            /* \"Contract.sol\":1932:1940  location */\n          0x0a\n            /* \"Contract.sol\":1932:1952  location = location_ */\n          tag_9\n            /* \"Contract.sol\":1943:1952  location_ */\n          dup5\n            /* \"Contract.sol\":1932:1940  location */\n          dup3\n            /* \"Contract.sol\":1932:1952  location = location_ */\n          tag_6\n          jump\t// in\n        tag_9:\n          pop\n            /* \"Contract.sol\":1958:1966  platform */\n          0x01\n            /* \"Contract.sol\":1958:1978  platform = platform_ */\n          dup1\n          sload\n          not(sub(shl(0xa0, 0x01), 0x01))\n          and\n          sub(shl(0xa0, 0x01), 0x01)\n          dup5\n          and\n          or\n          swap1\n          sstore\n            /* \"Contract.sol\":1984:1999  status = 'open' */\n          0x40\n          dup1\n          mload\n          dup1\n          dup3\n          add\n          swap1\n          swap2\n          mstore\n          0x04\n          dup2\n          mstore\n          shl(0xe1, 0x37b832b7)\n          0x20\n          dup3\n          add\n          mstore\n            /* \"Contract.sol\":1984:1990  status */\n          0x06\n          swap1\n            /* \"Contract.sol\":1984:1999  status = 'open' */\n          tag_10\n          swap1\n            /* \"Contract.sol\":1984:1990  status */\n          dup3\n            /* \"Contract.sol\":1984:1999  status = 'open' */\n          tag_6\n          jump\t// in\n        tag_10:\n          pop\n            /* \"Contract.sol\":1485:2004  constructor (... */\n          pop\n          pop\n          pop\n          pop\n          pop\n          pop\n          pop\n          pop\n            /* \"Contract.sol\":999:5179  contract MediaContract {... */\n          jump(tag_19)\n            /* \"#utility.yul\":14:141   */\n        tag_12:\n            /* \"#utility.yul\":75:85   */\n          0x4e487b71\n            /* \"#utility.yul\":70:73   */\n          0xe0\n            /* \"#utility.yul\":66:86   */\n          shl\n            /* \"#utility.yul\":63:64   */\n          0x00\n            /* \"#utility.yul\":56:87   */\n          mstore\n            /* \"#utility.yul\":106:110   */\n          0x41\n            /* \"#utility.yul\":103:104   */\n          0x04\n            /* \"#utility.yul\":96:111   */\n          mstore\n            /* \"#utility.yul\":130:134   */\n          0x24\n            /* \"#utility.yul\":127:128   */\n          0x00\n            /* \"#utility.yul\":120:135   */\n          revert\n            /* \"#utility.yul\":146:986   */\n        tag_13:\n            /* \"#utility.yul\":200:205   */\n          0x00\n            /* \"#utility.yul\":253:256   */\n          dup3\n            /* \"#utility.yul\":246:250   */\n          0x1f\n            /* \"#utility.yul\":238:244   */\n          dup4\n            /* \"#utility.yul\":234:251   */\n          add\n            /* \"#utility.yul\":230:257   */\n          slt\n            /* \"#utility.yul\":220:275   */\n          tag_22\n          jumpi\n            /* \"#utility.yul\":271:272   */\n          0x00\n            /* \"#utility.yul\":268:269   */\n          dup1\n            /* \"#utility.yul\":261:273   */\n          revert\n            /* \"#utility.yul\":220:275   */\n        tag_22:\n            /* \"#utility.yul\":294:307   */\n          dup2\n          mload\n          sub(shl(0x40, 0x01), 0x01)\n            /* \"#utility.yul\":356:366   */\n          dup1\n          dup3\n          gt\n            /* \"#utility.yul\":353:389   */\n          iszero\n          tag_24\n          jumpi\n            /* \"#utility.yul\":369:387   */\n          tag_24\n          tag_12\n          jump\t// in\n        tag_24:\n            /* \"#utility.yul\":444:446   */\n          0x40\n            /* \"#utility.yul\":438:447   */\n          mload\n            /* \"#utility.yul\":412:414   */\n          0x1f\n            /* \"#utility.yul\":498:511   */\n          dup4\n          add\n          not(0x1f)\n            /* \"#utility.yul\":494:516   */\n          swap1\n          dup2\n          and\n            /* \"#utility.yul\":518:520   */\n          0x3f\n            /* \"#utility.yul\":490:521   */\n          add\n            /* \"#utility.yul\":486:526   */\n          and\n            /* \"#utility.yul\":474:527   */\n          dup2\n          add\n          swap1\n            /* \"#utility.yul\":542:560   */\n          dup3\n          dup3\n          gt\n            /* \"#utility.yul\":562:584   */\n          dup2\n          dup4\n          lt\n            /* \"#utility.yul\":539:585   */\n          or\n            /* \"#utility.yul\":536:608   */\n          iszero\n          tag_26\n          jumpi\n            /* \"#utility.yul\":588:606   */\n          tag_26\n          tag_12\n          jump\t// in\n        tag_26:\n            /* \"#utility.yul\":628:638   */\n          dup2\n            /* \"#utility.yul\":624:626   */\n          0x40\n            /* \"#utility.yul\":617:639   */\n          mstore\n            /* \"#utility.yul\":663:665   */\n          dup4\n            /* \"#utility.yul\":655:661   */\n          dup2\n            /* \"#utility.yul\":648:666   */\n          mstore\n            /* \"#utility.yul\":685:689   */\n          0x20\n            /* \"#utility.yul\":675:689   */\n          swap3\n          pop\n            /* \"#utility.yul\":730:733   */\n          dup7\n            /* \"#utility.yul\":725:727   */\n          dup4\n            /* \"#utility.yul\":720:722   */\n          dup6\n            /* \"#utility.yul\":712:718   */\n          dup9\n            /* \"#utility.yul\":708:723   */\n          add\n            /* \"#utility.yul\":704:728   */\n          add\n            /* \"#utility.yul\":701:734   */\n          gt\n            /* \"#utility.yul\":698:751   */\n          iszero\n          tag_27\n          jumpi\n            /* \"#utility.yul\":747:748   */\n          0x00\n            /* \"#utility.yul\":744:745   */\n          dup1\n            /* \"#utility.yul\":737:749   */\n          revert\n            /* \"#utility.yul\":698:751   */\n        tag_27:\n            /* \"#utility.yul\":769:770   */\n          0x00\n            /* \"#utility.yul\":760:770   */\n          swap2\n          pop\n            /* \"#utility.yul\":779:912   */\n        tag_28:\n            /* \"#utility.yul\":793:795   */\n          dup4\n            /* \"#utility.yul\":790:791   */\n          dup3\n            /* \"#utility.yul\":787:796   */\n          lt\n            /* \"#utility.yul\":779:912   */\n          iszero\n          tag_30\n          jumpi\n            /* \"#utility.yul\":881:895   */\n          dup6\n          dup3\n          add\n            /* \"#utility.yul\":877:900   */\n          dup4\n          add\n            /* \"#utility.yul\":871:901   */\n          mload\n            /* \"#utility.yul\":850:864   */\n          dup2\n          dup4\n          add\n            /* \"#utility.yul\":846:869   */\n          dup5\n          add\n            /* \"#utility.yul\":839:902   */\n          mstore\n            /* \"#utility.yul\":804:814   */\n          swap1\n          dup3\n          add\n          swap1\n            /* \"#utility.yul\":779:912   */\n          jump(tag_28)\n        tag_30:\n            /* \"#utility.yul\":954:955   */\n          0x00\n            /* \"#utility.yul\":932:947   */\n          swap4\n          dup2\n          add\n            /* \"#utility.yul\":928:952   */\n          swap1\n          swap3\n          add\n            /* \"#utility.yul\":921:956   */\n          swap3\n          swap1\n          swap3\n          mstore\n            /* \"#utility.yul\":936:942   */\n          swap5\n            /* \"#utility.yul\":146:986   */\n          swap4\n          pop\n          pop\n          pop\n          pop\n          jump\t// out\n            /* \"#utility.yul\":991:1176   */\n        tag_14:\n            /* \"#utility.yul\":1078:1091   */\n          dup1\n          mload\n          sub(shl(0xa0, 0x01), 0x01)\n            /* \"#utility.yul\":1120:1151   */\n          dup2\n          and\n            /* \"#utility.yul\":1110:1152   */\n          dup2\n          eq\n            /* \"#utility.yul\":1100:1170   */\n          tag_32\n          jumpi\n            /* \"#utility.yul\":1166:1167   */\n          0x00\n            /* \"#utility.yul\":1163:1164   */\n          dup1\n            /* \"#utility.yul\":1156:1168   */\n          revert\n            /* \"#utility.yul\":1100:1170   */\n        tag_32:\n            /* \"#utility.yul\":991:1176   */\n          swap2\n          swap1\n          pop\n          jump\t// out\n            /* \"#utility.yul\":1181:2480   */\n        tag_2:\n            /* \"#utility.yul\":1370:1376   */\n          0x00\n            /* \"#utility.yul\":1378:1384   */\n          dup1\n            /* \"#utility.yul\":1386:1392   */\n          0x00\n            /* \"#utility.yul\":1394:1400   */\n          dup1\n            /* \"#utility.yul\":1402:1408   */\n          0x00\n            /* \"#utility.yul\":1410:1416   */\n          dup1\n            /* \"#utility.yul\":1418:1424   */\n          0x00\n            /* \"#utility.yul\":1426:1432   */\n          dup1\n            /* \"#utility.yul\":1479:1482   */\n          0x0100\n            /* \"#utility.yul\":1467:1476   */\n          dup10\n            /* \"#utility.yul\":1458:1465   */\n          dup12\n            /* \"#utility.yul\":1454:1477   */\n          sub\n            /* \"#utility.yul\":1450:1483   */\n          slt\n            /* \"#utility.yul\":1447:1500   */\n          iszero\n          tag_34\n          jumpi\n            /* \"#utility.yul\":1496:1497   */\n          0x00\n            /* \"#utility.yul\":1493:1494   */\n          dup1\n            /* \"#utility.yul\":1486:1498   */\n          revert\n            /* \"#utility.yul\":1447:1500   */\n        tag_34:\n            /* \"#utility.yul\":1519:1535   */\n          dup9\n          mload\n            /* \"#utility.yul\":1579:1581   */\n          0x20\n            /* \"#utility.yul\":1564:1582   */\n          dup11\n          add\n            /* \"#utility.yul\":1558:1583   */\n          mload\n            /* \"#utility.yul\":1519:1535   */\n          swap1\n          swap9\n          pop\n          sub(shl(0x40, 0x01), 0x01)\n            /* \"#utility.yul\":1632:1646   */\n          dup1\n          dup3\n          gt\n            /* \"#utility.yul\":1629:1663   */\n          iszero\n          tag_35\n          jumpi\n            /* \"#utility.yul\":1659:1660   */\n          0x00\n            /* \"#utility.yul\":1656:1657   */\n          dup1\n            /* \"#utility.yul\":1649:1661   */\n          revert\n            /* \"#utility.yul\":1629:1663   */\n        tag_35:\n            /* \"#utility.yul\":1682:1743   */\n          tag_36\n            /* \"#utility.yul\":1735:1742   */\n          dup13\n            /* \"#utility.yul\":1726:1732   */\n          dup4\n            /* \"#utility.yul\":1715:1724   */\n          dup14\n            /* \"#utility.yul\":1711:1733   */\n          add\n            /* \"#utility.yul\":1682:1743   */\n          tag_13\n          jump\t// in\n        tag_36:\n            /* \"#utility.yul\":1672:1743   */\n          swap9\n          pop\n            /* \"#utility.yul\":1789:1791   */\n          0x40\n            /* \"#utility.yul\":1778:1787   */\n          dup12\n            /* \"#utility.yul\":1774:1792   */\n          add\n            /* \"#utility.yul\":1768:1793   */\n          mload\n            /* \"#utility.yul\":1752:1793   */\n          swap2\n          pop\n            /* \"#utility.yul\":1818:1820   */\n          dup1\n            /* \"#utility.yul\":1808:1816   */\n          dup3\n            /* \"#utility.yul\":1805:1821   */\n          gt\n            /* \"#utility.yul\":1802:1838   */\n          iszero\n          tag_37\n          jumpi\n            /* \"#utility.yul\":1834:1835   */\n          0x00\n            /* \"#utility.yul\":1831:1832   */\n          dup1\n            /* \"#utility.yul\":1824:1836   */\n          revert\n            /* \"#utility.yul\":1802:1838   */\n        tag_37:\n            /* \"#utility.yul\":1857:1920   */\n          tag_38\n            /* \"#utility.yul\":1912:1919   */\n          dup13\n            /* \"#utility.yul\":1901:1909   */\n          dup4\n            /* \"#utility.yul\":1890:1899   */\n          dup14\n            /* \"#utility.yul\":1886:1910   */\n          add\n            /* \"#utility.yul\":1857:1920   */\n          tag_13\n          jump\t// in\n        tag_38:\n            /* \"#utility.yul\":1847:1920   */\n          swap8\n          pop\n            /* \"#utility.yul\":1960:1962   */\n          0x60\n            /* \"#utility.yul\":1949:1958   */\n          dup12\n            /* \"#utility.yul\":1945:1963   */\n          add\n            /* \"#utility.yul\":1939:1964   */\n          mload\n            /* \"#utility.yul\":1929:1964   */\n          swap7\n          pop\n            /* \"#utility.yul\":2010:2013   */\n          0x80\n            /* \"#utility.yul\":1999:2008   */\n          dup12\n            /* \"#utility.yul\":1995:2014   */\n          add\n            /* \"#utility.yul\":1989:2015   */\n          mload\n            /* \"#utility.yul\":1973:2015   */\n          swap2\n          pop\n            /* \"#utility.yul\":2040:2042   */\n          dup1\n            /* \"#utility.yul\":2030:2038   */\n          dup3\n            /* \"#utility.yul\":2027:2043   */\n          gt\n            /* \"#utility.yul\":2024:2060   */\n          iszero\n          tag_39\n          jumpi\n            /* \"#utility.yul\":2056:2057   */\n          0x00\n            /* \"#utility.yul\":2053:2054   */\n          dup1\n            /* \"#utility.yul\":2046:2058   */\n          revert\n            /* \"#utility.yul\":2024:2060   */\n        tag_39:\n            /* \"#utility.yul\":2079:2142   */\n          tag_40\n            /* \"#utility.yul\":2134:2141   */\n          dup13\n            /* \"#utility.yul\":2123:2131   */\n          dup4\n            /* \"#utility.yul\":2112:2121   */\n          dup14\n            /* \"#utility.yul\":2108:2132   */\n          add\n            /* \"#utility.yul\":2079:2142   */\n          tag_13\n          jump\t// in\n        tag_40:\n            /* \"#utility.yul\":2069:2142   */\n          swap6\n          pop\n            /* \"#utility.yul\":2188:2191   */\n          0xa0\n            /* \"#utility.yul\":2177:2186   */\n          dup12\n            /* \"#utility.yul\":2173:2192   */\n          add\n            /* \"#utility.yul\":2167:2193   */\n          mload\n            /* \"#utility.yul\":2151:2193   */\n          swap2\n          pop\n            /* \"#utility.yul\":2218:2220   */\n          dup1\n            /* \"#utility.yul\":2208:2216   */\n          dup3\n            /* \"#utility.yul\":2205:2221   */\n          gt\n            /* \"#utility.yul\":2202:2238   */\n          iszero\n          tag_41\n          jumpi\n            /* \"#utility.yul\":2234:2235   */\n          0x00\n            /* \"#utility.yul\":2231:2232   */\n          dup1\n            /* \"#utility.yul\":2224:2236   */\n          revert\n            /* \"#utility.yul\":2202:2238   */\n        tag_41:\n          pop\n            /* \"#utility.yul\":2257:2320   */\n          tag_42\n            /* \"#utility.yul\":2312:2319   */\n          dup12\n            /* \"#utility.yul\":2301:2309   */\n          dup3\n            /* \"#utility.yul\":2290:2299   */\n          dup13\n            /* \"#utility.yul\":2286:2310   */\n          add\n            /* \"#utility.yul\":2257:2320   */\n          tag_13\n          jump\t// in\n        tag_42:\n            /* \"#utility.yul\":2247:2320   */\n          swap4\n          pop\n          pop\n            /* \"#utility.yul\":2339:2397   */\n          tag_43\n            /* \"#utility.yul\":2392:2395   */\n          0xc0\n            /* \"#utility.yul\":2381:2390   */\n          dup11\n            /* \"#utility.yul\":2377:2396   */\n          add\n            /* \"#utility.yul\":2339:2397   */\n          tag_14\n          jump\t// in\n        tag_43:\n            /* \"#utility.yul\":2329:2397   */\n          swap2\n          pop\n            /* \"#utility.yul\":2416:2474   */\n          tag_44\n            /* \"#utility.yul\":2469:2472   */\n          0xe0\n            /* \"#utility.yul\":2458:2467   */\n          dup11\n            /* \"#utility.yul\":2454:2473   */\n          add\n            /* \"#utility.yul\":2416:2474   */\n          tag_14\n          jump\t// in\n        tag_44:\n            /* \"#utility.yul\":2406:2474   */\n          swap1\n          pop\n            /* \"#utility.yul\":1181:2480   */\n          swap3\n          swap6\n          swap9\n          pop\n          swap3\n          swap6\n          swap9\n          swap1\n          swap4\n          swap7\n          pop\n          jump\t// out\n            /* \"#utility.yul\":2485:2865   */\n        tag_15:\n            /* \"#utility.yul\":2564:2565   */\n          0x01\n            /* \"#utility.yul\":2560:2572   */\n          dup2\n          dup2\n          shr\n          swap1\n            /* \"#utility.yul\":2607:2619   */\n          dup3\n          and\n          dup1\n            /* \"#utility.yul\":2628:2689   */\n          tag_46\n          jumpi\n            /* \"#utility.yul\":2682:2686   */\n          0x7f\n            /* \"#utility.yul\":2674:2680   */\n          dup3\n            /* \"#utility.yul\":2670:2687   */\n          and\n            /* \"#utility.yul\":2660:2687   */\n          swap2\n          pop\n            /* \"#utility.yul\":2628:2689   */\n        tag_46:\n            /* \"#utility.yul\":2735:2737   */\n          0x20\n            /* \"#utility.yul\":2727:2733   */\n          dup3\n            /* \"#utility.yul\":2724:2738   */\n          lt\n            /* \"#utility.yul\":2704:2722   */\n          dup2\n            /* \"#utility.yul\":2701:2739   */\n          sub\n            /* \"#utility.yul\":2698:2859   */\n          tag_47\n          jumpi\n            /* \"#utility.yul\":2781:2791   */\n          0x4e487b71\n            /* \"#utility.yul\":2776:2779   */\n          0xe0\n            /* \"#utility.yul\":2772:2792   */\n          shl\n            /* \"#utility.yul\":2769:2770   */\n          0x00\n            /* \"#utility.yul\":2762:2793   */\n          mstore\n            /* \"#utility.yul\":2816:2820   */\n          0x22\n            /* \"#utility.yul\":2813:2814   */\n          0x04\n            /* \"#utility.yul\":2806:2821   */\n          mstore\n            /* \"#utility.yul\":2844:2848   */\n          0x24\n            /* \"#utility.yul\":2841:2842   */\n          0x00\n            /* \"#utility.yul\":2834:2849   */\n          revert\n            /* \"#utility.yul\":2698:2859   */\n        tag_47:\n          pop\n            /* \"#utility.yul\":2485:2865   */\n          swap2\n          swap1\n          pop\n          jump\t// out\n            /* \"#utility.yul\":2996:3541   */\n        tag_17:\n            /* \"#utility.yul\":3098:3100   */\n          0x1f\n            /* \"#utility.yul\":3093:3096   */\n          dup3\n            /* \"#utility.yul\":3090:3101   */\n          gt\n            /* \"#utility.yul\":3087:3535   */\n          iszero\n          tag_50\n          jumpi\n            /* \"#utility.yul\":3134:3135   */\n          0x00\n            /* \"#utility.yul\":3159:3164   */\n          dup2\n            /* \"#utility.yul\":3155:3157   */\n          dup2\n            /* \"#utility.yul\":3148:3165   */\n          mstore\n            /* \"#utility.yul\":3204:3208   */\n          0x20\n            /* \"#utility.yul\":3200:3202   */\n          dup2\n            /* \"#utility.yul\":3190:3209   */\n          keccak256\n            /* \"#utility.yul\":3274:3276   */\n          0x1f\n            /* \"#utility.yul\":3262:3272   */\n          dup6\n            /* \"#utility.yul\":3258:3277   */\n          add\n            /* \"#utility.yul\":3255:3256   */\n          0x05\n            /* \"#utility.yul\":3251:3278   */\n          shr\n            /* \"#utility.yul\":3245:3249   */\n          dup2\n            /* \"#utility.yul\":3241:3279   */\n          add\n            /* \"#utility.yul\":3310:3314   */\n          0x20\n            /* \"#utility.yul\":3298:3308   */\n          dup7\n            /* \"#utility.yul\":3295:3315   */\n          lt\n            /* \"#utility.yul\":3292:3339   */\n          iszero\n          tag_51\n          jumpi\n          pop\n            /* \"#utility.yul\":3333:3337   */\n          dup1\n            /* \"#utility.yul\":3292:3339   */\n        tag_51:\n            /* \"#utility.yul\":3388:3390   */\n          0x1f\n            /* \"#utility.yul\":3383:3386   */\n          dup6\n            /* \"#utility.yul\":3379:3391   */\n          add\n            /* \"#utility.yul\":3376:3377   */\n          0x05\n            /* \"#utility.yul\":3372:3392   */\n          shr\n            /* \"#utility.yul\":3366:3370   */\n          dup3\n            /* \"#utility.yul\":3362:3393   */\n          add\n            /* \"#utility.yul\":3352:3393   */\n          swap2\n          pop\n            /* \"#utility.yul\":3443:3525   */\n        tag_52:\n            /* \"#utility.yul\":3461:3463   */\n          dup2\n            /* \"#utility.yul\":3454:3459   */\n          dup2\n            /* \"#utility.yul\":3451:3464   */\n          lt\n            /* \"#utility.yul\":3443:3525   */\n          iszero\n          tag_54\n          jumpi\n            /* \"#utility.yul\":3506:3523   */\n          dup3\n          dup2\n          sstore\n            /* \"#utility.yul\":3487:3488   */\n          0x01\n            /* \"#utility.yul\":3476:3489   */\n          add\n            /* \"#utility.yul\":3443:3525   */\n          jump(tag_52)\n        tag_54:\n            /* \"#utility.yul\":3447:3450   */\n          pop\n          pop\n          pop\n            /* \"#utility.yul\":3087:3535   */\n        tag_50:\n            /* \"#utility.yul\":2996:3541   */\n          pop\n          pop\n          pop\n          jump\t// out\n            /* \"#utility.yul\":3717:5069   */\n        tag_6:\n            /* \"#utility.yul\":3837:3847   */\n          dup2\n          mload\n          sub(shl(0x40, 0x01), 0x01)\n            /* \"#utility.yul\":3859:3889   */\n          dup2\n          gt\n            /* \"#utility.yul\":3856:3912   */\n          iszero\n          tag_58\n          jumpi\n            /* \"#utility.yul\":3892:3910   */\n          tag_58\n          tag_12\n          jump\t// in\n        tag_58:\n            /* \"#utility.yul\":3921:4018   */\n          tag_59\n            /* \"#utility.yul\":4011:4017   */\n          dup2\n            /* \"#utility.yul\":3971:4009   */\n          tag_60\n            /* \"#utility.yul\":4003:4007   */\n          dup5\n            /* \"#utility.yul\":3997:4008   */\n          sload\n            /* \"#utility.yul\":3971:4009   */\n          tag_15\n          jump\t// in\n        tag_60:\n            /* \"#utility.yul\":3965:3969   */\n          dup5\n            /* \"#utility.yul\":3921:4018   */\n          tag_17\n          jump\t// in\n        tag_59:\n            /* \"#utility.yul\":4073:4077   */\n          0x20\n          dup1\n            /* \"#utility.yul\":4137:4139   */\n          0x1f\n            /* \"#utility.yul\":4126:4140   */\n          dup4\n          gt\n            /* \"#utility.yul\":4154:4155   */\n          0x01\n            /* \"#utility.yul\":4149:4812   */\n          dup2\n          eq\n          tag_62\n          jumpi\n            /* \"#utility.yul\":4856:4857   */\n          0x00\n            /* \"#utility.yul\":4873:4879   */\n          dup5\n            /* \"#utility.yul\":4870:4959   */\n          iszero\n          tag_63\n          jumpi\n          pop\n            /* \"#utility.yul\":4925:4944   */\n          dup6\n          dup4\n          add\n            /* \"#utility.yul\":4919:4945   */\n          mload\n            /* \"#utility.yul\":4870:4959   */\n        tag_63:\n          not(0x00)\n            /* \"#utility.yul\":3674:3675   */\n          0x03\n            /* \"#utility.yul\":3670:3681   */\n          dup7\n          swap1\n          shl\n            /* \"#utility.yul\":3666:3690   */\n          shr\n            /* \"#utility.yul\":3662:3691   */\n          not\n            /* \"#utility.yul\":3652:3692   */\n          and\n            /* \"#utility.yul\":3698:3699   */\n          0x01\n            /* \"#utility.yul\":3694:3705   */\n          dup6\n          swap1\n          shl\n            /* \"#utility.yul\":3649:3706   */\n          or\n            /* \"#utility.yul\":4972:5053   */\n          dup6\n          sstore\n            /* \"#utility.yul\":4119:5063   */\n          jump(tag_54)\n            /* \"#utility.yul\":4149:4812   */\n        tag_62:\n            /* \"#utility.yul\":2943:2944   */\n          0x00\n            /* \"#utility.yul\":2936:2950   */\n          dup6\n          dup2\n          mstore\n            /* \"#utility.yul\":2980:2984   */\n          0x20\n            /* \"#utility.yul\":2967:2985   */\n          dup2\n          keccak256\n          not(0x1f)\n            /* \"#utility.yul\":4185:4205   */\n          dup7\n          and\n          swap2\n            /* \"#utility.yul\":4303:4539   */\n        tag_66:\n            /* \"#utility.yul\":4317:4324   */\n          dup3\n            /* \"#utility.yul\":4314:4315   */\n          dup2\n            /* \"#utility.yul\":4311:4325   */\n          lt\n            /* \"#utility.yul\":4303:4539   */\n          iszero\n          tag_68\n          jumpi\n            /* \"#utility.yul\":4406:4425   */\n          dup9\n          dup7\n          add\n            /* \"#utility.yul\":4400:4426   */\n          mload\n            /* \"#utility.yul\":4385:4427   */\n          dup3\n          sstore\n            /* \"#utility.yul\":4498:4525   */\n          swap5\n          dup5\n          add\n          swap5\n            /* \"#utility.yul\":4466:4467   */\n          0x01\n            /* \"#utility.yul\":4454:4468   */\n          swap1\n          swap2\n          add\n          swap1\n            /* \"#utility.yul\":4333:4352   */\n          dup5\n          add\n            /* \"#utility.yul\":4303:4539   */\n          jump(tag_66)\n        tag_68:\n            /* \"#utility.yul\":4307:4310   */\n          pop\n            /* \"#utility.yul\":4567:4573   */\n          dup6\n            /* \"#utility.yul\":4558:4565   */\n          dup3\n            /* \"#utility.yul\":4555:4574   */\n          lt\n            /* \"#utility.yul\":4552:4753   */\n          iszero\n          tag_69\n          jumpi\n            /* \"#utility.yul\":4628:4647   */\n          dup8\n          dup6\n          add\n            /* \"#utility.yul\":4622:4648   */\n          mload\n          not(0x00)\n            /* \"#utility.yul\":4711:4712   */\n          0x03\n            /* \"#utility.yul\":4707:4721   */\n          dup9\n          swap1\n          shl\n            /* \"#utility.yul\":4723:4726   */\n          0xf8\n            /* \"#utility.yul\":4703:4727   */\n          and\n            /* \"#utility.yul\":4699:4736   */\n          shr\n            /* \"#utility.yul\":4695:4737   */\n          not\n            /* \"#utility.yul\":4680:4738   */\n          and\n            /* \"#utility.yul\":4665:4739   */\n          dup2\n          sstore\n            /* \"#utility.yul\":4552:4753   */\n        tag_69:\n          pop\n          pop\n          pop\n          pop\n          pop\n            /* \"#utility.yul\":4799:4800   */\n          0x01\n            /* \"#utility.yul\":4783:4797   */\n          swap1\n          dup2\n          shl\n            /* \"#utility.yul\":4779:4801   */\n          add\n            /* \"#utility.yul\":4766:4802   */\n          swap1\n          sstore\n          pop\n            /* \"#utility.yul\":3717:5069   */\n          jump\t// out\n        tag_19:\n            /* \"Contract.sol\":999:5179  contract MediaContract {... */\n          dataSize(sub_0)\n          dup1\n          dataOffset(sub_0)\n          0x00\n          codecopy\n          0x00\n          return\n        stop\n\n        sub_0: assembly {\n                /* \"Contract.sol\":999:5179  contract MediaContract {... */\n              mstore(0x40, 0x80)\n              jumpi(tag_1, lt(calldatasize, 0x04))\n              shr(0xe0, calldataload(0x00))\n              dup1\n              0x6a2e23f5\n              gt\n              tag_24\n              jumpi\n              dup1\n              0xaf3b19e5\n              gt\n              tag_25\n              jumpi\n              dup1\n              0xaf3b19e5\n              eq\n              tag_18\n              jumpi\n              dup1\n              0xb1cb0db3\n              eq\n              tag_19\n              jumpi\n              dup1\n              0xcc5be574\n              eq\n              tag_20\n              jumpi\n              dup1\n              0xd5252dcf\n              eq\n              tag_21\n              jumpi\n              dup1\n              0xf0de67ac\n              eq\n              tag_22\n              jumpi\n              dup1\n              0xf32370e7\n              eq\n              tag_23\n              jumpi\n              0x00\n              dup1\n              revert\n            tag_25:\n              dup1\n              0x6a2e23f5\n              eq\n              tag_13\n              jumpi\n              dup1\n              0x6a76ae98\n              eq\n              tag_14\n              jumpi\n              dup1\n              0x9b221c7d\n              eq\n              tag_15\n              jumpi\n              dup1\n              0x9d9e27d9\n              eq\n              tag_16\n              jumpi\n              dup1\n              0xadd08a8e\n              eq\n              tag_17\n              jumpi\n              0x00\n              dup1\n              revert\n            tag_24:\n              dup1\n              0x2d237d21\n              gt\n              tag_26\n              jumpi\n              dup1\n              0x2d237d21\n              eq\n              tag_7\n              jumpi\n              dup1\n              0x3283f641\n              eq\n              tag_8\n              jumpi\n              dup1\n              0x4051ddac\n              eq\n              tag_9\n              jumpi\n              dup1\n              0x4bde38c8\n              eq\n              tag_10\n              jumpi\n              dup1\n              0x516f279e\n              eq\n              tag_11\n              jumpi\n              dup1\n              0x610be654\n              eq\n              tag_12\n              jumpi\n              0x00\n              dup1\n              revert\n            tag_26:\n              dup1\n              0x010ec441\n              eq\n              tag_2\n              jumpi\n              dup1\n              0x16fb96ad\n              eq\n              tag_3\n              jumpi\n              dup1\n              0x200d2ed2\n              eq\n              tag_4\n              jumpi\n              dup1\n              0x2804b2c0\n              eq\n              tag_5\n              jumpi\n              dup1\n              0x295f1b4d\n              eq\n              tag_6\n              jumpi\n            tag_1:\n              0x00\n              dup1\n              revert\n                /* \"Contract.sol\":1096:1127  address payable public reporter */\n            tag_2:\n              callvalue\n              dup1\n              iszero\n              tag_27\n              jumpi\n              0x00\n              dup1\n              revert\n            tag_27:\n              pop\n              sload(0x02)\n              tag_28\n              swap1\n              sub(shl(0xa0, 0x01), 0x01)\n              and\n              dup2\n              jump\n            tag_28:\n              mload(0x40)\n              sub(shl(0xa0, 0x01), 0x01)\n                /* \"#utility.yul\":311:343   */\n              swap1\n              swap2\n              and\n                /* \"#utility.yul\":293:344   */\n              dup2\n              mstore\n                /* \"#utility.yul\":281:283   */\n              0x20\n                /* \"#utility.yul\":266:284   */\n              add\n                /* \"Contract.sol\":1096:1127  address payable public reporter */\n            tag_30:\n              mload(0x40)\n              dup1\n              swap2\n              sub\n              swap1\n              return\n                /* \"Contract.sol\":3804:4020  function platformCloseContract() public {... */\n            tag_3:\n              callvalue\n              dup1\n              iszero\n              tag_32\n              jumpi\n              0x00\n              dup1\n              revert\n            tag_32:\n              pop\n              tag_33\n              tag_34\n              jump\t// in\n            tag_33:\n              stop\n                /* \"Contract.sol\":1200:1220  string public status */\n            tag_4:\n              callvalue\n              dup1\n              iszero\n              tag_35\n              jumpi\n              0x00\n              dup1\n              revert\n            tag_35:\n              pop\n              tag_36\n              tag_37\n              jump\t// in\n            tag_36:\n              mload(0x40)\n              tag_30\n              swap2\n              swap1\n              tag_39\n              jump\t// in\n                /* \"Contract.sol\":1026:1057  address payable public customer */\n            tag_5:\n              callvalue\n              dup1\n              iszero\n              tag_40\n              jumpi\n              0x00\n              dup1\n              revert\n            tag_40:\n              pop\n              sload(0x00)\n              tag_28\n              swap1\n              sub(shl(0xa0, 0x01), 0x01)\n              and\n              dup2\n              jump\n                /* \"Contract.sol\":2686:2922  function disputeProposal() public {... */\n            tag_6:\n              callvalue\n              dup1\n              iszero\n              tag_44\n              jumpi\n              0x00\n              dup1\n              revert\n            tag_44:\n              pop\n              tag_33\n              tag_46\n              jump\t// in\n                /* \"Contract.sol\":1351:1381  string[] public mediaAddresses */\n            tag_7:\n              callvalue\n              dup1\n              iszero\n              tag_47\n              jumpi\n              0x00\n              dup1\n              revert\n            tag_47:\n              pop\n              tag_36\n              tag_49\n              calldatasize\n              0x04\n              tag_50\n              jump\t// in\n            tag_49:\n              tag_51\n              jump\t// in\n                /* \"Contract.sol\":1131:1149  string public task */\n            tag_8:\n              callvalue\n              dup1\n              iszero\n              tag_53\n              jumpi\n              0x00\n              dup1\n              revert\n            tag_53:\n              pop\n              tag_36\n              tag_55\n              jump\t// in\n                /* \"Contract.sol\":4441:4916  function getSummary() public view returns (... */\n            tag_9:\n              callvalue\n              dup1\n              iszero\n              tag_57\n              jumpi\n              0x00\n              dup1\n              revert\n            tag_57:\n              pop\n              tag_58\n              tag_59\n              jump\t// in\n            tag_58:\n              mload(0x40)\n              tag_30\n              swap13\n              swap12\n              swap11\n              swap10\n              swap9\n              swap8\n              swap7\n              swap6\n              swap5\n              swap4\n              swap3\n              swap2\n              swap1\n              tag_61\n              jump\t// in\n                /* \"Contract.sol\":1061:1092  address payable public platform */\n            tag_10:\n              callvalue\n              dup1\n              iszero\n              tag_62\n              jumpi\n              0x00\n              dup1\n              revert\n            tag_62:\n              pop\n              sload(0x01)\n              tag_28\n              swap1\n              sub(shl(0xa0, 0x01), 0x01)\n              and\n              dup2\n              jump\n                /* \"Contract.sol\":1325:1347  string public location */\n            tag_11:\n              callvalue\n              dup1\n              iszero\n              tag_66\n              jumpi\n              0x00\n              dup1\n              revert\n            tag_66:\n              pop\n              tag_36\n              tag_68\n              jump\t// in\n                /* \"Contract.sol\":3535:3800  function closeContract() public {... */\n            tag_12:\n              callvalue\n              dup1\n              iszero\n              tag_70\n              jumpi\n              0x00\n              dup1\n              revert\n            tag_70:\n              pop\n              tag_33\n              tag_72\n              jump\t// in\n                /* \"Contract.sol\":2926:3183  function acceptDispute() public {... */\n            tag_13:\n              callvalue\n              dup1\n              iszero\n              tag_73\n              jumpi\n              0x00\n              dup1\n              revert\n            tag_73:\n              pop\n              tag_33\n              tag_75\n              jump\t// in\n                /* \"Contract.sol\":4338:4437  function getMediaAddresses() public view returns (string[] memory) {... */\n            tag_14:\n              callvalue\n              dup1\n              iszero\n              tag_76\n              jumpi\n              0x00\n              dup1\n              revert\n            tag_76:\n              pop\n              tag_77\n              tag_78\n              jump\t// in\n            tag_77:\n              mload(0x40)\n              tag_30\n              swap2\n              swap1\n              tag_80\n              jump\t// in\n                /* \"Contract.sol\":1224:1249  uint public minimalLength */\n            tag_15:\n              callvalue\n              dup1\n              iszero\n              tag_81\n              jumpi\n              0x00\n              dup1\n              revert\n            tag_81:\n              pop\n              tag_82\n              sload(0x07)\n              dup2\n              jump\n            tag_82:\n              mload(0x40)\n                /* \"#utility.yul\":3893:3918   */\n              swap1\n              dup2\n              mstore\n                /* \"#utility.yul\":3881:3883   */\n              0x20\n                /* \"#utility.yul\":3866:3884   */\n              add\n                /* \"Contract.sol\":1224:1249  uint public minimalLength */\n              tag_30\n                /* \"#utility.yul\":3747:3924   */\n              jump\n                /* \"Contract.sol\":1290:1321  string public minimalResolution */\n            tag_16:\n              callvalue\n              dup1\n              iszero\n              tag_86\n              jumpi\n              0x00\n              dup1\n              revert\n            tag_86:\n              pop\n              tag_36\n              tag_88\n              jump\t// in\n                /* \"Contract.sol\":2008:2324  function proposeMedia(string[] memory addresses) public {... */\n            tag_17:\n              callvalue\n              dup1\n              iszero\n              tag_90\n              jumpi\n              0x00\n              dup1\n              revert\n            tag_90:\n              pop\n              tag_33\n              tag_92\n              calldatasize\n              0x04\n              tag_93\n              jump\t// in\n            tag_92:\n              tag_94\n              jump\t// in\n                /* \"Contract.sol\":2328:2682  function acceptProposal() public payable {... */\n            tag_18:\n              tag_33\n              tag_96\n              jump\t// in\n                /* \"Contract.sol\":1177:1196  uint public expires */\n            tag_19:\n              callvalue\n              dup1\n              iszero\n              tag_97\n              jumpi\n              0x00\n              dup1\n              revert\n            tag_97:\n              pop\n              tag_82\n              sload(0x05)\n              dup2\n              jump\n                /* \"Contract.sol\":1253:1286  string public specialInstructions */\n            tag_20:\n              callvalue\n              dup1\n              iszero\n              tag_101\n              jumpi\n              0x00\n              dup1\n              revert\n            tag_101:\n              pop\n              tag_36\n              tag_103\n              jump\t// in\n                /* \"Contract.sol\":4024:4334  function renewContract(uint newExpiration) public {... */\n            tag_21:\n              callvalue\n              dup1\n              iszero\n              tag_105\n              jumpi\n              0x00\n              dup1\n              revert\n            tag_105:\n              pop\n              tag_33\n              tag_107\n              calldatasize\n              0x04\n              tag_50\n              jump\t// in\n            tag_107:\n              tag_108\n              jump\t// in\n                /* \"Contract.sol\":1153:1173  string public format */\n            tag_22:\n              callvalue\n              dup1\n              iszero\n              tag_109\n              jumpi\n              0x00\n              dup1\n              revert\n            tag_109:\n              pop\n              tag_36\n              tag_111\n              jump\t// in\n                /* \"Contract.sol\":3187:3531  function rejectDispute() public payable {... */\n            tag_23:\n              tag_33\n              tag_114\n              jump\t// in\n                /* \"Contract.sol\":3804:4020  function platformCloseContract() public {... */\n            tag_34:\n                /* \"Contract.sol\":3872:3880  platform */\n              and(sub(shl(0xa0, 0x01), 0x01), sload(0x01))\n                /* \"Contract.sol\":3858:3868  msg.sender */\n              caller\n                /* \"Contract.sol\":3858:3880  msg.sender == platform */\n              eq\n                /* \"Contract.sol\":3850:3881  require(msg.sender == platform) */\n              tag_116\n              jumpi\n              0x00\n              dup1\n              revert\n            tag_116:\n                /* \"Contract.sol\":3887:3904  status = 'closed' */\n              0x40\n              dup1\n              mload\n              dup1\n              dup3\n              add\n              swap1\n              swap2\n              mstore\n              0x06\n              dup1\n              dup3\n              mstore\n              shl(0xd2, 0x18db1bdcd959)\n              0x20\n              dup4\n              add\n              mstore\n              swap1\n              tag_117\n              swap1\n              dup3\n              tag_118\n              jump\t// in\n            tag_117:\n              pop\n                /* \"Contract.sol\":3910:3918  customer */\n              0x00\n              dup1\n              sload\n                /* \"Contract.sol\":3910:3950  customer.transfer(address(this).balance) */\n              mload(0x40)\n              sub(shl(0xa0, 0x01), 0x01)\n                /* \"Contract.sol\":3910:3918  customer */\n              swap1\n              swap2\n              and\n              swap2\n                /* \"Contract.sol\":3928:3949  address(this).balance */\n              selfbalance\n                /* \"Contract.sol\":3910:3950  customer.transfer(address(this).balance) */\n              dup1\n              iszero\n              0x08fc\n              mul\n              swap3\n                /* \"Contract.sol\":3928:3949  address(this).balance */\n              swap1\n              swap2\n                /* \"Contract.sol\":3910:3950  customer.transfer(address(this).balance) */\n              dup2\n                /* \"Contract.sol\":3910:3918  customer */\n              dup2\n                /* \"Contract.sol\":3910:3950  customer.transfer(address(this).balance) */\n              dup2\n                /* \"Contract.sol\":3928:3949  address(this).balance */\n              dup6\n                /* \"Contract.sol\":3910:3918  customer */\n              dup9\n                /* \"Contract.sol\":3910:3950  customer.transfer(address(this).balance) */\n              dup9\n              call\n              swap4\n              pop\n              pop\n              pop\n              pop\n              iszero\n              dup1\n              iszero\n              tag_120\n              jumpi\n              returndatasize\n              0x00\n              dup1\n              returndatacopy\n              revert(0x00, returndatasize)\n            tag_120:\n              pop\n                /* \"Contract.sol\":3998:4006  customer */\n              sload(0x00)\n                /* \"Contract.sol\":3961:4015  contractStatusChanged(address(this), customer, status) */\n              mload(0x40)\n              0x56a5ed96a90e2f144473b2e22dadcf549e1d523c52111768c2d4febe4c990594\n              swap2\n              tag_121\n              swap2\n                /* \"Contract.sol\":3991:3995  this */\n              address\n              swap2\n              sub(shl(0xa0, 0x01), 0x01)\n                /* \"Contract.sol\":3998:4006  customer */\n              and\n              swap1\n                /* \"Contract.sol\":4008:4014  status */\n              0x06\n              swap1\n                /* \"Contract.sol\":3961:4015  contractStatusChanged(address(this), customer, status) */\n              tag_122\n              jump\t// in\n            tag_121:\n              mload(0x40)\n              dup1\n              swap2\n              sub\n              swap1\n              log1\n                /* \"Contract.sol\":3804:4020  function platformCloseContract() public {... */\n              jump\t// out\n                /* \"Contract.sol\":1200:1220  string public status */\n            tag_37:\n              0x06\n              dup1\n              sload\n              tag_123\n              swap1\n              tag_124\n              jump\t// in\n            tag_123:\n              dup1\n              0x1f\n              add\n              0x20\n              dup1\n              swap2\n              div\n              mul\n              0x20\n              add\n              mload(0x40)\n              swap1\n              dup2\n              add\n              0x40\n              mstore\n              dup1\n              swap3\n              swap2\n              swap1\n              dup2\n              dup2\n              mstore\n              0x20\n              add\n              dup3\n              dup1\n              sload\n              tag_125\n              swap1\n              tag_124\n              jump\t// in\n            tag_125:\n              dup1\n              iszero\n              tag_126\n              jumpi\n              dup1\n              0x1f\n              lt\n              tag_127\n              jumpi\n              0x0100\n              dup1\n              dup4\n              sload\n              div\n              mul\n              dup4\n              mstore\n              swap2\n              0x20\n              add\n              swap2\n              jump(tag_126)\n            tag_127:\n              dup3\n              add\n              swap2\n              swap1\n              0x00\n              mstore\n              keccak256(0x00, 0x20)\n              swap1\n            tag_128:\n              dup2\n              sload\n              dup2\n              mstore\n              swap1\n              0x01\n              add\n              swap1\n              0x20\n              add\n              dup1\n              dup4\n              gt\n              tag_128\n              jumpi\n              dup3\n              swap1\n              sub\n              0x1f\n              and\n              dup3\n              add\n              swap2\n            tag_126:\n              pop\n              pop\n              pop\n              pop\n              pop\n              dup2\n              jump\t// out\n                /* \"Contract.sol\":2686:2922  function disputeProposal() public {... */\n            tag_46:\n                /* \"Contract.sol\":2734:2780  hashCompareWithLengthCheck(status, 'proposed') */\n              tag_130\n                /* \"Contract.sol\":2761:2767  status */\n              0x06\n                /* \"Contract.sol\":2734:2780  hashCompareWithLengthCheck(status, 'proposed') */\n              dup1\n              sload\n              tag_131\n              swap1\n              tag_124\n              jump\t// in\n            tag_131:\n              dup1\n              0x1f\n              add\n              0x20\n              dup1\n              swap2\n              div\n              mul\n              0x20\n              add\n              mload(0x40)\n              swap1\n              dup2\n              add\n              0x40\n              mstore\n              dup1\n              swap3\n              swap2\n              swap1\n              dup2\n              dup2\n              mstore\n              0x20\n              add\n              dup3\n              dup1\n              sload\n              tag_132\n              swap1\n              tag_124\n              jump\t// in\n            tag_132:\n              dup1\n              iszero\n              tag_133\n              jumpi\n              dup1\n              0x1f\n              lt\n              tag_134\n              jumpi\n              0x0100\n              dup1\n              dup4\n              sload\n              div\n              mul\n              dup4\n              mstore\n              swap2\n              0x20\n              add\n              swap2\n              jump(tag_133)\n            tag_134:\n              dup3\n              add\n              swap2\n              swap1\n              0x00\n              mstore\n              keccak256(0x00, 0x20)\n              swap1\n            tag_135:\n              dup2\n              sload\n              dup2\n              mstore\n              swap1\n              0x01\n              add\n              swap1\n              0x20\n              add\n              dup1\n              dup4\n              gt\n              tag_135\n              jumpi\n              dup3\n              swap1\n              sub\n              0x1f\n              and\n              dup3\n              add\n              swap2\n            tag_133:\n              pop\n              pop\n              pop\n              pop\n              pop\n              mload(0x40)\n              dup1\n              0x40\n              add\n              0x40\n              mstore\n              dup1\n              0x08\n              dup2\n              mstore\n              0x20\n              add\n              shl(0xc2, 0x1c1c9bdc1bdcd959)\n              dup2\n              mstore\n              pop\n                /* \"Contract.sol\":2734:2760  hashCompareWithLengthCheck */\n              tag_136\n                /* \"Contract.sol\":2734:2780  hashCompareWithLengthCheck(status, 'proposed') */\n              jump\t// in\n            tag_130:\n                /* \"Contract.sol\":2726:2781  require(hashCompareWithLengthCheck(status, 'proposed')) */\n              tag_137\n              jumpi\n              0x00\n              dup1\n              revert\n            tag_137:\n                /* \"Contract.sol\":2818:2826  customer */\n              and(sub(shl(0xa0, 0x01), 0x01), sload(0x00))\n                /* \"Contract.sol\":2803:2813  msg.sender */\n              caller\n                /* \"Contract.sol\":2795:2826  payable(msg.sender) == customer */\n              eq\n                /* \"Contract.sol\":2787:2827  require(payable(msg.sender) == customer) */\n              tag_138\n              jumpi\n              0x00\n              dup1\n              revert\n            tag_138:\n                /* \"Contract.sol\":2833:2852  status = 'disputed' */\n              0x40\n              dup1\n              mload\n              dup1\n              dup3\n              add\n              swap1\n              swap2\n              mstore\n              0x08\n              dup2\n              mstore\n              shl(0xc2, 0x191a5cdc1d5d1959)\n              0x20\n              dup3\n              add\n              mstore\n                /* \"Contract.sol\":2833:2839  status */\n              0x06\n              swap1\n                /* \"Contract.sol\":2833:2852  status = 'disputed' */\n              tag_120\n              swap1\n                /* \"Contract.sol\":2833:2839  status */\n              dup3\n                /* \"Contract.sol\":2833:2852  status = 'disputed' */\n              tag_118\n              jump\t// in\n                /* \"Contract.sol\":1351:1381  string[] public mediaAddresses */\n            tag_51:\n              0x0b\n              dup2\n              dup2\n              sload\n              dup2\n              lt\n              tag_141\n              jumpi\n              0x00\n              dup1\n              revert\n            tag_141:\n              swap1\n              0x00\n              mstore\n              keccak256(0x00, 0x20)\n              add\n              0x00\n              swap2\n              pop\n              swap1\n              pop\n              dup1\n              sload\n              tag_123\n              swap1\n              tag_124\n              jump\t// in\n                /* \"Contract.sol\":1131:1149  string public task */\n            tag_55:\n              0x03\n              dup1\n              sload\n              tag_123\n              swap1\n              tag_124\n              jump\t// in\n                /* \"Contract.sol\":4441:4916  function getSummary() public view returns (... */\n            tag_59:\n                /* \"Contract.sol\":4489:4496  address */\n              0x00\n                /* \"Contract.sol\":4697:4705  customer */\n              dup1\n              sload\n                /* \"Contract.sol\":4711:4719  reporter */\n              sload(0x02)\n                /* \"Contract.sol\":4489:4496  address */\n              dup3\n              swap2\n              dup3\n              swap2\n                /* \"Contract.sol\":4525:4538  string memory */\n              0x60\n              swap2\n              dup3\n              swap2\n                /* \"Contract.sol\":4489:4496  address */\n              dup5\n              swap2\n                /* \"Contract.sol\":4525:4538  string memory */\n              dup4\n              swap2\n                /* \"Contract.sol\":4489:4496  address */\n              dup4\n              swap2\n                /* \"Contract.sol\":4525:4538  string memory */\n              dup4\n              swap2\n              dup3\n              swap2\n              dup3\n              swap2\n              dup3\n              swap2\n              sub(shl(0xa0, 0x01), 0x01)\n                /* \"Contract.sol\":4697:4705  customer */\n              swap1\n              dup2\n              and\n              swap2\n                /* \"Contract.sol\":4711:4719  reporter */\n              and\n                /* \"Contract.sol\":4754:4757  100 */\n              0x64\n                /* \"Contract.sol\":4725:4751  address(this).balance * 95 */\n              tag_154\n                /* \"Contract.sol\":4725:4746  address(this).balance */\n              selfbalance\n                /* \"Contract.sol\":4749:4751  95 */\n              0x5f\n                /* \"Contract.sol\":4725:4751  address(this).balance * 95 */\n              tag_155\n              jump\t// in\n            tag_154:\n                /* \"Contract.sol\":4725:4757  address(this).balance * 95 / 100 */\n              tag_156\n              swap2\n              swap1\n              tag_157\n              jump\t// in\n            tag_156:\n                /* \"Contract.sol\":4763:4767  task */\n              0x03\n                /* \"Contract.sol\":4773:4779  format */\n              0x04\n                /* \"Contract.sol\":4785:4792  expires */\n              sload(0x05)\n                /* \"Contract.sol\":4798:4804  status */\n              0x06\n                /* \"Contract.sol\":4810:4823  minimalLength */\n              sload(0x07)\n                /* \"Contract.sol\":4829:4848  specialInstructions */\n              0x08\n                /* \"Contract.sol\":4854:4871  minimalResolution */\n              0x09\n                /* \"Contract.sol\":4877:4885  location */\n              0x0a\n                /* \"Contract.sol\":4891:4905  mediaAddresses */\n              0x0b\n                /* \"Contract.sol\":4684:4911  return (... */\n              dup9\n              dup1\n              sload\n              tag_158\n              swap1\n              tag_124\n              jump\t// in\n            tag_158:\n              dup1\n              0x1f\n              add\n              0x20\n              dup1\n              swap2\n              div\n              mul\n              0x20\n              add\n              mload(0x40)\n              swap1\n              dup2\n              add\n              0x40\n              mstore\n              dup1\n              swap3\n              swap2\n              swap1\n              dup2\n              dup2\n              mstore\n              0x20\n              add\n              dup3\n              dup1\n              sload\n              tag_159\n              swap1\n              tag_124\n              jump\t// in\n            tag_159:\n              dup1\n              iszero\n              tag_160\n              jumpi\n              dup1\n              0x1f\n              lt\n              tag_161\n              jumpi\n              0x0100\n              dup1\n              dup4\n              sload\n              div\n              mul\n              dup4\n              mstore\n              swap2\n              0x20\n              add\n              swap2\n              jump(tag_160)\n            tag_161:\n              dup3\n              add\n              swap2\n              swap1\n              0x00\n              mstore\n              keccak256(0x00, 0x20)\n              swap1\n            tag_162:\n              dup2\n              sload\n              dup2\n              mstore\n              swap1\n              0x01\n              add\n              swap1\n              0x20\n              add\n              dup1\n              dup4\n              gt\n              tag_162\n              jumpi\n              dup3\n              swap1\n              sub\n              0x1f\n              and\n              dup3\n              add\n              swap2\n            tag_160:\n              pop\n              pop\n              pop\n              pop\n              pop\n              swap9\n              pop\n              dup8\n              dup1\n              sload\n              tag_163\n              swap1\n              tag_124\n              jump\t// in\n            tag_163:\n              dup1\n              0x1f\n              add\n              0x20\n              dup1\n              swap2\n              div\n              mul\n              0x20\n              add\n              mload(0x40)\n              swap1\n              dup2\n              add\n              0x40\n              mstore\n              dup1\n              swap3\n              swap2\n              swap1\n              dup2\n              dup2\n              mstore\n              0x20\n              add\n              dup3\n              dup1\n              sload\n              tag_164\n              swap1\n              tag_124\n              jump\t// in\n            tag_164:\n              dup1\n              iszero\n              tag_165\n              jumpi\n              dup1\n              0x1f\n              lt\n              tag_166\n              jumpi\n              0x0100\n              dup1\n              dup4\n              sload\n              div\n              mul\n              dup4\n              mstore\n              swap2\n              0x20\n              add\n              swap2\n              jump(tag_165)\n            tag_166:\n              dup3\n              add\n              swap2\n              swap1\n              0x00\n              mstore\n              keccak256(0x00, 0x20)\n              swap1\n            tag_167:\n              dup2\n              sload\n              dup2\n              mstore\n              swap1\n              0x01\n              add\n              swap1\n              0x20\n              add\n              dup1\n              dup4\n              gt\n              tag_167\n              jumpi\n              dup3\n              swap1\n              sub\n              0x1f\n              and\n              dup3\n              add\n              swap2\n            tag_165:\n              pop\n              pop\n              pop\n              pop\n              pop\n              swap8\n              pop\n              dup6\n              dup1\n              sload\n              tag_168\n              swap1\n              tag_124\n              jump\t// in\n            tag_168:\n              dup1\n              0x1f\n              add\n              0x20\n              dup1\n              swap2\n              div\n              mul\n              0x20\n              add\n              mload(0x40)\n              swap1\n              dup2\n              add\n              0x40\n              mstore\n              dup1\n              swap3\n              swap2\n              swap1\n              dup2\n              dup2\n              mstore\n              0x20\n              add\n              dup3\n              dup1\n              sload\n              tag_169\n              swap1\n              tag_124\n              jump\t// in\n            tag_169:\n              dup1\n              iszero\n              tag_170\n              jumpi\n              dup1\n              0x1f\n              lt\n              tag_171\n              jumpi\n              0x0100\n              dup1\n              dup4\n              sload\n              div\n              mul\n              dup4\n              mstore\n              swap2\n              0x20\n              add\n              swap2\n              jump(tag_170)\n            tag_171:\n              dup3\n              add\n              swap2\n              swap1\n              0x00\n              mstore\n              keccak256(0x00, 0x20)\n              swap1\n            tag_172:\n              dup2\n              sload\n              dup2\n              mstore\n              swap1\n              0x01\n              add\n              swap1\n              0x20\n              add\n              dup1\n              dup4\n              gt\n              tag_172\n              jumpi\n              dup3\n              swap1\n              sub\n              0x1f\n              and\n              dup3\n              add\n              swap2\n            tag_170:\n              pop\n              pop\n              pop\n              pop\n              pop\n              swap6\n              pop\n              dup4\n              dup1\n              sload\n              tag_173\n              swap1\n              tag_124\n              jump\t// in\n            tag_173:\n              dup1\n              0x1f\n              add\n              0x20\n              dup1\n              swap2\n              div\n              mul\n              0x20\n              add\n              mload(0x40)\n              swap1\n              dup2\n              add\n              0x40\n              mstore\n              dup1\n              swap3\n              swap2\n              swap1\n              dup2\n              dup2\n              mstore\n              0x20\n              add\n              dup3\n              dup1\n              sload\n              tag_174\n              swap1\n              tag_124\n              jump\t// in\n            tag_174:\n              dup1\n              iszero\n              tag_175\n              jumpi\n              dup1\n              0x1f\n              lt\n              tag_176\n              jumpi\n              0x0100\n              dup1\n              dup4\n              sload\n              div\n              mul\n              dup4\n              mstore\n              swap2\n              0x20\n              add\n              swap2\n              jump(tag_175)\n            tag_176:\n              dup3\n              add\n              swap2\n              swap1\n              0x00\n              mstore\n              keccak256(0x00, 0x20)\n              swap1\n            tag_177:\n              dup2\n              sload\n              dup2\n              mstore\n              swap1\n              0x01\n              add\n              swap1\n              0x20\n              add\n              dup1\n              dup4\n              gt\n              tag_177\n              jumpi\n              dup3\n              swap1\n              sub\n              0x1f\n              and\n              dup3\n              add\n              swap2\n            tag_175:\n              pop\n              pop\n              pop\n              pop\n              pop\n              swap4\n              pop\n              dup3\n              dup1\n              sload\n              tag_178\n              swap1\n              tag_124\n              jump\t// in\n            tag_178:\n              dup1\n              0x1f\n              add\n              0x20\n              dup1\n              swap2\n              div\n              mul\n              0x20\n              add\n              mload(0x40)\n              swap1\n              dup2\n              add\n              0x40\n              mstore\n              dup1\n              swap3\n              swap2\n              swap1\n              dup2\n              dup2\n              mstore\n              0x20\n              add\n              dup3\n              dup1\n              sload\n              tag_179\n              swap1\n              tag_124\n              jump\t// in\n            tag_179:\n              dup1\n              iszero\n              tag_180\n              jumpi\n              dup1\n              0x1f\n              lt\n              tag_181\n              jumpi\n              0x0100\n              dup1\n              dup4\n              sload\n              div\n              mul\n              dup4\n              mstore\n              swap2\n              0x20\n              add\n              swap2\n              jump(tag_180)\n            tag_181:\n              dup3\n              add\n              swap2\n              swap1\n              0x00\n              mstore\n              keccak256(0x00, 0x20)\n              swap1\n            tag_182:\n              dup2\n              sload\n              dup2\n              mstore\n              swap1\n              0x01\n              add\n              swap1\n              0x20\n              add\n              dup1\n              dup4\n              gt\n              tag_182\n              jumpi\n              dup3\n              swap1\n              sub\n              0x1f\n              and\n              dup3\n              add\n              swap2\n            tag_180:\n              pop\n              pop\n              pop\n              pop\n              pop\n              swap3\n              pop\n              dup2\n              dup1\n              sload\n              tag_183\n              swap1\n              tag_124\n              jump\t// in\n            tag_183:\n              dup1\n              0x1f\n              add\n              0x20\n              dup1\n              swap2\n              div\n              mul\n              0x20\n              add\n              mload(0x40)\n              swap1\n              dup2\n              add\n              0x40\n              mstore\n              dup1\n              swap3\n              swap2\n              swap1\n              dup2\n              dup2\n              mstore\n              0x20\n              add\n              dup3\n              dup1\n              sload\n              tag_184\n              swap1\n              tag_124\n              jump\t// in\n            tag_184:\n              dup1\n              iszero\n              tag_185\n              jumpi\n              dup1\n              0x1f\n              lt\n              tag_186\n              jumpi\n              0x0100\n              dup1\n              dup4\n              sload\n              div\n              mul\n              dup4\n              mstore\n              swap2\n              0x20\n              add\n              swap2\n              jump(tag_185)\n            tag_186:\n              dup3\n              add\n              swap2\n              swap1\n              0x00\n              mstore\n              keccak256(0x00, 0x20)\n              swap1\n            tag_187:\n              dup2\n              sload\n              dup2\n              mstore\n              swap1\n              0x01\n              add\n              swap1\n              0x20\n              add\n              dup1\n              dup4\n              gt\n              tag_187\n              jumpi\n              dup3\n              swap1\n              sub\n              0x1f\n              and\n              dup3\n              add\n              swap2\n            tag_185:\n              pop\n              pop\n              pop\n              pop\n              pop\n              swap2\n              pop\n              dup1\n              dup1\n              sload\n              dup1\n              0x20\n              mul\n              0x20\n              add\n              mload(0x40)\n              swap1\n              dup2\n              add\n              0x40\n              mstore\n              dup1\n              swap3\n              swap2\n              swap1\n              dup2\n              dup2\n              mstore\n              0x20\n              add\n              0x00\n              swap1\n            tag_188:\n              dup3\n              dup3\n              lt\n              iszero\n              tag_189\n              jumpi\n              dup4\n              dup3\n              swap1\n              0x00\n              mstore\n              keccak256(0x00, 0x20)\n              add\n              dup1\n              sload\n              tag_191\n              swap1\n              tag_124\n              jump\t// in\n            tag_191:\n              dup1\n              0x1f\n              add\n              0x20\n              dup1\n              swap2\n              div\n              mul\n              0x20\n              add\n              mload(0x40)\n              swap1\n              dup2\n              add\n              0x40\n              mstore\n              dup1\n              swap3\n              swap2\n              swap1\n              dup2\n              dup2\n              mstore\n              0x20\n              add\n              dup3\n              dup1\n              sload\n              tag_192\n              swap1\n              tag_124\n              jump\t// in\n            tag_192:\n              dup1\n              iszero\n              tag_193\n              jumpi\n              dup1\n              0x1f\n              lt\n              tag_194\n              jumpi\n              0x0100\n              dup1\n              dup4\n              sload\n              div\n              mul\n              dup4\n              mstore\n              swap2\n              0x20\n              add\n              swap2\n              jump(tag_193)\n            tag_194:\n              dup3\n              add\n              swap2\n              swap1\n              0x00\n              mstore\n              keccak256(0x00, 0x20)\n              swap1\n            tag_195:\n              dup2\n              sload\n              dup2\n              mstore\n              swap1\n              0x01\n              add\n              swap1\n              0x20\n              add\n              dup1\n              dup4\n              gt\n              tag_195\n              jumpi\n              dup3\n              swap1\n              sub\n              0x1f\n              and\n              dup3\n              add\n              swap2\n            tag_193:\n              pop\n              pop\n              pop\n              pop\n              pop\n              dup2\n              mstore\n              0x20\n              add\n              swap1\n              0x01\n              add\n              swap1\n              jump(tag_188)\n            tag_189:\n              pop\n              pop\n              pop\n              pop\n              swap1\n              pop\n              swap12\n              pop\n              swap12\n              pop\n              swap12\n              pop\n              swap12\n              pop\n              swap12\n              pop\n              swap12\n              pop\n              swap12\n              pop\n              swap12\n              pop\n              swap12\n              pop\n              swap12\n              pop\n              swap12\n              pop\n              swap12\n              pop\n                /* \"Contract.sol\":4441:4916  function getSummary() public view returns (... */\n              swap1\n              swap2\n              swap3\n              swap4\n              swap5\n              swap6\n              swap7\n              swap8\n              swap9\n              swap10\n              swap11\n              swap12\n              jump\t// out\n                /* \"Contract.sol\":1325:1347  string public location */\n            tag_68:\n              0x0a\n              dup1\n              sload\n              tag_123\n              swap1\n              tag_124\n              jump\t// in\n                /* \"Contract.sol\":3535:3800  function closeContract() public {... */\n            tag_72:\n                /* \"Contract.sol\":3595:3603  customer */\n              and(sub(shl(0xa0, 0x01), 0x01), sload(0x00))\n                /* \"Contract.sol\":3581:3591  msg.sender */\n              caller\n                /* \"Contract.sol\":3581:3603  msg.sender == customer */\n              eq\n                /* \"Contract.sol\":3573:3604  require(msg.sender == customer) */\n              tag_202\n              jumpi\n              0x00\n              dup1\n              revert\n            tag_202:\n                /* \"Contract.sol\":3618:3660  hashCompareWithLengthCheck(status, 'open') */\n              tag_203\n                /* \"Contract.sol\":3645:3651  status */\n              0x06\n                /* \"Contract.sol\":3618:3660  hashCompareWithLengthCheck(status, 'open') */\n              dup1\n              sload\n              tag_204\n              swap1\n              tag_124\n              jump\t// in\n            tag_204:\n              dup1\n              0x1f\n              add\n              0x20\n              dup1\n              swap2\n              div\n              mul\n              0x20\n              add\n              mload(0x40)\n              swap1\n              dup2\n              add\n              0x40\n              mstore\n              dup1\n              swap3\n              swap2\n              swap1\n              dup2\n              dup2\n              mstore\n              0x20\n              add\n              dup3\n              dup1\n              sload\n              tag_205\n              swap1\n              tag_124\n              jump\t// in\n            tag_205:\n              dup1\n              iszero\n              tag_206\n              jumpi\n              dup1\n              0x1f\n              lt\n              tag_207\n              jumpi\n              0x0100\n              dup1\n              dup4\n              sload\n              div\n              mul\n              dup4\n              mstore\n              swap2\n              0x20\n              add\n              swap2\n              jump(tag_206)\n            tag_207:\n              dup3\n              add\n              swap2\n              swap1\n              0x00\n              mstore\n              keccak256(0x00, 0x20)\n              swap1\n            tag_208:\n              dup2\n              sload\n              dup2\n              mstore\n              swap1\n              0x01\n              add\n              swap1\n              0x20\n              add\n              dup1\n              dup4\n              gt\n              tag_208\n              jumpi\n              dup3\n              swap1\n              sub\n              0x1f\n              and\n              dup3\n              add\n              swap2\n            tag_206:\n              pop\n              pop\n              pop\n              pop\n              pop\n              mload(0x40)\n              dup1\n              0x40\n              add\n              0x40\n              mstore\n              dup1\n              0x04\n              dup2\n              mstore\n              0x20\n              add\n              shl(0xe1, 0x37b832b7)\n              dup2\n              mstore\n              pop\n                /* \"Contract.sol\":3618:3644  hashCompareWithLengthCheck */\n              tag_136\n                /* \"Contract.sol\":3618:3660  hashCompareWithLengthCheck(status, 'open') */\n              jump\t// in\n            tag_203:\n                /* \"Contract.sol\":3610:3661  require(hashCompareWithLengthCheck(status, 'open')) */\n              tag_116\n              jumpi\n              0x00\n              dup1\n              revert\n                /* \"Contract.sol\":2926:3183  function acceptDispute() public {... */\n            tag_75:\n                /* \"Contract.sol\":2995:3003  platform */\n              and(sub(shl(0xa0, 0x01), 0x01), sload(0x01))\n                /* \"Contract.sol\":2980:2990  msg.sender */\n              caller\n                /* \"Contract.sol\":2972:3003  payable(msg.sender) == platform */\n              eq\n                /* \"Contract.sol\":2964:3004  require(payable(msg.sender) == platform) */\n              tag_215\n              jumpi\n              0x00\n              dup1\n              revert\n            tag_215:\n                /* \"Contract.sol\":3018:3064  hashCompareWithLengthCheck(status, 'disputed') */\n              tag_216\n                /* \"Contract.sol\":3045:3051  status */\n              0x06\n                /* \"Contract.sol\":3018:3064  hashCompareWithLengthCheck(status, 'disputed') */\n              dup1\n              sload\n              tag_217\n              swap1\n              tag_124\n              jump\t// in\n            tag_217:\n              dup1\n              0x1f\n              add\n              0x20\n              dup1\n              swap2\n              div\n              mul\n              0x20\n              add\n              mload(0x40)\n              swap1\n              dup2\n              add\n              0x40\n              mstore\n              dup1\n              swap3\n              swap2\n              swap1\n              dup2\n              dup2\n              mstore\n              0x20\n              add\n              dup3\n              dup1\n              sload\n              tag_218\n              swap1\n              tag_124\n              jump\t// in\n            tag_218:\n              dup1\n              iszero\n              tag_219\n              jumpi\n              dup1\n              0x1f\n              lt\n              tag_220\n              jumpi\n              0x0100\n              dup1\n              dup4\n              sload\n              div\n              mul\n              dup4\n              mstore\n              swap2\n              0x20\n              add\n              swap2\n              jump(tag_219)\n            tag_220:\n              dup3\n              add\n              swap2\n              swap1\n              0x00\n              mstore\n              keccak256(0x00, 0x20)\n              swap1\n            tag_221:\n              dup2\n              sload\n              dup2\n              mstore\n              swap1\n              0x01\n              add\n              swap1\n              0x20\n              add\n              dup1\n              dup4\n              gt\n              tag_221\n              jumpi\n              dup3\n              swap1\n              sub\n              0x1f\n              and\n              dup3\n              add\n              swap2\n            tag_219:\n              pop\n              pop\n              pop\n              pop\n              pop\n              mload(0x40)\n              dup1\n              0x40\n              add\n              0x40\n              mstore\n              dup1\n              0x08\n              dup2\n              mstore\n              0x20\n              add\n              shl(0xc2, 0x191a5cdc1d5d1959)\n              dup2\n              mstore\n              pop\n                /* \"Contract.sol\":3018:3044  hashCompareWithLengthCheck */\n              tag_136\n                /* \"Contract.sol\":3018:3064  hashCompareWithLengthCheck(status, 'disputed') */\n              jump\t// in\n            tag_216:\n                /* \"Contract.sol\":3010:3065  require(hashCompareWithLengthCheck(status, 'disputed')) */\n              tag_222\n              jumpi\n              0x00\n              dup1\n              revert\n            tag_222:\n                /* \"Contract.sol\":3071:3086  status = 'open' */\n              0x40\n              dup1\n              mload\n              dup1\n              dup3\n              add\n              swap1\n              swap2\n              mstore\n              0x04\n              dup2\n              mstore\n              shl(0xe1, 0x37b832b7)\n              0x20\n              dup3\n              add\n              mstore\n                /* \"Contract.sol\":3071:3077  status */\n              0x06\n              swap1\n                /* \"Contract.sol\":3071:3086  status = 'open' */\n              tag_223\n              swap1\n                /* \"Contract.sol\":3071:3077  status */\n              dup3\n                /* \"Contract.sol\":3071:3086  status = 'open' */\n              tag_118\n              jump\t// in\n            tag_223:\n              pop\n                /* \"Contract.sol\":3092:3113  delete mediaAddresses */\n              tag_224\n                /* \"Contract.sol\":3099:3113  mediaAddresses */\n              0x0b\n              0x00\n                /* \"Contract.sol\":3092:3113  delete mediaAddresses */\n              tag_225\n              jump\t// in\n            tag_224:\n                /* \"Contract.sol\":3161:3169  customer */\n              sload(0x00)\n                /* \"Contract.sol\":3124:3178  contractStatusChanged(address(this), customer, status) */\n              mload(0x40)\n              0x56a5ed96a90e2f144473b2e22dadcf549e1d523c52111768c2d4febe4c990594\n              swap2\n              tag_121\n              swap2\n                /* \"Contract.sol\":3154:3158  this */\n              address\n              swap2\n              sub(shl(0xa0, 0x01), 0x01)\n                /* \"Contract.sol\":3161:3169  customer */\n              and\n              swap1\n                /* \"Contract.sol\":3171:3177  status */\n              0x06\n              swap1\n                /* \"Contract.sol\":3124:3178  contractStatusChanged(address(this), customer, status) */\n              tag_122\n              jump\t// in\n                /* \"Contract.sol\":4338:4437  function getMediaAddresses() public view returns (string[] memory) {... */\n            tag_78:\n                /* \"Contract.sol\":4388:4403  string[] memory */\n              0x60\n                /* \"Contract.sol\":4418:4432  mediaAddresses */\n              0x0b\n                /* \"Contract.sol\":4411:4432  return mediaAddresses */\n              dup1\n              sload\n              dup1\n              0x20\n              mul\n              0x20\n              add\n              mload(0x40)\n              swap1\n              dup2\n              add\n              0x40\n              mstore\n              dup1\n              swap3\n              swap2\n              swap1\n              dup2\n              dup2\n              mstore\n              0x20\n              add\n              0x00\n              swap1\n            tag_228:\n              dup3\n              dup3\n              lt\n              iszero\n              tag_229\n              jumpi\n              dup4\n              dup3\n              swap1\n              0x00\n              mstore\n              keccak256(0x00, 0x20)\n              add\n              dup1\n              sload\n              tag_231\n              swap1\n              tag_124\n              jump\t// in\n            tag_231:\n              dup1\n              0x1f\n              add\n              0x20\n              dup1\n              swap2\n              div\n              mul\n              0x20\n              add\n              mload(0x40)\n              swap1\n              dup2\n              add\n              0x40\n              mstore\n              dup1\n              swap3\n              swap2\n              swap1\n              dup2\n              dup2\n              mstore\n              0x20\n              add\n              dup3\n              dup1\n              sload\n              tag_232\n              swap1\n              tag_124\n              jump\t// in\n            tag_232:\n              dup1\n              iszero\n              tag_233\n              jumpi\n              dup1\n              0x1f\n              lt\n              tag_234\n              jumpi\n              0x0100\n              dup1\n              dup4\n              sload\n              div\n              mul\n              dup4\n              mstore\n              swap2\n              0x20\n              add\n              swap2\n              jump(tag_233)\n            tag_234:\n              dup3\n              add\n              swap2\n              swap1\n              0x00\n              mstore\n              keccak256(0x00, 0x20)\n              swap1\n            tag_235:\n              dup2\n              sload\n              dup2\n              mstore\n              swap1\n              0x01\n              add\n              swap1\n              0x20\n              add\n              dup1\n              dup4\n              gt\n              tag_235\n              jumpi\n              dup3\n              swap1\n              sub\n              0x1f\n              and\n              dup3\n              add\n              swap2\n            tag_233:\n              pop\n              pop\n              pop\n              pop\n              pop\n              dup2\n              mstore\n              0x20\n              add\n              swap1\n              0x01\n              add\n              swap1\n              jump(tag_228)\n            tag_229:\n              pop\n              pop\n              pop\n              pop\n              swap1\n              pop\n                /* \"Contract.sol\":4338:4437  function getMediaAddresses() public view returns (string[] memory) {... */\n              swap1\n              jump\t// out\n                /* \"Contract.sol\":1290:1321  string public minimalResolution */\n            tag_88:\n              0x09\n              dup1\n              sload\n              tag_123\n              swap1\n              tag_124\n              jump\t// in\n                /* \"Contract.sol\":2008:2324  function proposeMedia(string[] memory addresses) public {... */\n            tag_94:\n                /* \"Contract.sol\":2096:2103  expires */\n              sload(0x05)\n                /* \"Contract.sol\":2078:2093  block.timestamp */\n              timestamp\n                /* \"Contract.sol\":2078:2103  block.timestamp < expires */\n              lt\n                /* \"Contract.sol\":2070:2104  require(block.timestamp < expires) */\n              tag_242\n              jumpi\n              0x00\n              dup1\n              revert\n            tag_242:\n                /* \"Contract.sol\":2118:2160  hashCompareWithLengthCheck(status, 'open') */\n              tag_243\n                /* \"Contract.sol\":2145:2151  status */\n              0x06\n                /* \"Contract.sol\":2118:2160  hashCompareWithLengthCheck(status, 'open') */\n              dup1\n              sload\n              tag_204\n              swap1\n              tag_124\n              jump\t// in\n            tag_243:\n                /* \"Contract.sol\":2110:2161  require(hashCompareWithLengthCheck(status, 'open')) */\n              tag_249\n              jumpi\n              0x00\n              dup1\n              revert\n            tag_249:\n                /* \"Contract.sol\":2167:2175  reporter */\n              0x02\n                /* \"Contract.sol\":2167:2197  reporter = payable(msg.sender) */\n              dup1\n              sload\n              not(sub(shl(0xa0, 0x01), 0x01))\n              and\n                /* \"Contract.sol\":2186:2196  msg.sender */\n              caller\n                /* \"Contract.sol\":2167:2197  reporter = payable(msg.sender) */\n              or\n              swap1\n              sstore\n                /* \"Contract.sol\":2203:2229  mediaAddresses = addresses */\n              dup1\n              mload\n              tag_250\n              swap1\n                /* \"Contract.sol\":2203:2217  mediaAddresses */\n              0x0b\n              swap1\n                /* \"Contract.sol\":2203:2229  mediaAddresses = addresses */\n              0x20\n              dup5\n              add\n              swap1\n              tag_251\n              jump\t// in\n            tag_250:\n              pop\n                /* \"Contract.sol\":2235:2254  status = 'proposed' */\n              0x40\n              dup1\n              mload\n              dup1\n              dup3\n              add\n              swap1\n              swap2\n              mstore\n              0x08\n              dup2\n              mstore\n              shl(0xc2, 0x1c1c9bdc1bdcd959)\n              0x20\n              dup3\n              add\n              mstore\n                /* \"Contract.sol\":2235:2241  status */\n              0x06\n              swap1\n                /* \"Contract.sol\":2235:2254  status = 'proposed' */\n              tag_252\n              swap1\n                /* \"Contract.sol\":2235:2241  status */\n              dup3\n                /* \"Contract.sol\":2235:2254  status = 'proposed' */\n              tag_118\n              jump\t// in\n            tag_252:\n              pop\n                /* \"Contract.sol\":2302:2310  customer */\n              sload(0x00)\n                /* \"Contract.sol\":2265:2319  contractStatusChanged(address(this), customer, status) */\n              mload(0x40)\n              0x56a5ed96a90e2f144473b2e22dadcf549e1d523c52111768c2d4febe4c990594\n              swap2\n              tag_253\n              swap2\n                /* \"Contract.sol\":2295:2299  this */\n              address\n              swap2\n              sub(shl(0xa0, 0x01), 0x01)\n                /* \"Contract.sol\":2302:2310  customer */\n              and\n              swap1\n                /* \"Contract.sol\":2312:2318  status */\n              0x06\n              swap1\n                /* \"Contract.sol\":2265:2319  contractStatusChanged(address(this), customer, status) */\n              tag_122\n              jump\t// in\n            tag_253:\n              mload(0x40)\n              dup1\n              swap2\n              sub\n              swap1\n              log1\n                /* \"Contract.sol\":2008:2324  function proposeMedia(string[] memory addresses) public {... */\n              pop\n              jump\t// out\n                /* \"Contract.sol\":2328:2682  function acceptProposal() public payable {... */\n            tag_96:\n                /* \"Contract.sol\":2406:2414  customer */\n              and(sub(shl(0xa0, 0x01), 0x01), sload(0x00))\n                /* \"Contract.sol\":2391:2401  msg.sender */\n              caller\n                /* \"Contract.sol\":2383:2414  payable(msg.sender) == customer */\n              eq\n                /* \"Contract.sol\":2375:2415  require(payable(msg.sender) == customer) */\n              tag_255\n              jumpi\n              0x00\n              dup1\n              revert\n            tag_255:\n                /* \"Contract.sol\":2429:2475  hashCompareWithLengthCheck(status, 'proposed') */\n              tag_256\n                /* \"Contract.sol\":2456:2462  status */\n              0x06\n                /* \"Contract.sol\":2429:2475  hashCompareWithLengthCheck(status, 'proposed') */\n              dup1\n              sload\n              tag_131\n              swap1\n              tag_124\n              jump\t// in\n            tag_256:\n                /* \"Contract.sol\":2421:2476  require(hashCompareWithLengthCheck(status, 'proposed')) */\n              tag_262\n              jumpi\n              0x00\n              dup1\n              revert\n            tag_262:\n                /* \"Contract.sol\":2482:2499  status = 'closed' */\n              0x40\n              dup1\n              mload\n              dup1\n              dup3\n              add\n              swap1\n              swap2\n              mstore\n              0x06\n              dup1\n              dup3\n              mstore\n              shl(0xd2, 0x18db1bdcd959)\n              0x20\n              dup4\n              add\n              mstore\n              swap1\n              tag_263\n              swap1\n              dup3\n              tag_118\n              jump\t// in\n            tag_263:\n              pop\n                /* \"Contract.sol\":2505:2513  reporter */\n              and(sub(shl(0xa0, 0x01), 0x01), sload(0x02))\n                /* \"Contract.sol\":2505:2556  reporter.transfer(address(this).balance * 95 / 100) */\n              0x08fc\n                /* \"Contract.sol\":2552:2555  100 */\n              0x64\n                /* \"Contract.sol\":2523:2549  address(this).balance * 95 */\n              tag_264\n                /* \"Contract.sol\":2523:2544  address(this).balance */\n              selfbalance\n                /* \"Contract.sol\":2547:2549  95 */\n              0x5f\n                /* \"Contract.sol\":2523:2549  address(this).balance * 95 */\n              tag_155\n              jump\t// in\n            tag_264:\n                /* \"Contract.sol\":2523:2555  address(this).balance * 95 / 100 */\n              tag_265\n              swap2\n              swap1\n              tag_157\n              jump\t// in\n            tag_265:\n                /* \"Contract.sol\":2505:2556  reporter.transfer(address(this).balance * 95 / 100) */\n              mload(0x40)\n              dup2\n              iszero\n              swap1\n              swap3\n              mul\n              swap2\n              0x00\n              dup2\n              dup2\n              dup2\n              dup6\n              dup9\n              dup9\n              call\n              swap4\n              pop\n              pop\n              pop\n              pop\n              iszero\n              dup1\n              iszero\n              tag_267\n              jumpi\n              returndatasize\n              0x00\n              dup1\n              returndatacopy\n              revert(0x00, returndatasize)\n            tag_267:\n              pop\n                /* \"Contract.sol\":2562:2570  platform */\n              and(sub(shl(0xa0, 0x01), 0x01), sload(0x01))\n                /* \"Contract.sol\":2562:2612  platform.transfer(address(this).balance * 5 / 100) */\n              0x08fc\n                /* \"Contract.sol\":2608:2611  100 */\n              0x64\n                /* \"Contract.sol\":2580:2605  address(this).balance * 5 */\n              tag_268\n                /* \"Contract.sol\":2580:2601  address(this).balance */\n              selfbalance\n                /* \"Contract.sol\":2604:2605  5 */\n              0x05\n                /* \"Contract.sol\":2580:2605  address(this).balance * 5 */\n              tag_155\n              jump\t// in\n            tag_268:\n                /* \"Contract.sol\":2580:2611  address(this).balance * 5 / 100 */\n              tag_269\n              swap2\n              swap1\n              tag_157\n              jump\t// in\n            tag_269:\n                /* \"Contract.sol\":2562:2612  platform.transfer(address(this).balance * 5 / 100) */\n              mload(0x40)\n              dup2\n              iszero\n              swap1\n              swap3\n              mul\n              swap2\n              0x00\n              dup2\n              dup2\n              dup2\n              dup6\n              dup9\n              dup9\n              call\n              swap4\n              pop\n              pop\n              pop\n              pop\n              iszero\n              dup1\n              iszero\n              tag_120\n              jumpi\n              returndatasize\n              0x00\n              dup1\n              returndatacopy\n              revert(0x00, returndatasize)\n                /* \"Contract.sol\":1253:1286  string public specialInstructions */\n            tag_103:\n              0x08\n              dup1\n              sload\n              tag_123\n              swap1\n              tag_124\n              jump\t// in\n                /* \"Contract.sol\":4024:4334  function renewContract(uint newExpiration) public {... */\n            tag_108:\n                /* \"Contract.sol\":4102:4110  customer */\n              and(sub(shl(0xa0, 0x01), 0x01), sload(0x00))\n                /* \"Contract.sol\":4088:4098  msg.sender */\n              caller\n                /* \"Contract.sol\":4088:4110  msg.sender == customer */\n              eq\n                /* \"Contract.sol\":4080:4111  require(msg.sender == customer) */\n              tag_279\n              jumpi\n              0x00\n              dup1\n              revert\n            tag_279:\n                /* \"Contract.sol\":4125:4167  hashCompareWithLengthCheck(status, 'open') */\n              tag_280\n                /* \"Contract.sol\":4152:4158  status */\n              0x06\n                /* \"Contract.sol\":4125:4167  hashCompareWithLengthCheck(status, 'open') */\n              dup1\n              sload\n              tag_204\n              swap1\n              tag_124\n              jump\t// in\n            tag_280:\n                /* \"Contract.sol\":4117:4168  require(hashCompareWithLengthCheck(status, 'open')) */\n              tag_286\n              jumpi\n              0x00\n              dup1\n              revert\n            tag_286:\n                /* \"Contract.sol\":4200:4213  newExpiration */\n              dup1\n                /* \"Contract.sol\":4182:4197  block.timestamp */\n              timestamp\n                /* \"Contract.sol\":4182:4213  block.timestamp < newExpiration */\n              lt\n                /* \"Contract.sol\":4174:4214  require(block.timestamp < newExpiration) */\n              tag_287\n              jumpi\n              0x00\n              dup1\n              revert\n            tag_287:\n                /* \"Contract.sol\":4220:4227  expires */\n              0x05\n                /* \"Contract.sol\":4220:4243  expires = newExpiration */\n              dup2\n              swap1\n              sstore\n                /* \"Contract.sol\":4249:4264  status = 'open' */\n              0x40\n              dup1\n              mload\n              dup1\n              dup3\n              add\n              swap1\n              swap2\n              mstore\n              0x04\n              dup2\n              mstore\n              shl(0xe1, 0x37b832b7)\n              0x20\n              dup3\n              add\n              mstore\n                /* \"Contract.sol\":4249:4255  status */\n              0x06\n              swap1\n                /* \"Contract.sol\":4249:4264  status = 'open' */\n              tag_252\n              swap1\n                /* \"Contract.sol\":4249:4255  status */\n              dup3\n                /* \"Contract.sol\":4249:4264  status = 'open' */\n              tag_118\n              jump\t// in\n                /* \"Contract.sol\":1153:1173  string public format */\n            tag_111:\n              0x04\n              dup1\n              sload\n              tag_123\n              swap1\n              tag_124\n              jump\t// in\n                /* \"Contract.sol\":3187:3531  function rejectDispute() public payable {... */\n            tag_114:\n                /* \"Contract.sol\":3255:3263  platform */\n              and(sub(shl(0xa0, 0x01), 0x01), sload(0x01))\n                /* \"Contract.sol\":3241:3251  msg.sender */\n              caller\n                /* \"Contract.sol\":3241:3263  msg.sender == platform */\n              eq\n                /* \"Contract.sol\":3233:3264  require(msg.sender == platform) */\n              tag_296\n              jumpi\n              0x00\n              dup1\n              revert\n            tag_296:\n                /* \"Contract.sol\":3278:3324  hashCompareWithLengthCheck(status, 'disputed') */\n              tag_256\n                /* \"Contract.sol\":3305:3311  status */\n              0x06\n                /* \"Contract.sol\":3278:3324  hashCompareWithLengthCheck(status, 'disputed') */\n              dup1\n              sload\n              tag_217\n              swap1\n              tag_124\n              jump\t// in\n                /* \"Contract.sol\":4920:5177  function hashCompareWithLengthCheck(string memory a, string memory b) internal pure returns (bool)  {... */\n            tag_136:\n                /* \"Contract.sol\":5013:5017  bool */\n              0x00\n                /* \"Contract.sol\":5055:5056  b */\n              dup2\n                /* \"Contract.sol\":5049:5064  bytes(b).length */\n              mload\n                /* \"Contract.sol\":5036:5037  a */\n              dup4\n                /* \"Contract.sol\":5030:5045  bytes(a).length */\n              mload\n                /* \"Contract.sol\":5030:5064  bytes(a).length != bytes(b).length */\n              eq\n                /* \"Contract.sol\":5026:5173  if (bytes(a).length != bytes(b).length) {... */\n              tag_315\n              jumpi\n              pop\n                /* \"Contract.sol\":5081:5086  false */\n              0x00\n                /* \"Contract.sol\":5074:5086  return false */\n              jump(tag_316)\n                /* \"Contract.sol\":5026:5173  if (bytes(a).length != bytes(b).length) {... */\n            tag_315:\n                /* \"Contract.sol\":5163:5164  b */\n              dup2\n                /* \"Contract.sol\":5152:5165  abi.encode(b) */\n              add(0x20, mload(0x40))\n              tag_317\n              swap2\n              swap1\n              tag_39\n              jump\t// in\n            tag_317:\n              mload(0x40)\n              0x20\n              dup2\n              dup4\n              sub\n              sub\n              dup2\n              mstore\n              swap1\n              0x40\n              mstore\n                /* \"Contract.sol\":5142:5166  keccak256(abi.encode(b)) */\n              dup1\n              mload\n              swap1\n              0x20\n              add\n              keccak256\n                /* \"Contract.sol\":5135:5136  a */\n              dup4\n                /* \"Contract.sol\":5124:5137  abi.encode(a) */\n              add(0x20, mload(0x40))\n              tag_318\n              swap2\n              swap1\n              tag_39\n              jump\t// in\n            tag_318:\n              mload(0x40)\n              0x20\n              dup2\n              dup4\n              sub\n              sub\n              dup2\n              mstore\n              swap1\n              0x40\n              mstore\n                /* \"Contract.sol\":5114:5138  keccak256(abi.encode(a)) */\n              dup1\n              mload\n              swap1\n              0x20\n              add\n              keccak256\n                /* \"Contract.sol\":5114:5166  keccak256(abi.encode(a)) == keccak256(abi.encode(b)) */\n              eq\n                /* \"Contract.sol\":5107:5166  return keccak256(abi.encode(a)) == keccak256(abi.encode(b)) */\n              swap1\n              pop\n                /* \"Contract.sol\":5026:5173  if (bytes(a).length != bytes(b).length) {... */\n            tag_316:\n                /* \"Contract.sol\":4920:5177  function hashCompareWithLengthCheck(string memory a, string memory b) internal pure returns (bool)  {... */\n              swap3\n              swap2\n              pop\n              pop\n              jump\t// out\n            tag_225:\n              pop\n              dup1\n              sload\n              0x00\n              dup3\n              sstore\n              swap1\n              0x00\n              mstore\n              keccak256(0x00, 0x20)\n              swap1\n              dup2\n              add\n              swap1\n              tag_320\n              swap2\n              swap1\n              tag_321\n              jump\t// in\n            tag_320:\n              pop\n              jump\t// out\n            tag_251:\n              dup3\n              dup1\n              sload\n              dup3\n              dup3\n              sstore\n              swap1\n              0x00\n              mstore\n              keccak256(0x00, 0x20)\n              swap1\n              dup2\n              add\n              swap3\n              dup3\n              iszero\n              tag_324\n              jumpi\n              swap2\n              0x20\n              mul\n              dup3\n              add\n            tag_323:\n              dup3\n              dup2\n              gt\n              iszero\n              tag_324\n              jumpi\n              dup3\n              mload\n              dup3\n              swap1\n              tag_325\n              swap1\n              dup3\n              tag_118\n              jump\t// in\n            tag_325:\n              pop\n              swap2\n              0x20\n              add\n              swap2\n              swap1\n              0x01\n              add\n              swap1\n              jump(tag_323)\n            tag_324:\n              pop\n              tag_326\n              swap3\n              swap2\n              pop\n              tag_321\n              jump\t// in\n            tag_326:\n              pop\n              swap1\n              jump\t// out\n            tag_321:\n              dup1\n              dup3\n              gt\n              iszero\n              tag_326\n              jumpi\n              0x00\n              tag_329\n              dup3\n              dup3\n              tag_330\n              jump\t// in\n            tag_329:\n              pop\n              0x01\n              add\n              jump(tag_321)\n            tag_330:\n              pop\n              dup1\n              sload\n              tag_331\n              swap1\n              tag_124\n              jump\t// in\n            tag_331:\n              0x00\n              dup3\n              sstore\n              dup1\n              0x1f\n              lt\n              tag_333\n              jumpi\n              pop\n              pop\n              jump\t// out\n            tag_333:\n              0x1f\n              add\n              0x20\n              swap1\n              div\n              swap1\n              0x00\n              mstore\n              keccak256(0x00, 0x20)\n              swap1\n              dup2\n              add\n              swap1\n              tag_320\n              swap2\n              swap1\n            tag_336:\n              dup1\n              dup3\n              gt\n              iszero\n              tag_326\n              jumpi\n              0x00\n              dup2\n              sstore\n              0x01\n              add\n              jump(tag_336)\n                /* \"#utility.yul\":355:778   */\n            tag_339:\n                /* \"#utility.yul\":397:400   */\n              0x00\n                /* \"#utility.yul\":435:440   */\n              dup2\n                /* \"#utility.yul\":429:441   */\n              mload\n                /* \"#utility.yul\":462:468   */\n              dup1\n                /* \"#utility.yul\":457:460   */\n              dup5\n                /* \"#utility.yul\":450:469   */\n              mstore\n                /* \"#utility.yul\":487:488   */\n              0x00\n                /* \"#utility.yul\":497:659   */\n            tag_350:\n                /* \"#utility.yul\":511:517   */\n              dup2\n                /* \"#utility.yul\":508:509   */\n              dup2\n                /* \"#utility.yul\":505:518   */\n              lt\n                /* \"#utility.yul\":497:659   */\n              iszero\n              tag_352\n              jumpi\n                /* \"#utility.yul\":573:577   */\n              0x20\n                /* \"#utility.yul\":629:642   */\n              dup2\n              dup6\n              add\n                /* \"#utility.yul\":625:647   */\n              dup2\n              add\n                /* \"#utility.yul\":619:648   */\n              mload\n                /* \"#utility.yul\":601:612   */\n              dup7\n              dup4\n              add\n                /* \"#utility.yul\":597:617   */\n              dup3\n              add\n                /* \"#utility.yul\":590:649   */\n              mstore\n                /* \"#utility.yul\":526:538   */\n              add\n                /* \"#utility.yul\":497:659   */\n              jump(tag_350)\n            tag_352:\n                /* \"#utility.yul\":501:504   */\n              pop\n                /* \"#utility.yul\":704:705   */\n              0x00\n                /* \"#utility.yul\":697:701   */\n              0x20\n                /* \"#utility.yul\":688:694   */\n              dup3\n                /* \"#utility.yul\":683:686   */\n              dup7\n                /* \"#utility.yul\":679:695   */\n              add\n                /* \"#utility.yul\":675:702   */\n              add\n                /* \"#utility.yul\":668:706   */\n              mstore\n                /* \"#utility.yul\":767:771   */\n              0x20\n                /* \"#utility.yul\":760:762   */\n              0x1f\n                /* \"#utility.yul\":756:763   */\n              not\n                /* \"#utility.yul\":751:753   */\n              0x1f\n                /* \"#utility.yul\":743:749   */\n              dup4\n                /* \"#utility.yul\":739:754   */\n              add\n                /* \"#utility.yul\":735:764   */\n              and\n                /* \"#utility.yul\":730:733   */\n              dup6\n                /* \"#utility.yul\":726:765   */\n              add\n                /* \"#utility.yul\":722:772   */\n              add\n                /* \"#utility.yul\":715:772   */\n              swap2\n              pop\n              pop\n                /* \"#utility.yul\":355:778   */\n              swap3\n              swap2\n              pop\n              pop\n              jump\t// out\n                /* \"#utility.yul\":783:1003   */\n            tag_39:\n                /* \"#utility.yul\":932:934   */\n              0x20\n                /* \"#utility.yul\":921:930   */\n              dup2\n                /* \"#utility.yul\":914:935   */\n              mstore\n                /* \"#utility.yul\":895:899   */\n              0x00\n                /* \"#utility.yul\":952:997   */\n              tag_354\n                /* \"#utility.yul\":993:995   */\n              0x20\n                /* \"#utility.yul\":982:991   */\n              dup4\n                /* \"#utility.yul\":978:996   */\n              add\n                /* \"#utility.yul\":970:976   */\n              dup5\n                /* \"#utility.yul\":952:997   */\n              tag_339\n              jump\t// in\n            tag_354:\n                /* \"#utility.yul\":944:997   */\n              swap4\n                /* \"#utility.yul\":783:1003   */\n              swap3\n              pop\n              pop\n              pop\n              jump\t// out\n                /* \"#utility.yul\":1008:1188   */\n            tag_50:\n                /* \"#utility.yul\":1067:1073   */\n              0x00\n                /* \"#utility.yul\":1120:1122   */\n              0x20\n                /* \"#utility.yul\":1108:1117   */\n              dup3\n                /* \"#utility.yul\":1099:1106   */\n              dup5\n                /* \"#utility.yul\":1095:1118   */\n              sub\n                /* \"#utility.yul\":1091:1123   */\n              slt\n                /* \"#utility.yul\":1088:1140   */\n              iszero\n              tag_356\n              jumpi\n                /* \"#utility.yul\":1136:1137   */\n              0x00\n                /* \"#utility.yul\":1133:1134   */\n              dup1\n                /* \"#utility.yul\":1126:1138   */\n              revert\n                /* \"#utility.yul\":1088:1140   */\n            tag_356:\n              pop\n                /* \"#utility.yul\":1159:1182   */\n              calldataload\n              swap2\n                /* \"#utility.yul\":1008:1188   */\n              swap1\n              pop\n              jump\t// out\n                /* \"#utility.yul\":1193:1785   */\n            tag_340:\n                /* \"#utility.yul\":1245:1248   */\n              0x00\n                /* \"#utility.yul\":1276:1279   */\n              dup3\n                /* \"#utility.yul\":1308:1313   */\n              dup3\n                /* \"#utility.yul\":1302:1314   */\n              mload\n                /* \"#utility.yul\":1335:1341   */\n              dup1\n                /* \"#utility.yul\":1330:1333   */\n              dup6\n                /* \"#utility.yul\":1323:1342   */\n              mstore\n                /* \"#utility.yul\":1361:1365   */\n              0x20\n                /* \"#utility.yul\":1390:1392   */\n              dup1\n                /* \"#utility.yul\":1385:1388   */\n              dup7\n                /* \"#utility.yul\":1381:1393   */\n              add\n                /* \"#utility.yul\":1374:1393   */\n              swap6\n              pop\n                /* \"#utility.yul\":1446:1448   */\n              dup1\n                /* \"#utility.yul\":1436:1442   */\n              dup3\n                /* \"#utility.yul\":1433:1434   */\n              0x05\n                /* \"#utility.yul\":1429:1443   */\n              shl\n                /* \"#utility.yul\":1422:1427   */\n              dup5\n                /* \"#utility.yul\":1418:1444   */\n              add\n                /* \"#utility.yul\":1414:1449   */\n              add\n                /* \"#utility.yul\":1483:1485   */\n              dup2\n                /* \"#utility.yul\":1476:1481   */\n              dup7\n                /* \"#utility.yul\":1472:1486   */\n              add\n                /* \"#utility.yul\":1504:1505   */\n              0x00\n                /* \"#utility.yul\":1514:1759   */\n            tag_358:\n                /* \"#utility.yul\":1528:1534   */\n              dup5\n                /* \"#utility.yul\":1525:1526   */\n              dup2\n                /* \"#utility.yul\":1522:1535   */\n              lt\n                /* \"#utility.yul\":1514:1759   */\n              iszero\n              tag_360\n              jumpi\n                /* \"#utility.yul\":1615:1617   */\n              0x1f\n                /* \"#utility.yul\":1611:1618   */\n              not\n                /* \"#utility.yul\":1603:1608   */\n              dup7\n                /* \"#utility.yul\":1597:1601   */\n              dup5\n                /* \"#utility.yul\":1593:1609   */\n              sub\n                /* \"#utility.yul\":1589:1619   */\n              add\n                /* \"#utility.yul\":1584:1587   */\n              dup10\n                /* \"#utility.yul\":1577:1620   */\n              mstore\n                /* \"#utility.yul\":1641:1679   */\n              tag_361\n                /* \"#utility.yul\":1674:1678   */\n              dup4\n                /* \"#utility.yul\":1665:1671   */\n              dup4\n                /* \"#utility.yul\":1659:1672   */\n              mload\n                /* \"#utility.yul\":1641:1679   */\n              tag_339\n              jump\t// in\n            tag_361:\n                /* \"#utility.yul\":1737:1749   */\n              swap9\n              dup5\n              add\n              swap9\n                /* \"#utility.yul\":1633:1679   */\n              swap3\n              pop\n                /* \"#utility.yul\":1702:1717   */\n              swap1\n              dup4\n              add\n              swap1\n                /* \"#utility.yul\":1550:1551   */\n              0x01\n                /* \"#utility.yul\":1543:1552   */\n              add\n                /* \"#utility.yul\":1514:1759   */\n              jump(tag_358)\n            tag_360:\n              pop\n                /* \"#utility.yul\":1775:1779   */\n              swap1\n              swap8\n                /* \"#utility.yul\":1193:1785   */\n              swap7\n              pop\n              pop\n              pop\n              pop\n              pop\n              pop\n              pop\n              jump\t// out\n                /* \"#utility.yul\":1790:3457   */\n            tag_61:\n              sub(shl(0xa0, 0x01), 0x01)\n                /* \"#utility.yul\":88:119   */\n              dup14\n              and\n                /* \"#utility.yul\":76:120   */\n              dup2\n              mstore\n              sub(shl(0xa0, 0x01), 0x01)\n                /* \"#utility.yul\":88:119   */\n              dup13\n              and\n                /* \"#utility.yul\":2505:2507   */\n              0x20\n                /* \"#utility.yul\":2490:2508   */\n              dup3\n              add\n                /* \"#utility.yul\":76:120   */\n              mstore\n                /* \"#utility.yul\":2545:2551   */\n              dup11\n                /* \"#utility.yul\":2540:2542   */\n              0x40\n                /* \"#utility.yul\":2529:2538   */\n              dup3\n                /* \"#utility.yul\":2525:2543   */\n              add\n                /* \"#utility.yul\":2518:2552   */\n              mstore\n                /* \"#utility.yul\":2588:2591   */\n              0x0180\n                /* \"#utility.yul\":2583:2585   */\n              0x60\n                /* \"#utility.yul\":2572:2581   */\n              dup3\n                /* \"#utility.yul\":2568:2586   */\n              add\n                /* \"#utility.yul\":2561:2592   */\n              mstore\n                /* \"#utility.yul\":2382:2386   */\n              0x00\n                /* \"#utility.yul\":2615:2661   */\n              tag_365\n                /* \"#utility.yul\":2656:2659   */\n              0x0180\n                /* \"#utility.yul\":2645:2654   */\n              dup4\n                /* \"#utility.yul\":2641:2660   */\n              add\n                /* \"#utility.yul\":2633:2639   */\n              dup13\n                /* \"#utility.yul\":2615:2661   */\n              tag_339\n              jump\t// in\n            tag_365:\n                /* \"#utility.yul\":2710:2719   */\n              dup3\n                /* \"#utility.yul\":2702:2708   */\n              dup2\n                /* \"#utility.yul\":2698:2720   */\n              sub\n                /* \"#utility.yul\":2692:2695   */\n              0x80\n                /* \"#utility.yul\":2681:2690   */\n              dup5\n                /* \"#utility.yul\":2677:2696   */\n              add\n                /* \"#utility.yul\":2670:2721   */\n              mstore\n                /* \"#utility.yul\":2744:2777   */\n              tag_366\n                /* \"#utility.yul\":2770:2776   */\n              dup2\n                /* \"#utility.yul\":2762:2768   */\n              dup13\n                /* \"#utility.yul\":2744:2777   */\n              tag_339\n              jump\t// in\n            tag_366:\n                /* \"#utility.yul\":2730:2777   */\n              swap1\n              pop\n                /* \"#utility.yul\":2814:2820   */\n              dup10\n                /* \"#utility.yul\":2808:2811   */\n              0xa0\n                /* \"#utility.yul\":2797:2806   */\n              dup5\n                /* \"#utility.yul\":2793:2812   */\n              add\n                /* \"#utility.yul\":2786:2821   */\n              mstore\n                /* \"#utility.yul\":2870:2879   */\n              dup3\n                /* \"#utility.yul\":2862:2868   */\n              dup2\n                /* \"#utility.yul\":2858:2880   */\n              sub\n                /* \"#utility.yul\":2852:2855   */\n              0xc0\n                /* \"#utility.yul\":2841:2850   */\n              dup5\n                /* \"#utility.yul\":2837:2856   */\n              add\n                /* \"#utility.yul\":2830:2881   */\n              mstore\n                /* \"#utility.yul\":2904:2937   */\n              tag_367\n                /* \"#utility.yul\":2930:2936   */\n              dup2\n                /* \"#utility.yul\":2922:2928   */\n              dup11\n                /* \"#utility.yul\":2904:2937   */\n              tag_339\n              jump\t// in\n            tag_367:\n                /* \"#utility.yul\":2890:2937   */\n              swap1\n              pop\n                /* \"#utility.yul\":2974:2980   */\n              dup8\n                /* \"#utility.yul\":2968:2971   */\n              0xe0\n                /* \"#utility.yul\":2957:2966   */\n              dup5\n                /* \"#utility.yul\":2953:2972   */\n              add\n                /* \"#utility.yul\":2946:2981   */\n              mstore\n                /* \"#utility.yul\":3030:3039   */\n              dup3\n                /* \"#utility.yul\":3022:3028   */\n              dup2\n                /* \"#utility.yul\":3018:3040   */\n              sub\n                /* \"#utility.yul\":3012:3015   */\n              0x0100\n                /* \"#utility.yul\":3001:3010   */\n              dup5\n                /* \"#utility.yul\":2997:3016   */\n              add\n                /* \"#utility.yul\":2990:3041   */\n              mstore\n                /* \"#utility.yul\":3064:3097   */\n              tag_368\n                /* \"#utility.yul\":3090:3096   */\n              dup2\n                /* \"#utility.yul\":3082:3088   */\n              dup9\n                /* \"#utility.yul\":3064:3097   */\n              tag_339\n              jump\t// in\n            tag_368:\n                /* \"#utility.yul\":3050:3097   */\n              swap1\n              pop\n                /* \"#utility.yul\":3146:3155   */\n              dup3\n                /* \"#utility.yul\":3138:3144   */\n              dup2\n                /* \"#utility.yul\":3134:3156   */\n              sub\n                /* \"#utility.yul\":3128:3131   */\n              0x0120\n                /* \"#utility.yul\":3117:3126   */\n              dup5\n                /* \"#utility.yul\":3113:3132   */\n              add\n                /* \"#utility.yul\":3106:3157   */\n              mstore\n                /* \"#utility.yul\":3180:3213   */\n              tag_369\n                /* \"#utility.yul\":3206:3212   */\n              dup2\n                /* \"#utility.yul\":3198:3204   */\n              dup8\n                /* \"#utility.yul\":3180:3213   */\n              tag_339\n              jump\t// in\n            tag_369:\n                /* \"#utility.yul\":3166:3213   */\n              swap1\n              pop\n                /* \"#utility.yul\":3262:3271   */\n              dup3\n                /* \"#utility.yul\":3254:3260   */\n              dup2\n                /* \"#utility.yul\":3250:3272   */\n              sub\n                /* \"#utility.yul\":3244:3247   */\n              0x0140\n                /* \"#utility.yul\":3233:3242   */\n              dup5\n                /* \"#utility.yul\":3229:3248   */\n              add\n                /* \"#utility.yul\":3222:3273   */\n              mstore\n                /* \"#utility.yul\":3296:3330   */\n              tag_370\n                /* \"#utility.yul\":3323:3329   */\n              dup2\n                /* \"#utility.yul\":3314:3321   */\n              dup7\n                /* \"#utility.yul\":3296:3330   */\n              tag_339\n              jump\t// in\n            tag_370:\n                /* \"#utility.yul\":3282:3330   */\n              swap1\n              pop\n                /* \"#utility.yul\":3379:3388   */\n              dup3\n                /* \"#utility.yul\":3371:3377   */\n              dup2\n                /* \"#utility.yul\":3367:3389   */\n              sub\n                /* \"#utility.yul\":3361:3364   */\n              0x0160\n                /* \"#utility.yul\":3350:3359   */\n              dup5\n                /* \"#utility.yul\":3346:3365   */\n              add\n                /* \"#utility.yul\":3339:3390   */\n              mstore\n                /* \"#utility.yul\":3407:3451   */\n              tag_371\n                /* \"#utility.yul\":3444:3450   */\n              dup2\n                /* \"#utility.yul\":3435:3442   */\n              dup6\n                /* \"#utility.yul\":3407:3451   */\n              tag_340\n              jump\t// in\n            tag_371:\n                /* \"#utility.yul\":3399:3451   */\n              swap16\n                /* \"#utility.yul\":1790:3457   */\n              swap15\n              pop\n              pop\n              pop\n              pop\n              pop\n              pop\n              pop\n              pop\n              pop\n              pop\n              pop\n              pop\n              pop\n              pop\n              pop\n              jump\t// out\n                /* \"#utility.yul\":3462:3742   */\n            tag_80:\n                /* \"#utility.yul\":3661:3663   */\n              0x20\n                /* \"#utility.yul\":3650:3659   */\n              dup2\n                /* \"#utility.yul\":3643:3664   */\n              mstore\n                /* \"#utility.yul\":3624:3628   */\n              0x00\n                /* \"#utility.yul\":3681:3736   */\n              tag_354\n                /* \"#utility.yul\":3732:3734   */\n              0x20\n                /* \"#utility.yul\":3721:3730   */\n              dup4\n                /* \"#utility.yul\":3717:3735   */\n              add\n                /* \"#utility.yul\":3709:3715   */\n              dup5\n                /* \"#utility.yul\":3681:3736   */\n              tag_340\n              jump\t// in\n                /* \"#utility.yul\":3929:4056   */\n            tag_341:\n                /* \"#utility.yul\":3990:4000   */\n              0x4e487b71\n                /* \"#utility.yul\":3985:3988   */\n              0xe0\n                /* \"#utility.yul\":3981:4001   */\n              shl\n                /* \"#utility.yul\":3978:3979   */\n              0x00\n                /* \"#utility.yul\":3971:4002   */\n              mstore\n                /* \"#utility.yul\":4021:4025   */\n              0x41\n                /* \"#utility.yul\":4018:4019   */\n              0x04\n                /* \"#utility.yul\":4011:4026   */\n              mstore\n                /* \"#utility.yul\":4045:4049   */\n              0x24\n                /* \"#utility.yul\":4042:4043   */\n              0x00\n                /* \"#utility.yul\":4035:4050   */\n              revert\n                /* \"#utility.yul\":4061:4336   */\n            tag_342:\n                /* \"#utility.yul\":4132:4134   */\n              0x40\n                /* \"#utility.yul\":4126:4135   */\n              mload\n                /* \"#utility.yul\":4197:4199   */\n              0x1f\n                /* \"#utility.yul\":4178:4191   */\n              dup3\n              add\n              not(0x1f)\n                /* \"#utility.yul\":4174:4201   */\n              and\n                /* \"#utility.yul\":4162:4202   */\n              dup2\n              add\n                /* \"#utility.yul\":4232:4250   */\n              0xffffffffffffffff\n                /* \"#utility.yul\":4217:4251   */\n              dup2\n              gt\n                /* \"#utility.yul\":4253:4275   */\n              dup3\n              dup3\n              lt\n                /* \"#utility.yul\":4214:4276   */\n              or\n                /* \"#utility.yul\":4211:4299   */\n              iszero\n              tag_378\n              jumpi\n                /* \"#utility.yul\":4279:4297   */\n              tag_378\n              tag_341\n              jump\t// in\n            tag_378:\n                /* \"#utility.yul\":4315:4317   */\n              0x40\n                /* \"#utility.yul\":4308:4330   */\n              mstore\n                /* \"#utility.yul\":4061:4336   */\n              swap2\n              swap1\n              pop\n              jump\t// out\n                /* \"#utility.yul\":4341:6139   */\n            tag_93:\n                /* \"#utility.yul\":4435:4441   */\n              0x00\n                /* \"#utility.yul\":4466:4468   */\n              0x20\n                /* \"#utility.yul\":4509:4511   */\n              dup1\n                /* \"#utility.yul\":4497:4506   */\n              dup4\n                /* \"#utility.yul\":4488:4495   */\n              dup6\n                /* \"#utility.yul\":4484:4507   */\n              sub\n                /* \"#utility.yul\":4480:4512   */\n              slt\n                /* \"#utility.yul\":4477:4529   */\n              iszero\n              tag_380\n              jumpi\n                /* \"#utility.yul\":4525:4526   */\n              0x00\n                /* \"#utility.yul\":4522:4523   */\n              dup1\n                /* \"#utility.yul\":4515:4527   */\n              revert\n                /* \"#utility.yul\":4477:4529   */\n            tag_380:\n                /* \"#utility.yul\":4565:4574   */\n              dup3\n                /* \"#utility.yul\":4552:4575   */\n              calldataload\n                /* \"#utility.yul\":4594:4612   */\n              0xffffffffffffffff\n                /* \"#utility.yul\":4635:4637   */\n              dup1\n                /* \"#utility.yul\":4627:4633   */\n              dup3\n                /* \"#utility.yul\":4624:4638   */\n              gt\n                /* \"#utility.yul\":4621:4655   */\n              iszero\n              tag_381\n              jumpi\n                /* \"#utility.yul\":4651:4652   */\n              0x00\n                /* \"#utility.yul\":4648:4649   */\n              dup1\n                /* \"#utility.yul\":4641:4653   */\n              revert\n                /* \"#utility.yul\":4621:4655   */\n            tag_381:\n                /* \"#utility.yul\":4689:4695   */\n              dup2\n                /* \"#utility.yul\":4678:4687   */\n              dup6\n                /* \"#utility.yul\":4674:4696   */\n              add\n                /* \"#utility.yul\":4664:4696   */\n              swap2\n              pop\n                /* \"#utility.yul\":4715:4719   */\n              0x1f\n                /* \"#utility.yul\":4755:4762   */\n              dup7\n                /* \"#utility.yul\":4750:4752   */\n              dup2\n                /* \"#utility.yul\":4746:4748   */\n              dup5\n                /* \"#utility.yul\":4742:4753   */\n              add\n                /* \"#utility.yul\":4738:4763   */\n              slt\n                /* \"#utility.yul\":4728:4781   */\n              tag_382\n              jumpi\n                /* \"#utility.yul\":4777:4778   */\n              0x00\n                /* \"#utility.yul\":4774:4775   */\n              dup1\n                /* \"#utility.yul\":4767:4779   */\n              revert\n                /* \"#utility.yul\":4728:4781   */\n            tag_382:\n                /* \"#utility.yul\":4813:4815   */\n              dup3\n                /* \"#utility.yul\":4800:4816   */\n              calldataload\n                /* \"#utility.yul\":4835:4837   */\n              dup3\n                /* \"#utility.yul\":4831:4833   */\n              dup2\n                /* \"#utility.yul\":4828:4838   */\n              gt\n                /* \"#utility.yul\":4825:4861   */\n              iszero\n              tag_384\n              jumpi\n                /* \"#utility.yul\":4841:4859   */\n              tag_384\n              tag_341\n              jump\t// in\n            tag_384:\n                /* \"#utility.yul\":4887:4889   */\n              dup1\n                /* \"#utility.yul\":4884:4885   */\n              0x05\n                /* \"#utility.yul\":4880:4890   */\n              shl\n                /* \"#utility.yul\":4910:4938   */\n              tag_385\n                /* \"#utility.yul\":4934:4936   */\n              dup7\n                /* \"#utility.yul\":4930:4932   */\n              dup3\n                /* \"#utility.yul\":4926:4937   */\n              add\n                /* \"#utility.yul\":4910:4938   */\n              tag_342\n              jump\t// in\n            tag_385:\n                /* \"#utility.yul\":4972:4987   */\n              swap2\n              dup3\n              mstore\n                /* \"#utility.yul\":5042:5053   */\n              dup5\n              dup2\n              add\n                /* \"#utility.yul\":5038:5058   */\n              dup7\n              add\n              swap2\n                /* \"#utility.yul\":5003:5015   */\n              dup7\n              dup2\n              add\n              swap1\n                /* \"#utility.yul\":5070:5089   */\n              dup11\n              dup5\n              gt\n                /* \"#utility.yul\":5067:5106   */\n              iszero\n              tag_386\n              jumpi\n                /* \"#utility.yul\":5102:5103   */\n              0x00\n                /* \"#utility.yul\":5099:5100   */\n              dup1\n                /* \"#utility.yul\":5092:5104   */\n              revert\n                /* \"#utility.yul\":5067:5106   */\n            tag_386:\n                /* \"#utility.yul\":5134:5136   */\n              dup8\n                /* \"#utility.yul\":5130:5132   */\n              dup8\n                /* \"#utility.yul\":5126:5137   */\n              add\n                /* \"#utility.yul\":5115:5137   */\n              swap3\n              pop\n                /* \"#utility.yul\":5146:6109   */\n            tag_387:\n                /* \"#utility.yul\":5162:5168   */\n              dup4\n                /* \"#utility.yul\":5157:5160   */\n              dup4\n                /* \"#utility.yul\":5154:5169   */\n              lt\n                /* \"#utility.yul\":5146:6109   */\n              iszero\n              tag_389\n              jumpi\n                /* \"#utility.yul\":5248:5251   */\n              dup3\n                /* \"#utility.yul\":5235:5252   */\n              calldataload\n                /* \"#utility.yul\":5284:5286   */\n              dup7\n                /* \"#utility.yul\":5271:5282   */\n              dup2\n                /* \"#utility.yul\":5268:5287   */\n              gt\n                /* \"#utility.yul\":5265:5374   */\n              iszero\n              tag_390\n              jumpi\n                /* \"#utility.yul\":5328:5329   */\n              0x00\n                /* \"#utility.yul\":5357:5359   */\n              dup1\n                /* \"#utility.yul\":5353:5355   */\n              dup2\n                /* \"#utility.yul\":5346:5360   */\n              revert\n                /* \"#utility.yul\":5265:5374   */\n            tag_390:\n                /* \"#utility.yul\":5397:5417   */\n              dup8\n              add\n                /* \"#utility.yul\":5452:5454   */\n              0x3f\n                /* \"#utility.yul\":5444:5455   */\n              dup2\n              add\n                /* \"#utility.yul\":5440:5465   */\n              dup13\n              sgt\n                /* \"#utility.yul\":5430:5553   */\n              tag_391\n              jumpi\n                /* \"#utility.yul\":5507:5508   */\n              0x00\n                /* \"#utility.yul\":5536:5538   */\n              dup1\n                /* \"#utility.yul\":5532:5534   */\n              dup2\n                /* \"#utility.yul\":5525:5539   */\n              revert\n                /* \"#utility.yul\":5430:5553   */\n            tag_391:\n                /* \"#utility.yul\":5598:5600   */\n              dup9\n                /* \"#utility.yul\":5594:5596   */\n              dup2\n                /* \"#utility.yul\":5590:5601   */\n              add\n                /* \"#utility.yul\":5577:5602   */\n              calldataload\n                /* \"#utility.yul\":5626:5628   */\n              0x40\n                /* \"#utility.yul\":5652:5654   */\n              dup9\n                /* \"#utility.yul\":5647:5650   */\n              dup3\n                /* \"#utility.yul\":5644:5655   */\n              gt\n                /* \"#utility.yul\":5641:5678   */\n              iszero\n              tag_393\n              jumpi\n                /* \"#utility.yul\":5658:5676   */\n              tag_393\n              tag_341\n              jump\t// in\n            tag_393:\n                /* \"#utility.yul\":5704:5756   */\n              tag_394\n                /* \"#utility.yul\":5728:5740   */\n              dup3\n              dup10\n              add\n              not(0x1f)\n                /* \"#utility.yul\":5724:5750   */\n              and\n                /* \"#utility.yul\":5720:5755   */\n              dup13\n              add\n                /* \"#utility.yul\":5704:5756   */\n              tag_342\n              jump\t// in\n            tag_394:\n                /* \"#utility.yul\":5783:5786   */\n              dup3\n                /* \"#utility.yul\":5776:5781   */\n              dup2\n                /* \"#utility.yul\":5769:5787   */\n              mstore\n                /* \"#utility.yul\":5830:5837   */\n              dup15\n                /* \"#utility.yul\":5824:5827   */\n              dup3\n                /* \"#utility.yul\":5818:5821   */\n              dup5\n                /* \"#utility.yul\":5814:5816   */\n              dup7\n                /* \"#utility.yul\":5810:5822   */\n              add\n                /* \"#utility.yul\":5806:5828   */\n              add\n                /* \"#utility.yul\":5803:5838   */\n              gt\n                /* \"#utility.yul\":5800:5928   */\n              iszero\n              tag_395\n              jumpi\n                /* \"#utility.yul\":5880:5881   */\n              0x00\n                /* \"#utility.yul\":5910:5913   */\n              dup1\n                /* \"#utility.yul\":5905:5908   */\n              dup2\n                /* \"#utility.yul\":5898:5914   */\n              revert\n                /* \"#utility.yul\":5800:5928   */\n            tag_395:\n                /* \"#utility.yul\":5984:5987   */\n              dup3\n                /* \"#utility.yul\":5978:5981   */\n              dup3\n                /* \"#utility.yul\":5974:5976   */\n              dup6\n                /* \"#utility.yul\":5970:5982   */\n              add\n                /* \"#utility.yul\":5965:5967   */\n              dup14\n                /* \"#utility.yul\":5958:5963   */\n              dup4\n                /* \"#utility.yul\":5954:5968   */\n              add\n                /* \"#utility.yul\":5941:5988   */\n              calldatacopy\n                /* \"#utility.yul\":6034:6035   */\n              0x00\n                /* \"#utility.yul\":6012:6027   */\n              swap3\n              dup2\n              add\n                /* \"#utility.yul\":6008:6032   */\n              dup13\n              add\n                /* \"#utility.yul\":6001:6036   */\n              swap3\n              swap1\n              swap3\n              mstore\n              pop\n                /* \"#utility.yul\":6049:6067   */\n              dup4\n              mstore\n              pop\n                /* \"#utility.yul\":5179:5191   */\n              swap2\n              dup8\n              add\n              swap2\n                /* \"#utility.yul\":6087:6099   */\n              swap1\n              dup8\n              add\n              swap1\n                /* \"#utility.yul\":5146:6109   */\n              jump(tag_387)\n            tag_389:\n                /* \"#utility.yul\":6128:6133   */\n              swap11\n                /* \"#utility.yul\":4341:6139   */\n              swap10\n              pop\n              pop\n              pop\n              pop\n              pop\n              pop\n              pop\n              pop\n              pop\n              pop\n              jump\t// out\n                /* \"#utility.yul\":6144:6524   */\n            tag_124:\n                /* \"#utility.yul\":6223:6224   */\n              0x01\n                /* \"#utility.yul\":6219:6231   */\n              dup2\n              dup2\n              shr\n              swap1\n                /* \"#utility.yul\":6266:6278   */\n              dup3\n              and\n              dup1\n                /* \"#utility.yul\":6287:6348   */\n              tag_397\n              jumpi\n                /* \"#utility.yul\":6341:6345   */\n              0x7f\n                /* \"#utility.yul\":6333:6339   */\n              dup3\n                /* \"#utility.yul\":6329:6346   */\n              and\n                /* \"#utility.yul\":6319:6346   */\n              swap2\n              pop\n                /* \"#utility.yul\":6287:6348   */\n            tag_397:\n                /* \"#utility.yul\":6394:6396   */\n              0x20\n                /* \"#utility.yul\":6386:6392   */\n              dup3\n                /* \"#utility.yul\":6383:6397   */\n              lt\n                /* \"#utility.yul\":6363:6381   */\n              dup2\n                /* \"#utility.yul\":6360:6398   */\n              sub\n                /* \"#utility.yul\":6357:6518   */\n              tag_398\n              jumpi\n                /* \"#utility.yul\":6440:6450   */\n              0x4e487b71\n                /* \"#utility.yul\":6435:6438   */\n              0xe0\n                /* \"#utility.yul\":6431:6451   */\n              shl\n                /* \"#utility.yul\":6428:6429   */\n              0x00\n                /* \"#utility.yul\":6421:6452   */\n              mstore\n                /* \"#utility.yul\":6475:6479   */\n              0x22\n                /* \"#utility.yul\":6472:6473   */\n              0x04\n                /* \"#utility.yul\":6465:6480   */\n              mstore\n                /* \"#utility.yul\":6503:6507   */\n              0x24\n                /* \"#utility.yul\":6500:6501   */\n              0x00\n                /* \"#utility.yul\":6493:6508   */\n              revert\n                /* \"#utility.yul\":6357:6518   */\n            tag_398:\n              pop\n                /* \"#utility.yul\":6144:6524   */\n              swap2\n              swap1\n              pop\n              jump\t// out\n                /* \"#utility.yul\":6655:7200   */\n            tag_344:\n                /* \"#utility.yul\":6757:6759   */\n              0x1f\n                /* \"#utility.yul\":6752:6755   */\n              dup3\n                /* \"#utility.yul\":6749:6760   */\n              gt\n                /* \"#utility.yul\":6746:7194   */\n              iszero\n              tag_401\n              jumpi\n                /* \"#utility.yul\":6793:6794   */\n              0x00\n                /* \"#utility.yul\":6818:6823   */\n              dup2\n                /* \"#utility.yul\":6814:6816   */\n              dup2\n                /* \"#utility.yul\":6807:6824   */\n              mstore\n                /* \"#utility.yul\":6863:6867   */\n              0x20\n                /* \"#utility.yul\":6859:6861   */\n              dup2\n                /* \"#utility.yul\":6849:6868   */\n              keccak256\n                /* \"#utility.yul\":6933:6935   */\n              0x1f\n                /* \"#utility.yul\":6921:6931   */\n              dup6\n                /* \"#utility.yul\":6917:6936   */\n              add\n                /* \"#utility.yul\":6914:6915   */\n              0x05\n                /* \"#utility.yul\":6910:6937   */\n              shr\n                /* \"#utility.yul\":6904:6908   */\n              dup2\n                /* \"#utility.yul\":6900:6938   */\n              add\n                /* \"#utility.yul\":6969:6973   */\n              0x20\n                /* \"#utility.yul\":6957:6967   */\n              dup7\n                /* \"#utility.yul\":6954:6974   */\n              lt\n                /* \"#utility.yul\":6951:6998   */\n              iszero\n              tag_402\n              jumpi\n              pop\n                /* \"#utility.yul\":6992:6996   */\n              dup1\n                /* \"#utility.yul\":6951:6998   */\n            tag_402:\n                /* \"#utility.yul\":7047:7049   */\n              0x1f\n                /* \"#utility.yul\":7042:7045   */\n              dup6\n                /* \"#utility.yul\":7038:7050   */\n              add\n                /* \"#utility.yul\":7035:7036   */\n              0x05\n                /* \"#utility.yul\":7031:7051   */\n              shr\n                /* \"#utility.yul\":7025:7029   */\n              dup3\n                /* \"#utility.yul\":7021:7052   */\n              add\n                /* \"#utility.yul\":7011:7052   */\n              swap2\n              pop\n                /* \"#utility.yul\":7102:7184   */\n            tag_403:\n                /* \"#utility.yul\":7120:7122   */\n              dup2\n                /* \"#utility.yul\":7113:7118   */\n              dup2\n                /* \"#utility.yul\":7110:7123   */\n              lt\n                /* \"#utility.yul\":7102:7184   */\n              iszero\n              tag_405\n              jumpi\n                /* \"#utility.yul\":7165:7182   */\n              dup3\n              dup2\n              sstore\n                /* \"#utility.yul\":7146:7147   */\n              0x01\n                /* \"#utility.yul\":7135:7148   */\n              add\n                /* \"#utility.yul\":7102:7184   */\n              jump(tag_403)\n            tag_405:\n                /* \"#utility.yul\":7106:7109   */\n              pop\n              pop\n              pop\n                /* \"#utility.yul\":6746:7194   */\n            tag_401:\n                /* \"#utility.yul\":6655:7200   */\n              pop\n              pop\n              pop\n              jump\t// out\n                /* \"#utility.yul\":7376:8728   */\n            tag_118:\n                /* \"#utility.yul\":7502:7505   */\n              dup2\n                /* \"#utility.yul\":7496:7506   */\n              mload\n                /* \"#utility.yul\":7529:7547   */\n              0xffffffffffffffff\n                /* \"#utility.yul\":7521:7527   */\n              dup2\n                /* \"#utility.yul\":7518:7548   */\n              gt\n                /* \"#utility.yul\":7515:7571   */\n              iszero\n              tag_409\n              jumpi\n                /* \"#utility.yul\":7551:7569   */\n              tag_409\n              tag_341\n              jump\t// in\n            tag_409:\n                /* \"#utility.yul\":7580:7677   */\n              tag_410\n                /* \"#utility.yul\":7670:7676   */\n              dup2\n                /* \"#utility.yul\":7630:7668   */\n              tag_411\n                /* \"#utility.yul\":7662:7666   */\n              dup5\n                /* \"#utility.yul\":7656:7667   */\n              sload\n                /* \"#utility.yul\":7630:7668   */\n              tag_124\n              jump\t// in\n            tag_411:\n                /* \"#utility.yul\":7624:7628   */\n              dup5\n                /* \"#utility.yul\":7580:7677   */\n              tag_344\n              jump\t// in\n            tag_410:\n                /* \"#utility.yul\":7732:7736   */\n              0x20\n              dup1\n                /* \"#utility.yul\":7796:7798   */\n              0x1f\n                /* \"#utility.yul\":7785:7799   */\n              dup4\n              gt\n                /* \"#utility.yul\":7813:7814   */\n              0x01\n                /* \"#utility.yul\":7808:8471   */\n              dup2\n              eq\n              tag_413\n              jumpi\n                /* \"#utility.yul\":8515:8516   */\n              0x00\n                /* \"#utility.yul\":8532:8538   */\n              dup5\n                /* \"#utility.yul\":8529:8618   */\n              iszero\n              tag_414\n              jumpi\n              pop\n                /* \"#utility.yul\":8584:8603   */\n              dup6\n              dup4\n              add\n                /* \"#utility.yul\":8578:8604   */\n              mload\n                /* \"#utility.yul\":8529:8618   */\n            tag_414:\n              not(0x00)\n                /* \"#utility.yul\":7333:7334   */\n              0x03\n                /* \"#utility.yul\":7329:7340   */\n              dup7\n              swap1\n              shl\n                /* \"#utility.yul\":7325:7349   */\n              shr\n                /* \"#utility.yul\":7321:7350   */\n              not\n                /* \"#utility.yul\":7311:7351   */\n              and\n                /* \"#utility.yul\":7357:7358   */\n              0x01\n                /* \"#utility.yul\":7353:7364   */\n              dup6\n              swap1\n              shl\n                /* \"#utility.yul\":7308:7365   */\n              or\n                /* \"#utility.yul\":8631:8712   */\n              dup6\n              sstore\n                /* \"#utility.yul\":7778:8722   */\n              jump(tag_405)\n                /* \"#utility.yul\":7808:8471   */\n            tag_413:\n                /* \"#utility.yul\":6602:6603   */\n              0x00\n                /* \"#utility.yul\":6595:6609   */\n              dup6\n              dup2\n              mstore\n                /* \"#utility.yul\":6639:6643   */\n              0x20\n                /* \"#utility.yul\":6626:6644   */\n              dup2\n              keccak256\n              not(0x1f)\n                /* \"#utility.yul\":7844:7864   */\n              dup7\n              and\n              swap2\n                /* \"#utility.yul\":7962:8198   */\n            tag_417:\n                /* \"#utility.yul\":7976:7983   */\n              dup3\n                /* \"#utility.yul\":7973:7974   */\n              dup2\n                /* \"#utility.yul\":7970:7984   */\n              lt\n                /* \"#utility.yul\":7962:8198   */\n              iszero\n              tag_419\n              jumpi\n                /* \"#utility.yul\":8065:8084   */\n              dup9\n              dup7\n              add\n                /* \"#utility.yul\":8059:8085   */\n              mload\n                /* \"#utility.yul\":8044:8086   */\n              dup3\n              sstore\n                /* \"#utility.yul\":8157:8184   */\n              swap5\n              dup5\n              add\n              swap5\n                /* \"#utility.yul\":8125:8126   */\n              0x01\n                /* \"#utility.yul\":8113:8127   */\n              swap1\n              swap2\n              add\n              swap1\n                /* \"#utility.yul\":7992:8011   */\n              dup5\n              add\n                /* \"#utility.yul\":7962:8198   */\n              jump(tag_417)\n            tag_419:\n                /* \"#utility.yul\":7966:7969   */\n              pop\n                /* \"#utility.yul\":8226:8232   */\n              dup6\n                /* \"#utility.yul\":8217:8224   */\n              dup3\n                /* \"#utility.yul\":8214:8233   */\n              lt\n                /* \"#utility.yul\":8211:8412   */\n              iszero\n              tag_420\n              jumpi\n                /* \"#utility.yul\":8287:8306   */\n              dup8\n              dup6\n              add\n                /* \"#utility.yul\":8281:8307   */\n              mload\n              not(0x00)\n                /* \"#utility.yul\":8370:8371   */\n              0x03\n                /* \"#utility.yul\":8366:8380   */\n              dup9\n              swap1\n              shl\n                /* \"#utility.yul\":8382:8385   */\n              0xf8\n                /* \"#utility.yul\":8362:8386   */\n              and\n                /* \"#utility.yul\":8358:8395   */\n              shr\n                /* \"#utility.yul\":8354:8396   */\n              not\n                /* \"#utility.yul\":8339:8397   */\n              and\n                /* \"#utility.yul\":8324:8398   */\n              dup2\n              sstore\n                /* \"#utility.yul\":8211:8412   */\n            tag_420:\n              pop\n              pop\n              pop\n              pop\n              pop\n                /* \"#utility.yul\":8458:8459   */\n              0x01\n                /* \"#utility.yul\":8442:8456   */\n              swap1\n              dup2\n              shl\n                /* \"#utility.yul\":8438:8460   */\n              add\n                /* \"#utility.yul\":8425:8461   */\n              swap1\n              sstore\n              pop\n                /* \"#utility.yul\":7376:8728   */\n              jump\t// out\n                /* \"#utility.yul\":8733:9903   */\n            tag_122:\n              sub(shl(0xa0, 0x01), 0x01)\n                /* \"#utility.yul\":8981:8996   */\n              dup5\n              dup2\n              and\n                /* \"#utility.yul\":8963:8997   */\n              dup3\n              mstore\n                /* \"#utility.yul\":9054:9069   */\n              dup4\n              and\n                /* \"#utility.yul\":9016:9018   */\n              0x20\n                /* \"#utility.yul\":9034:9052   */\n              dup1\n              dup4\n              add\n                /* \"#utility.yul\":9027:9070   */\n              swap2\n              swap1\n              swap2\n              mstore\n                /* \"#utility.yul\":9106:9108   */\n              0x60\n                /* \"#utility.yul\":9101:9103   */\n              0x40\n                /* \"#utility.yul\":9086:9104   */\n              dup4\n              add\n                /* \"#utility.yul\":9079:9109   */\n              mstore\n                /* \"#utility.yul\":9156:9169   */\n              dup3\n              sload\n                /* \"#utility.yul\":8906:8910   */\n              0x00\n              swap2\n              dup3\n              swap2\n                /* \"#utility.yul\":9192:9228   */\n              tag_422\n                /* \"#utility.yul\":9156:9169   */\n              dup2\n                /* \"#utility.yul\":9192:9228   */\n              tag_124\n              jump\t// in\n            tag_422:\n                /* \"#utility.yul\":9264:9270   */\n              dup1\n                /* \"#utility.yul\":9259:9261   */\n              0x60\n                /* \"#utility.yul\":9248:9257   */\n              dup8\n                /* \"#utility.yul\":9244:9262   */\n              add\n                /* \"#utility.yul\":9237:9271   */\n              mstore\n                /* \"#utility.yul\":9290:9293   */\n              0x80\n                /* \"#utility.yul\":9312:9313   */\n              0x01\n                /* \"#utility.yul\":9344:9346   */\n              dup1\n                /* \"#utility.yul\":9333:9342   */\n              dup5\n                /* \"#utility.yul\":9329:9347   */\n              and\n                /* \"#utility.yul\":9361:9362   */\n              0x00\n                /* \"#utility.yul\":9356:9514   */\n              dup2\n              eq\n              tag_424\n              jumpi\n                /* \"#utility.yul\":9528:9529   */\n              0x01\n                /* \"#utility.yul\":9523:9877   */\n              dup2\n              eq\n              tag_425\n              jumpi\n                /* \"#utility.yul\":9322:9877   */\n              jump(tag_423)\n                /* \"#utility.yul\":9356:9514   */\n            tag_424:\n              not(0xff)\n                /* \"#utility.yul\":9404:9428   */\n              dup6\n              and\n                /* \"#utility.yul\":9384:9402   */\n              dup10\n              dup5\n              add\n                /* \"#utility.yul\":9377:9429   */\n              mstore\n                /* \"#utility.yul\":9482:9496   */\n              dup4\n              iszero\n                /* \"#utility.yul\":9475:9497   */\n              iszero\n                /* \"#utility.yul\":9472:9473   */\n              0x05\n                /* \"#utility.yul\":9468:9498   */\n              shl\n                /* \"#utility.yul\":9453:9499   */\n              dup10\n              add\n                /* \"#utility.yul\":9449:9504   */\n              dup4\n              add\n              swap7\n              pop\n                /* \"#utility.yul\":9356:9514   */\n              jump(tag_423)\n                /* \"#utility.yul\":9523:9877   */\n            tag_425:\n                /* \"#utility.yul\":9554:9560   */\n              dup10\n                /* \"#utility.yul\":9551:9552   */\n              0x00\n                /* \"#utility.yul\":9544:9561   */\n              mstore\n                /* \"#utility.yul\":9602:9604   */\n              dup6\n                /* \"#utility.yul\":9599:9600   */\n              0x00\n                /* \"#utility.yul\":9589:9605   */\n              keccak256\n                /* \"#utility.yul\":9627:9628   */\n              0x00\n                /* \"#utility.yul\":9641:9821   */\n            tag_426:\n                /* \"#utility.yul\":9655:9661   */\n              dup6\n                /* \"#utility.yul\":9652:9653   */\n              dup2\n                /* \"#utility.yul\":9649:9662   */\n              lt\n                /* \"#utility.yul\":9641:9821   */\n              iszero\n              tag_428\n              jumpi\n                /* \"#utility.yul\":9748:9762   */\n              dup2\n              sload\n                /* \"#utility.yul\":9724:9741   */\n              dup12\n              dup3\n              add\n                /* \"#utility.yul\":9720:9746   */\n              dup7\n              add\n                /* \"#utility.yul\":9713:9763   */\n              mstore\n                /* \"#utility.yul\":9791:9807   */\n              swap1\n              dup4\n              add\n              swap1\n                /* \"#utility.yul\":9670:9680   */\n              dup8\n              add\n                /* \"#utility.yul\":9641:9821   */\n              jump(tag_426)\n            tag_428:\n                /* \"#utility.yul\":9845:9862   */\n              dup11\n              add\n                /* \"#utility.yul\":9841:9867   */\n              dup5\n              add\n              swap8\n              pop\n              pop\n                /* \"#utility.yul\":9322:9877   */\n            tag_423:\n              pop\n                /* \"#utility.yul\":9894:9897   */\n              swap5\n              swap11\n                /* \"#utility.yul\":8733:9903   */\n              swap10\n              pop\n              pop\n              pop\n              pop\n              pop\n              pop\n              pop\n              pop\n              pop\n              pop\n              jump\t// out\n                /* \"#utility.yul\":9908:10173   */\n            tag_155:\n                /* \"#utility.yul\":9948:9955   */\n              0x00\n                /* \"#utility.yul\":10014:10015   */\n              dup2\n                /* \"#utility.yul\":10010:10011   */\n              0x00\n                /* \"#utility.yul\":10006:10012   */\n              not\n                /* \"#utility.yul\":10002:10016   */\n              div\n                /* \"#utility.yul\":9999:10000   */\n              dup4\n                /* \"#utility.yul\":9996:10017   */\n              gt\n                /* \"#utility.yul\":9991:9992   */\n              dup3\n                /* \"#utility.yul\":9984:9993   */\n              iszero\n                /* \"#utility.yul\":9977:9994   */\n              iszero\n                /* \"#utility.yul\":9973:10018   */\n              and\n                /* \"#utility.yul\":9970:10138   */\n              iszero\n              tag_430\n              jumpi\n                /* \"#utility.yul\":10060:10070   */\n              0x4e487b71\n                /* \"#utility.yul\":10055:10058   */\n              0xe0\n                /* \"#utility.yul\":10051:10071   */\n              shl\n                /* \"#utility.yul\":10048:10049   */\n              0x00\n                /* \"#utility.yul\":10041:10072   */\n              mstore\n                /* \"#utility.yul\":10095:10099   */\n              0x11\n                /* \"#utility.yul\":10092:10093   */\n              0x04\n                /* \"#utility.yul\":10085:10100   */\n              mstore\n                /* \"#utility.yul\":10123:10127   */\n              0x24\n                /* \"#utility.yul\":10120:10121   */\n              0x00\n                /* \"#utility.yul\":10113:10128   */\n              revert\n                /* \"#utility.yul\":9970:10138   */\n            tag_430:\n              pop\n                /* \"#utility.yul\":10158:10167   */\n              mul\n              swap1\n                /* \"#utility.yul\":9908:10173   */\n              jump\t// out\n                /* \"#utility.yul\":10178:10395   */\n            tag_157:\n                /* \"#utility.yul\":10218:10219   */\n              0x00\n                /* \"#utility.yul\":10244:10245   */\n              dup3\n                /* \"#utility.yul\":10234:10366   */\n              tag_432\n              jumpi\n                /* \"#utility.yul\":10288:10298   */\n              0x4e487b71\n                /* \"#utility.yul\":10283:10286   */\n              0xe0\n                /* \"#utility.yul\":10279:10299   */\n              shl\n                /* \"#utility.yul\":10276:10277   */\n              0x00\n                /* \"#utility.yul\":10269:10300   */\n              mstore\n                /* \"#utility.yul\":10323:10327   */\n              0x12\n                /* \"#utility.yul\":10320:10321   */\n              0x04\n                /* \"#utility.yul\":10313:10328   */\n              mstore\n                /* \"#utility.yul\":10351:10355   */\n              0x24\n                /* \"#utility.yul\":10348:10349   */\n              0x00\n                /* \"#utility.yul\":10341:10356   */\n              revert\n                /* \"#utility.yul\":10234:10366   */\n            tag_432:\n              pop\n                /* \"#utility.yul\":10380:10389   */\n              div\n              swap1\n                /* \"#utility.yul\":10178:10395   */\n              jump\t// out\n\n            auxdata: 0xa26469706673582212200178034469fb76c417f0a97f9b90e8f3128f15da10f3ff8f64a5f41bd73729f464736f6c63430008100033\n        }\n    }\n\n    auxdata: 0xa2646970667358221220a095936ae3465a7b220b976bc37a92405c59939a702c28fe309d17fc8d3cd1c864736f6c63430008100033\n}\n","bytecode":{"linkReferences":{},"object":"6080604052600080546001600160a01b03191633179055611ff3806100256000396000f3fe60806040526004361061003f5760003560e01c80631adc7d4c146100445780634387965f146100815780639ad1ee1014610096578063aa9a068f146100b6575b600080fd5b34801561005057600080fd5b50600054610064906001600160a01b031681565b6040516001600160a01b0390911681526020015b60405180910390f35b61009461008f3660046102b1565b6100d8565b005b3480156100a257600080fd5b506100646100b136600461038b565b6101ce565b3480156100c257600080fd5b506100cb6101f8565b60405161007891906103a4565b6000348b8b8b8b8b8b8b8b8b8b60008054906101000a90046001600160a01b0316336040516101069061025a565b61011b9c9b9a9998979695949392919061041a565b6040518091039082f0905080158015610138573d6000803e3d6000fd5b506001805480820182556000919091527fb10e2d527612073b26eecdfd717e6a320cf44b4afac2b0732d9fcbe2b7fa0cf60180546001600160a01b0319166001600160a01b038316908117909155604080519182523360208301529192507fecbf40c9e0b620c53e41cea507376c12230d35bbd84b001d481c10b9c0ceccec910160405180910390a15050505050505050505050565b600181815481106101de57600080fd5b6000918252602090912001546001600160a01b0316905081565b6060600180548060200260200160405190810160405280929190818152602001828054801561025057602002820191906000526020600020905b81546001600160a01b03168152600190910190602001808311610232575b5050505050905090565b611b1780620004a783390190565b60008083601f84011261027a57600080fd5b50813567ffffffffffffffff81111561029257600080fd5b6020830191508360208285010111156102aa57600080fd5b9250929050565b60008060008060008060008060008060c08b8d0312156102d057600080fd5b8a35995060208b013567ffffffffffffffff808211156102ef57600080fd5b6102fb8e838f01610268565b909b50995060408d013591508082111561031457600080fd5b6103208e838f01610268565b909950975060608d0135965060808d013591508082111561034057600080fd5b61034c8e838f01610268565b909650945060a08d013591508082111561036557600080fd5b506103728d828e01610268565b915080935050809150509295989b9194979a5092959850565b60006020828403121561039d57600080fd5b5035919050565b6020808252825182820181905260009190848201906040850190845b818110156103e55783516001600160a01b0316835292840192918401916001016103c0565b50909695505050505050565b81835281816020850137506000828201602090810191909152601f909101601f19169091010190565b8c81526101006020820152600061043661010083018d8f6103f1565b8281036040840152610449818c8e6103f1565b9050896060840152828103608084015261046481898b6103f1565b905082810360a08401526104798187896103f1565b6001600160a01b0395861660c08501529390941660e090920191909152509b9a505050505050505050505056fe608060405260405162001b1738038062001b178339810160408190526200002691620001bd565b600080546001600160a01b0319166001600160a01b038316179055600588905560036200005488826200033f565b5060046200006387826200033f565b50600785905560096200007785826200033f565b50600a6200008684826200033f565b50600180546001600160a01b0319166001600160a01b03841617905560408051808201909152600481526337b832b760e11b6020820152600690620000cc90826200033f565b5050505050505050506200040b565b634e487b7160e01b600052604160045260246000fd5b600082601f8301126200010357600080fd5b81516001600160401b0380821115620001205762000120620000db565b604051601f8301601f19908116603f011681019082821181831017156200014b576200014b620000db565b816040528381526020925086838588010111156200016857600080fd5b600091505b838210156200018c57858201830151818301840152908201906200016d565b600093810190920192909252949350505050565b80516001600160a01b0381168114620001b857600080fd5b919050565b600080600080600080600080610100898b031215620001db57600080fd5b885160208a01519098506001600160401b0380821115620001fb57600080fd5b620002098c838d01620000f1565b985060408b01519150808211156200022057600080fd5b6200022e8c838d01620000f1565b975060608b0151965060808b01519150808211156200024c57600080fd5b6200025a8c838d01620000f1565b955060a08b01519150808211156200027157600080fd5b50620002808b828c01620000f1565b9350506200029160c08a01620001a0565b9150620002a160e08a01620001a0565b90509295985092959890939650565b600181811c90821680620002c557607f821691505b602082108103620002e657634e487b7160e01b600052602260045260246000fd5b50919050565b601f8211156200033a57600081815260208120601f850160051c81016020861015620003155750805b601f850160051c820191505b81811015620003365782815560010162000321565b5050505b505050565b81516001600160401b038111156200035b576200035b620000db565b62000373816200036c8454620002b0565b84620002ec565b602080601f831160018114620003ab5760008415620003925750858301515b600019600386901b1c1916600185901b17855562000336565b600085815260208120601f198616915b82811015620003dc57888601518255948401946001909101908401620003bb565b5085821015620003fb5787850151600019600388901b60f8161c191681555b5050505050600190811b01905550565b6116fc806200041b6000396000f3fe6080604052600436106101355760003560e01c80636a2e23f5116100ab578063af3b19e51161006f578063af3b19e514610321578063b1cb0db314610329578063cc5be5741461033f578063d5252dcf14610354578063f0de67ac14610374578063f32370e71461038957600080fd5b80636a2e23f5146102915780636a76ae98146102a65780639b221c7d146102c85780639d9e27d9146102ec578063add08a8e1461030157600080fd5b80632d237d21116100fd5780632d237d21146101e55780633283f641146102055780634051ddac1461021a5780634bde38c814610247578063516f279e14610267578063610be6541461027c57600080fd5b8063010ec4411461013a57806316fb96ad14610177578063200d2ed21461018e5780632804b2c0146101b0578063295f1b4d146101d0575b600080fd5b34801561014657600080fd5b5060025461015a906001600160a01b031681565b6040516001600160a01b0390911681526020015b60405180910390f35b34801561018357600080fd5b5061018c610391565b005b34801561019a57600080fd5b506101a3610457565b60405161016e91906111b5565b3480156101bc57600080fd5b5060005461015a906001600160a01b031681565b3480156101dc57600080fd5b5061018c6104e5565b3480156101f157600080fd5b506101a36102003660046111cf565b6105e5565b34801561021157600080fd5b506101a3610610565b34801561022657600080fd5b5061022f61061d565b60405161016e9c9b9a99989796959493929190611240565b34801561025357600080fd5b5060015461015a906001600160a01b031681565b34801561027357600080fd5b506101a3610ab4565b34801561028857600080fd5b5061018c610ac1565b34801561029d57600080fd5b5061018c610b91565b3480156102b257600080fd5b506102bb610cda565b60405161016e9190611312565b3480156102d457600080fd5b506102de60075481565b60405190815260200161016e565b3480156102f857600080fd5b506101a3610db3565b34801561030d57600080fd5b5061018c61031c36600461136c565b610dc0565b61018c610e85565b34801561033557600080fd5b506102de60055481565b34801561034b57600080fd5b506101a3610f7c565b34801561036057600080fd5b5061018c61036f3660046111cf565b610f89565b34801561038057600080fd5b506101a3610ff2565b61018c610fff565b6001546001600160a01b031633146103a857600080fd5b6040805180820190915260068082526518db1bdcd95960d21b6020830152906103d1908261150e565b50600080546040516001600160a01b03909116914780156108fc02929091818181858888f1935050505015801561040c573d6000803e3d6000fd5b506000546040517f56a5ed96a90e2f144473b2e22dadcf549e1d523c52111768c2d4febe4c9905949161044d9130916001600160a01b0316906006906115ce565b60405180910390a1565b6006805461046490611485565b80601f016020809104026020016040519081016040528092919081815260200182805461049090611485565b80156104dd5780601f106104b2576101008083540402835291602001916104dd565b820191906000526020600020905b8154815290600101906020018083116104c057829003601f168201915b505050505081565b610599600680546104f590611485565b80601f016020809104026020016040519081016040528092919081815260200182805461052190611485565b801561056e5780601f106105435761010080835404028352916020019161056e565b820191906000526020600020905b81548152906001019060200180831161055157829003601f168201915b5050505050604051806040016040528060088152602001671c1c9bdc1bdcd95960c21b815250611026565b6105a257600080fd5b6000546001600160a01b031633146105b957600080fd5b604080518082019091526008815267191a5cdc1d5d195960c21b602082015260069061040c908261150e565b600b81815481106105f557600080fd5b90600052602060002001600091509050805461046490611485565b6003805461046490611485565b6000805460025482918291606091829184918391839183918291829182916001600160a01b039081169116606461065547605f611677565b61065f91906116a4565b60036004600554600660075460086009600a600b88805461067f90611485565b80601f01602080910402602001604051908101604052809291908181526020018280546106ab90611485565b80156106f85780601f106106cd576101008083540402835291602001916106f8565b820191906000526020600020905b8154815290600101906020018083116106db57829003601f168201915b5050505050985087805461070b90611485565b80601f016020809104026020016040519081016040528092919081815260200182805461073790611485565b80156107845780601f1061075957610100808354040283529160200191610784565b820191906000526020600020905b81548152906001019060200180831161076757829003601f168201915b5050505050975085805461079790611485565b80601f01602080910402602001604051908101604052809291908181526020018280546107c390611485565b80156108105780601f106107e557610100808354040283529160200191610810565b820191906000526020600020905b8154815290600101906020018083116107f357829003601f168201915b5050505050955083805461082390611485565b80601f016020809104026020016040519081016040528092919081815260200182805461084f90611485565b801561089c5780601f106108715761010080835404028352916020019161089c565b820191906000526020600020905b81548152906001019060200180831161087f57829003601f168201915b505050505093508280546108af90611485565b80601f01602080910402602001604051908101604052809291908181526020018280546108db90611485565b80156109285780601f106108fd57610100808354040283529160200191610928565b820191906000526020600020905b81548152906001019060200180831161090b57829003601f168201915b5050505050925081805461093b90611485565b80601f016020809104026020016040519081016040528092919081815260200182805461096790611485565b80156109b45780601f10610989576101008083540402835291602001916109b4565b820191906000526020600020905b81548152906001019060200180831161099757829003601f168201915b5050505050915080805480602002602001604051908101604052809291908181526020016000905b82821015610a885783829060005260206000200180546109fb90611485565b80601f0160208091040260200160405190810160405280929190818152602001828054610a2790611485565b8015610a745780601f10610a4957610100808354040283529160200191610a74565b820191906000526020600020905b815481529060010190602001808311610a5757829003601f168201915b5050505050815260200190600101906109dc565b5050505090509b509b509b509b509b509b509b509b509b509b509b509b50909192939495969798999a9b565b600a805461046490611485565b6000546001600160a01b03163314610ad857600080fd5b610b8860068054610ae890611485565b80601f0160208091040260200160405190810160405280929190818152602001828054610b1490611485565b8015610b615780601f10610b3657610100808354040283529160200191610b61565b820191906000526020600020905b815481529060010190602001808311610b4457829003601f168201915b50505050506040518060400160405280600481526020016337b832b760e11b815250611026565b6103a857600080fd5b6001546001600160a01b03163314610ba857600080fd5b610c5c60068054610bb890611485565b80601f0160208091040260200160405190810160405280929190818152602001828054610be490611485565b8015610c315780601f10610c0657610100808354040283529160200191610c31565b820191906000526020600020905b815481529060010190602001808311610c1457829003601f168201915b505050505060405180604001604052806008815260200167191a5cdc1d5d195960c21b815250611026565b610c6557600080fd5b60408051808201909152600481526337b832b760e11b6020820152600690610c8d908261150e565b50610c9a600b6000611091565b6000546040517f56a5ed96a90e2f144473b2e22dadcf549e1d523c52111768c2d4febe4c9905949161044d9130916001600160a01b0316906006906115ce565b6060600b805480602002602001604051908101604052809291908181526020016000905b82821015610daa578382906000526020600020018054610d1d90611485565b80601f0160208091040260200160405190810160405280929190818152602001828054610d4990611485565b8015610d965780601f10610d6b57610100808354040283529160200191610d96565b820191906000526020600020905b815481529060010190602001808311610d7957829003601f168201915b505050505081526020019060010190610cfe565b50505050905090565b6009805461046490611485565b6005544210610dce57600080fd5b610dde60068054610ae890611485565b610de757600080fd5b600280546001600160a01b031916331790558051610e0c90600b9060208401906110b2565b506040805180820190915260088152671c1c9bdc1bdcd95960c21b6020820152600690610e39908261150e565b506000546040517f56a5ed96a90e2f144473b2e22dadcf549e1d523c52111768c2d4febe4c99059491610e7a9130916001600160a01b0316906006906115ce565b60405180910390a150565b6000546001600160a01b03163314610e9c57600080fd5b610eac600680546104f590611485565b610eb557600080fd5b6040805180820190915260068082526518db1bdcd95960d21b602083015290610ede908261150e565b506002546001600160a01b03166108fc6064610efb47605f611677565b610f0591906116a4565b6040518115909202916000818181858888f19350505050158015610f2d573d6000803e3d6000fd5b506001546001600160a01b03166108fc6064610f4a476005611677565b610f5491906116a4565b6040518115909202916000818181858888f1935050505015801561040c573d6000803e3d6000fd5b6008805461046490611485565b6000546001600160a01b03163314610fa057600080fd5b610fb060068054610ae890611485565b610fb957600080fd5b804210610fc557600080fd5b600581905560408051808201909152600481526337b832b760e11b6020820152600690610e39908261150e565b6004805461046490611485565b6001546001600160a01b0316331461101657600080fd5b610eac60068054610bb890611485565b600081518351146110395750600061108b565b8160405160200161104a91906111b5565b604051602081830303815290604052805190602001208360405160200161107191906111b5565b604051602081830303815290604052805190602001201490505b92915050565b50805460008255906000526020600020908101906110af9190611108565b50565b8280548282559060005260206000209081019282156110f8579160200282015b828111156110f857825182906110e8908261150e565b50916020019190600101906110d2565b50611104929150611108565b5090565b8082111561110457600061111c8282611125565b50600101611108565b50805461113190611485565b6000825580601f10611141575050565b601f0160209004906000526020600020908101906110af91905b80821115611104576000815560010161115b565b6000815180845260005b8181101561119557602081850181015186830182015201611179565b506000602082860101526020601f19601f83011685010191505092915050565b6020815260006111c8602083018461116f565b9392505050565b6000602082840312156111e157600080fd5b5035919050565b600082825180855260208086019550808260051b84010181860160005b8481101561123357601f1986840301895261122183835161116f565b98840198925090830190600101611205565b5090979650505050505050565b6001600160a01b038d1681526001600160a01b038c1660208201528a60408201526101806060820152600061127961018083018c61116f565b828103608084015261128b818c61116f565b90508960a084015282810360c08401526112a5818a61116f565b90508760e08401528281036101008401526112c0818861116f565b90508281036101208401526112d5818761116f565b90508281036101408401526112ea818661116f565b90508281036101608401526112ff81856111e8565b9f9e505050505050505050505050505050565b6020815260006111c860208301846111e8565b634e487b7160e01b600052604160045260246000fd5b604051601f8201601f1916810167ffffffffffffffff8111828210171561136457611364611325565b604052919050565b6000602080838503121561137f57600080fd5b823567ffffffffffffffff8082111561139757600080fd5b8185019150601f86818401126113ac57600080fd5b8235828111156113be576113be611325565b8060051b6113cd86820161133b565b918252848101860191868101908a8411156113e757600080fd5b87870192505b83831015611477578235868111156114055760008081fd5b8701603f81018c136114175760008081fd5b8881013560408882111561142d5761142d611325565b61143e828901601f19168c0161133b565b8281528e828486010111156114535760008081fd5b828285018d83013760009281018c01929092525083525091870191908701906113ed565b9a9950505050505050505050565b600181811c9082168061149957607f821691505b6020821081036114b957634e487b7160e01b600052602260045260246000fd5b50919050565b601f82111561150957600081815260208120601f850160051c810160208610156114e65750805b601f850160051c820191505b81811015611505578281556001016114f2565b5050505b505050565b815167ffffffffffffffff81111561152857611528611325565b61153c816115368454611485565b846114bf565b602080601f83116001811461157157600084156115595750858301515b600019600386901b1c1916600185901b178555611505565b600085815260208120601f198616915b828110156115a057888601518255948401946001909101908401611581565b50858210156115be5787850151600019600388901b60f8161c191681555b5050505050600190811b01905550565b6001600160a01b038481168252831660208083019190915260606040830152825460009182916115fd81611485565b806060870152608060018084166000811461161f576001811461163957611667565b60ff1985168984015283151560051b890183019650611667565b896000528560002060005b8581101561165f5781548b8201860152908301908701611644565b8a0184019750505b50949a9950505050505050505050565b600081600019048311821515161561169f57634e487b7160e01b600052601160045260246000fd5b500290565b6000826116c157634e487b7160e01b600052601260045260246000fd5b50049056fea26469706673582212200178034469fb76c417f0a97f9b90e8f3128f15da10f3ff8f64a5f41bd73729f464736f6c63430008100033a2646970667358221220a095936ae3465a7b220b976bc37a92405c59939a702c28fe309d17fc8d3cd1c864736f6c63430008100033","opcodes":"PUSH1 0x80 PUSH1 0x40 MSTORE PUSH1 0x0 DUP1 SLOAD PUSH1 0x1 PUSH1 0x1 PUSH1 0xA0 SHL SUB NOT AND CALLER OR SWAP1 SSTORE PUSH2 0x1FF3 DUP1 PUSH2 0x25 PUSH1 0x0 CODECOPY PUSH1 0x0 RETURN INVALID PUSH1 0x80 PUSH1 0x40 MSTORE PUSH1 0x4 CALLDATASIZE LT PUSH2 0x3F JUMPI PUSH1 0x0 CALLDATALOAD PUSH1 0xE0 SHR DUP1 PUSH4 0x1ADC7D4C EQ PUSH2 0x44 JUMPI DUP1 PUSH4 0x4387965F EQ PUSH2 0x81 JUMPI DUP1 PUSH4 0x9AD1EE10 EQ PUSH2 0x96 JUMPI DUP1 PUSH4 0xAA9A068F EQ PUSH2 0xB6 JUMPI JUMPDEST PUSH1 0x0 DUP1 REVERT JUMPDEST CALLVALUE DUP1 ISZERO PUSH2 0x50 JUMPI PUSH1 0x0 DUP1 REVERT JUMPDEST POP PUSH1 0x0 SLOAD PUSH2 0x64 SWAP1 PUSH1 0x1 PUSH1 0x1 PUSH1 0xA0 SHL SUB AND DUP2 JUMP JUMPDEST PUSH1 0x40 MLOAD PUSH1 0x1 PUSH1 0x1 PUSH1 0xA0 SHL SUB SWAP1 SWAP2 AND DUP2 MSTORE PUSH1 0x20 ADD JUMPDEST PUSH1 0x40 MLOAD DUP1 SWAP2 SUB SWAP1 RETURN JUMPDEST PUSH2 0x94 PUSH2 0x8F CALLDATASIZE PUSH1 0x4 PUSH2 0x2B1 JUMP JUMPDEST PUSH2 0xD8 JUMP JUMPDEST STOP JUMPDEST CALLVALUE DUP1 ISZERO PUSH2 0xA2 JUMPI PUSH1 0x0 DUP1 REVERT JUMPDEST POP PUSH2 0x64 PUSH2 0xB1 CALLDATASIZE PUSH1 0x4 PUSH2 0x38B JUMP JUMPDEST PUSH2 0x1CE JUMP JUMPDEST CALLVALUE DUP1 ISZERO PUSH2 0xC2 JUMPI PUSH1 0x0 DUP1 REVERT JUMPDEST POP PUSH2 0xCB PUSH2 0x1F8 JUMP JUMPDEST PUSH1 0x40 MLOAD PUSH2 0x78 SWAP2 SWAP1 PUSH2 0x3A4 JUMP JUMPDEST PUSH1 0x0 CALLVALUE DUP12 DUP12 DUP12 DUP12 DUP12 DUP12 DUP12 DUP12 DUP12 DUP12 PUSH1 0x0 DUP1 SLOAD SWAP1 PUSH2 0x100 EXP SWAP1 DIV PUSH1 0x1 PUSH1 0x1 PUSH1 0xA0 SHL SUB AND CALLER PUSH1 0x40 MLOAD PUSH2 0x106 SWAP1 PUSH2 0x25A JUMP JUMPDEST PUSH2 0x11B SWAP13 SWAP12 SWAP11 SWAP10 SWAP9 SWAP8 SWAP7 SWAP6 SWAP5 SWAP4 SWAP3 SWAP2 SWAP1 PUSH2 0x41A JUMP JUMPDEST PUSH1 0x40 MLOAD DUP1 SWAP2 SUB SWAP1 DUP3 CREATE SWAP1 POP DUP1 ISZERO DUP1 ISZERO PUSH2 0x138 JUMPI RETURNDATASIZE PUSH1 0x0 DUP1 RETURNDATACOPY RETURNDATASIZE PUSH1 0x0 REVERT JUMPDEST POP PUSH1 0x1 DUP1 SLOAD DUP1 DUP3 ADD DUP3 SSTORE PUSH1 0x0 SWAP2 SWAP1 SWAP2 MSTORE PUSH32 0xB10E2D527612073B26EECDFD717E6A320CF44B4AFAC2B0732D9FCBE2B7FA0CF6 ADD DUP1 SLOAD PUSH1 0x1 PUSH1 0x1 PUSH1 0xA0 SHL SUB NOT AND PUSH1 0x1 PUSH1 0x1 PUSH1 0xA0 SHL SUB DUP4 AND SWAP1 DUP2 OR SWAP1 SWAP2 SSTORE PUSH1 0x40 DUP1 MLOAD SWAP2 DUP3 MSTORE CALLER PUSH1 0x20 DUP4 ADD MSTORE SWAP2 SWAP3 POP PUSH32 0xECBF40C9E0B620C53E41CEA507376C12230D35BBD84B001D481C10B9C0CECCEC SWAP2 ADD PUSH1 0x40 MLOAD DUP1 SWAP2 SUB SWAP1 LOG1 POP POP POP POP POP POP POP POP POP POP POP JUMP JUMPDEST PUSH1 0x1 DUP2 DUP2 SLOAD DUP2 LT PUSH2 0x1DE JUMPI PUSH1 0x0 DUP1 REVERT JUMPDEST PUSH1 0x0 SWAP2 DUP3 MSTORE PUSH1 0x20 SWAP1 SWAP2 KECCAK256 ADD SLOAD PUSH1 0x1 PUSH1 0x1 PUSH1 0xA0 SHL SUB AND SWAP1 POP DUP2 JUMP JUMPDEST PUSH1 0x60 PUSH1 0x1 DUP1 SLOAD DUP1 PUSH1 0x20 MUL PUSH1 0x20 ADD PUSH1 0x40 MLOAD SWAP1 DUP2 ADD PUSH1 0x40 MSTORE DUP1 SWAP3 SWAP2 SWAP1 DUP2 DUP2 MSTORE PUSH1 0x20 ADD DUP3 DUP1 SLOAD DUP1 ISZERO PUSH2 0x250 JUMPI PUSH1 0x20 MUL DUP3 ADD SWAP2 SWAP1 PUSH1 0x0 MSTORE PUSH1 0x20 PUSH1 0x0 KECCAK256 SWAP1 JUMPDEST DUP2 SLOAD PUSH1 0x1 PUSH1 0x1 PUSH1 0xA0 SHL SUB AND DUP2 MSTORE PUSH1 0x1 SWAP1 SWAP2 ADD SWAP1 PUSH1 0x20 ADD DUP1 DUP4 GT PUSH2 0x232 JUMPI JUMPDEST POP POP POP POP POP SWAP1 POP SWAP1 JUMP JUMPDEST PUSH2 0x1B17 DUP1 PUSH3 0x4A7 DUP4 CODECOPY ADD SWAP1 JUMP JUMPDEST PUSH1 0x0 DUP1 DUP4 PUSH1 0x1F DUP5 ADD SLT PUSH2 0x27A JUMPI PUSH1 0x0 DUP1 REVERT JUMPDEST POP DUP2 CALLDATALOAD PUSH8 0xFFFFFFFFFFFFFFFF DUP2 GT ISZERO PUSH2 0x292 JUMPI PUSH1 0x0 DUP1 REVERT JUMPDEST PUSH1 0x20 DUP4 ADD SWAP2 POP DUP4 PUSH1 0x20 DUP3 DUP6 ADD ADD GT ISZERO PUSH2 0x2AA JUMPI PUSH1 0x0 DUP1 REVERT JUMPDEST SWAP3 POP SWAP3 SWAP1 POP JUMP JUMPDEST PUSH1 0x0 DUP1 PUSH1 0x0 DUP1 PUSH1 0x0 DUP1 PUSH1 0x0 DUP1 PUSH1 0x0 DUP1 PUSH1 0xC0 DUP12 DUP14 SUB SLT ISZERO PUSH2 0x2D0 JUMPI PUSH1 0x0 DUP1 REVERT JUMPDEST DUP11 CALLDATALOAD SWAP10 POP PUSH1 0x20 DUP12 ADD CALLDATALOAD PUSH8 0xFFFFFFFFFFFFFFFF DUP1 DUP3 GT ISZERO PUSH2 0x2EF JUMPI PUSH1 0x0 DUP1 REVERT JUMPDEST PUSH2 0x2FB DUP15 DUP4 DUP16 ADD PUSH2 0x268 JUMP JUMPDEST SWAP1 SWAP12 POP SWAP10 POP PUSH1 0x40 DUP14 ADD CALLDATALOAD SWAP2 POP DUP1 DUP3 GT ISZERO PUSH2 0x314 JUMPI PUSH1 0x0 DUP1 REVERT JUMPDEST PUSH2 0x320 DUP15 DUP4 DUP16 ADD PUSH2 0x268 JUMP JUMPDEST SWAP1 SWAP10 POP SWAP8 POP PUSH1 0x60 DUP14 ADD CALLDATALOAD SWAP7 POP PUSH1 0x80 DUP14 ADD CALLDATALOAD SWAP2 POP DUP1 DUP3 GT ISZERO PUSH2 0x340 JUMPI PUSH1 0x0 DUP1 REVERT JUMPDEST PUSH2 0x34C DUP15 DUP4 DUP16 ADD PUSH2 0x268 JUMP JUMPDEST SWAP1 SWAP7 POP SWAP5 POP PUSH1 0xA0 DUP14 ADD CALLDATALOAD SWAP2 POP DUP1 DUP3 GT ISZERO PUSH2 0x365 JUMPI PUSH1 0x0 DUP1 REVERT JUMPDEST POP PUSH2 0x372 DUP14 DUP3 DUP15 ADD PUSH2 0x268 JUMP JUMPDEST SWAP2 POP DUP1 SWAP4 POP POP DUP1 SWAP2 POP POP SWAP3 SWAP6 SWAP9 SWAP12 SWAP2 SWAP5 SWAP8 SWAP11 POP SWAP3 SWAP6 SWAP9 POP JUMP JUMPDEST PUSH1 0x0 PUSH1 0x20 DUP3 DUP5 SUB SLT ISZERO PUSH2 0x39D JUMPI PUSH1 0x0 DUP1 REVERT JUMPDEST POP CALLDATALOAD SWAP2 SWAP1 POP JUMP JUMPDEST PUSH1 0x20 DUP1 DUP3 MSTORE DUP3 MLOAD DUP3 DUP3 ADD DUP2 SWAP1 MSTORE PUSH1 0x0 SWAP2 SWAP1 DUP5 DUP3 ADD SWAP1 PUSH1 0x40 DUP6 ADD SWAP1 DUP5 JUMPDEST DUP2 DUP2 LT ISZERO PUSH2 0x3E5 JUMPI DUP4 MLOAD PUSH1 0x1 PUSH1 0x1 PUSH1 0xA0 SHL SUB AND DUP4 MSTORE SWAP3 DUP5 ADD SWAP3 SWAP2 DUP5 ADD SWAP2 PUSH1 0x1 ADD PUSH2 0x3C0 JUMP JUMPDEST POP SWAP1 SWAP7 SWAP6 POP POP POP POP POP POP JUMP JUMPDEST DUP2 DUP4 MSTORE DUP2 DUP2 PUSH1 0x20 DUP6 ADD CALLDATACOPY POP PUSH1 0x0 DUP3 DUP3 ADD PUSH1 0x20 SWAP1 DUP2 ADD SWAP2 SWAP1 SWAP2 MSTORE PUSH1 0x1F SWAP1 SWAP2 ADD PUSH1 0x1F NOT AND SWAP1 SWAP2 ADD ADD SWAP1 JUMP JUMPDEST DUP13 DUP2 MSTORE PUSH2 0x100 PUSH1 0x20 DUP3 ADD MSTORE PUSH1 0x0 PUSH2 0x436 PUSH2 0x100 DUP4 ADD DUP14 DUP16 PUSH2 0x3F1 JUMP JUMPDEST DUP3 DUP2 SUB PUSH1 0x40 DUP5 ADD MSTORE PUSH2 0x449 DUP2 DUP13 DUP15 PUSH2 0x3F1 JUMP JUMPDEST SWAP1 POP DUP10 PUSH1 0x60 DUP5 ADD MSTORE DUP3 DUP2 SUB PUSH1 0x80 DUP5 ADD MSTORE PUSH2 0x464 DUP2 DUP10 DUP12 PUSH2 0x3F1 JUMP JUMPDEST SWAP1 POP DUP3 DUP2 SUB PUSH1 0xA0 DUP5 ADD MSTORE PUSH2 0x479 DUP2 DUP8 DUP10 PUSH2 0x3F1 JUMP JUMPDEST PUSH1 0x1 PUSH1 0x1 PUSH1 0xA0 SHL SUB SWAP6 DUP7 AND PUSH1 0xC0 DUP6 ADD MSTORE SWAP4 SWAP1 SWAP5 AND PUSH1 0xE0 SWAP1 SWAP3 ADD SWAP2 SWAP1 SWAP2 MSTORE POP SWAP12 SWAP11 POP POP POP POP POP POP POP POP POP POP POP JUMP INVALID PUSH1 0x80 PUSH1 0x40 MSTORE PUSH1 0x40 MLOAD PUSH3 0x1B17 CODESIZE SUB DUP1 PUSH3 0x1B17 DUP4 CODECOPY DUP2 ADD PUSH1 0x40 DUP2 SWAP1 MSTORE PUSH3 0x26 SWAP2 PUSH3 0x1BD JUMP JUMPDEST PUSH1 0x0 DUP1 SLOAD PUSH1 0x1 PUSH1 0x1 PUSH1 0xA0 SHL SUB NOT AND PUSH1 0x1 PUSH1 0x1 PUSH1 0xA0 SHL SUB DUP4 AND OR SWAP1 SSTORE PUSH1 0x5 DUP9 SWAP1 SSTORE PUSH1 0x3 PUSH3 0x54 DUP9 DUP3 PUSH3 0x33F JUMP JUMPDEST POP PUSH1 0x4 PUSH3 0x63 DUP8 DUP3 PUSH3 0x33F JUMP JUMPDEST POP PUSH1 0x7 DUP6 SWAP1 SSTORE PUSH1 0x9 PUSH3 0x77 DUP6 DUP3 PUSH3 0x33F JUMP JUMPDEST POP PUSH1 0xA PUSH3 0x86 DUP5 DUP3 PUSH3 0x33F JUMP JUMPDEST POP PUSH1 0x1 DUP1 SLOAD PUSH1 0x1 PUSH1 0x1 PUSH1 0xA0 SHL SUB NOT AND PUSH1 0x1 PUSH1 0x1 PUSH1 0xA0 SHL SUB DUP5 AND OR SWAP1 SSTORE PUSH1 0x40 DUP1 MLOAD DUP1 DUP3 ADD SWAP1 SWAP2 MSTORE PUSH1 0x4 DUP2 MSTORE PUSH4 0x37B832B7 PUSH1 0xE1 SHL PUSH1 0x20 DUP3 ADD MSTORE PUSH1 0x6 SWAP1 PUSH3 0xCC SWAP1 DUP3 PUSH3 0x33F JUMP JUMPDEST POP POP POP POP POP POP POP POP POP PUSH3 0x40B JUMP JUMPDEST PUSH4 0x4E487B71 PUSH1 0xE0 SHL PUSH1 0x0 MSTORE PUSH1 0x41 PUSH1 0x4 MSTORE PUSH1 0x24 PUSH1 0x0 REVERT JUMPDEST PUSH1 0x0 DUP3 PUSH1 0x1F DUP4 ADD SLT PUSH3 0x103 JUMPI PUSH1 0x0 DUP1 REVERT JUMPDEST DUP2 MLOAD PUSH1 0x1 PUSH1 0x1 PUSH1 0x40 SHL SUB DUP1 DUP3 GT ISZERO PUSH3 0x120 JUMPI PUSH3 0x120 PUSH3 0xDB JUMP JUMPDEST PUSH1 0x40 MLOAD PUSH1 0x1F DUP4 ADD PUSH1 0x1F NOT SWAP1 DUP2 AND PUSH1 0x3F ADD AND DUP2 ADD SWAP1 DUP3 DUP3 GT DUP2 DUP4 LT OR ISZERO PUSH3 0x14B JUMPI PUSH3 0x14B PUSH3 0xDB JUMP JUMPDEST DUP2 PUSH1 0x40 MSTORE DUP4 DUP2 MSTORE PUSH1 0x20 SWAP3 POP DUP7 DUP4 DUP6 DUP9 ADD ADD GT ISZERO PUSH3 0x168 JUMPI PUSH1 0x0 DUP1 REVERT JUMPDEST PUSH1 0x0 SWAP2 POP JUMPDEST DUP4 DUP3 LT ISZERO PUSH3 0x18C JUMPI DUP6 DUP3 ADD DUP4 ADD MLOAD DUP2 DUP4 ADD DUP5 ADD MSTORE SWAP1 DUP3 ADD SWAP1 PUSH3 0x16D JUMP JUMPDEST PUSH1 0x0 SWAP4 DUP2 ADD SWAP1 SWAP3 ADD SWAP3 SWAP1 SWAP3 MSTORE SWAP5 SWAP4 POP POP POP POP JUMP JUMPDEST DUP1 MLOAD PUSH1 0x1 PUSH1 0x1 PUSH1 0xA0 SHL SUB DUP2 AND DUP2 EQ PUSH3 0x1B8 JUMPI PUSH1 0x0 DUP1 REVERT JUMPDEST SWAP2 SWAP1 POP JUMP JUMPDEST PUSH1 0x0 DUP1 PUSH1 0x0 DUP1 PUSH1 0x0 DUP1 PUSH1 0x0 DUP1 PUSH2 0x100 DUP10 DUP12 SUB SLT ISZERO PUSH3 0x1DB JUMPI PUSH1 0x0 DUP1 REVERT JUMPDEST DUP9 MLOAD PUSH1 0x20 DUP11 ADD MLOAD SWAP1 SWAP9 POP PUSH1 0x1 PUSH1 0x1 PUSH1 0x40 SHL SUB DUP1 DUP3 GT ISZERO PUSH3 0x1FB JUMPI PUSH1 0x0 DUP1 REVERT JUMPDEST PUSH3 0x209 DUP13 DUP4 DUP14 ADD PUSH3 0xF1 JUMP JUMPDEST SWAP9 POP PUSH1 0x40 DUP12 ADD MLOAD SWAP2 POP DUP1 DUP3 GT ISZERO PUSH3 0x220 JUMPI PUSH1 0x0 DUP1 REVERT JUMPDEST PUSH3 0x22E DUP13 DUP4 DUP14 ADD PUSH3 0xF1 JUMP JUMPDEST SWAP8 POP PUSH1 0x60 DUP12 ADD MLOAD SWAP7 POP PUSH1 0x80 DUP12 ADD MLOAD SWAP2 POP DUP1 DUP3 GT ISZERO PUSH3 0x24C JUMPI PUSH1 0x0 DUP1 REVERT JUMPDEST PUSH3 0x25A DUP13 DUP4 DUP14 ADD PUSH3 0xF1 JUMP JUMPDEST SWAP6 POP PUSH1 0xA0 DUP12 ADD MLOAD SWAP2 POP DUP1 DUP3 GT ISZERO PUSH3 0x271 JUMPI PUSH1 0x0 DUP1 REVERT JUMPDEST POP PUSH3 0x280 DUP12 DUP3 DUP13 ADD PUSH3 0xF1 JUMP JUMPDEST SWAP4 POP POP PUSH3 0x291 PUSH1 0xC0 DUP11 ADD PUSH3 0x1A0 JUMP JUMPDEST SWAP2 POP PUSH3 0x2A1 PUSH1 0xE0 DUP11 ADD PUSH3 0x1A0 JUMP JUMPDEST SWAP1 POP SWAP3 SWAP6 SWAP9 POP SWAP3 SWAP6 SWAP9 SWAP1 SWAP4 SWAP7 POP JUMP JUMPDEST PUSH1 0x1 DUP2 DUP2 SHR SWAP1 DUP3 AND DUP1 PUSH3 0x2C5 JUMPI PUSH1 0x7F DUP3 AND SWAP2 POP JUMPDEST PUSH1 0x20 DUP3 LT DUP2 SUB PUSH3 0x2E6 JUMPI PUSH4 0x4E487B71 PUSH1 0xE0 SHL PUSH1 0x0 MSTORE PUSH1 0x22 PUSH1 0x4 MSTORE PUSH1 0x24 PUSH1 0x0 REVERT JUMPDEST POP SWAP2 SWAP1 POP JUMP JUMPDEST PUSH1 0x1F DUP3 GT ISZERO PUSH3 0x33A JUMPI PUSH1 0x0 DUP2 DUP2 MSTORE PUSH1 0x20 DUP2 KECCAK256 PUSH1 0x1F DUP6 ADD PUSH1 0x5 SHR DUP2 ADD PUSH1 0x20 DUP7 LT ISZERO PUSH3 0x315 JUMPI POP DUP1 JUMPDEST PUSH1 0x1F DUP6 ADD PUSH1 0x5 SHR DUP3 ADD SWAP2 POP JUMPDEST DUP2 DUP2 LT ISZERO PUSH3 0x336 JUMPI DUP3 DUP2 SSTORE PUSH1 0x1 ADD PUSH3 0x321 JUMP JUMPDEST POP POP POP JUMPDEST POP POP POP JUMP JUMPDEST DUP2 MLOAD PUSH1 0x1 PUSH1 0x1 PUSH1 0x40 SHL SUB DUP2 GT ISZERO PUSH3 0x35B JUMPI PUSH3 0x35B PUSH3 0xDB JUMP JUMPDEST PUSH3 0x373 DUP2 PUSH3 0x36C DUP5 SLOAD PUSH3 0x2B0 JUMP JUMPDEST DUP5 PUSH3 0x2EC JUMP JUMPDEST PUSH1 0x20 DUP1 PUSH1 0x1F DUP4 GT PUSH1 0x1 DUP2 EQ PUSH3 0x3AB JUMPI PUSH1 0x0 DUP5 ISZERO PUSH3 0x392 JUMPI POP DUP6 DUP4 ADD MLOAD JUMPDEST PUSH1 0x0 NOT PUSH1 0x3 DUP7 SWAP1 SHL SHR NOT AND PUSH1 0x1 DUP6 SWAP1 SHL OR DUP6 SSTORE PUSH3 0x336 JUMP JUMPDEST PUSH1 0x0 DUP6 DUP2 MSTORE PUSH1 0x20 DUP2 KECCAK256 PUSH1 0x1F NOT DUP7 AND SWAP2 JUMPDEST DUP3 DUP2 LT ISZERO PUSH3 0x3DC JUMPI DUP9 DUP7 ADD MLOAD DUP3 SSTORE SWAP5 DUP5 ADD SWAP5 PUSH1 0x1 SWAP1 SWAP2 ADD SWAP1 DUP5 ADD PUSH3 0x3BB JUMP JUMPDEST POP DUP6 DUP3 LT ISZERO PUSH3 0x3FB JUMPI DUP8 DUP6 ADD MLOAD PUSH1 0x0 NOT PUSH1 0x3 DUP9 SWAP1 SHL PUSH1 0xF8 AND SHR NOT AND DUP2 SSTORE JUMPDEST POP POP POP POP POP PUSH1 0x1 SWAP1 DUP2 SHL ADD SWAP1 SSTORE POP JUMP JUMPDEST PUSH2 0x16FC DUP1 PUSH3 0x41B PUSH1 0x0 CODECOPY PUSH1 0x0 RETURN INVALID PUSH1 0x80 PUSH1 0x40 MSTORE PUSH1 0x4 CALLDATASIZE LT PUSH2 0x135 JUMPI PUSH1 0x0 CALLDATALOAD PUSH1 0xE0 SHR DUP1 PUSH4 0x6A2E23F5 GT PUSH2 0xAB JUMPI DUP1 PUSH4 0xAF3B19E5 GT PUSH2 0x6F JUMPI DUP1 PUSH4 0xAF3B19E5 EQ PUSH2 0x321 JUMPI DUP1 PUSH4 0xB1CB0DB3 EQ PUSH2 0x329 JUMPI DUP1 PUSH4 0xCC5BE574 EQ PUSH2 0x33F JUMPI DUP1 PUSH4 0xD5252DCF EQ PUSH2 0x354 JUMPI DUP1 PUSH4 0xF0DE67AC EQ PUSH2 0x374 JUMPI DUP1 PUSH4 0xF32370E7 EQ PUSH2 0x389 JUMPI PUSH1 0x0 DUP1 REVERT JUMPDEST DUP1 PUSH4 0x6A2E23F5 EQ PUSH2 0x291 JUMPI DUP1 PUSH4 0x6A76AE98 EQ PUSH2 0x2A6 JUMPI DUP1 PUSH4 0x9B221C7D EQ PUSH2 0x2C8 JUMPI DUP1 PUSH4 0x9D9E27D9 EQ PUSH2 0x2EC JUMPI DUP1 PUSH4 0xADD08A8E EQ PUSH2 0x301 JUMPI PUSH1 0x0 DUP1 REVERT JUMPDEST DUP1 PUSH4 0x2D237D21 GT PUSH2 0xFD JUMPI DUP1 PUSH4 0x2D237D21 EQ PUSH2 0x1E5 JUMPI DUP1 PUSH4 0x3283F641 EQ PUSH2 0x205 JUMPI DUP1 PUSH4 0x4051DDAC EQ PUSH2 0x21A JUMPI DUP1 PUSH4 0x4BDE38C8 EQ PUSH2 0x247 JUMPI DUP1 PUSH4 0x516F279E EQ PUSH2 0x267 JUMPI DUP1 PUSH4 0x610BE654 EQ PUSH2 0x27C JUMPI PUSH1 0x0 DUP1 REVERT JUMPDEST DUP1 PUSH4 0x10EC441 EQ PUSH2 0x13A JUMPI DUP1 PUSH4 0x16FB96AD EQ PUSH2 0x177 JUMPI DUP1 PUSH4 0x200D2ED2 EQ PUSH2 0x18E JUMPI DUP1 PUSH4 0x2804B2C0 EQ PUSH2 0x1B0 JUMPI DUP1 PUSH4 0x295F1B4D EQ PUSH2 0x1D0 JUMPI JUMPDEST PUSH1 0x0 DUP1 REVERT JUMPDEST CALLVALUE DUP1 ISZERO PUSH2 0x146 JUMPI PUSH1 0x0 DUP1 REVERT JUMPDEST POP PUSH1 0x2 SLOAD PUSH2 0x15A SWAP1 PUSH1 0x1 PUSH1 0x1 PUSH1 0xA0 SHL SUB AND DUP2 JUMP JUMPDEST PUSH1 0x40 MLOAD PUSH1 0x1 PUSH1 0x1 PUSH1 0xA0 SHL SUB SWAP1 SWAP2 AND DUP2 MSTORE PUSH1 0x20 ADD JUMPDEST PUSH1 0x40 MLOAD DUP1 SWAP2 SUB SWAP1 RETURN JUMPDEST CALLVALUE DUP1 ISZERO PUSH2 0x183 JUMPI PUSH1 0x0 DUP1 REVERT JUMPDEST POP PUSH2 0x18C PUSH2 0x391 JUMP JUMPDEST STOP JUMPDEST CALLVALUE DUP1 ISZERO PUSH2 0x19A JUMPI PUSH1 0x0 DUP1 REVERT JUMPDEST POP PUSH2 0x1A3 PUSH2 0x457 JUMP JUMPDEST PUSH1 0x40 MLOAD PUSH2 0x16E SWAP2 SWAP1 PUSH2 0x11B5 JUMP JUMPDEST CALLVALUE DUP1 ISZERO PUSH2 0x1BC JUMPI PUSH1 0x0 DUP1 REVERT JUMPDEST POP PUSH1 0x0 SLOAD PUSH2 0x15A SWAP1 PUSH1 0x1 PUSH1 0x1 PUSH1 0xA0 SHL SUB AND DUP2 JUMP JUMPDEST CALLVALUE DUP1 ISZERO PUSH2 0x1DC JUMPI PUSH1 0x0 DUP1 REVERT JUMPDEST POP PUSH2 0x18C PUSH2 0x4E5 JUMP JUMPDEST CALLVALUE DUP1 ISZERO PUSH2 0x1F1 JUMPI PUSH1 0x0 DUP1 REVERT JUMPDEST POP PUSH2 0x1A3 PUSH2 0x200 CALLDATASIZE PUSH1 0x4 PUSH2 0x11CF JUMP JUMPDEST PUSH2 0x5E5 JUMP JUMPDEST CALLVALUE DUP1 ISZERO PUSH2 0x211 JUMPI PUSH1 0x0 DUP1 REVERT JUMPDEST POP PUSH2 0x1A3 PUSH2 0x610 JUMP JUMPDEST CALLVALUE DUP1 ISZERO PUSH2 0x226 JUMPI PUSH1 0x0 DUP1 REVERT JUMPDEST POP PUSH2 0x22F PUSH2 0x61D JUMP JUMPDEST PUSH1 0x40 MLOAD PUSH2 0x16E SWAP13 SWAP12 SWAP11 SWAP10 SWAP9 SWAP8 SWAP7 SWAP6 SWAP5 SWAP4 SWAP3 SWAP2 SWAP1 PUSH2 0x1240 JUMP JUMPDEST CALLVALUE DUP1 ISZERO PUSH2 0x253 JUMPI PUSH1 0x0 DUP1 REVERT JUMPDEST POP PUSH1 0x1 SLOAD PUSH2 0x15A SWAP1 PUSH1 0x1 PUSH1 0x1 PUSH1 0xA0 SHL SUB AND DUP2 JUMP JUMPDEST CALLVALUE DUP1 ISZERO PUSH2 0x273 JUMPI PUSH1 0x0 DUP1 REVERT JUMPDEST POP PUSH2 0x1A3 PUSH2 0xAB4 JUMP JUMPDEST CALLVALUE DUP1 ISZERO PUSH2 0x288 JUMPI PUSH1 0x0 DUP1 REVERT JUMPDEST POP PUSH2 0x18C PUSH2 0xAC1 JUMP JUMPDEST CALLVALUE DUP1 ISZERO PUSH2 0x29D JUMPI PUSH1 0x0 DUP1 REVERT JUMPDEST POP PUSH2 0x18C PUSH2 0xB91 JUMP JUMPDEST CALLVALUE DUP1 ISZERO PUSH2 0x2B2 JUMPI PUSH1 0x0 DUP1 REVERT JUMPDEST POP PUSH2 0x2BB PUSH2 0xCDA JUMP JUMPDEST PUSH1 0x40 MLOAD PUSH2 0x16E SWAP2 SWAP1 PUSH2 0x1312 JUMP JUMPDEST CALLVALUE DUP1 ISZERO PUSH2 0x2D4 JUMPI PUSH1 0x0 DUP1 REVERT JUMPDEST POP PUSH2 0x2DE PUSH1 0x7 SLOAD DUP2 JUMP JUMPDEST PUSH1 0x40 MLOAD SWAP1 DUP2 MSTORE PUSH1 0x20 ADD PUSH2 0x16E JUMP JUMPDEST CALLVALUE DUP1 ISZERO PUSH2 0x2F8 JUMPI PUSH1 0x0 DUP1 REVERT JUMPDEST POP PUSH2 0x1A3 PUSH2 0xDB3 JUMP JUMPDEST CALLVALUE DUP1 ISZERO PUSH2 0x30D JUMPI PUSH1 0x0 DUP1 REVERT JUMPDEST POP PUSH2 0x18C PUSH2 0x31C CALLDATASIZE PUSH1 0x4 PUSH2 0x136C JUMP JUMPDEST PUSH2 0xDC0 JUMP JUMPDEST PUSH2 0x18C PUSH2 0xE85 JUMP JUMPDEST CALLVALUE DUP1 ISZERO PUSH2 0x335 JUMPI PUSH1 0x0 DUP1 REVERT JUMPDEST POP PUSH2 0x2DE PUSH1 0x5 SLOAD DUP2 JUMP JUMPDEST CALLVALUE DUP1 ISZERO PUSH2 0x34B JUMPI PUSH1 0x0 DUP1 REVERT JUMPDEST POP PUSH2 0x1A3 PUSH2 0xF7C JUMP JUMPDEST CALLVALUE DUP1 ISZERO PUSH2 0x360 JUMPI PUSH1 0x0 DUP1 REVERT JUMPDEST POP PUSH2 0x18C PUSH2 0x36F CALLDATASIZE PUSH1 0x4 PUSH2 0x11CF JUMP JUMPDEST PUSH2 0xF89 JUMP JUMPDEST CALLVALUE DUP1 ISZERO PUSH2 0x380 JUMPI PUSH1 0x0 DUP1 REVERT JUMPDEST POP PUSH2 0x1A3 PUSH2 0xFF2 JUMP JUMPDEST PUSH2 0x18C PUSH2 0xFFF JUMP JUMPDEST PUSH1 0x1 SLOAD PUSH1 0x1 PUSH1 0x1 PUSH1 0xA0 SHL SUB AND CALLER EQ PUSH2 0x3A8 JUMPI PUSH1 0x0 DUP1 REVERT JUMPDEST PUSH1 0x40 DUP1 MLOAD DUP1 DUP3 ADD SWAP1 SWAP2 MSTORE PUSH1 0x6 DUP1 DUP3 MSTORE PUSH6 0x18DB1BDCD959 PUSH1 0xD2 SHL PUSH1 0x20 DUP4 ADD MSTORE SWAP1 PUSH2 0x3D1 SWAP1 DUP3 PUSH2 0x150E JUMP JUMPDEST POP PUSH1 0x0 DUP1 SLOAD PUSH1 0x40 MLOAD PUSH1 0x1 PUSH1 0x1 PUSH1 0xA0 SHL SUB SWAP1 SWAP2 AND SWAP2 SELFBALANCE DUP1 ISZERO PUSH2 0x8FC MUL SWAP3 SWAP1 SWAP2 DUP2 DUP2 DUP2 DUP6 DUP9 DUP9 CALL SWAP4 POP POP POP POP ISZERO DUP1 ISZERO PUSH2 0x40C JUMPI RETURNDATASIZE PUSH1 0x0 DUP1 RETURNDATACOPY RETURNDATASIZE PUSH1 0x0 REVERT JUMPDEST POP PUSH1 0x0 SLOAD PUSH1 0x40 MLOAD PUSH32 0x56A5ED96A90E2F144473B2E22DADCF549E1D523C52111768C2D4FEBE4C990594 SWAP2 PUSH2 0x44D SWAP2 ADDRESS SWAP2 PUSH1 0x1 PUSH1 0x1 PUSH1 0xA0 SHL SUB AND SWAP1 PUSH1 0x6 SWAP1 PUSH2 0x15CE JUMP JUMPDEST PUSH1 0x40 MLOAD DUP1 SWAP2 SUB SWAP1 LOG1 JUMP JUMPDEST PUSH1 0x6 DUP1 SLOAD PUSH2 0x464 SWAP1 PUSH2 0x1485 JUMP JUMPDEST DUP1 PUSH1 0x1F ADD PUSH1 0x20 DUP1 SWAP2 DIV MUL PUSH1 0x20 ADD PUSH1 0x40 MLOAD SWAP1 DUP2 ADD PUSH1 0x40 MSTORE DUP1 SWAP3 SWAP2 SWAP1 DUP2 DUP2 MSTORE PUSH1 0x20 ADD DUP3 DUP1 SLOAD PUSH2 0x490 SWAP1 PUSH2 0x1485 JUMP JUMPDEST DUP1 ISZERO PUSH2 0x4DD JUMPI DUP1 PUSH1 0x1F LT PUSH2 0x4B2 JUMPI PUSH2 0x100 DUP1 DUP4 SLOAD DIV MUL DUP4 MSTORE SWAP2 PUSH1 0x20 ADD SWAP2 PUSH2 0x4DD JUMP JUMPDEST DUP3 ADD SWAP2 SWAP1 PUSH1 0x0 MSTORE PUSH1 0x20 PUSH1 0x0 KECCAK256 SWAP1 JUMPDEST DUP2 SLOAD DUP2 MSTORE SWAP1 PUSH1 0x1 ADD SWAP1 PUSH1 0x20 ADD DUP1 DUP4 GT PUSH2 0x4C0 JUMPI DUP3 SWAP1 SUB PUSH1 0x1F AND DUP3 ADD SWAP2 JUMPDEST POP POP POP POP POP DUP2 JUMP JUMPDEST PUSH2 0x599 PUSH1 0x6 DUP1 SLOAD PUSH2 0x4F5 SWAP1 PUSH2 0x1485 JUMP JUMPDEST DUP1 PUSH1 0x1F ADD PUSH1 0x20 DUP1 SWAP2 DIV MUL PUSH1 0x20 ADD PUSH1 0x40 MLOAD SWAP1 DUP2 ADD PUSH1 0x40 MSTORE DUP1 SWAP3 SWAP2 SWAP1 DUP2 DUP2 MSTORE PUSH1 0x20 ADD DUP3 DUP1 SLOAD PUSH2 0x521 SWAP1 PUSH2 0x1485 JUMP JUMPDEST DUP1 ISZERO PUSH2 0x56E JUMPI DUP1 PUSH1 0x1F LT PUSH2 0x543 JUMPI PUSH2 0x100 DUP1 DUP4 SLOAD DIV MUL DUP4 MSTORE SWAP2 PUSH1 0x20 ADD SWAP2 PUSH2 0x56E JUMP JUMPDEST DUP3 ADD SWAP2 SWAP1 PUSH1 0x0 MSTORE PUSH1 0x20 PUSH1 0x0 KECCAK256 SWAP1 JUMPDEST DUP2 SLOAD DUP2 MSTORE SWAP1 PUSH1 0x1 ADD SWAP1 PUSH1 0x20 ADD DUP1 DUP4 GT PUSH2 0x551 JUMPI DUP3 SWAP1 SUB PUSH1 0x1F AND DUP3 ADD SWAP2 JUMPDEST POP POP POP POP POP PUSH1 0x40 MLOAD DUP1 PUSH1 0x40 ADD PUSH1 0x40 MSTORE DUP1 PUSH1 0x8 DUP2 MSTORE PUSH1 0x20 ADD PUSH8 0x1C1C9BDC1BDCD959 PUSH1 0xC2 SHL DUP2 MSTORE POP PUSH2 0x1026 JUMP JUMPDEST PUSH2 0x5A2 JUMPI PUSH1 0x0 DUP1 REVERT JUMPDEST PUSH1 0x0 SLOAD PUSH1 0x1 PUSH1 0x1 PUSH1 0xA0 SHL SUB AND CALLER EQ PUSH2 0x5B9 JUMPI PUSH1 0x0 DUP1 REVERT JUMPDEST PUSH1 0x40 DUP1 MLOAD DUP1 DUP3 ADD SWAP1 SWAP2 MSTORE PUSH1 0x8 DUP2 MSTORE PUSH8 0x191A5CDC1D5D1959 PUSH1 0xC2 SHL PUSH1 0x20 DUP3 ADD MSTORE PUSH1 0x6 SWAP1 PUSH2 0x40C SWAP1 DUP3 PUSH2 0x150E JUMP JUMPDEST PUSH1 0xB DUP2 DUP2 SLOAD DUP2 LT PUSH2 0x5F5 JUMPI PUSH1 0x0 DUP1 REVERT JUMPDEST SWAP1 PUSH1 0x0 MSTORE PUSH1 0x20 PUSH1 0x0 KECCAK256 ADD PUSH1 0x0 SWAP2 POP SWAP1 POP DUP1 SLOAD PUSH2 0x464 SWAP1 PUSH2 0x1485 JUMP JUMPDEST PUSH1 0x3 DUP1 SLOAD PUSH2 0x464 SWAP1 PUSH2 0x1485 JUMP JUMPDEST PUSH1 0x0 DUP1 SLOAD PUSH1 0x2 SLOAD DUP3 SWAP2 DUP3 SWAP2 PUSH1 0x60 SWAP2 DUP3 SWAP2 DUP5 SWAP2 DUP4 SWAP2 DUP4 SWAP2 DUP4 SWAP2 DUP3 SWAP2 DUP3 SWAP2 DUP3 SWAP2 PUSH1 0x1 PUSH1 0x1 PUSH1 0xA0 SHL SUB SWAP1 DUP2 AND SWAP2 AND PUSH1 0x64 PUSH2 0x655 SELFBALANCE PUSH1 0x5F PUSH2 0x1677 JUMP JUMPDEST PUSH2 0x65F SWAP2 SWAP1 PUSH2 0x16A4 JUMP JUMPDEST PUSH1 0x3 PUSH1 0x4 PUSH1 0x5 SLOAD PUSH1 0x6 PUSH1 0x7 SLOAD PUSH1 0x8 PUSH1 0x9 PUSH1 0xA PUSH1 0xB DUP9 DUP1 SLOAD PUSH2 0x67F SWAP1 PUSH2 0x1485 JUMP JUMPDEST DUP1 PUSH1 0x1F ADD PUSH1 0x20 DUP1 SWAP2 DIV MUL PUSH1 0x20 ADD PUSH1 0x40 MLOAD SWAP1 DUP2 ADD PUSH1 0x40 MSTORE DUP1 SWAP3 SWAP2 SWAP1 DUP2 DUP2 MSTORE PUSH1 0x20 ADD DUP3 DUP1 SLOAD PUSH2 0x6AB SWAP1 PUSH2 0x1485 JUMP JUMPDEST DUP1 ISZERO PUSH2 0x6F8 JUMPI DUP1 PUSH1 0x1F LT PUSH2 0x6CD JUMPI PUSH2 0x100 DUP1 DUP4 SLOAD DIV MUL DUP4 MSTORE SWAP2 PUSH1 0x20 ADD SWAP2 PUSH2 0x6F8 JUMP JUMPDEST DUP3 ADD SWAP2 SWAP1 PUSH1 0x0 MSTORE PUSH1 0x20 PUSH1 0x0 KECCAK256 SWAP1 JUMPDEST DUP2 SLOAD DUP2 MSTORE SWAP1 PUSH1 0x1 ADD SWAP1 PUSH1 0x20 ADD DUP1 DUP4 GT PUSH2 0x6DB JUMPI DUP3 SWAP1 SUB PUSH1 0x1F AND DUP3 ADD SWAP2 JUMPDEST POP POP POP POP POP SWAP9 POP DUP8 DUP1 SLOAD PUSH2 0x70B SWAP1 PUSH2 0x1485 JUMP JUMPDEST DUP1 PUSH1 0x1F ADD PUSH1 0x20 DUP1 SWAP2 DIV MUL PUSH1 0x20 ADD PUSH1 0x40 MLOAD SWAP1 DUP2 ADD PUSH1 0x40 MSTORE DUP1 SWAP3 SWAP2 SWAP1 DUP2 DUP2 MSTORE PUSH1 0x20 ADD DUP3 DUP1 SLOAD PUSH2 0x737 SWAP1 PUSH2 0x1485 JUMP JUMPDEST DUP1 ISZERO PUSH2 0x784 JUMPI DUP1 PUSH1 0x1F LT PUSH2 0x759 JUMPI PUSH2 0x100 DUP1 DUP4 SLOAD DIV MUL DUP4 MSTORE SWAP2 PUSH1 0x20 ADD SWAP2 PUSH2 0x784 JUMP JUMPDEST DUP3 ADD SWAP2 SWAP1 PUSH1 0x0 MSTORE PUSH1 0x20 PUSH1 0x0 KECCAK256 SWAP1 JUMPDEST DUP2 SLOAD DUP2 MSTORE SWAP1 PUSH1 0x1 ADD SWAP1 PUSH1 0x20 ADD DUP1 DUP4 GT PUSH2 0x767 JUMPI DUP3 SWAP1 SUB PUSH1 0x1F AND DUP3 ADD SWAP2 JUMPDEST POP POP POP POP POP SWAP8 POP DUP6 DUP1 SLOAD PUSH2 0x797 SWAP1 PUSH2 0x1485 JUMP JUMPDEST DUP1 PUSH1 0x1F ADD PUSH1 0x20 DUP1 SWAP2 DIV MUL PUSH1 0x20 ADD PUSH1 0x40 MLOAD SWAP1 DUP2 ADD PUSH1 0x40 MSTORE DUP1 SWAP3 SWAP2 SWAP1 DUP2 DUP2 MSTORE PUSH1 0x20 ADD DUP3 DUP1 SLOAD PUSH2 0x7C3 SWAP1 PUSH2 0x1485 JUMP JUMPDEST DUP1 ISZERO PUSH2 0x810 JUMPI DUP1 PUSH1 0x1F LT PUSH2 0x7E5 JUMPI PUSH2 0x100 DUP1 DUP4 SLOAD DIV MUL DUP4 MSTORE SWAP2 PUSH1 0x20 ADD SWAP2 PUSH2 0x810 JUMP JUMPDEST DUP3 ADD SWAP2 SWAP1 PUSH1 0x0 MSTORE PUSH1 0x20 PUSH1 0x0 KECCAK256 SWAP1 JUMPDEST DUP2 SLOAD DUP2 MSTORE SWAP1 PUSH1 0x1 ADD SWAP1 PUSH1 0x20 ADD DUP1 DUP4 GT PUSH2 0x7F3 JUMPI DUP3 SWAP1 SUB PUSH1 0x1F AND DUP3 ADD SWAP2 JUMPDEST POP POP POP POP POP SWAP6 POP DUP4 DUP1 SLOAD PUSH2 0x823 SWAP1 PUSH2 0x1485 JUMP JUMPDEST DUP1 PUSH1 0x1F ADD PUSH1 0x20 DUP1 SWAP2 DIV MUL PUSH1 0x20 ADD PUSH1 0x40 MLOAD SWAP1 DUP2 ADD PUSH1 0x40 MSTORE DUP1 SWAP3 SWAP2 SWAP1 DUP2 DUP2 MSTORE PUSH1 0x20 ADD DUP3 DUP1 SLOAD PUSH2 0x84F SWAP1 PUSH2 0x1485 JUMP JUMPDEST DUP1 ISZERO PUSH2 0x89C JUMPI DUP1 PUSH1 0x1F LT PUSH2 0x871 JUMPI PUSH2 0x100 DUP1 DUP4 SLOAD DIV MUL DUP4 MSTORE SWAP2 PUSH1 0x20 ADD SWAP2 PUSH2 0x89C JUMP JUMPDEST DUP3 ADD SWAP2 SWAP1 PUSH1 0x0 MSTORE PUSH1 0x20 PUSH1 0x0 KECCAK256 SWAP1 JUMPDEST DUP2 SLOAD DUP2 MSTORE SWAP1 PUSH1 0x1 ADD SWAP1 PUSH1 0x20 ADD DUP1 DUP4 GT PUSH2 0x87F JUMPI DUP3 SWAP1 SUB PUSH1 0x1F AND DUP3 ADD SWAP2 JUMPDEST POP POP POP POP POP SWAP4 POP DUP3 DUP1 SLOAD PUSH2 0x8AF SWAP1 PUSH2 0x1485 JUMP JUMPDEST DUP1 PUSH1 0x1F ADD PUSH1 0x20 DUP1 SWAP2 DIV MUL PUSH1 0x20 ADD PUSH1 0x40 MLOAD SWAP1 DUP2 ADD PUSH1 0x40 MSTORE DUP1 SWAP3 SWAP2 SWAP1 DUP2 DUP2 MSTORE PUSH1 0x20 ADD DUP3 DUP1 SLOAD PUSH2 0x8DB SWAP1 PUSH2 0x1485 JUMP JUMPDEST DUP1 ISZERO PUSH2 0x928 JUMPI DUP1 PUSH1 0x1F LT PUSH2 0x8FD JUMPI PUSH2 0x100 DUP1 DUP4 SLOAD DIV MUL DUP4 MSTORE SWAP2 PUSH1 0x20 ADD SWAP2 PUSH2 0x928 JUMP JUMPDEST DUP3 ADD SWAP2 SWAP1 PUSH1 0x0 MSTORE PUSH1 0x20 PUSH1 0x0 KECCAK256 SWAP1 JUMPDEST DUP2 SLOAD DUP2 MSTORE SWAP1 PUSH1 0x1 ADD SWAP1 PUSH1 0x20 ADD DUP1 DUP4 GT PUSH2 0x90B JUMPI DUP3 SWAP1 SUB PUSH1 0x1F AND DUP3 ADD SWAP2 JUMPDEST POP POP POP POP POP SWAP3 POP DUP2 DUP1 SLOAD PUSH2 0x93B SWAP1 PUSH2 0x1485 JUMP JUMPDEST DUP1 PUSH1 0x1F ADD PUSH1 0x20 DUP1 SWAP2 DIV MUL PUSH1 0x20 ADD PUSH1 0x40 MLOAD SWAP1 DUP2 ADD PUSH1 0x40 MSTORE DUP1 SWAP3 SWAP2 SWAP1 DUP2 DUP2 MSTORE PUSH1 0x20 ADD DUP3 DUP1 SLOAD PUSH2 0x967 SWAP1 PUSH2 0x1485 JUMP JUMPDEST DUP1 ISZERO PUSH2 0x9B4 JUMPI DUP1 PUSH1 0x1F LT PUSH2 0x989 JUMPI PUSH2 0x100 DUP1 DUP4 SLOAD DIV MUL DUP4 MSTORE SWAP2 PUSH1 0x20 ADD SWAP2 PUSH2 0x9B4 JUMP JUMPDEST DUP3 ADD SWAP2 SWAP1 PUSH1 0x0 MSTORE PUSH1 0x20 PUSH1 0x0 KECCAK256 SWAP1 JUMPDEST DUP2 SLOAD DUP2 MSTORE SWAP1 PUSH1 0x1 ADD SWAP1 PUSH1 0x20 ADD DUP1 DUP4 GT PUSH2 0x997 JUMPI DUP3 SWAP1 SUB PUSH1 0x1F AND DUP3 ADD SWAP2 JUMPDEST POP POP POP POP POP SWAP2 POP DUP1 DUP1 SLOAD DUP1 PUSH1 0x20 MUL PUSH1 0x20 ADD PUSH1 0x40 MLOAD SWAP1 DUP2 ADD PUSH1 0x40 MSTORE DUP1 SWAP3 SWAP2 SWAP1 DUP2 DUP2 MSTORE PUSH1 0x20 ADD PUSH1 0x0 SWAP1 JUMPDEST DUP3 DUP3 LT ISZERO PUSH2 0xA88 JUMPI DUP4 DUP3 SWAP1 PUSH1 0x0 MSTORE PUSH1 0x20 PUSH1 0x0 KECCAK256 ADD DUP1 SLOAD PUSH2 0x9FB SWAP1 PUSH2 0x1485 JUMP JUMPDEST DUP1 PUSH1 0x1F ADD PUSH1 0x20 DUP1 SWAP2 DIV MUL PUSH1 0x20 ADD PUSH1 0x40 MLOAD SWAP1 DUP2 ADD PUSH1 0x40 MSTORE DUP1 SWAP3 SWAP2 SWAP1 DUP2 DUP2 MSTORE PUSH1 0x20 ADD DUP3 DUP1 SLOAD PUSH2 0xA27 SWAP1 PUSH2 0x1485 JUMP JUMPDEST DUP1 ISZERO PUSH2 0xA74 JUMPI DUP1 PUSH1 0x1F LT PUSH2 0xA49 JUMPI PUSH2 0x100 DUP1 DUP4 SLOAD DIV MUL DUP4 MSTORE SWAP2 PUSH1 0x20 ADD SWAP2 PUSH2 0xA74 JUMP JUMPDEST DUP3 ADD SWAP2 SWAP1 PUSH1 0x0 MSTORE PUSH1 0x20 PUSH1 0x0 KECCAK256 SWAP1 JUMPDEST DUP2 SLOAD DUP2 MSTORE SWAP1 PUSH1 0x1 ADD SWAP1 PUSH1 0x20 ADD DUP1 DUP4 GT PUSH2 0xA57 JUMPI DUP3 SWAP1 SUB PUSH1 0x1F AND DUP3 ADD SWAP2 JUMPDEST POP POP POP POP POP DUP2 MSTORE PUSH1 0x20 ADD SWAP1 PUSH1 0x1 ADD SWAP1 PUSH2 0x9DC JUMP JUMPDEST POP POP POP POP SWAP1 POP SWAP12 POP SWAP12 POP SWAP12 POP SWAP12 POP SWAP12 POP SWAP12 POP SWAP12 POP SWAP12 POP SWAP12 POP SWAP12 POP SWAP12 POP SWAP12 POP SWAP1 SWAP2 SWAP3 SWAP4 SWAP5 SWAP6 SWAP7 SWAP8 SWAP9 SWAP10 SWAP11 SWAP12 JUMP JUMPDEST PUSH1 0xA DUP1 SLOAD PUSH2 0x464 SWAP1 PUSH2 0x1485 JUMP JUMPDEST PUSH1 0x0 SLOAD PUSH1 0x1 PUSH1 0x1 PUSH1 0xA0 SHL SUB AND CALLER EQ PUSH2 0xAD8 JUMPI PUSH1 0x0 DUP1 REVERT JUMPDEST PUSH2 0xB88 PUSH1 0x6 DUP1 SLOAD PUSH2 0xAE8 SWAP1 PUSH2 0x1485 JUMP JUMPDEST DUP1 PUSH1 0x1F ADD PUSH1 0x20 DUP1 SWAP2 DIV MUL PUSH1 0x20 ADD PUSH1 0x40 MLOAD SWAP1 DUP2 ADD PUSH1 0x40 MSTORE DUP1 SWAP3 SWAP2 SWAP1 DUP2 DUP2 MSTORE PUSH1 0x20 ADD DUP3 DUP1 SLOAD PUSH2 0xB14 SWAP1 PUSH2 0x1485 JUMP JUMPDEST DUP1 ISZERO PUSH2 0xB61 JUMPI DUP1 PUSH1 0x1F LT PUSH2 0xB36 JUMPI PUSH2 0x100 DUP1 DUP4 SLOAD DIV MUL DUP4 MSTORE SWAP2 PUSH1 0x20 ADD SWAP2 PUSH2 0xB61 JUMP JUMPDEST DUP3 ADD SWAP2 SWAP1 PUSH1 0x0 MSTORE PUSH1 0x20 PUSH1 0x0 KECCAK256 SWAP1 JUMPDEST DUP2 SLOAD DUP2 MSTORE SWAP1 PUSH1 0x1 ADD SWAP1 PUSH1 0x20 ADD DUP1 DUP4 GT PUSH2 0xB44 JUMPI DUP3 SWAP1 SUB PUSH1 0x1F AND DUP3 ADD SWAP2 JUMPDEST POP POP POP POP POP PUSH1 0x40 MLOAD DUP1 PUSH1 0x40 ADD PUSH1 0x40 MSTORE DUP1 PUSH1 0x4 DUP2 MSTORE PUSH1 0x20 ADD PUSH4 0x37B832B7 PUSH1 0xE1 SHL DUP2 MSTORE POP PUSH2 0x1026 JUMP JUMPDEST PUSH2 0x3A8 JUMPI PUSH1 0x0 DUP1 REVERT JUMPDEST PUSH1 0x1 SLOAD PUSH1 0x1 PUSH1 0x1 PUSH1 0xA0 SHL SUB AND CALLER EQ PUSH2 0xBA8 JUMPI PUSH1 0x0 DUP1 REVERT JUMPDEST PUSH2 0xC5C PUSH1 0x6 DUP1 SLOAD PUSH2 0xBB8 SWAP1 PUSH2 0x1485 JUMP JUMPDEST DUP1 PUSH1 0x1F ADD PUSH1 0x20 DUP1 SWAP2 DIV MUL PUSH1 0x20 ADD PUSH1 0x40 MLOAD SWAP1 DUP2 ADD PUSH1 0x40 MSTORE DUP1 SWAP3 SWAP2 SWAP1 DUP2 DUP2 MSTORE PUSH1 0x20 ADD DUP3 DUP1 SLOAD PUSH2 0xBE4 SWAP1 PUSH2 0x1485 JUMP JUMPDEST DUP1 ISZERO PUSH2 0xC31 JUMPI DUP1 PUSH1 0x1F LT PUSH2 0xC06 JUMPI PUSH2 0x100 DUP1 DUP4 SLOAD DIV MUL DUP4 MSTORE SWAP2 PUSH1 0x20 ADD SWAP2 PUSH2 0xC31 JUMP JUMPDEST DUP3 ADD SWAP2 SWAP1 PUSH1 0x0 MSTORE PUSH1 0x20 PUSH1 0x0 KECCAK256 SWAP1 JUMPDEST DUP2 SLOAD DUP2 MSTORE SWAP1 PUSH1 0x1 ADD SWAP1 PUSH1 0x20 ADD DUP1 DUP4 GT PUSH2 0xC14 JUMPI DUP3 SWAP1 SUB PUSH1 0x1F AND DUP3 ADD SWAP2 JUMPDEST POP POP POP POP POP PUSH1 0x40 MLOAD DUP1 PUSH1 0x40 ADD PUSH1 0x40 MSTORE DUP1 PUSH1 0x8 DUP2 MSTORE PUSH1 0x20 ADD PUSH8 0x191A5CDC1D5D1959 PUSH1 0xC2 SHL DUP2 MSTORE POP PUSH2 0x1026 JUMP JUMPDEST PUSH2 0xC65 JUMPI PUSH1 0x0 DUP1 REVERT JUMPDEST PUSH1 0x40 DUP1 MLOAD DUP1 DUP3 ADD SWAP1 SWAP2 MSTORE PUSH1 0x4 DUP2 MSTORE PUSH4 0x37B832B7 PUSH1 0xE1 SHL PUSH1 0x20 DUP3 ADD MSTORE PUSH1 0x6 SWAP1 PUSH2 0xC8D SWAP1 DUP3 PUSH2 0x150E JUMP JUMPDEST POP PUSH2 0xC9A PUSH1 0xB PUSH1 0x0 PUSH2 0x1091 JUMP JUMPDEST PUSH1 0x0 SLOAD PUSH1 0x40 MLOAD PUSH32 0x56A5ED96A90E2F144473B2E22DADCF549E1D523C52111768C2D4FEBE4C990594 SWAP2 PUSH2 0x44D SWAP2 ADDRESS SWAP2 PUSH1 0x1 PUSH1 0x1 PUSH1 0xA0 SHL SUB AND SWAP1 PUSH1 0x6 SWAP1 PUSH2 0x15CE JUMP JUMPDEST PUSH1 0x60 PUSH1 0xB DUP1 SLOAD DUP1 PUSH1 0x20 MUL PUSH1 0x20 ADD PUSH1 0x40 MLOAD SWAP1 DUP2 ADD PUSH1 0x40 MSTORE DUP1 SWAP3 SWAP2 SWAP1 DUP2 DUP2 MSTORE PUSH1 0x20 ADD PUSH1 0x0 SWAP1 JUMPDEST DUP3 DUP3 LT ISZERO PUSH2 0xDAA JUMPI DUP4 DUP3 SWAP1 PUSH1 0x0 MSTORE PUSH1 0x20 PUSH1 0x0 KECCAK256 ADD DUP1 SLOAD PUSH2 0xD1D SWAP1 PUSH2 0x1485 JUMP JUMPDEST DUP1 PUSH1 0x1F ADD PUSH1 0x20 DUP1 SWAP2 DIV MUL PUSH1 0x20 ADD PUSH1 0x40 MLOAD SWAP1 DUP2 ADD PUSH1 0x40 MSTORE DUP1 SWAP3 SWAP2 SWAP1 DUP2 DUP2 MSTORE PUSH1 0x20 ADD DUP3 DUP1 SLOAD PUSH2 0xD49 SWAP1 PUSH2 0x1485 JUMP JUMPDEST DUP1 ISZERO PUSH2 0xD96 JUMPI DUP1 PUSH1 0x1F LT PUSH2 0xD6B JUMPI PUSH2 0x100 DUP1 DUP4 SLOAD DIV MUL DUP4 MSTORE SWAP2 PUSH1 0x20 ADD SWAP2 PUSH2 0xD96 JUMP JUMPDEST DUP3 ADD SWAP2 SWAP1 PUSH1 0x0 MSTORE PUSH1 0x20 PUSH1 0x0 KECCAK256 SWAP1 JUMPDEST DUP2 SLOAD DUP2 MSTORE SWAP1 PUSH1 0x1 ADD SWAP1 PUSH1 0x20 ADD DUP1 DUP4 GT PUSH2 0xD79 JUMPI DUP3 SWAP1 SUB PUSH1 0x1F AND DUP3 ADD SWAP2 JUMPDEST POP POP POP POP POP DUP2 MSTORE PUSH1 0x20 ADD SWAP1 PUSH1 0x1 ADD SWAP1 PUSH2 0xCFE JUMP JUMPDEST POP POP POP POP SWAP1 POP SWAP1 JUMP JUMPDEST PUSH1 0x9 DUP1 SLOAD PUSH2 0x464 SWAP1 PUSH2 0x1485 JUMP JUMPDEST PUSH1 0x5 SLOAD TIMESTAMP LT PUSH2 0xDCE JUMPI PUSH1 0x0 DUP1 REVERT JUMPDEST PUSH2 0xDDE PUSH1 0x6 DUP1 SLOAD PUSH2 0xAE8 SWAP1 PUSH2 0x1485 JUMP JUMPDEST PUSH2 0xDE7 JUMPI PUSH1 0x0 DUP1 REVERT JUMPDEST PUSH1 0x2 DUP1 SLOAD PUSH1 0x1 PUSH1 0x1 PUSH1 0xA0 SHL SUB NOT AND CALLER OR SWAP1 SSTORE DUP1 MLOAD PUSH2 0xE0C SWAP1 PUSH1 0xB SWAP1 PUSH1 0x20 DUP5 ADD SWAP1 PUSH2 0x10B2 JUMP JUMPDEST POP PUSH1 0x40 DUP1 MLOAD DUP1 DUP3 ADD SWAP1 SWAP2 MSTORE PUSH1 0x8 DUP2 MSTORE PUSH8 0x1C1C9BDC1BDCD959 PUSH1 0xC2 SHL PUSH1 0x20 DUP3 ADD MSTORE PUSH1 0x6 SWAP1 PUSH2 0xE39 SWAP1 DUP3 PUSH2 0x150E JUMP JUMPDEST POP PUSH1 0x0 SLOAD PUSH1 0x40 MLOAD PUSH32 0x56A5ED96A90E2F144473B2E22DADCF549E1D523C52111768C2D4FEBE4C990594 SWAP2 PUSH2 0xE7A SWAP2 ADDRESS SWAP2 PUSH1 0x1 PUSH1 0x1 PUSH1 0xA0 SHL SUB AND SWAP1 PUSH1 0x6 SWAP1 PUSH2 0x15CE JUMP JUMPDEST PUSH1 0x40 MLOAD DUP1 SWAP2 SUB SWAP1 LOG1 POP JUMP JUMPDEST PUSH1 0x0 SLOAD PUSH1 0x1 PUSH1 0x1 PUSH1 0xA0 SHL SUB AND CALLER EQ PUSH2 0xE9C JUMPI PUSH1 0x0 DUP1 REVERT JUMPDEST PUSH2 0xEAC PUSH1 0x6 DUP1 SLOAD PUSH2 0x4F5 SWAP1 PUSH2 0x1485 JUMP JUMPDEST PUSH2 0xEB5 JUMPI PUSH1 0x0 DUP1 REVERT JUMPDEST PUSH1 0x40 DUP1 MLOAD DUP1 DUP3 ADD SWAP1 SWAP2 MSTORE PUSH1 0x6 DUP1 DUP3 MSTORE PUSH6 0x18DB1BDCD959 PUSH1 0xD2 SHL PUSH1 0x20 DUP4 ADD MSTORE SWAP1 PUSH2 0xEDE SWAP1 DUP3 PUSH2 0x150E JUMP JUMPDEST POP PUSH1 0x2 SLOAD PUSH1 0x1 PUSH1 0x1 PUSH1 0xA0 SHL SUB AND PUSH2 0x8FC PUSH1 0x64 PUSH2 0xEFB SELFBALANCE PUSH1 0x5F PUSH2 0x1677 JUMP JUMPDEST PUSH2 0xF05 SWAP2 SWAP1 PUSH2 0x16A4 JUMP JUMPDEST PUSH1 0x40 MLOAD DUP2 ISZERO SWAP1 SWAP3 MUL SWAP2 PUSH1 0x0 DUP2 DUP2 DUP2 DUP6 DUP9 DUP9 CALL SWAP4 POP POP POP POP ISZERO DUP1 ISZERO PUSH2 0xF2D JUMPI RETURNDATASIZE PUSH1 0x0 DUP1 RETURNDATACOPY RETURNDATASIZE PUSH1 0x0 REVERT JUMPDEST POP PUSH1 0x1 SLOAD PUSH1 0x1 PUSH1 0x1 PUSH1 0xA0 SHL SUB AND PUSH2 0x8FC PUSH1 0x64 PUSH2 0xF4A SELFBALANCE PUSH1 0x5 PUSH2 0x1677 JUMP JUMPDEST PUSH2 0xF54 SWAP2 SWAP1 PUSH2 0x16A4 JUMP JUMPDEST PUSH1 0x40 MLOAD DUP2 ISZERO SWAP1 SWAP3 MUL SWAP2 PUSH1 0x0 DUP2 DUP2 DUP2 DUP6 DUP9 DUP9 CALL SWAP4 POP POP POP POP ISZERO DUP1 ISZERO PUSH2 0x40C JUMPI RETURNDATASIZE PUSH1 0x0 DUP1 RETURNDATACOPY RETURNDATASIZE PUSH1 0x0 REVERT JUMPDEST PUSH1 0x8 DUP1 SLOAD PUSH2 0x464 SWAP1 PUSH2 0x1485 JUMP JUMPDEST PUSH1 0x0 SLOAD PUSH1 0x1 PUSH1 0x1 PUSH1 0xA0 SHL SUB AND CALLER EQ PUSH2 0xFA0 JUMPI PUSH1 0x0 DUP1 REVERT JUMPDEST PUSH2 0xFB0 PUSH1 0x6 DUP1 SLOAD PUSH2 0xAE8 SWAP1 PUSH2 0x1485 JUMP JUMPDEST PUSH2 0xFB9 JUMPI PUSH1 0x0 DUP1 REVERT JUMPDEST DUP1 TIMESTAMP LT PUSH2 0xFC5 JUMPI PUSH1 0x0 DUP1 REVERT JUMPDEST PUSH1 0x5 DUP2 SWAP1 SSTORE PUSH1 0x40 DUP1 MLOAD DUP1 DUP3 ADD SWAP1 SWAP2 MSTORE PUSH1 0x4 DUP2 MSTORE PUSH4 0x37B832B7 PUSH1 0xE1 SHL PUSH1 0x20 DUP3 ADD MSTORE PUSH1 0x6 SWAP1 PUSH2 0xE39 SWAP1 DUP3 PUSH2 0x150E JUMP JUMPDEST PUSH1 0x4 DUP1 SLOAD PUSH2 0x464 SWAP1 PUSH2 0x1485 JUMP JUMPDEST PUSH1 0x1 SLOAD PUSH1 0x1 PUSH1 0x1 PUSH1 0xA0 SHL SUB AND CALLER EQ PUSH2 0x1016 JUMPI PUSH1 0x0 DUP1 REVERT JUMPDEST PUSH2 0xEAC PUSH1 0x6 DUP1 SLOAD PUSH2 0xBB8 SWAP1 PUSH2 0x1485 JUMP JUMPDEST PUSH1 0x0 DUP2 MLOAD DUP4 MLOAD EQ PUSH2 0x1039 JUMPI POP PUSH1 0x0 PUSH2 0x108B JUMP JUMPDEST DUP2 PUSH1 0x40 MLOAD PUSH1 0x20 ADD PUSH2 0x104A SWAP2 SWAP1 PUSH2 0x11B5 JUMP JUMPDEST PUSH1 0x40 MLOAD PUSH1 0x20 DUP2 DUP4 SUB SUB DUP2 MSTORE SWAP1 PUSH1 0x40 MSTORE DUP1 MLOAD SWAP1 PUSH1 0x20 ADD KECCAK256 DUP4 PUSH1 0x40 MLOAD PUSH1 0x20 ADD PUSH2 0x1071 SWAP2 SWAP1 PUSH2 0x11B5 JUMP JUMPDEST PUSH1 0x40 MLOAD PUSH1 0x20 DUP2 DUP4 SUB SUB DUP2 MSTORE SWAP1 PUSH1 0x40 MSTORE DUP1 MLOAD SWAP1 PUSH1 0x20 ADD KECCAK256 EQ SWAP1 POP JUMPDEST SWAP3 SWAP2 POP POP JUMP JUMPDEST POP DUP1 SLOAD PUSH1 0x0 DUP3 SSTORE SWAP1 PUSH1 0x0 MSTORE PUSH1 0x20 PUSH1 0x0 KECCAK256 SWAP1 DUP2 ADD SWAP1 PUSH2 0x10AF SWAP2 SWAP1 PUSH2 0x1108 JUMP JUMPDEST POP JUMP JUMPDEST DUP3 DUP1 SLOAD DUP3 DUP3 SSTORE SWAP1 PUSH1 0x0 MSTORE PUSH1 0x20 PUSH1 0x0 KECCAK256 SWAP1 DUP2 ADD SWAP3 DUP3 ISZERO PUSH2 0x10F8 JUMPI SWAP2 PUSH1 0x20 MUL DUP3 ADD JUMPDEST DUP3 DUP2 GT ISZERO PUSH2 0x10F8 JUMPI DUP3 MLOAD DUP3 SWAP1 PUSH2 0x10E8 SWAP1 DUP3 PUSH2 0x150E JUMP JUMPDEST POP SWAP2 PUSH1 0x20 ADD SWAP2 SWAP1 PUSH1 0x1 ADD SWAP1 PUSH2 0x10D2 JUMP JUMPDEST POP PUSH2 0x1104 SWAP3 SWAP2 POP PUSH2 0x1108 JUMP JUMPDEST POP SWAP1 JUMP JUMPDEST DUP1 DUP3 GT ISZERO PUSH2 0x1104 JUMPI PUSH1 0x0 PUSH2 0x111C DUP3 DUP3 PUSH2 0x1125 JUMP JUMPDEST POP PUSH1 0x1 ADD PUSH2 0x1108 JUMP JUMPDEST POP DUP1 SLOAD PUSH2 0x1131 SWAP1 PUSH2 0x1485 JUMP JUMPDEST PUSH1 0x0 DUP3 SSTORE DUP1 PUSH1 0x1F LT PUSH2 0x1141 JUMPI POP POP JUMP JUMPDEST PUSH1 0x1F ADD PUSH1 0x20 SWAP1 DIV SWAP1 PUSH1 0x0 MSTORE PUSH1 0x20 PUSH1 0x0 KECCAK256 SWAP1 DUP2 ADD SWAP1 PUSH2 0x10AF SWAP2 SWAP1 JUMPDEST DUP1 DUP3 GT ISZERO PUSH2 0x1104 JUMPI PUSH1 0x0 DUP2 SSTORE PUSH1 0x1 ADD PUSH2 0x115B JUMP JUMPDEST PUSH1 0x0 DUP2 MLOAD DUP1 DUP5 MSTORE PUSH1 0x0 JUMPDEST DUP2 DUP2 LT ISZERO PUSH2 0x1195 JUMPI PUSH1 0x20 DUP2 DUP6 ADD DUP2 ADD MLOAD DUP7 DUP4 ADD DUP3 ADD MSTORE ADD PUSH2 0x1179 JUMP JUMPDEST POP PUSH1 0x0 PUSH1 0x20 DUP3 DUP7 ADD ADD MSTORE PUSH1 0x20 PUSH1 0x1F NOT PUSH1 0x1F DUP4 ADD AND DUP6 ADD ADD SWAP2 POP POP SWAP3 SWAP2 POP POP JUMP JUMPDEST PUSH1 0x20 DUP2 MSTORE PUSH1 0x0 PUSH2 0x11C8 PUSH1 0x20 DUP4 ADD DUP5 PUSH2 0x116F JUMP JUMPDEST SWAP4 SWAP3 POP POP POP JUMP JUMPDEST PUSH1 0x0 PUSH1 0x20 DUP3 DUP5 SUB SLT ISZERO PUSH2 0x11E1 JUMPI PUSH1 0x0 DUP1 REVERT JUMPDEST POP CALLDATALOAD SWAP2 SWAP1 POP JUMP JUMPDEST PUSH1 0x0 DUP3 DUP3 MLOAD DUP1 DUP6 MSTORE PUSH1 0x20 DUP1 DUP7 ADD SWAP6 POP DUP1 DUP3 PUSH1 0x5 SHL DUP5 ADD ADD DUP2 DUP7 ADD PUSH1 0x0 JUMPDEST DUP5 DUP2 LT ISZERO PUSH2 0x1233 JUMPI PUSH1 0x1F NOT DUP7 DUP5 SUB ADD DUP10 MSTORE PUSH2 0x1221 DUP4 DUP4 MLOAD PUSH2 0x116F JUMP JUMPDEST SWAP9 DUP5 ADD SWAP9 SWAP3 POP SWAP1 DUP4 ADD SWAP1 PUSH1 0x1 ADD PUSH2 0x1205 JUMP JUMPDEST POP SWAP1 SWAP8 SWAP7 POP POP POP POP POP POP POP JUMP JUMPDEST PUSH1 0x1 PUSH1 0x1 PUSH1 0xA0 SHL SUB DUP14 AND DUP2 MSTORE PUSH1 0x1 PUSH1 0x1 PUSH1 0xA0 SHL SUB DUP13 AND PUSH1 0x20 DUP3 ADD MSTORE DUP11 PUSH1 0x40 DUP3 ADD MSTORE PUSH2 0x180 PUSH1 0x60 DUP3 ADD MSTORE PUSH1 0x0 PUSH2 0x1279 PUSH2 0x180 DUP4 ADD DUP13 PUSH2 0x116F JUMP JUMPDEST DUP3 DUP2 SUB PUSH1 0x80 DUP5 ADD MSTORE PUSH2 0x128B DUP2 DUP13 PUSH2 0x116F JUMP JUMPDEST SWAP1 POP DUP10 PUSH1 0xA0 DUP5 ADD MSTORE DUP3 DUP2 SUB PUSH1 0xC0 DUP5 ADD MSTORE PUSH2 0x12A5 DUP2 DUP11 PUSH2 0x116F JUMP JUMPDEST SWAP1 POP DUP8 PUSH1 0xE0 DUP5 ADD MSTORE DUP3 DUP2 SUB PUSH2 0x100 DUP5 ADD MSTORE PUSH2 0x12C0 DUP2 DUP9 PUSH2 0x116F JUMP JUMPDEST SWAP1 POP DUP3 DUP2 SUB PUSH2 0x120 DUP5 ADD MSTORE PUSH2 0x12D5 DUP2 DUP8 PUSH2 0x116F JUMP JUMPDEST SWAP1 POP DUP3 DUP2 SUB PUSH2 0x140 DUP5 ADD MSTORE PUSH2 0x12EA DUP2 DUP7 PUSH2 0x116F JUMP JUMPDEST SWAP1 POP DUP3 DUP2 SUB PUSH2 0x160 DUP5 ADD MSTORE PUSH2 0x12FF DUP2 DUP6 PUSH2 0x11E8 JUMP JUMPDEST SWAP16 SWAP15 POP POP POP POP POP POP POP POP POP POP POP POP POP POP POP JUMP JUMPDEST PUSH1 0x20 DUP2 MSTORE PUSH1 0x0 PUSH2 0x11C8 PUSH1 0x20 DUP4 ADD DUP5 PUSH2 0x11E8 JUMP JUMPDEST PUSH4 0x4E487B71 PUSH1 0xE0 SHL PUSH1 0x0 MSTORE PUSH1 0x41 PUSH1 0x4 MSTORE PUSH1 0x24 PUSH1 0x0 REVERT JUMPDEST PUSH1 0x40 MLOAD PUSH1 0x1F DUP3 ADD PUSH1 0x1F NOT AND DUP2 ADD PUSH8 0xFFFFFFFFFFFFFFFF DUP2 GT DUP3 DUP3 LT OR ISZERO PUSH2 0x1364 JUMPI PUSH2 0x1364 PUSH2 0x1325 JUMP JUMPDEST PUSH1 0x40 MSTORE SWAP2 SWAP1 POP JUMP JUMPDEST PUSH1 0x0 PUSH1 0x20 DUP1 DUP4 DUP6 SUB SLT ISZERO PUSH2 0x137F JUMPI PUSH1 0x0 DUP1 REVERT JUMPDEST DUP3 CALLDATALOAD PUSH8 0xFFFFFFFFFFFFFFFF DUP1 DUP3 GT ISZERO PUSH2 0x1397 JUMPI PUSH1 0x0 DUP1 REVERT JUMPDEST DUP2 DUP6 ADD SWAP2 POP PUSH1 0x1F DUP7 DUP2 DUP5 ADD SLT PUSH2 0x13AC JUMPI PUSH1 0x0 DUP1 REVERT JUMPDEST DUP3 CALLDATALOAD DUP3 DUP2 GT ISZERO PUSH2 0x13BE JUMPI PUSH2 0x13BE PUSH2 0x1325 JUMP JUMPDEST DUP1 PUSH1 0x5 SHL PUSH2 0x13CD DUP7 DUP3 ADD PUSH2 0x133B JUMP JUMPDEST SWAP2 DUP3 MSTORE DUP5 DUP2 ADD DUP7 ADD SWAP2 DUP7 DUP2 ADD SWAP1 DUP11 DUP5 GT ISZERO PUSH2 0x13E7 JUMPI PUSH1 0x0 DUP1 REVERT JUMPDEST DUP8 DUP8 ADD SWAP3 POP JUMPDEST DUP4 DUP4 LT ISZERO PUSH2 0x1477 JUMPI DUP3 CALLDATALOAD DUP7 DUP2 GT ISZERO PUSH2 0x1405 JUMPI PUSH1 0x0 DUP1 DUP2 REVERT JUMPDEST DUP8 ADD PUSH1 0x3F DUP2 ADD DUP13 SGT PUSH2 0x1417 JUMPI PUSH1 0x0 DUP1 DUP2 REVERT JUMPDEST DUP9 DUP2 ADD CALLDATALOAD PUSH1 0x40 DUP9 DUP3 GT ISZERO PUSH2 0x142D JUMPI PUSH2 0x142D PUSH2 0x1325 JUMP JUMPDEST PUSH2 0x143E DUP3 DUP10 ADD PUSH1 0x1F NOT AND DUP13 ADD PUSH2 0x133B JUMP JUMPDEST DUP3 DUP2 MSTORE DUP15 DUP3 DUP5 DUP7 ADD ADD GT ISZERO PUSH2 0x1453 JUMPI PUSH1 0x0 DUP1 DUP2 REVERT JUMPDEST DUP3 DUP3 DUP6 ADD DUP14 DUP4 ADD CALLDATACOPY PUSH1 0x0 SWAP3 DUP2 ADD DUP13 ADD SWAP3 SWAP1 SWAP3 MSTORE POP DUP4 MSTORE POP SWAP2 DUP8 ADD SWAP2 SWAP1 DUP8 ADD SWAP1 PUSH2 0x13ED JUMP JUMPDEST SWAP11 SWAP10 POP POP POP POP POP POP POP POP POP POP JUMP JUMPDEST PUSH1 0x1 DUP2 DUP2 SHR SWAP1 DUP3 AND DUP1 PUSH2 0x1499 JUMPI PUSH1 0x7F DUP3 AND SWAP2 POP JUMPDEST PUSH1 0x20 DUP3 LT DUP2 SUB PUSH2 0x14B9 JUMPI PUSH4 0x4E487B71 PUSH1 0xE0 SHL PUSH1 0x0 MSTORE PUSH1 0x22 PUSH1 0x4 MSTORE PUSH1 0x24 PUSH1 0x0 REVERT JUMPDEST POP SWAP2 SWAP1 POP JUMP JUMPDEST PUSH1 0x1F DUP3 GT ISZERO PUSH2 0x1509 JUMPI PUSH1 0x0 DUP2 DUP2 MSTORE PUSH1 0x20 DUP2 KECCAK256 PUSH1 0x1F DUP6 ADD PUSH1 0x5 SHR DUP2 ADD PUSH1 0x20 DUP7 LT ISZERO PUSH2 0x14E6 JUMPI POP DUP1 JUMPDEST PUSH1 0x1F DUP6 ADD PUSH1 0x5 SHR DUP3 ADD SWAP2 POP JUMPDEST DUP2 DUP2 LT ISZERO PUSH2 0x1505 JUMPI DUP3 DUP2 SSTORE PUSH1 0x1 ADD PUSH2 0x14F2 JUMP JUMPDEST POP POP POP JUMPDEST POP POP POP JUMP JUMPDEST DUP2 MLOAD PUSH8 0xFFFFFFFFFFFFFFFF DUP2 GT ISZERO PUSH2 0x1528 JUMPI PUSH2 0x1528 PUSH2 0x1325 JUMP JUMPDEST PUSH2 0x153C DUP2 PUSH2 0x1536 DUP5 SLOAD PUSH2 0x1485 JUMP JUMPDEST DUP5 PUSH2 0x14BF JUMP JUMPDEST PUSH1 0x20 DUP1 PUSH1 0x1F DUP4 GT PUSH1 0x1 DUP2 EQ PUSH2 0x1571 JUMPI PUSH1 0x0 DUP5 ISZERO PUSH2 0x1559 JUMPI POP DUP6 DUP4 ADD MLOAD JUMPDEST PUSH1 0x0 NOT PUSH1 0x3 DUP7 SWAP1 SHL SHR NOT AND PUSH1 0x1 DUP6 SWAP1 SHL OR DUP6 SSTORE PUSH2 0x1505 JUMP JUMPDEST PUSH1 0x0 DUP6 DUP2 MSTORE PUSH1 0x20 DUP2 KECCAK256 PUSH1 0x1F NOT DUP7 AND SWAP2 JUMPDEST DUP3 DUP2 LT ISZERO PUSH2 0x15A0 JUMPI DUP9 DUP7 ADD MLOAD DUP3 SSTORE SWAP5 DUP5 ADD SWAP5 PUSH1 0x1 SWAP1 SWAP2 ADD SWAP1 DUP5 ADD PUSH2 0x1581 JUMP JUMPDEST POP DUP6 DUP3 LT ISZERO PUSH2 0x15BE JUMPI DUP8 DUP6 ADD MLOAD PUSH1 0x0 NOT PUSH1 0x3 DUP9 SWAP1 SHL PUSH1 0xF8 AND SHR NOT AND DUP2 SSTORE JUMPDEST POP POP POP POP POP PUSH1 0x1 SWAP1 DUP2 SHL ADD SWAP1 SSTORE POP JUMP JUMPDEST PUSH1 0x1 PUSH1 0x1 PUSH1 0xA0 SHL SUB DUP5 DUP2 AND DUP3 MSTORE DUP4 AND PUSH1 0x20 DUP1 DUP4 ADD SWAP2 SWAP1 SWAP2 MSTORE PUSH1 0x60 PUSH1 0x40 DUP4 ADD MSTORE DUP3 SLOAD PUSH1 0x0 SWAP2 DUP3 SWAP2 PUSH2 0x15FD DUP2 PUSH2 0x1485 JUMP JUMPDEST DUP1 PUSH1 0x60 DUP8 ADD MSTORE PUSH1 0x80 PUSH1 0x1 DUP1 DUP5 AND PUSH1 0x0 DUP2 EQ PUSH2 0x161F JUMPI PUSH1 0x1 DUP2 EQ PUSH2 0x1639 JUMPI PUSH2 0x1667 JUMP JUMPDEST PUSH1 0xFF NOT DUP6 AND DUP10 DUP5 ADD MSTORE DUP4 ISZERO ISZERO PUSH1 0x5 SHL DUP10 ADD DUP4 ADD SWAP7 POP PUSH2 0x1667 JUMP JUMPDEST DUP10 PUSH1 0x0 MSTORE DUP6 PUSH1 0x0 KECCAK256 PUSH1 0x0 JUMPDEST DUP6 DUP2 LT ISZERO PUSH2 0x165F JUMPI DUP2 SLOAD DUP12 DUP3 ADD DUP7 ADD MSTORE SWAP1 DUP4 ADD SWAP1 DUP8 ADD PUSH2 0x1644 JUMP JUMPDEST DUP11 ADD DUP5 ADD SWAP8 POP POP JUMPDEST POP SWAP5 SWAP11 SWAP10 POP POP POP POP POP POP POP POP POP POP JUMP JUMPDEST PUSH1 0x0 DUP2 PUSH1 0x0 NOT DIV DUP4 GT DUP3 ISZERO ISZERO AND ISZERO PUSH2 0x169F JUMPI PUSH4 0x4E487B71 PUSH1 0xE0 SHL PUSH1 0x0 MSTORE PUSH1 0x11 PUSH1 0x4 MSTORE PUSH1 0x24 PUSH1 0x0 REVERT JUMPDEST POP MUL SWAP1 JUMP JUMPDEST PUSH1 0x0 DUP3 PUSH2 0x16C1 JUMPI PUSH4 0x4E487B71 PUSH1 0xE0 SHL PUSH1 0x0 MSTORE PUSH1 0x12 PUSH1 0x4 MSTORE PUSH1 0x24 PUSH1 0x0 REVERT JUMPDEST POP DIV SWAP1 JUMP INVALID LOG2 PUSH5 0x6970667358 0x22 SLT KECCAK256 ADD PUSH25 0x34469FB76C417F0A97F9B90E8F3128F15DA10F3FF8F64A5F4 SHL 0xD7 CALLDATACOPY 0x29 DELEGATECALL PUSH5 0x736F6C6343 STOP ADDMOD LT STOP CALLER LOG2 PUSH5 0x6970667358 0x22 SLT KECCAK256 LOG0 SWAP6 SWAP4 PUSH11 0xE3465A7B220B976BC37A92 BLOCKHASH 0x5C MSIZE SWAP4 SWAP11 PUSH17 0x2C28FE309D17FC8D3CD1C864736F6C6343 STOP ADDMOD LT STOP CALLER "},"gasEstimates":{"creation":{"codeDepositCost":"1635800","executionCost":"25926","totalCost":"1661726"},"external":{"_platform()":"2304","createContract(uint256,string,string,uint256,string,string)":"infinite","deployedContracts(uint256)":"4625","getDeployedContracts()":"infinite"}},"methodIdentifiers":{"_platform()":"1adc7d4c","createContract(uint256,string,string,uint256,string,string)":"4387965f","deployedContracts(uint256)":"9ad1ee10","getDeployedContracts()":"aa9a068f"}},"storageLayout":{"storage":[{"astId":9,"contract":"Contract.sol:MediaContractFactory","label":"_platform","offset":0,"slot":"0","type":"t_address"},{"astId":12,"contract":"Contract.sol:MediaContractFactory","label":"deployedContracts","offset":0,"slot":"1","type":"t_array(t_address)dyn_storage"}],"types":{"t_address":{"encoding":"inplace","label":"address","numberOfBytes":"20"},"t_array(t_address)dyn_storage":{"base":"t_address","encoding":"dynamic_array","label":"address[]","numberOfBytes":"32"}}},"userdoc":{"kind":"user","methods":{},"version":1}}